{
  "contractName": "CivilState",
  "abi": [
    {
      "inputs": [],
      "payable": false,
      "stateMutability": "nonpayable",
      "type": "constructor"
    },
    {
      "anonymous": false,
      "inputs": [
        {
          "indexed": false,
          "internalType": "string",
          "name": "memberName",
          "type": "string"
        }
      ],
      "name": "LogEventAddCityHallMember",
      "type": "event"
    },
    {
      "anonymous": false,
      "inputs": [
        {
          "indexed": false,
          "internalType": "string",
          "name": "memberName",
          "type": "string"
        }
      ],
      "name": "LogEventAddHospitalMember",
      "type": "event"
    },
    {
      "anonymous": false,
      "inputs": [
        {
          "indexed": false,
          "internalType": "string",
          "name": "memberName",
          "type": "string"
        }
      ],
      "name": "LogEventAddPrefectureMember",
      "type": "event"
    },
    {
      "anonymous": false,
      "inputs": [
        {
          "indexed": false,
          "internalType": "string",
          "name": "name",
          "type": "string"
        },
        {
          "indexed": false,
          "internalType": "string",
          "name": "lastName",
          "type": "string"
        },
        {
          "indexed": false,
          "internalType": "uint256",
          "name": "birthId",
          "type": "uint256"
        }
      ],
      "name": "LogEventBirthAdded",
      "type": "event"
    },
    {
      "anonymous": false,
      "inputs": [
        {
          "indexed": false,
          "internalType": "string",
          "name": "login",
          "type": "string"
        },
        {
          "indexed": false,
          "internalType": "bytes32",
          "name": "identity_hash",
          "type": "bytes32"
        }
      ],
      "name": "LogEventCertificationGenerated",
      "type": "event"
    },
    {
      "anonymous": false,
      "inputs": [
        {
          "indexed": false,
          "internalType": "string",
          "name": "marriageDate",
          "type": "string"
        },
        {
          "indexed": false,
          "internalType": "uint256",
          "name": "identityId",
          "type": "uint256"
        }
      ],
      "name": "LogEventDeclareMarriage",
      "type": "event"
    },
    {
      "anonymous": false,
      "inputs": [
        {
          "indexed": false,
          "internalType": "uint256",
          "name": "birthId",
          "type": "uint256"
        },
        {
          "indexed": false,
          "internalType": "uint256",
          "name": "identityId",
          "type": "uint256"
        }
      ],
      "name": "LogEventVerifyIdentity",
      "type": "event"
    },
    {
      "constant": true,
      "inputs": [],
      "name": "owner",
      "outputs": [
        {
          "internalType": "address payable",
          "name": "",
          "type": "address"
        }
      ],
      "payable": false,
      "stateMutability": "view",
      "type": "function"
    },
    {
      "constant": true,
      "inputs": [],
      "name": "stopped",
      "outputs": [
        {
          "internalType": "bool",
          "name": "",
          "type": "bool"
        }
      ],
      "payable": false,
      "stateMutability": "view",
      "type": "function"
    },
    {
      "constant": false,
      "inputs": [],
      "name": "stopCivilStateContract",
      "outputs": [],
      "payable": false,
      "stateMutability": "nonpayable",
      "type": "function"
    },
    {
      "constant": false,
      "inputs": [],
      "name": "restartCivilStateContract",
      "outputs": [],
      "payable": false,
      "stateMutability": "nonpayable",
      "type": "function"
    },
    {
      "constant": false,
      "inputs": [],
      "name": "kill",
      "outputs": [],
      "payable": false,
      "stateMutability": "nonpayable",
      "type": "function"
    },
    {
      "constant": true,
      "inputs": [],
      "name": "getBalanceContract",
      "outputs": [
        {
          "internalType": "uint256",
          "name": "",
          "type": "uint256"
        }
      ],
      "payable": false,
      "stateMutability": "view",
      "type": "function"
    },
    {
      "constant": false,
      "inputs": [],
      "name": "withdraw",
      "outputs": [],
      "payable": false,
      "stateMutability": "nonpayable",
      "type": "function"
    },
    {
      "constant": false,
      "inputs": [
        {
          "internalType": "address",
          "name": "_newMember",
          "type": "address"
        },
        {
          "internalType": "string",
          "name": "_memberName",
          "type": "string"
        }
      ],
      "name": "addHospitalMember",
      "outputs": [],
      "payable": false,
      "stateMutability": "nonpayable",
      "type": "function"
    },
    {
      "constant": false,
      "inputs": [
        {
          "internalType": "address",
          "name": "_newMember",
          "type": "address"
        },
        {
          "internalType": "string",
          "name": "_memberName",
          "type": "string"
        }
      ],
      "name": "addPrefectureMember",
      "outputs": [],
      "payable": false,
      "stateMutability": "nonpayable",
      "type": "function"
    },
    {
      "constant": false,
      "inputs": [
        {
          "internalType": "address",
          "name": "_newMember",
          "type": "address"
        },
        {
          "internalType": "string",
          "name": "_memberName",
          "type": "string"
        }
      ],
      "name": "addCityHallMember",
      "outputs": [],
      "payable": false,
      "stateMutability": "nonpayable",
      "type": "function"
    },
    {
      "constant": false,
      "inputs": [
        {
          "internalType": "string",
          "name": "_name",
          "type": "string"
        },
        {
          "internalType": "string",
          "name": "_lastName",
          "type": "string"
        },
        {
          "internalType": "string",
          "name": "_birthDate",
          "type": "string"
        },
        {
          "internalType": "string",
          "name": "_birthCity",
          "type": "string"
        }
      ],
      "name": "addBirth",
      "outputs": [
        {
          "internalType": "uint256",
          "name": "",
          "type": "uint256"
        }
      ],
      "payable": false,
      "stateMutability": "nonpayable",
      "type": "function"
    },
    {
      "constant": true,
      "inputs": [],
      "name": "getBirthId",
      "outputs": [
        {
          "internalType": "uint256",
          "name": "_birthId",
          "type": "uint256"
        },
        {
          "internalType": "string",
          "name": "_name",
          "type": "string"
        },
        {
          "internalType": "string",
          "name": "_lastName",
          "type": "string"
        }
      ],
      "payable": false,
      "stateMutability": "view",
      "type": "function"
    },
    {
      "constant": false,
      "inputs": [
        {
          "internalType": "uint256",
          "name": "birthId",
          "type": "uint256"
        }
      ],
      "name": "verifyIdentity",
      "outputs": [
        {
          "internalType": "uint256",
          "name": "identityId",
          "type": "uint256"
        }
      ],
      "payable": false,
      "stateMutability": "nonpayable",
      "type": "function"
    },
    {
      "constant": true,
      "inputs": [],
      "name": "getIdentityId",
      "outputs": [
        {
          "internalType": "uint256",
          "name": "_identity",
          "type": "uint256"
        },
        {
          "internalType": "string",
          "name": "_name",
          "type": "string"
        },
        {
          "internalType": "string",
          "name": "_lastName",
          "type": "string"
        }
      ],
      "payable": false,
      "stateMutability": "view",
      "type": "function"
    },
    {
      "constant": false,
      "inputs": [
        {
          "internalType": "uint256",
          "name": "identityId",
          "type": "uint256"
        },
        {
          "internalType": "string",
          "name": "_marriageDate",
          "type": "string"
        }
      ],
      "name": "declareMarriage",
      "outputs": [],
      "payable": false,
      "stateMutability": "nonpayable",
      "type": "function"
    },
    {
      "constant": false,
      "inputs": [
        {
          "internalType": "string",
          "name": "_login",
          "type": "string"
        },
        {
          "internalType": "string",
          "name": "_oldPwd",
          "type": "string"
        },
        {
          "internalType": "string",
          "name": "_newPwd",
          "type": "string"
        }
      ],
      "name": "modifyMyPassword",
      "outputs": [],
      "payable": false,
      "stateMutability": "nonpayable",
      "type": "function"
    },
    {
      "constant": false,
      "inputs": [
        {
          "internalType": "string",
          "name": "login",
          "type": "string"
        },
        {
          "internalType": "string",
          "name": "pwd",
          "type": "string"
        }
      ],
      "name": "generateIdCertification",
      "outputs": [
        {
          "internalType": "bytes32",
          "name": "",
          "type": "bytes32"
        }
      ],
      "payable": false,
      "stateMutability": "nonpayable",
      "type": "function"
    },
    {
      "constant": true,
      "inputs": [
        {
          "internalType": "string",
          "name": "_login",
          "type": "string"
        }
      ],
      "name": "getCertification",
      "outputs": [
        {
          "internalType": "bytes32",
          "name": "",
          "type": "bytes32"
        }
      ],
      "payable": false,
      "stateMutability": "view",
      "type": "function"
    },
    {
      "constant": true,
      "inputs": [
        {
          "internalType": "bytes32",
          "name": "id_hash",
          "type": "bytes32"
        }
      ],
      "name": "verifyCertification",
      "outputs": [
        {
          "internalType": "string",
          "name": "_name",
          "type": "string"
        },
        {
          "internalType": "string",
          "name": "_lastName",
          "type": "string"
        },
        {
          "internalType": "string",
          "name": "_birthDate",
          "type": "string"
        },
        {
          "internalType": "string",
          "name": "_birthCity",
          "type": "string"
        },
        {
          "internalType": "string",
          "name": "_maritalStatus",
          "type": "string"
        }
      ],
      "payable": false,
      "stateMutability": "view",
      "type": "function"
    },
    {
      "constant": true,
      "inputs": [
        {
          "internalType": "uint256",
          "name": "birthId",
          "type": "uint256"
        }
      ],
      "name": "readBirth",
      "outputs": [
        {
          "internalType": "string",
          "name": "_name",
          "type": "string"
        },
        {
          "internalType": "string",
          "name": "_lastName",
          "type": "string"
        },
        {
          "internalType": "string",
          "name": "_birthDate",
          "type": "string"
        },
        {
          "internalType": "string",
          "name": "_birthCity",
          "type": "string"
        },
        {
          "internalType": "bool",
          "name": "_isVerified",
          "type": "bool"
        }
      ],
      "payable": false,
      "stateMutability": "view",
      "type": "function"
    },
    {
      "constant": true,
      "inputs": [
        {
          "internalType": "uint256",
          "name": "identityId",
          "type": "uint256"
        }
      ],
      "name": "readIdentity",
      "outputs": [
        {
          "internalType": "string",
          "name": "_name",
          "type": "string"
        },
        {
          "internalType": "string",
          "name": "_lastName",
          "type": "string"
        },
        {
          "internalType": "string",
          "name": "_birthDate",
          "type": "string"
        },
        {
          "internalType": "string",
          "name": "_birthCity",
          "type": "string"
        },
        {
          "internalType": "string",
          "name": "_maritalStatus",
          "type": "string"
        }
      ],
      "payable": false,
      "stateMutability": "view",
      "type": "function"
    },
    {
      "constant": true,
      "inputs": [],
      "name": "getBirthsCount",
      "outputs": [
        {
          "internalType": "uint256",
          "name": "_birthCount",
          "type": "uint256"
        }
      ],
      "payable": false,
      "stateMutability": "view",
      "type": "function"
    },
    {
      "constant": true,
      "inputs": [],
      "name": "getIdentitiesCount",
      "outputs": [
        {
          "internalType": "uint256",
          "name": "_identitiesCount",
          "type": "uint256"
        }
      ],
      "payable": false,
      "stateMutability": "view",
      "type": "function"
    },
    {
      "constant": true,
      "inputs": [],
      "name": "getOwner",
      "outputs": [
        {
          "internalType": "address",
          "name": "_owner",
          "type": "address"
        }
      ],
      "payable": false,
      "stateMutability": "view",
      "type": "function"
    },
    {
      "constant": true,
      "inputs": [],
      "name": "isHospitalMember",
      "outputs": [
        {
          "internalType": "address",
          "name": "",
          "type": "address"
        }
      ],
      "payable": false,
      "stateMutability": "view",
      "type": "function"
    },
    {
      "constant": true,
      "inputs": [],
      "name": "isPrefectureMember",
      "outputs": [
        {
          "internalType": "address",
          "name": "",
          "type": "address"
        }
      ],
      "payable": false,
      "stateMutability": "view",
      "type": "function"
    },
    {
      "constant": true,
      "inputs": [],
      "name": "isCityHallMember",
      "outputs": [
        {
          "internalType": "address",
          "name": "",
          "type": "address"
        }
      ],
      "payable": false,
      "stateMutability": "view",
      "type": "function"
    }
  ],
  "bytecode": "0x608060405260008060006101000a81548160ff0219169083151502179055506000600555600060075534801561003457600080fd5b5033600060016101000a81548173ffffffffffffffffffffffffffffffffffffffff021916908373ffffffffffffffffffffffffffffffffffffffff160217905550615142806100856000396000f3fe608060405234801561001057600080fd5b50600436106101a95760003560e01c80637006045c116100f9578063aac4b06211610097578063d0bbc1ac11610071578063d0bbc1ac14611110578063dea0e3f714611367578063df1891811461145d578063eaab88d314611538576101a9565b8063aac4b06214610c44578063babb55c514610e3a578063c728da9614610e7c576101a9565b8063893d20e8116100d3578063893d20e8146109bd5780638da5cb5b14610a075780639097a63214610a51578063996f932b14610c3a576101a9565b80637006045c146107e057806375f12b21146108d657806384a3409d146108f8576101a9565b806341c0e1b51161016657806353fb3c241161014057806353fb3c2414610653578063553639091461069d57806357959edc146106e757806366bd78fd146107c2576101a9565b806341c0e1b51461055c57806341d204ad146105665780634f7b3c7d14610584576101a9565b806321e15d54146101ae5780632da2a89814610289578063325609a6146102d3578063398dbab0146102dd5780633ccfd60b146102fb5780633de79ac914610305575b600080fd5b610287600480360360408110156101c457600080fd5b81019080803573ffffffffffffffffffffffffffffffffffffffff1690602001909291908035906020019064010000000081111561020157600080fd5b82018360208201111561021357600080fd5b8035906020019184600183028401116401000000008311171561023557600080fd5b91908080601f016020809104026020016040519081016040528093929190818152602001838380828437600081840152601f19601f82011690508083019250505050505050919291929050505061169e565b005b610291611a85565b604051808273ffffffffffffffffffffffffffffffffffffffff1673ffffffffffffffffffffffffffffffffffffffff16815260200191505060405180910390f35b6102db611afb565b005b6102e5611b71565b6040518082815260200191505060405180910390f35b610303611b7b565b005b6103316004803603602081101561031b57600080fd5b8101908080359060200190929190505050611bfe565b60405180806020018060200180602001806020018060200186810386528b818151815260200191508051906020019080838360005b83811015610381578082015181840152602081019050610366565b50505050905090810190601f1680156103ae5780820380516001836020036101000a031916815260200191505b5086810385528a818151815260200191508051906020019080838360005b838110156103e75780820151818401526020810190506103cc565b50505050905090810190601f1680156104145780820380516001836020036101000a031916815260200191505b50868103845289818151815260200191508051906020019080838360005b8381101561044d578082015181840152602081019050610432565b50505050905090810190601f16801561047a5780820380516001836020036101000a031916815260200191505b50868103835288818151815260200191508051906020019080838360005b838110156104b3578082015181840152602081019050610498565b50505050905090810190601f1680156104e05780820380516001836020036101000a031916815260200191505b50868103825287818151815260200191508051906020019080838360005b838110156105195780820151818401526020810190506104fe565b50505050905090810190601f1680156105465780820380516001836020036101000a031916815260200191505b509a505050505050505050505060405180910390f35b610564611fbb565b005b61056e612050565b6040518082815260200191505060405180910390f35b61063d6004803603602081101561059a57600080fd5b81019080803590602001906401000000008111156105b757600080fd5b8201836020820111156105c957600080fd5b803590602001918460018302840111640100000000831117156105eb57600080fd5b91908080601f016020809104026020016040519081016040528093929190818152602001838380828437600081840152601f19601f82011690508083019250505050505050919291929050505061205a565b6040518082815260200191505060405180910390f35b61065b6120d0565b604051808273ffffffffffffffffffffffffffffffffffffffff1673ffffffffffffffffffffffffffffffffffffffff16815260200191505060405180910390f35b6106a5612146565b604051808273ffffffffffffffffffffffffffffffffffffffff1673ffffffffffffffffffffffffffffffffffffffff16815260200191505060405180910390f35b6107c0600480360360408110156106fd57600080fd5b81019080803573ffffffffffffffffffffffffffffffffffffffff1690602001909291908035906020019064010000000081111561073a57600080fd5b82018360208201111561074c57600080fd5b8035906020019184600183028401116401000000008311171561076e57600080fd5b91908080601f016020809104026020016040519081016040528093929190818152602001838380828437600081840152601f19601f8201169050808301925050505050505091929192905050506121bc565b005b6107ca6125a3565b6040518082815260200191505060405180910390f35b6107e8612605565b604051808481526020018060200180602001838103835285818151815260200191508051906020019080838360005b83811015610832578082015181840152602081019050610817565b50505050905090810190601f16801561085f5780820380516001836020036101000a031916815260200191505b50838103825284818151815260200191508051906020019080838360005b8381101561089857808201518184015260208101905061087d565b50505050905090810190601f1680156108c55780820380516001836020036101000a031916815260200191505b509550505050505060405180910390f35b6108de6127a5565b604051808215151515815260200191505060405180910390f35b6109bb6004803603604081101561090e57600080fd5b81019080803590602001909291908035906020019064010000000081111561093557600080fd5b82018360208201111561094757600080fd5b8035906020019184600183028401116401000000008311171561096957600080fd5b91908080601f016020809104026020016040519081016040528093929190818152602001838380828437600081840152601f19601f8201169050808301925050505050505091929192905050506127b7565b005b6109c561299d565b604051808273ffffffffffffffffffffffffffffffffffffffff1673ffffffffffffffffffffffffffffffffffffffff16815260200191505060405180910390f35b610a0f6129c6565b604051808273ffffffffffffffffffffffffffffffffffffffff1673ffffffffffffffffffffffffffffffffffffffff16815260200191505060405180910390f35b610c3860048036036060811015610a6757600080fd5b8101908080359060200190640100000000811115610a8457600080fd5b820183602082011115610a9657600080fd5b80359060200191846001830284011164010000000083111715610ab857600080fd5b91908080601f016020809104026020016040519081016040528093929190818152602001838380828437600081840152601f19601f82011690508083019250505050505050919291929080359060200190640100000000811115610b1b57600080fd5b820183602082011115610b2d57600080fd5b80359060200191846001830284011164010000000083111715610b4f57600080fd5b91908080601f016020809104026020016040519081016040528093929190818152602001838380828437600081840152601f19601f82011690508083019250505050505050919291929080359060200190640100000000811115610bb257600080fd5b820183602082011115610bc457600080fd5b80359060200191846001830284011164010000000083111715610be657600080fd5b91908080601f016020809104026020016040519081016040528093929190818152602001838380828437600081840152601f19601f8201169050808301925050505050505091929192905050506129ec565b005b610c42612aee565b005b610c7060048036036020811015610c5a57600080fd5b8101908080359060200190929190505050612b64565b60405180806020018060200180602001806020018615151515815260200185810385528a818151815260200191508051906020019080838360005b83811015610cc6578082015181840152602081019050610cab565b50505050905090810190601f168015610cf35780820380516001836020036101000a031916815260200191505b50858103845289818151815260200191508051906020019080838360005b83811015610d2c578082015181840152602081019050610d11565b50505050905090810190601f168015610d595780820380516001836020036101000a031916815260200191505b50858103835288818151815260200191508051906020019080838360005b83811015610d92578082015181840152602081019050610d77565b50505050905090810190601f168015610dbf5780820380516001836020036101000a031916815260200191505b50858103825287818151815260200191508051906020019080838360005b83811015610df8578082015181840152602081019050610ddd565b50505050905090810190601f168015610e255780820380516001836020036101000a031916815260200191505b50995050505050505050505060405180910390f35b610e6660048036036020811015610e5057600080fd5b8101908080359060200190929190505050612e6b565b6040518082815260200191505060405180910390f35b6110fa60048036036080811015610e9257600080fd5b8101908080359060200190640100000000811115610eaf57600080fd5b820183602082011115610ec157600080fd5b80359060200191846001830284011164010000000083111715610ee357600080fd5b91908080601f016020809104026020016040519081016040528093929190818152602001838380828437600081840152601f19601f82011690508083019250505050505050919291929080359060200190640100000000811115610f4657600080fd5b820183602082011115610f5857600080fd5b80359060200191846001830284011164010000000083111715610f7a57600080fd5b91908080601f016020809104026020016040519081016040528093929190818152602001838380828437600081840152601f19601f82011690508083019250505050505050919291929080359060200190640100000000811115610fdd57600080fd5b820183602082011115610fef57600080fd5b8035906020019184600183028401116401000000008311171561101157600080fd5b91908080601f016020809104026020016040519081016040528093929190818152602001838380828437600081840152601f19601f8201169050808301925050505050505091929192908035906020019064010000000081111561107457600080fd5b82018360208201111561108657600080fd5b803590602001918460018302840111640100000000831117156110a857600080fd5b91908080601f016020809104026020016040519081016040528093929190818152602001838380828437600081840152601f19601f820116905080830192505050505050509192919290505050613c41565b6040518082815260200191505060405180910390f35b61113c6004803603602081101561112657600080fd5b8101908080359060200190929190505050613ed2565b60405180806020018060200180602001806020018060200186810386528b818151815260200191508051906020019080838360005b8381101561118c578082015181840152602081019050611171565b50505050905090810190601f1680156111b95780820380516001836020036101000a031916815260200191505b5086810385528a818151815260200191508051906020019080838360005b838110156111f25780820151818401526020810190506111d7565b50505050905090810190601f16801561121f5780820380516001836020036101000a031916815260200191505b50868103845289818151815260200191508051906020019080838360005b8381101561125857808201518184015260208101905061123d565b50505050905090810190601f1680156112855780820380516001836020036101000a031916815260200191505b50868103835288818151815260200191508051906020019080838360005b838110156112be5780820151818401526020810190506112a3565b50505050905090810190601f1680156112eb5780820380516001836020036101000a031916815260200191505b50868103825287818151815260200191508051906020019080838360005b83811015611324578082015181840152602081019050611309565b50505050905090810190601f1680156113515780820380516001836020036101000a031916815260200191505b509a505050505050505050505060405180910390f35b61136f6142aa565b604051808481526020018060200180602001838103835285818151815260200191508051906020019080838360005b838110156113b957808201518184015260208101905061139e565b50505050905090810190601f1680156113e65780820380516001836020036101000a031916815260200191505b50838103825284818151815260200191508051906020019080838360005b8381101561141f578082015181840152602081019050611404565b50505050905090810190601f16801561144c5780820380516001836020036101000a031916815260200191505b509550505050505060405180910390f35b6115366004803603604081101561147357600080fd5b81019080803573ffffffffffffffffffffffffffffffffffffffff169060200190929190803590602001906401000000008111156114b057600080fd5b8201836020820111156114c257600080fd5b803590602001918460018302840111640100000000831117156114e457600080fd5b91908080601f016020809104026020016040519081016040528093929190818152602001838380828437600081840152601f19601f820116905080830192505050505050509192919290505050614444565b005b6116886004803603604081101561154e57600080fd5b810190808035906020019064010000000081111561156b57600080fd5b82018360208201111561157d57600080fd5b8035906020019184600183028401116401000000008311171561159f57600080fd5b91908080601f016020809104026020016040519081016040528093929190818152602001838380828437600081840152601f19601f8201169050808301925050505050505091929192908035906020019064010000000081111561160257600080fd5b82018360208201111561161457600080fd5b8035906020019184600183028401116401000000008311171561163657600080fd5b91908080601f016020809104026020016040519081016040528093929190818152602001838380828437600081840152601f19601f82011690508083019250505050505050919291929050505061482b565b6040518082815260200191505060405180910390f35b3373ffffffffffffffffffffffffffffffffffffffff16600060019054906101000a900473ffffffffffffffffffffffffffffffffffffffff1673ffffffffffffffffffffffffffffffffffffffff16146116f857600080fd5b60606040518060400160405280600681526020017f6c6f67696e5f0000000000000000000000000000000000000000000000000000815250905060608173__LibConcatenateStrings_________________63266001d39091856040518363ffffffff1660e01b8152600401808060200180602001838103835285818151815260200191508051906020019080838360005b838110156117a557808201518184015260208101905061178a565b50505050905090810190601f1680156117d25780820380516001836020036101000a031916815260200191505b50838103825284818151815260200191508051906020019080838360005b8381101561180b5780820151818401526020810190506117f0565b50505050905090810190601f1680156118385780820380516001836020036101000a031916815260200191505b5094505050505060006040518083038186803b15801561185757600080fd5b505af415801561186b573d6000803e3d6000fd5b505050506040513d6000823e3d601f19601f82011682018060405250602081101561189557600080fd5b81019080805160405193929190846401000000008211156118b557600080fd5b838201915060208201858111156118cb57600080fd5b82518660018202830111640100000000821117156118e857600080fd5b8083526020830192505050908051906020019080838360005b8381101561191c578082015181840152602081019050611901565b50505050905090810190601f1680156119495780820380516001836020036101000a031916815260200191505b506040525050509050604051806040016040528082815260200184815250600360008673ffffffffffffffffffffffffffffffffffffffff1673ffffffffffffffffffffffffffffffffffffffff16815260200190815260200160002060008201518160000190805190602001906119c2929190614fe8565b5060208201518160010190805190602001906119df929190614fe8565b509050507f401ac4b35a7b6689f6099149d9a4590d106d0b7850a038645519383db1f9e5aa836040518080602001828103825283818151815260200191508051906020019080838360005b83811015611a45578082015181840152602081019050611a2a565b50505050905090810190601f168015611a725780820380516001836020036101000a031916815260200191505b509250505060405180910390a150505050565b6000806000600260003373ffffffffffffffffffffffffffffffffffffffff1673ffffffffffffffffffffffffffffffffffffffff1681526020019081526020016000206001018054600181600116156101000203166002900490501115611aef57339050611af4565b600090505b8091505090565b3373ffffffffffffffffffffffffffffffffffffffff16600060019054906101000a900473ffffffffffffffffffffffffffffffffffffffff1673ffffffffffffffffffffffffffffffffffffffff1614611b5557600080fd5b60008060006101000a81548160ff021916908315150217905550565b6000600554905090565b6000809054906101000a900460ff16611b9357600080fd5b600060019054906101000a900473ffffffffffffffffffffffffffffffffffffffff1673ffffffffffffffffffffffffffffffffffffffff166108fc479081150290604051600060405180830381858888f19350505050158015611bfb573d6000803e3d6000fd5b50565b60608060608060606000600960008881526020019081526020016000206000015490506006600082815260200190815260200160002060000160000160066000838152602001908152602001600020600001600101600660008481526020019081526020016000206000016002016006600085815260200190815260200160002060000160030160066000868152602001908152602001600020600501848054600181600116156101000203166002900480601f016020809104026020016040519081016040528092919081815260200182805460018160011615610100020316600290048015611d305780601f10611d0557610100808354040283529160200191611d30565b820191906000526020600020905b815481529060010190602001808311611d1357829003601f168201915b50505050509450838054600181600116156101000203166002900480601f016020809104026020016040519081016040528092919081815260200182805460018160011615610100020316600290048015611dcc5780601f10611da157610100808354040283529160200191611dcc565b820191906000526020600020905b815481529060010190602001808311611daf57829003601f168201915b50505050509350828054600181600116156101000203166002900480601f016020809104026020016040519081016040528092919081815260200182805460018160011615610100020316600290048015611e685780601f10611e3d57610100808354040283529160200191611e68565b820191906000526020600020905b815481529060010190602001808311611e4b57829003601f168201915b50505050509250818054600181600116156101000203166002900480601f016020809104026020016040519081016040528092919081815260200182805460018160011615610100020316600290048015611f045780601f10611ed957610100808354040283529160200191611f04565b820191906000526020600020905b815481529060010190602001808311611ee757829003601f168201915b50505050509150808054600181600116156101000203166002900480601f016020809104026020016040519081016040528092919081815260200182805460018160011615610100020316600290048015611fa05780601f10611f7557610100808354040283529160200191611fa0565b820191906000526020600020905b815481529060010190602001808311611f8357829003601f168201915b50505050509050955095509550955095505091939590929450565b3373ffffffffffffffffffffffffffffffffffffffff16600060019054906101000a900473ffffffffffffffffffffffffffffffffffffffff1673ffffffffffffffffffffffffffffffffffffffff161461201557600080fd5b600060019054906101000a900473ffffffffffffffffffffffffffffffffffffffff1673ffffffffffffffffffffffffffffffffffffffff16ff5b6000600754905090565b60006008826040518082805190602001908083835b60208310612092578051825260208201915060208101905060208303925061206f565b6001836020036101000a0380198251168184511680821785525050505050509050019150509081526020016040518091039020600201549050919050565b6000806000600160003373ffffffffffffffffffffffffffffffffffffffff1673ffffffffffffffffffffffffffffffffffffffff168152602001908152602001600020600101805460018160011615610100020316600290049050111561213a5733905061213f565b600090505b8091505090565b6000806000600360003373ffffffffffffffffffffffffffffffffffffffff1673ffffffffffffffffffffffffffffffffffffffff16815260200190815260200160002060010180546001816001161561010002031660029004905011156121b0573390506121b5565b600090505b8091505090565b3373ffffffffffffffffffffffffffffffffffffffff16600060019054906101000a900473ffffffffffffffffffffffffffffffffffffffff1673ffffffffffffffffffffffffffffffffffffffff161461221657600080fd5b60606040518060400160405280600681526020017f6c6f67696e5f0000000000000000000000000000000000000000000000000000815250905060608173__LibConcatenateStrings_________________63266001d39091856040518363ffffffff1660e01b8152600401808060200180602001838103835285818151815260200191508051906020019080838360005b838110156122c35780820151818401526020810190506122a8565b50505050905090810190601f1680156122f05780820380516001836020036101000a031916815260200191505b50838103825284818151815260200191508051906020019080838360005b8381101561232957808201518184015260208101905061230e565b50505050905090810190601f1680156123565780820380516001836020036101000a031916815260200191505b5094505050505060006040518083038186803b15801561237557600080fd5b505af4158015612389573d6000803e3d6000fd5b505050506040513d6000823e3d601f19601f8201168201806040525060208110156123b357600080fd5b81019080805160405193929190846401000000008211156123d357600080fd5b838201915060208201858111156123e957600080fd5b825186600182028301116401000000008211171561240657600080fd5b8083526020830192505050908051906020019080838360005b8381101561243a57808201518184015260208101905061241f565b50505050905090810190601f1680156124675780820380516001836020036101000a031916815260200191505b506040525050509050604051806040016040528082815260200184815250600160008673ffffffffffffffffffffffffffffffffffffffff1673ffffffffffffffffffffffffffffffffffffffff16815260200190815260200160002060008201518160000190805190602001906124e0929190614fe8565b5060208201518160010190805190602001906124fd929190614fe8565b509050507fab3562bab9e824ea5bd0d7e0ef837e93d1f7a8f3ee468ae9cb2c04d960bfc6d4836040518080602001828103825283818151815260200191508051906020019080838360005b83811015612563578082015181840152602081019050612548565b50505050905090810190601f1680156125905780820380516001836020036101000a031916815260200191505b509250505060405180910390a150505050565b60003373ffffffffffffffffffffffffffffffffffffffff16600060019054906101000a900473ffffffffffffffffffffffffffffffffffffffff1673ffffffffffffffffffffffffffffffffffffffff16146125ff57600080fd5b47905090565b60006060806000600754141561261f576007549250612638565b6126356001600754614e5690919063ffffffff16565b92505b600660008481526020019081526020016000206000016000018054600181600116156101000203166002900480601f0160208091040260200160405190810160405280929190818152602001828054600181600116156101000203166002900480156126e55780601f106126ba576101008083540402835291602001916126e5565b820191906000526020600020905b8154815290600101906020018083116126c857829003601f168201915b50505050509150600660008481526020019081526020016000206000016001018054600181600116156101000203166002900480601f0160208091040260200160405190810160405280929190818152602001828054600181600116156101000203166002900480156127995780601f1061276e57610100808354040283529160200191612799565b820191906000526020600020905b81548152906001019060200180831161277c57829003601f168201915b50505050509050909192565b6000809054906101000a900460ff1681565b6000600360003373ffffffffffffffffffffffffffffffffffffffff1673ffffffffffffffffffffffffffffffffffffffff1681526020019081526020016000206001018054600181600116156101000203166002900490501161281a57600080fd5b6000809054906101000a900460ff161561283357600080fd5b600115156006600084815260200190815260200160002060000160040160009054906101000a900460ff1615151461286a57600080fd5b6040518060400160405280600781526020017f6d617272696564000000000000000000000000000000000000000000000000008152506006600084815260200190815260200160002060050190805190602001906128c9929190615068565b50806006600084815260200190815260200160002060060190805190602001906128f4929190615068565b507fc7b118d015ed4a95450d7ff616d44d5a9ff7ad9d46e3360ac8ae088efd6a555281836040518080602001838152602001828103825284818151815260200191508051906020019080838360005b8381101561295e578082015181840152602081019050612943565b50505050905090810190601f16801561298b5780820380516001836020036101000a031916815260200191505b50935050505060405180910390a15050565b60008060019054906101000a900473ffffffffffffffffffffffffffffffffffffffff16905090565b600060019054906101000a900473ffffffffffffffffffffffffffffffffffffffff1681565b81805190602001206008846040518082805190602001908083835b60208310612a2a5780518252602082019150602081019050602083039250612a07565b6001836020036101000a03801982511681845116808217855250505050505090500191505090815260200160405180910390206001015414612a6b57600080fd5b600081805190602001209050806008856040518082805190602001908083835b60208310612aae5780518252602082019150602081019050602083039250612a8b565b6001836020036101000a03801982511681845116808217855250505050505090500191505090815260200160405180910390206001018190555050505050565b3373ffffffffffffffffffffffffffffffffffffffff16600060019054906101000a900473ffffffffffffffffffffffffffffffffffffffff1673ffffffffffffffffffffffffffffffffffffffff1614612b4857600080fd5b60016000806101000a81548160ff021916908315150217905550565b6060806060806000600460008781526020019081526020016000206000016004600088815260200190815260200160002060010160046000898152602001908152602001600020600201600460008a8152602001908152602001600020600301600460008b815260200190815260200160002060040160009054906101000a900460ff16848054600181600116156101000203166002900480601f016020809104026020016040519081016040528092919081815260200182805460018160011615610100020316600290048015612c7d5780601f10612c5257610100808354040283529160200191612c7d565b820191906000526020600020905b815481529060010190602001808311612c6057829003601f168201915b50505050509450838054600181600116156101000203166002900480601f016020809104026020016040519081016040528092919081815260200182805460018160011615610100020316600290048015612d195780601f10612cee57610100808354040283529160200191612d19565b820191906000526020600020905b815481529060010190602001808311612cfc57829003601f168201915b50505050509350828054600181600116156101000203166002900480601f016020809104026020016040519081016040528092919081815260200182805460018160011615610100020316600290048015612db55780601f10612d8a57610100808354040283529160200191612db5565b820191906000526020600020905b815481529060010190602001808311612d9857829003601f168201915b50505050509250818054600181600116156101000203166002900480601f016020809104026020016040519081016040528092919081815260200182805460018160011615610100020316600290048015612e515780601f10612e2657610100808354040283529160200191612e51565b820191906000526020600020905b815481529060010190602001808311612e3457829003601f168201915b505050505091509450945094509450945091939590929450565b600080600260003373ffffffffffffffffffffffffffffffffffffffff1673ffffffffffffffffffffffffffffffffffffffff16815260200190815260200160002060010180546001816001161561010002031660029004905011612ecf57600080fd5b6000809054906101000a900460ff1615612ee857600080fd5b600015156004600084815260200190815260200160002060040160009054906101000a900460ff16151514612f1c57600080fd5b60016004600084815260200190815260200160002060040160006101000a81548160ff02191690831515021790555060606040518060400160405280600681526020017f6c6f67696e5f0000000000000000000000000000000000000000000000000000815250905060608173__LibConcatenateStrings_________________63266001d39091600460008881526020019081526020016000206001016040518363ffffffff1660e01b8152600401808060200180602001838103835285818151815260200191508051906020019080838360005b8381101561300d578082015181840152602081019050612ff2565b50505050905090810190601f16801561303a5780820380516001836020036101000a031916815260200191505b508381038252848181546001816001161561010002031660029004815260200191508054600181600116156101000203166002900480156130bc5780601f10613091576101008083540402835291602001916130bc565b820191906000526020600020905b81548152906001019060200180831161309f57829003601f168201915b505094505050505060006040518083038186803b1580156130dc57600080fd5b505af41580156130f0573d6000803e3d6000fd5b505050506040513d6000823e3d601f19601f82011682018060405250602081101561311a57600080fd5b810190808051604051939291908464010000000082111561313a57600080fd5b8382019150602082018581111561315057600080fd5b825186600182028301116401000000008211171561316d57600080fd5b8083526020830192505050908051906020019080838360005b838110156131a1578082015181840152602081019050613186565b50505050905090810190601f1680156131ce5780820380516001836020036101000a031916815260200191505b5060405250505090508073__LibConcatenateStrings_________________63266001d39091600460008881526020019081526020016000206002016040518363ffffffff1660e01b8152600401808060200180602001838103835285818151815260200191508051906020019080838360005b8381101561325d578082015181840152602081019050613242565b50505050905090810190601f16801561328a5780820380516001836020036101000a031916815260200191505b5083810382528481815460018160011615610100020316600290048152602001915080546001816001161561010002031660029004801561330c5780601f106132e15761010080835404028352916020019161330c565b820191906000526020600020905b8154815290600101906020018083116132ef57829003601f168201915b505094505050505060006040518083038186803b15801561332c57600080fd5b505af4158015613340573d6000803e3d6000fd5b505050506040513d6000823e3d601f19601f82011682018060405250602081101561336a57600080fd5b810190808051604051939291908464010000000082111561338a57600080fd5b838201915060208201858111156133a057600080fd5b82518660018202830111640100000000821117156133bd57600080fd5b8083526020830192505050908051906020019080838360005b838110156133f15780820151818401526020810190506133d6565b50505050905090810190601f16801561341e5780820380516001836020036101000a031916815260200191505b50604052505050915060606040518060400160405280600481526020017f7077645f00000000000000000000000000000000000000000000000000000000815250905060608173__LibConcatenateStrings_________________63266001d39091600460008a81526020019081526020016000206002016040518363ffffffff1660e01b8152600401808060200180602001838103835285818151815260200191508051906020019080838360005b838110156134e95780820151818401526020810190506134ce565b50505050905090810190601f1680156135165780820380516001836020036101000a031916815260200191505b508381038252848181546001816001161561010002031660029004815260200191508054600181600116156101000203166002900480156135985780601f1061356d57610100808354040283529160200191613598565b820191906000526020600020905b81548152906001019060200180831161357b57829003601f168201915b505094505050505060006040518083038186803b1580156135b857600080fd5b505af41580156135cc573d6000803e3d6000fd5b505050506040513d6000823e3d601f19601f8201168201806040525060208110156135f657600080fd5b810190808051604051939291908464010000000082111561361657600080fd5b8382019150602082018581111561362c57600080fd5b825186600182028301116401000000008211171561364957600080fd5b8083526020830192505050908051906020019080838360005b8381101561367d578082015181840152602081019050613662565b50505050905090810190601f1680156136aa5780820380516001836020036101000a031916815260200191505b50604052505050905060008180519060200120905060006040518060400160405280600381526020017f6e65770000000000000000000000000000000000000000000000000000000000815250805190602001209050600754965061371b6001600754614ea090919063ffffffff16565b6007819055506040518060800160405280600460008b81526020019081526020016000206040518060a0016040529081600082018054600181600116156101000203166002900480601f0160208091040260200160405190810160405280929190818152602001828054600181600116156101000203166002900480156137e35780601f106137b8576101008083540402835291602001916137e3565b820191906000526020600020905b8154815290600101906020018083116137c657829003601f168201915b50505050508152602001600182018054600181600116156101000203166002900480601f0160208091040260200160405190810160405280929190818152602001828054600181600116156101000203166002900480156138855780601f1061385a57610100808354040283529160200191613885565b820191906000526020600020905b81548152906001019060200180831161386857829003601f168201915b50505050508152602001600282018054600181600116156101000203166002900480601f0160208091040260200160405190810160405280929190818152602001828054600181600116156101000203166002900480156139275780601f106138fc57610100808354040283529160200191613927565b820191906000526020600020905b81548152906001019060200180831161390a57829003601f168201915b50505050508152602001600382018054600181600116156101000203166002900480601f0160208091040260200160405190810160405280929190818152602001828054600181600116156101000203166002900480156139c95780601f1061399e576101008083540402835291602001916139c9565b820191906000526020600020905b8154815290600101906020018083116139ac57829003601f168201915b505050505081526020016004820160009054906101000a900460ff16151515158152505081526020016040518060400160405280600681526020017f73696e676c650000000000000000000000000000000000000000000000000000815250815260200160405180602001604052806000815250815260200187815250600660008981526020019081526020016000206000820151816000016000820151816000019080519060200190613a7e929190614fe8565b506020820151816001019080519060200190613a9b929190614fe8565b506040820151816002019080519060200190613ab8929190614fe8565b506060820151816003019080519060200190613ad5929190614fe8565b5060808201518160040160006101000a81548160ff02191690831515021790555050506020820151816005019080519060200190613b14929190614fe8565b506040820151816006019080519060200190613b31929190614fe8565b506060820151816007019080519060200190613b4e929190614fe8565b509050506040518060600160405280888152602001838152602001828152506008876040518082805190602001908083835b60208310613ba35780518252602082019150602081019050602083039250613b80565b6001836020036101000a03801982511681845116808217855250505050505090500191505090815260200160405180910390206000820151816000015560208201518160010155604082015181600201559050507f742c345840647c71e989bcfe501f009faa76e04998bb4c2ea8b4adc5ac0659998888604051808381526020018281526020019250505060405180910390a1505050505050919050565b600080600160003373ffffffffffffffffffffffffffffffffffffffff1673ffffffffffffffffffffffffffffffffffffffff16815260200190815260200160002060010180546001816001161561010002031660029004905011613ca557600080fd5b6000809054906101000a900460ff1615613cbe57600080fd5b60006005549050613cdb6001600554614ea090919063ffffffff16565b6005819055506040518060a0016040528087815260200186815260200185815260200184815260200160001515815250600460008381526020019081526020016000206000820151816000019080519060200190613d3a929190614fe8565b506020820151816001019080519060200190613d57929190614fe8565b506040820151816002019080519060200190613d74929190614fe8565b506060820151816003019080519060200190613d91929190614fe8565b5060808201518160040160006101000a81548160ff0219169083151502179055509050507f975e5fd57c7c0e6b1a8c1a5d6861dce72c6672a93848401afb36caa4eb90ba83868683604051808060200180602001848152602001838103835286818151815260200191508051906020019080838360005b83811015613e23578082015181840152602081019050613e08565b50505050905090810190601f168015613e505780820380516001836020036101000a031916815260200191505b50838103825285818151815260200191508051906020019080838360005b83811015613e89578082015181840152602081019050613e6e565b50505050905090810190601f168015613eb65780820380516001836020036101000a031916815260200191505b509550505050505060405180910390a180915050949350505050565b6060806060806060600115156006600088815260200190815260200160002060000160040160009054906101000a900460ff16151514613f1157600080fd5b600660008781526020019081526020016000206000016000016006600088815260200190815260200160002060000160010160066000898152602001908152602001600020600001600201600660008a8152602001908152602001600020600001600301600660008b8152602001908152602001600020600501848054600181600116156101000203166002900480601f0160208091040260200160405190810160405280929190818152602001828054600181600116156101000203166002900480156140205780601f10613ff557610100808354040283529160200191614020565b820191906000526020600020905b81548152906001019060200180831161400357829003601f168201915b50505050509450838054600181600116156101000203166002900480601f0160208091040260200160405190810160405280929190818152602001828054600181600116156101000203166002900480156140bc5780601f10614091576101008083540402835291602001916140bc565b820191906000526020600020905b81548152906001019060200180831161409f57829003601f168201915b50505050509350828054600181600116156101000203166002900480601f0160208091040260200160405190810160405280929190818152602001828054600181600116156101000203166002900480156141585780601f1061412d57610100808354040283529160200191614158565b820191906000526020600020905b81548152906001019060200180831161413b57829003601f168201915b50505050509250818054600181600116156101000203166002900480601f0160208091040260200160405190810160405280929190818152602001828054600181600116156101000203166002900480156141f45780601f106141c9576101008083540402835291602001916141f4565b820191906000526020600020905b8154815290600101906020018083116141d757829003601f168201915b50505050509150808054600181600116156101000203166002900480601f0160208091040260200160405190810160405280929190818152602001828054600181600116156101000203166002900480156142905780601f1061426557610100808354040283529160200191614290565b820191906000526020600020905b81548152906001019060200180831161427357829003601f168201915b505050505090509450945094509450945091939590929450565b6000606080600060055414156142c45760055492506142dd565b6142da6001600554614e5690919063ffffffff16565b92505b600460008481526020019081526020016000206000018054600181600116156101000203166002900480601f0160208091040260200160405190810160405280929190818152602001828054600181600116156101000203166002900480156143875780601f1061435c57610100808354040283529160200191614387565b820191906000526020600020905b81548152906001019060200180831161436a57829003601f168201915b50505050509150600460008481526020019081526020016000206001018054600181600116156101000203166002900480601f0160208091040260200160405190810160405280929190818152602001828054600181600116156101000203166002900480156144385780601f1061440d57610100808354040283529160200191614438565b820191906000526020600020905b81548152906001019060200180831161441b57829003601f168201915b50505050509050909192565b3373ffffffffffffffffffffffffffffffffffffffff16600060019054906101000a900473ffffffffffffffffffffffffffffffffffffffff1673ffffffffffffffffffffffffffffffffffffffff161461449e57600080fd5b60606040518060400160405280600681526020017f6c6f67696e5f0000000000000000000000000000000000000000000000000000815250905060608173__LibConcatenateStrings_________________63266001d39091856040518363ffffffff1660e01b8152600401808060200180602001838103835285818151815260200191508051906020019080838360005b8381101561454b578082015181840152602081019050614530565b50505050905090810190601f1680156145785780820380516001836020036101000a031916815260200191505b50838103825284818151815260200191508051906020019080838360005b838110156145b1578082015181840152602081019050614596565b50505050905090810190601f1680156145de5780820380516001836020036101000a031916815260200191505b5094505050505060006040518083038186803b1580156145fd57600080fd5b505af4158015614611573d6000803e3d6000fd5b505050506040513d6000823e3d601f19601f82011682018060405250602081101561463b57600080fd5b810190808051604051939291908464010000000082111561465b57600080fd5b8382019150602082018581111561467157600080fd5b825186600182028301116401000000008211171561468e57600080fd5b8083526020830192505050908051906020019080838360005b838110156146c25780820151818401526020810190506146a7565b50505050905090810190601f1680156146ef5780820380516001836020036101000a031916815260200191505b506040525050509050604051806040016040528082815260200184815250600260008673ffffffffffffffffffffffffffffffffffffffff1673ffffffffffffffffffffffffffffffffffffffff1681526020019081526020016000206000820151816000019080519060200190614768929190614fe8565b506020820151816001019080519060200190614785929190614fe8565b509050507fa7b9cf10953e89fba48615bdedc4c557e19daee10f4f77f3ab1a2d2bb951a041836040518080602001828103825283818151815260200191508051906020019080838360005b838110156147eb5780820151818401526020810190506147d0565b50505050905090810190601f1680156148185780820380516001836020036101000a031916815260200191505b509250505060405180910390a150505050565b600081805190602001206008846040518082805190602001908083835b6020831061486b5780518252602082019150602081019050602083039250614848565b6001836020036101000a038019825116818451168082178552505050505050905001915050908152602001604051809103902060010154146148ac57600080fd5b60006008846040518082805190602001908083835b602083106148e457805182526020820191506020810190506020830392506148c1565b6001836020036101000a038019825116818451168082178552505050505050905001915050908152602001604051809103902060000154905060608173__LibTransformUintString________________63e939567990916040518263ffffffff1660e01b81526004018082815260200191505060006040518083038186803b15801561497057600080fd5b505af4158015614984573d6000803e3d6000fd5b505050506040513d6000823e3d601f19601f8201168201806040525060208110156149ae57600080fd5b81019080805160405193929190846401000000008211156149ce57600080fd5b838201915060208201858111156149e457600080fd5b8251866001820283011164010000000082111715614a0157600080fd5b8083526020830192505050908051906020019080838360005b83811015614a35578082015181840152602081019050614a1a565b50505050905090810190601f168015614a625780820380516001836020036101000a031916815260200191505b50604052505050905060608173__LibConcatenateStrings_________________63266001d39091876040518363ffffffff1660e01b8152600401808060200180602001838103835285818151815260200191508051906020019080838360005b83811015614ade578082015181840152602081019050614ac3565b50505050905090810190601f168015614b0b5780820380516001836020036101000a031916815260200191505b50838103825284818151815260200191508051906020019080838360005b83811015614b44578082015181840152602081019050614b29565b50505050905090810190601f168015614b715780820380516001836020036101000a031916815260200191505b5094505050505060006040518083038186803b158015614b9057600080fd5b505af4158015614ba4573d6000803e3d6000fd5b505050506040513d6000823e3d601f19601f820116820180604052506020811015614bce57600080fd5b8101908080516040519392919084640100000000821115614bee57600080fd5b83820191506020820185811115614c0457600080fd5b8251866001820283011164010000000082111715614c2157600080fd5b8083526020830192505050908051906020019080838360005b83811015614c55578082015181840152602081019050614c3a565b50505050905090810190601f168015614c825780820380516001836020036101000a031916815260200191505b506040525050509050600081805190602001209050806008886040518082805190602001908083835b60208310614cce5780518252602082019150602081019050602083039250614cab565b6001836020036101000a0380198251168184511680821785525050505050509050019150509081526020016040518091039020600201819055506008876040518082805190602001908083835b60208310614d3e5780518252602082019150602081019050602083039250614d1b565b6001836020036101000a0380198251168184511680821785525050505050509050019150509081526020016040518091039020600960008381526020019081526020016000206000820154816000015560018201548160010155600282015481600201559050507fb3c104ebb8d7c2039282f84239773ba591395f85016526077eeab6912a11dda487826040518080602001838152602001828103825284818151815260200191508051906020019080838360005b83811015614e0e578082015181840152602081019050614df3565b50505050905090810190601f168015614e3b5780820380516001836020036101000a031916815260200191505b50935050505060405180910390a18094505050505092915050565b6000614e9883836040518060400160405280601e81526020017f536166654d6174683a207375627472616374696f6e206f766572666c6f770000815250614f28565b905092915050565b600080828401905083811015614f1e576040517f08c379a000000000000000000000000000000000000000000000000000000000815260040180806020018281038252601b8152602001807f536166654d6174683a206164646974696f6e206f766572666c6f77000000000081525060200191505060405180910390fd5b8091505092915050565b6000838311158290614fd5576040517f08c379a00000000000000000000000000000000000000000000000000000000081526004018080602001828103825283818151815260200191508051906020019080838360005b83811015614f9a578082015181840152602081019050614f7f565b50505050905090810190601f168015614fc75780820380516001836020036101000a031916815260200191505b509250505060405180910390fd5b5060008385039050809150509392505050565b828054600181600116156101000203166002900490600052602060002090601f016020900481019282601f1061502957805160ff1916838001178555615057565b82800160010185558215615057579182015b8281111561505657825182559160200191906001019061503b565b5b50905061506491906150e8565b5090565b828054600181600116156101000203166002900490600052602060002090601f016020900481019282601f106150a957805160ff19168380011785556150d7565b828001600101855582156150d7579182015b828111156150d65782518255916020019190600101906150bb565b5b5090506150e491906150e8565b5090565b61510a91905b808211156151065760008160009055506001016150ee565b5090565b9056fea265627a7a72315820301f0a14d60aca053daf7ebdbc63b234236155c58f1b082a367a830d1fe9b06864736f6c63430005100032",
  "source": "// SPDX-License-Identifier: MIT\r\npragma solidity >=0.4.21 <0.8.0;\r\n\r\n//Libraries\r\nimport {LibConcatenateStrings} from './LibConcatenateStrings.sol';\r\nimport {LibTransformUintString} from './LibTransformUintString.sol';\r\nimport {SafeMath} from './SafeMath.sol';\r\n\r\n/*\r\n    The CivilState contract keeps track of the citizen information, starting from their birth and being maintained throughout their life\r\n*/\r\ncontract CivilState {\r\n    using LibConcatenateStrings for string;\r\n    using LibTransformUintString for *;\r\n    using SafeMath for uint; \r\n\r\n    /*\r\n        Circuit breaker pattern\r\n        Variable \"stopped\" : if true function functionnality cannot be executed\r\n    */\r\n    bool public stopped = false;\r\n    \r\n    /*\r\n        Public owner variable => the creator of the contract when it is initialized.\r\n    */\r\n    address payable public owner;\r\n\r\n    /*\r\n        Birth struct : add birth information\r\n    */\r\n    struct Birth {\r\n        string name;\r\n        string lastName;\r\n        string birthDate;\r\n        string birthCity;\r\n        bool isVerified;\r\n    }\r\n\r\n    /*\r\n        Identity struct : created to validate a birth and create the citizen identity\r\n    */\r\n    struct Identity {\r\n        Birth birthinfo;\r\n        \r\n        // Marital information\r\n        string maritalStatus;\r\n        string marriageDate;\r\n        string userLogin;\r\n    }\r\n\r\n    /*\r\n        Identifier struct : created to track users identifiers\r\n    */\r\n    struct Identifier {\r\n        uint userIdentityCount;\r\n        bytes32 userPassword;\r\n        bytes32 newCertification;\r\n    }\r\n\r\n    /*\r\n        Authentification struct : created to track hospital, prefecture and city hall members authentification\r\n    */    \r\n    struct Authentification {\r\n        string login;\r\n        string name;\r\n    }\r\n    \r\n    /*\r\n        Mapping to keep track of the hospital members\r\n    */\r\n    mapping (address => Authentification) hospitalMembers;\r\n\r\n    /*\r\n        Mapping to keep track of the prefecture members\r\n    */\r\n    mapping (address => Authentification) prefectureMembers;\r\n\r\n    /*\r\n        Mapping to keep track of the city hall members\r\n    */\r\n    mapping (address => Authentification) cityHallMembers;\r\n\r\n    /*\r\n       Mapping to keep track of the births\r\n    */\r\n    mapping (uint => Birth) births;\r\n    uint birthsCount = 0;\r\n\r\n    /*\r\n       Mapping to keep track of the citizen's identities\r\n    */    \r\n    mapping (uint => Identity) identities;\r\n    uint identitiesCount = 0;\r\n\r\n    /*\r\n        Mapping to keep track of citizen's identifiers\r\n    */\r\n    mapping(string => Identifier) citizenIdentifiers;\r\n\r\n    /*\r\n        Mapping to keep track of identity certifications generated by users (citizens)\r\n    */\r\n    mapping(bytes32 => Identifier) idCertifications;\r\n\r\n    // Events\r\n\r\n    // Event signaling that a new hospital member was added\r\n    event LogEventAddHospitalMember(string memberName);\r\n    // Event signaling that a new prefecture member was added\r\n    event LogEventAddPrefectureMember(string memberName);\r\n    // Event signaling that a new cityHall member was added\r\n    event LogEventAddCityHallMember(string memberName);\r\n    // Event signaling that a new birth member was declared\r\n    event LogEventBirthAdded (string name, string lastName, uint birthId);\r\n    // Event signaling that a new identity was verified\r\n    event LogEventVerifyIdentity(uint birthId, uint identityId);\r\n    // Event signaling that new marriage member was declared\r\n    event LogEventDeclareMarriage(string marriageDate, uint identityId);\r\n    // Event signaling that a certification was generated\r\n    event LogEventCertificationGenerated(string login, bytes32 identity_hash);\r\n\r\n    // Modifiers\r\n        /*\r\n        Circuit breaker pattern\r\n        Modifiers\r\n    */\r\n    modifier stopInEmergency { \r\n        require(!stopped); _; \r\n    }\r\n    modifier onlyInEmergency { \r\n        require(stopped); _; \r\n    }    \r\n\r\n    \r\n    /*\r\n       Modifier that throws an error if the msg.sender is not the owner.\r\n    */\r\n    modifier isAdmin () {\r\n        require(owner == msg.sender);\r\n        _;\r\n    }\r\n\r\n    /*\r\n       Modifier that throws an error if the msg.sender passed is not a hospital member.\r\n    */\r\n    modifier isHospital () {\r\n        require (bytes(hospitalMembers[msg.sender].name).length > 0);\r\n        _;\r\n    }\r\n\r\n    /*\r\n       Modifier that throws an error if the msg.sender passed is not a prefecture member.\r\n    */\r\n    modifier isPrefecture () {\r\n        require (bytes(prefectureMembers[msg.sender].name).length > 0);\r\n        _;\r\n    }\r\n\r\n    /*\r\n       Modifier that throws an error if the msg.sender passed is not a city hall member.\r\n    */\r\n    modifier isCityHall () {\r\n        require (bytes(cityHallMembers[msg.sender].name).length > 0);\r\n        _;\r\n    }\r\n\r\n    constructor () public {\r\n        owner = msg.sender;\r\n    }    \r\n  \r\n    /* Circuit Breaker implementation*/\r\n    \r\n    // Only \"admin\" (owner) can stop contract functionnalities\r\n    function stopCivilStateContract() isAdmin public {\r\n        stopped = true;\r\n    }\r\n\r\n    // Only \"admin\" (owner) can stop contract functionnalities\r\n    function restartCivilStateContract() isAdmin public {\r\n        stopped = false;\r\n    }\r\n\r\n    /*\r\n        Mortal patten\r\n    */\r\n    function kill() public isAdmin {\r\n\r\n        selfdestruct(address(uint160(owner))); // cast owner to address payable\r\n    }\r\n\r\n    // Only Admin can see contract balance\r\n    function getBalanceContract() isAdmin view public returns(uint){\r\n        return address(this).balance;\r\n    }\r\n    function withdraw() onlyInEmergency public {\r\n        owner.transfer(address(this).balance);\r\n    }\r\n    \r\n    // Admin functions\r\n\r\n    /* \r\n        Function do add a new hospital member to the \"hospitalMembers\" mapping\r\n        Only the owner of the contract (the admin) can add new members\r\n    */\r\n    function addHospitalMember (address _newMember, string memory _memberName) public isAdmin {\r\n        // Initialization of login\r\n        string memory login = \"login_\";\r\n        string memory _login = login.concatenate(_memberName);       \r\n        hospitalMembers[_newMember] = Authentification({\r\n            login : _login,\r\n            name : _memberName\r\n        });\r\n        emit LogEventAddHospitalMember(_memberName);\r\n    }\r\n\r\n    /* \r\n        Function do add a new prefecture member to the \"prefectureMembers\" mapping\r\n        Only the owner of the contract (the admin) can add new members\r\n    */\r\n    function addPrefectureMember (address _newMember, string memory _memberName) public isAdmin {\r\n        // Initialization of login\r\n        string memory login = \"login_\";\r\n        string memory _login = login.concatenate(_memberName); \r\n        prefectureMembers[_newMember] = Authentification({\r\n            login : _login,\r\n            name : _memberName\r\n        });\r\n        emit LogEventAddPrefectureMember(_memberName);\r\n    }\r\n\r\n    /* \r\n        Function do add a new city hall member to the \"cityHallMembers\" mapping\r\n        Only the owner of the contract (the admin) can add new members\r\n    */\r\n    function addCityHallMember (address _newMember, string memory _memberName) public isAdmin {\r\n        // Initialization of login\r\n        string memory login = \"login_\";\r\n        string memory _login = login.concatenate(_memberName); \r\n        cityHallMembers[_newMember] = Authentification({\r\n            login : _login,\r\n            name : _memberName\r\n        });\r\n        emit LogEventAddCityHallMember(_memberName);\r\n    }\r\n\r\n    /*\r\n        Function to add a new birth\r\n        When there is a birth, a member of the hospital must declare the birth : this function creates a new birth\r\n        Only a hospital member can create a new birth\r\n    */      \r\n    function addBirth (string memory _name, string memory _lastName, string memory _birthDate, string memory _birthCity) public isHospital stopInEmergency returns(uint) {\r\n        //uint birthId = birthsCount++;\r\n        uint birthId = birthsCount;\r\n        birthsCount = birthsCount.add(1);\r\n        births[birthId] = Birth({\r\n            name : _name,\r\n            lastName : _lastName,\r\n            birthDate : _birthDate,\r\n            birthCity : _birthCity,\r\n            isVerified : false\r\n        });\r\n        emit LogEventBirthAdded(_name, _lastName, birthId);\r\n        return birthId;\r\n    }\r\n\r\n    // Function to get the birthId after the creation of a new birth\r\n    function getBirthId () public view returns (uint _birthId, string memory _name, string memory _lastName){\r\n        if (birthsCount == 0) {\r\n          _birthId = birthsCount;  \r\n        } else {\r\n          _birthId = birthsCount.sub(1);  \r\n        }\r\n        _name = births[_birthId].name;\r\n        _lastName = births[_birthId].lastName;\r\n \r\n    }\r\n    \r\n    /*\r\n        Function to verify an identity  \r\n        After a birth declaration, the a member of the prefecture must verifiy the citizen's identity\r\n        Only a member of the prefecture can verify an identity\r\n    */\r\n    function verifyIdentity (uint birthId) public isPrefecture stopInEmergency returns (uint identityId) {\r\n        require(births[birthId].isVerified == false);\r\n        births[birthId].isVerified = true;\r\n        \r\n        // Initialization of login and password\r\n        string memory login = \"login_\";\r\n        string memory _login = login.concatenate(births[birthId].lastName); \r\n        login = _login.concatenate(births[birthId].birthDate);        \r\n        \r\n        string memory pwd = \"pwd_\";\r\n        string memory password = pwd.concatenate(births[birthId].birthDate);\r\n        bytes32 passwordHash = keccak256(bytes(password));\r\n\r\n        bytes32 lambdaCertification = keccak256(bytes(\"new\"));\r\n\r\n        //identityId = identitiesCount++;\r\n        identityId = identitiesCount;\r\n        identitiesCount = identitiesCount.add(1);\r\n        identities[identityId] = Identity({\r\n            birthinfo : births[birthId],\r\n            maritalStatus : \"single\",\r\n            marriageDate: \"\",\r\n            userLogin: login\r\n        });\r\n\r\n        citizenIdentifiers[login] = Identifier({\r\n            userIdentityCount : identityId,\r\n            userPassword : passwordHash,\r\n            newCertification : lambdaCertification\r\n        });\r\n\r\n        emit LogEventVerifyIdentity(birthId, identityId);\r\n    }\r\n\r\n    // Function to get the identityId after the verification of an identity\r\n    function getIdentityId() public view returns (uint _identity, string memory _name, string memory _lastName){\r\n        if (identitiesCount == 0) {\r\n          _identity = identitiesCount;  \r\n        } else {\r\n          _identity = identitiesCount.sub(1);  \r\n        }\r\n        _name = identities[_identity].birthinfo.name;\r\n        _lastName = identities[_identity].birthinfo.lastName; \r\n    }\r\n\r\n    /*\r\n        Function to declare a marriage\r\n        Only a city Hall member can declare a marriage\r\n    */\r\n    function declareMarriage (uint identityId, string memory _marriageDate) public isCityHall stopInEmergency {\r\n        require(identities[identityId].birthinfo.isVerified == true);\r\n        \r\n        //Change marital status\r\n        identities[identityId].maritalStatus = \"married\";\r\n        identities[identityId].marriageDate = _marriageDate;\r\n\r\n        emit LogEventDeclareMarriage(_marriageDate, identityId);\r\n    }\r\n\r\n    /*\r\n        Function to allow citizens to modify their password\r\n    */\r\n    function modifyMyPassword (string memory _login, string memory _oldPwd, string memory _newPwd) public{\r\n        //Verify that the user used the good password\r\n        require (citizenIdentifiers[_login].userPassword == keccak256(bytes(_oldPwd)));\r\n        bytes32 newPwd = keccak256(bytes(_newPwd));\r\n        citizenIdentifiers[_login].userPassword = newPwd;\r\n    }\r\n\r\n    /*\r\n        Function to allow citizen to generete an identity certification\r\n    */\r\n    function generateIdCertification (string memory login, string memory pwd) public returns (bytes32){\r\n        //Verify that the user used the good password\r\n        require (citizenIdentifiers[login].userPassword == keccak256(bytes(pwd)));\r\n        // Get the user identity count\r\n        uint userIdCount = citizenIdentifiers[login].userIdentityCount;\r\n        string memory userIdCountString = userIdCount.uintToString();\r\n        string memory contIdentifiers = userIdCountString.concatenate(pwd);\r\n        bytes32 identity_hash = keccak256(bytes(contIdentifiers));\r\n        citizenIdentifiers[login].newCertification = identity_hash;\r\n        // add certification to mapping\r\n        idCertifications[identity_hash] = citizenIdentifiers[login];\r\n        emit LogEventCertificationGenerated(login, identity_hash);\r\n        return identity_hash;\r\n    }\r\n    \r\n    // Function to get the lastCertification\r\n    function getCertification(string memory _login) public view returns (bytes32) {\r\n        return citizenIdentifiers[_login].newCertification;\r\n    }\r\n    \r\n\r\n    /*\r\n       Functions read\r\n    */\r\n\r\n    /*\r\n        Function to verify identityCertification\r\n        Once a citizen generates a certification, anyone who has the hash of the certification can verify the identity\r\n    */\r\n\r\n    function verifyCertification (bytes32 id_hash) public view returns (string memory _name, string memory _lastName, string memory _birthDate, string memory _birthCity, string memory _maritalStatus) {\r\n        // get userIdCount\r\n        uint userIdCount = idCertifications[id_hash].userIdentityCount;\r\n        return(identities[userIdCount].birthinfo.name, identities[userIdCount].birthinfo.lastName, identities[userIdCount].birthinfo.birthDate, identities[userIdCount].birthinfo.birthCity, identities[userIdCount].maritalStatus);\r\n\r\n    }\r\n    \r\n    // Function to read a birth information\r\n    function readBirth(uint birthId) public view returns(string memory _name, string memory _lastName, string memory _birthDate, string memory _birthCity, bool _isVerified){\r\n        return (births[birthId].name, births[birthId].lastName, births[birthId].birthDate, births[birthId].birthCity, births[birthId].isVerified);\r\n    }        \r\n\r\n    // Function to read an identity information\r\n    function readIdentity(uint identityId) public view returns(string memory _name, string memory _lastName, string memory _birthDate, string memory _birthCity, string memory _maritalStatus){\r\n        require(identities[identityId].birthinfo.isVerified == true);\r\n        return (identities[identityId].birthinfo.name, identities[identityId].birthinfo.lastName, identities[identityId].birthinfo.birthDate, identities[identityId].birthinfo.birthCity, identities[identityId].maritalStatus);\r\n    }\r\n\r\n    // Function to get the births count\r\n    function getBirthsCount() public view returns(uint _birthCount) {\r\n        return birthsCount; \r\n    }\r\n\r\n    // Function to get the identities count\r\n    function getIdentitiesCount() public view returns(uint _identitiesCount){\r\n        return identitiesCount;\r\n    }\r\n\r\n    // Function to get the owner of the contract\r\n    function getOwner() public view returns(address _owner){\r\n        return owner;\r\n    }\r\n\r\n    /* \r\n        Function to verify if the msg.sender is a hospital member\r\n        Return 0x00..0 if not a hospital member\r\n        Return the address of the msg.sender if it is a hospital member\r\n    */\r\n    function isHospitalMember() public view returns(address){\r\n        address memberAddress;\r\n        if (bytes(hospitalMembers[msg.sender].name).length > 0) {\r\n            memberAddress = msg.sender;\r\n        } else {\r\n            memberAddress = 0x0000000000000000000000000000000000000000;\r\n        }\r\n        return memberAddress;\r\n    }\r\n\r\n    /* \r\n        Function to verify if the msg.sender is a prefecture member\r\n        Return 0x00..0 if not a prefecture member\r\n        Return the address of the msg.sender if it is a prefecture member\r\n    */\r\n    function isPrefectureMember() public view returns(address){\r\n        address memberAddress;\r\n        if (bytes(prefectureMembers[msg.sender].name).length > 0) {\r\n            memberAddress = msg.sender;\r\n        } else {\r\n            memberAddress = 0x0000000000000000000000000000000000000000;\r\n        }\r\n        return memberAddress;\r\n    }\r\n\r\n    /* \r\n        Function to verify if the msg.sender is a city hall member\r\n        Return 0x00..0 if not a city hall member\r\n        Return the address of the msg.sender if it is a city hall member\r\n    */\r\n    function isCityHallMember() public view returns(address){\r\n        address memberAddress;\r\n        if (bytes(cityHallMembers[msg.sender].name).length > 0) {\r\n            memberAddress = msg.sender;\r\n        } else {\r\n            memberAddress = 0x0000000000000000000000000000000000000000;\r\n        }\r\n        return memberAddress;\r\n    }\r\n\r\n}",
  "sourcePath": "C:/Users/anatereza.mascarenha/Documents/Ethereum/EthereumCertification/Civil State App/contracts/CivilState.sol",
  "compiler": {
    "name": "solc",
    "version": "0.5.16+commit.9c3226ce.Emscripten.clang"
  },
  "schemaVersion": "3.0.22",
  "updatedAt": "2020-12-08T14:16:43.908Z",
  "networkType": "ethereum",
  "devdoc": {
    "methods": {}
  },
  "userdoc": {
    "methods": {}
  }
}