{
  "contractName": "CivilState",
  "abi": [
    {
      "inputs": [],
      "payable": false,
      "stateMutability": "nonpayable",
      "type": "constructor"
    },
    {
      "anonymous": false,
      "inputs": [
        {
          "indexed": false,
          "internalType": "string",
          "name": "memberName",
          "type": "string"
        }
      ],
      "name": "LogEventAddCityHallMember",
      "type": "event"
    },
    {
      "anonymous": false,
      "inputs": [
        {
          "indexed": false,
          "internalType": "string",
          "name": "memberName",
          "type": "string"
        }
      ],
      "name": "LogEventAddHospitalMember",
      "type": "event"
    },
    {
      "anonymous": false,
      "inputs": [
        {
          "indexed": false,
          "internalType": "string",
          "name": "memberName",
          "type": "string"
        }
      ],
      "name": "LogEventAddPrefectureMember",
      "type": "event"
    },
    {
      "anonymous": false,
      "inputs": [
        {
          "indexed": false,
          "internalType": "string",
          "name": "name",
          "type": "string"
        },
        {
          "indexed": false,
          "internalType": "string",
          "name": "lastName",
          "type": "string"
        },
        {
          "indexed": false,
          "internalType": "uint256",
          "name": "birthId",
          "type": "uint256"
        }
      ],
      "name": "LogEventBirthAdded",
      "type": "event"
    },
    {
      "anonymous": false,
      "inputs": [
        {
          "indexed": false,
          "internalType": "string",
          "name": "login",
          "type": "string"
        },
        {
          "indexed": false,
          "internalType": "bytes32",
          "name": "identity_hash",
          "type": "bytes32"
        }
      ],
      "name": "LogEventCertificationGenerated",
      "type": "event"
    },
    {
      "anonymous": false,
      "inputs": [
        {
          "indexed": false,
          "internalType": "string",
          "name": "marriageDate",
          "type": "string"
        },
        {
          "indexed": false,
          "internalType": "uint256",
          "name": "identityId",
          "type": "uint256"
        }
      ],
      "name": "LogEventDeclareMarriage",
      "type": "event"
    },
    {
      "anonymous": false,
      "inputs": [
        {
          "indexed": false,
          "internalType": "string",
          "name": "name",
          "type": "string"
        },
        {
          "indexed": false,
          "internalType": "string",
          "name": "lastName",
          "type": "string"
        },
        {
          "indexed": false,
          "internalType": "string",
          "name": "birthDate",
          "type": "string"
        },
        {
          "indexed": false,
          "internalType": "string",
          "name": "birthCity",
          "type": "string"
        },
        {
          "indexed": false,
          "internalType": "string",
          "name": "maritalStatus",
          "type": "string"
        }
      ],
      "name": "LogEventVerifyCertification",
      "type": "event"
    },
    {
      "anonymous": false,
      "inputs": [
        {
          "indexed": false,
          "internalType": "uint256",
          "name": "birthId",
          "type": "uint256"
        },
        {
          "indexed": false,
          "internalType": "uint256",
          "name": "identityId",
          "type": "uint256"
        }
      ],
      "name": "LogEventVerifyIdentity",
      "type": "event"
    },
    {
      "constant": true,
      "inputs": [],
      "name": "owner",
      "outputs": [
        {
          "internalType": "address payable",
          "name": "",
          "type": "address"
        }
      ],
      "payable": false,
      "stateMutability": "view",
      "type": "function"
    },
    {
      "constant": true,
      "inputs": [],
      "name": "stopped",
      "outputs": [
        {
          "internalType": "bool",
          "name": "",
          "type": "bool"
        }
      ],
      "payable": false,
      "stateMutability": "view",
      "type": "function"
    },
    {
      "constant": false,
      "inputs": [],
      "name": "stopCivilStateContract",
      "outputs": [],
      "payable": false,
      "stateMutability": "nonpayable",
      "type": "function"
    },
    {
      "constant": false,
      "inputs": [],
      "name": "withdraw",
      "outputs": [],
      "payable": false,
      "stateMutability": "nonpayable",
      "type": "function"
    },
    {
      "constant": false,
      "inputs": [],
      "name": "kill",
      "outputs": [],
      "payable": false,
      "stateMutability": "nonpayable",
      "type": "function"
    },
    {
      "constant": true,
      "inputs": [],
      "name": "getBirthsCount",
      "outputs": [
        {
          "internalType": "uint256",
          "name": "",
          "type": "uint256"
        }
      ],
      "payable": false,
      "stateMutability": "view",
      "type": "function"
    },
    {
      "constant": true,
      "inputs": [],
      "name": "getIdentitiesCount",
      "outputs": [
        {
          "internalType": "uint256",
          "name": "",
          "type": "uint256"
        }
      ],
      "payable": false,
      "stateMutability": "view",
      "type": "function"
    },
    {
      "constant": true,
      "inputs": [],
      "name": "getOwner",
      "outputs": [
        {
          "internalType": "address",
          "name": "",
          "type": "address"
        }
      ],
      "payable": false,
      "stateMutability": "view",
      "type": "function"
    },
    {
      "constant": true,
      "inputs": [],
      "name": "isHospitalMember",
      "outputs": [
        {
          "internalType": "address",
          "name": "",
          "type": "address"
        }
      ],
      "payable": false,
      "stateMutability": "view",
      "type": "function"
    },
    {
      "constant": true,
      "inputs": [],
      "name": "isPrefectureMember",
      "outputs": [
        {
          "internalType": "address",
          "name": "",
          "type": "address"
        }
      ],
      "payable": false,
      "stateMutability": "view",
      "type": "function"
    },
    {
      "constant": true,
      "inputs": [],
      "name": "isCityHallMember",
      "outputs": [
        {
          "internalType": "address",
          "name": "",
          "type": "address"
        }
      ],
      "payable": false,
      "stateMutability": "view",
      "type": "function"
    },
    {
      "constant": false,
      "inputs": [
        {
          "internalType": "address",
          "name": "_newMember",
          "type": "address"
        },
        {
          "internalType": "string",
          "name": "_memberName",
          "type": "string"
        }
      ],
      "name": "addHospitalMember",
      "outputs": [],
      "payable": false,
      "stateMutability": "nonpayable",
      "type": "function"
    },
    {
      "constant": false,
      "inputs": [
        {
          "internalType": "address",
          "name": "_newMember",
          "type": "address"
        },
        {
          "internalType": "string",
          "name": "_memberName",
          "type": "string"
        }
      ],
      "name": "addPrefectureMember",
      "outputs": [],
      "payable": false,
      "stateMutability": "nonpayable",
      "type": "function"
    },
    {
      "constant": false,
      "inputs": [
        {
          "internalType": "address",
          "name": "_newMember",
          "type": "address"
        },
        {
          "internalType": "string",
          "name": "_memberName",
          "type": "string"
        }
      ],
      "name": "addCityHallMember",
      "outputs": [],
      "payable": false,
      "stateMutability": "nonpayable",
      "type": "function"
    },
    {
      "constant": false,
      "inputs": [
        {
          "internalType": "string",
          "name": "_name",
          "type": "string"
        },
        {
          "internalType": "string",
          "name": "_lastName",
          "type": "string"
        },
        {
          "internalType": "string",
          "name": "_birthDate",
          "type": "string"
        },
        {
          "internalType": "string",
          "name": "_birthCity",
          "type": "string"
        }
      ],
      "name": "addBirth",
      "outputs": [
        {
          "internalType": "uint256",
          "name": "",
          "type": "uint256"
        }
      ],
      "payable": false,
      "stateMutability": "nonpayable",
      "type": "function"
    },
    {
      "constant": true,
      "inputs": [],
      "name": "getBirthId",
      "outputs": [
        {
          "internalType": "uint256",
          "name": "_birthId",
          "type": "uint256"
        },
        {
          "internalType": "string",
          "name": "_name",
          "type": "string"
        },
        {
          "internalType": "string",
          "name": "_lastName",
          "type": "string"
        }
      ],
      "payable": false,
      "stateMutability": "view",
      "type": "function"
    },
    {
      "constant": false,
      "inputs": [
        {
          "internalType": "uint256",
          "name": "birthId",
          "type": "uint256"
        }
      ],
      "name": "verifyIdentity",
      "outputs": [
        {
          "internalType": "uint256",
          "name": "identityId",
          "type": "uint256"
        }
      ],
      "payable": false,
      "stateMutability": "nonpayable",
      "type": "function"
    },
    {
      "constant": true,
      "inputs": [],
      "name": "getIdentityId",
      "outputs": [
        {
          "internalType": "uint256",
          "name": "_identity",
          "type": "uint256"
        },
        {
          "internalType": "string",
          "name": "_name",
          "type": "string"
        },
        {
          "internalType": "string",
          "name": "_lastName",
          "type": "string"
        }
      ],
      "payable": false,
      "stateMutability": "view",
      "type": "function"
    },
    {
      "constant": false,
      "inputs": [
        {
          "internalType": "uint256",
          "name": "identityId",
          "type": "uint256"
        },
        {
          "internalType": "string",
          "name": "_marriageDate",
          "type": "string"
        }
      ],
      "name": "declareMarriage",
      "outputs": [],
      "payable": false,
      "stateMutability": "nonpayable",
      "type": "function"
    },
    {
      "constant": false,
      "inputs": [
        {
          "internalType": "string",
          "name": "_login",
          "type": "string"
        },
        {
          "internalType": "string",
          "name": "_oldPwd",
          "type": "string"
        },
        {
          "internalType": "string",
          "name": "_newPwd",
          "type": "string"
        }
      ],
      "name": "modifyMyPassword",
      "outputs": [],
      "payable": false,
      "stateMutability": "nonpayable",
      "type": "function"
    },
    {
      "constant": false,
      "inputs": [
        {
          "internalType": "string",
          "name": "login",
          "type": "string"
        },
        {
          "internalType": "string",
          "name": "pwd",
          "type": "string"
        }
      ],
      "name": "generateIdCertification",
      "outputs": [
        {
          "internalType": "bytes32",
          "name": "",
          "type": "bytes32"
        }
      ],
      "payable": false,
      "stateMutability": "nonpayable",
      "type": "function"
    },
    {
      "constant": true,
      "inputs": [
        {
          "internalType": "string",
          "name": "_login",
          "type": "string"
        }
      ],
      "name": "getCertification",
      "outputs": [
        {
          "internalType": "bytes32",
          "name": "",
          "type": "bytes32"
        }
      ],
      "payable": false,
      "stateMutability": "view",
      "type": "function"
    },
    {
      "constant": false,
      "inputs": [
        {
          "internalType": "bytes32",
          "name": "id_hash",
          "type": "bytes32"
        }
      ],
      "name": "verifyCertification",
      "outputs": [
        {
          "internalType": "string",
          "name": "_name",
          "type": "string"
        },
        {
          "internalType": "string",
          "name": "_lastName",
          "type": "string"
        },
        {
          "internalType": "string",
          "name": "_birthDate",
          "type": "string"
        },
        {
          "internalType": "string",
          "name": "_birthCity",
          "type": "string"
        },
        {
          "internalType": "string",
          "name": "_maritalStatus",
          "type": "string"
        }
      ],
      "payable": false,
      "stateMutability": "nonpayable",
      "type": "function"
    },
    {
      "constant": true,
      "inputs": [
        {
          "internalType": "uint256",
          "name": "birthId",
          "type": "uint256"
        }
      ],
      "name": "readBirth",
      "outputs": [
        {
          "internalType": "string",
          "name": "_name",
          "type": "string"
        },
        {
          "internalType": "string",
          "name": "_lastName",
          "type": "string"
        },
        {
          "internalType": "string",
          "name": "_birthDate",
          "type": "string"
        },
        {
          "internalType": "string",
          "name": "_birthCity",
          "type": "string"
        },
        {
          "internalType": "bool",
          "name": "_isVerified",
          "type": "bool"
        }
      ],
      "payable": false,
      "stateMutability": "view",
      "type": "function"
    },
    {
      "constant": true,
      "inputs": [
        {
          "internalType": "uint256",
          "name": "identityId",
          "type": "uint256"
        }
      ],
      "name": "readIdentity",
      "outputs": [
        {
          "internalType": "string",
          "name": "_name",
          "type": "string"
        },
        {
          "internalType": "string",
          "name": "_lastName",
          "type": "string"
        },
        {
          "internalType": "string",
          "name": "_birthDate",
          "type": "string"
        },
        {
          "internalType": "string",
          "name": "_birthCity",
          "type": "string"
        },
        {
          "internalType": "string",
          "name": "_maritalStatus",
          "type": "string"
        }
      ],
      "payable": false,
      "stateMutability": "view",
      "type": "function"
    }
  ],
  "bytecode": "0x608060405260008060006101000a81548160ff0219169083151502179055506000600555600060075534801561003457600080fd5b5033600060016101000a81548173ffffffffffffffffffffffffffffffffffffffff021916908373ffffffffffffffffffffffffffffffffffffffff160217905550615362806100856000396000f3fe608060405234801561001057600080fd5b50600436106101735760003560e01c806375f12b21116100de578063aac4b06211610097578063d0bbc1ac11610071578063d0bbc1ac146110b2578063dea0e3f714611309578063df189181146113ff578063eaab88d3146114da57610173565b8063aac4b06214610be6578063babb55c514610ddc578063c728da9614610e1e57610173565b806375f12b211461087857806384a3409d1461089a578063893d20e81461095f5780638da5cb5b146109a95780639097a632146109f3578063996f932b14610bdc57610173565b806341d204ad1161013057806341d204ad146105265780634f7b3c7d1461054457806353fb3c2414610613578063553639091461065d57806357959edc146106a75780637006045c1461078257610173565b806321e15d54146101785780632da2a89814610253578063398dbab01461029d5780633ccfd60b146102bb5780633de79ac9146102c557806341c0e1b51461051c575b600080fd5b6102516004803603604081101561018e57600080fd5b81019080803573ffffffffffffffffffffffffffffffffffffffff169060200190929190803590602001906401000000008111156101cb57600080fd5b8201836020820111156101dd57600080fd5b803590602001918460018302840111640100000000831117156101ff57600080fd5b91908080601f016020809104026020016040519081016040528093929190818152602001838380828437600081840152601f19601f820116905080830192505050505050509192919290505050611640565b005b61025b611a27565b604051808273ffffffffffffffffffffffffffffffffffffffff1673ffffffffffffffffffffffffffffffffffffffff16815260200191505060405180910390f35b6102a5611a9d565b6040518082815260200191505060405180910390f35b6102c3611aa7565b005b6102f1600480360360208110156102db57600080fd5b8101908080359060200190929190505050611b2a565b60405180806020018060200180602001806020018060200186810386528b818151815260200191508051906020019080838360005b83811015610341578082015181840152602081019050610326565b50505050905090810190601f16801561036e5780820380516001836020036101000a031916815260200191505b5086810385528a818151815260200191508051906020019080838360005b838110156103a757808201518184015260208101905061038c565b50505050905090810190601f1680156103d45780820380516001836020036101000a031916815260200191505b50868103845289818151815260200191508051906020019080838360005b8381101561040d5780820151818401526020810190506103f2565b50505050905090810190601f16801561043a5780820380516001836020036101000a031916815260200191505b50868103835288818151815260200191508051906020019080838360005b83811015610473578082015181840152602081019050610458565b50505050905090810190601f1680156104a05780820380516001836020036101000a031916815260200191505b50868103825287818151815260200191508051906020019080838360005b838110156104d95780820151818401526020810190506104be565b50505050905090810190601f1680156105065780820380516001836020036101000a031916815260200191505b509a505050505050505050505060405180910390f35b61052461223d565b005b61052e6122d2565b6040518082815260200191505060405180910390f35b6105fd6004803603602081101561055a57600080fd5b810190808035906020019064010000000081111561057757600080fd5b82018360208201111561058957600080fd5b803590602001918460018302840111640100000000831117156105ab57600080fd5b91908080601f016020809104026020016040519081016040528093929190818152602001838380828437600081840152601f19601f8201169050808301925050505050505091929192905050506122dc565b6040518082815260200191505060405180910390f35b61061b612352565b604051808273ffffffffffffffffffffffffffffffffffffffff1673ffffffffffffffffffffffffffffffffffffffff16815260200191505060405180910390f35b6106656123c8565b604051808273ffffffffffffffffffffffffffffffffffffffff1673ffffffffffffffffffffffffffffffffffffffff16815260200191505060405180910390f35b610780600480360360408110156106bd57600080fd5b81019080803573ffffffffffffffffffffffffffffffffffffffff169060200190929190803590602001906401000000008111156106fa57600080fd5b82018360208201111561070c57600080fd5b8035906020019184600183028401116401000000008311171561072e57600080fd5b91908080601f016020809104026020016040519081016040528093929190818152602001838380828437600081840152601f19601f82011690508083019250505050505050919291929050505061243e565b005b61078a612825565b604051808481526020018060200180602001838103835285818151815260200191508051906020019080838360005b838110156107d45780820151818401526020810190506107b9565b50505050905090810190601f1680156108015780820380516001836020036101000a031916815260200191505b50838103825284818151815260200191508051906020019080838360005b8381101561083a57808201518184015260208101905061081f565b50505050905090810190601f1680156108675780820380516001836020036101000a031916815260200191505b509550505050505060405180910390f35b6108806129c5565b604051808215151515815260200191505060405180910390f35b61095d600480360360408110156108b057600080fd5b8101908080359060200190929190803590602001906401000000008111156108d757600080fd5b8201836020820111156108e957600080fd5b8035906020019184600183028401116401000000008311171561090b57600080fd5b91908080601f016020809104026020016040519081016040528093929190818152602001838380828437600081840152601f19601f8201169050808301925050505050505091929192905050506129d7565b005b610967612bbd565b604051808273ffffffffffffffffffffffffffffffffffffffff1673ffffffffffffffffffffffffffffffffffffffff16815260200191505060405180910390f35b6109b1612be6565b604051808273ffffffffffffffffffffffffffffffffffffffff1673ffffffffffffffffffffffffffffffffffffffff16815260200191505060405180910390f35b610bda60048036036060811015610a0957600080fd5b8101908080359060200190640100000000811115610a2657600080fd5b820183602082011115610a3857600080fd5b80359060200191846001830284011164010000000083111715610a5a57600080fd5b91908080601f016020809104026020016040519081016040528093929190818152602001838380828437600081840152601f19601f82011690508083019250505050505050919291929080359060200190640100000000811115610abd57600080fd5b820183602082011115610acf57600080fd5b80359060200191846001830284011164010000000083111715610af157600080fd5b91908080601f016020809104026020016040519081016040528093929190818152602001838380828437600081840152601f19601f82011690508083019250505050505050919291929080359060200190640100000000811115610b5457600080fd5b820183602082011115610b6657600080fd5b80359060200191846001830284011164010000000083111715610b8857600080fd5b91908080601f016020809104026020016040519081016040528093929190818152602001838380828437600081840152601f19601f820116905080830192505050505050509192919290505050612c0c565b005b610be4612d0e565b005b610c1260048036036020811015610bfc57600080fd5b8101908080359060200190929190505050612d84565b60405180806020018060200180602001806020018615151515815260200185810385528a818151815260200191508051906020019080838360005b83811015610c68578082015181840152602081019050610c4d565b50505050905090810190601f168015610c955780820380516001836020036101000a031916815260200191505b50858103845289818151815260200191508051906020019080838360005b83811015610cce578082015181840152602081019050610cb3565b50505050905090810190601f168015610cfb5780820380516001836020036101000a031916815260200191505b50858103835288818151815260200191508051906020019080838360005b83811015610d34578082015181840152602081019050610d19565b50505050905090810190601f168015610d615780820380516001836020036101000a031916815260200191505b50858103825287818151815260200191508051906020019080838360005b83811015610d9a578082015181840152602081019050610d7f565b50505050905090810190601f168015610dc75780820380516001836020036101000a031916815260200191505b50995050505050505050505060405180910390f35b610e0860048036036020811015610df257600080fd5b810190808035906020019092919050505061308b565b6040518082815260200191505060405180910390f35b61109c60048036036080811015610e3457600080fd5b8101908080359060200190640100000000811115610e5157600080fd5b820183602082011115610e6357600080fd5b80359060200191846001830284011164010000000083111715610e8557600080fd5b91908080601f016020809104026020016040519081016040528093929190818152602001838380828437600081840152601f19601f82011690508083019250505050505050919291929080359060200190640100000000811115610ee857600080fd5b820183602082011115610efa57600080fd5b80359060200191846001830284011164010000000083111715610f1c57600080fd5b91908080601f016020809104026020016040519081016040528093929190818152602001838380828437600081840152601f19601f82011690508083019250505050505050919291929080359060200190640100000000811115610f7f57600080fd5b820183602082011115610f9157600080fd5b80359060200191846001830284011164010000000083111715610fb357600080fd5b91908080601f016020809104026020016040519081016040528093929190818152602001838380828437600081840152601f19601f8201169050808301925050505050505091929192908035906020019064010000000081111561101657600080fd5b82018360208201111561102857600080fd5b8035906020019184600183028401116401000000008311171561104a57600080fd5b91908080601f016020809104026020016040519081016040528093929190818152602001838380828437600081840152601f19601f820116905080830192505050505050509192919290505050613e61565b6040518082815260200191505060405180910390f35b6110de600480360360208110156110c857600080fd5b81019080803590602001909291905050506140f2565b60405180806020018060200180602001806020018060200186810386528b818151815260200191508051906020019080838360005b8381101561112e578082015181840152602081019050611113565b50505050905090810190601f16801561115b5780820380516001836020036101000a031916815260200191505b5086810385528a818151815260200191508051906020019080838360005b83811015611194578082015181840152602081019050611179565b50505050905090810190601f1680156111c15780820380516001836020036101000a031916815260200191505b50868103845289818151815260200191508051906020019080838360005b838110156111fa5780820151818401526020810190506111df565b50505050905090810190601f1680156112275780820380516001836020036101000a031916815260200191505b50868103835288818151815260200191508051906020019080838360005b83811015611260578082015181840152602081019050611245565b50505050905090810190601f16801561128d5780820380516001836020036101000a031916815260200191505b50868103825287818151815260200191508051906020019080838360005b838110156112c65780820151818401526020810190506112ab565b50505050905090810190601f1680156112f35780820380516001836020036101000a031916815260200191505b509a505050505050505050505060405180910390f35b6113116144ca565b604051808481526020018060200180602001838103835285818151815260200191508051906020019080838360005b8381101561135b578082015181840152602081019050611340565b50505050905090810190601f1680156113885780820380516001836020036101000a031916815260200191505b50838103825284818151815260200191508051906020019080838360005b838110156113c15780820151818401526020810190506113a6565b50505050905090810190601f1680156113ee5780820380516001836020036101000a031916815260200191505b509550505050505060405180910390f35b6114d86004803603604081101561141557600080fd5b81019080803573ffffffffffffffffffffffffffffffffffffffff1690602001909291908035906020019064010000000081111561145257600080fd5b82018360208201111561146457600080fd5b8035906020019184600183028401116401000000008311171561148657600080fd5b91908080601f016020809104026020016040519081016040528093929190818152602001838380828437600081840152601f19601f820116905080830192505050505050509192919290505050614664565b005b61162a600480360360408110156114f057600080fd5b810190808035906020019064010000000081111561150d57600080fd5b82018360208201111561151f57600080fd5b8035906020019184600183028401116401000000008311171561154157600080fd5b91908080601f016020809104026020016040519081016040528093929190818152602001838380828437600081840152601f19601f820116905080830192505050505050509192919290803590602001906401000000008111156115a457600080fd5b8201836020820111156115b657600080fd5b803590602001918460018302840111640100000000831117156115d857600080fd5b91908080601f016020809104026020016040519081016040528093929190818152602001838380828437600081840152601f19601f820116905080830192505050505050509192919290505050614a4b565b6040518082815260200191505060405180910390f35b3373ffffffffffffffffffffffffffffffffffffffff16600060019054906101000a900473ffffffffffffffffffffffffffffffffffffffff1673ffffffffffffffffffffffffffffffffffffffff161461169a57600080fd5b60606040518060400160405280600681526020017f6c6f67696e5f0000000000000000000000000000000000000000000000000000815250905060608173__LibConcatenateStrings_________________63266001d39091856040518363ffffffff1660e01b8152600401808060200180602001838103835285818151815260200191508051906020019080838360005b8381101561174757808201518184015260208101905061172c565b50505050905090810190601f1680156117745780820380516001836020036101000a031916815260200191505b50838103825284818151815260200191508051906020019080838360005b838110156117ad578082015181840152602081019050611792565b50505050905090810190601f1680156117da5780820380516001836020036101000a031916815260200191505b5094505050505060006040518083038186803b1580156117f957600080fd5b505af415801561180d573d6000803e3d6000fd5b505050506040513d6000823e3d601f19601f82011682018060405250602081101561183757600080fd5b810190808051604051939291908464010000000082111561185757600080fd5b8382019150602082018581111561186d57600080fd5b825186600182028301116401000000008211171561188a57600080fd5b8083526020830192505050908051906020019080838360005b838110156118be5780820151818401526020810190506118a3565b50505050905090810190601f1680156118eb5780820380516001836020036101000a031916815260200191505b506040525050509050604051806040016040528082815260200184815250600360008673ffffffffffffffffffffffffffffffffffffffff1673ffffffffffffffffffffffffffffffffffffffff1681526020019081526020016000206000820151816000019080519060200190611964929190615208565b506020820151816001019080519060200190611981929190615208565b509050507f401ac4b35a7b6689f6099149d9a4590d106d0b7850a038645519383db1f9e5aa836040518080602001828103825283818151815260200191508051906020019080838360005b838110156119e75780820151818401526020810190506119cc565b50505050905090810190601f168015611a145780820380516001836020036101000a031916815260200191505b509250505060405180910390a150505050565b6000806000600260003373ffffffffffffffffffffffffffffffffffffffff1673ffffffffffffffffffffffffffffffffffffffff1681526020019081526020016000206001018054600181600116156101000203166002900490501115611a9157339050611a96565b600090505b8091505090565b6000600554905090565b6000809054906101000a900460ff16611abf57600080fd5b600060019054906101000a900473ffffffffffffffffffffffffffffffffffffffff1673ffffffffffffffffffffffffffffffffffffffff166108fc479081150290604051600060405180830381858888f19350505050158015611b27573d6000803e3d6000fd5b50565b60608060608060606000600960008881526020019081526020016000206000015490507fdea944d26c9ad75cda8068a64776c72a44ed4a38a049e0e3e619c2a4c4a2bf5a600660008381526020019081526020016000206000016000016006600084815260200190815260200160002060000160010160066000858152602001908152602001600020600001600201600660008681526020019081526020016000206000016003016006600087815260200190815260200160002060050160405180806020018060200180602001806020018060200186810386528b818154600181600116156101000203166002900481526020019150805460018160011615610100020316600290048015611c815780601f10611c5657610100808354040283529160200191611c81565b820191906000526020600020905b815481529060010190602001808311611c6457829003601f168201915b505086810385528a818154600181600116156101000203166002900481526020019150805460018160011615610100020316600290048015611d045780601f10611cd957610100808354040283529160200191611d04565b820191906000526020600020905b815481529060010190602001808311611ce757829003601f168201915b5050868103845289818154600181600116156101000203166002900481526020019150805460018160011615610100020316600290048015611d875780601f10611d5c57610100808354040283529160200191611d87565b820191906000526020600020905b815481529060010190602001808311611d6a57829003601f168201915b5050868103835288818154600181600116156101000203166002900481526020019150805460018160011615610100020316600290048015611e0a5780601f10611ddf57610100808354040283529160200191611e0a565b820191906000526020600020905b815481529060010190602001808311611ded57829003601f168201915b5050868103825287818154600181600116156101000203166002900481526020019150805460018160011615610100020316600290048015611e8d5780601f10611e6257610100808354040283529160200191611e8d565b820191906000526020600020905b815481529060010190602001808311611e7057829003601f168201915b50509a505050505050505050505060405180910390a16006600082815260200190815260200160002060000160000160066000838152602001908152602001600020600001600101600660008481526020019081526020016000206000016002016006600085815260200190815260200160002060000160030160066000868152602001908152602001600020600501848054600181600116156101000203166002900480601f016020809104026020016040519081016040528092919081815260200182805460018160011615610100020316600290048015611fb25780601f10611f8757610100808354040283529160200191611fb2565b820191906000526020600020905b815481529060010190602001808311611f9557829003601f168201915b50505050509450838054600181600116156101000203166002900480601f01602080910402602001604051908101604052809291908181526020018280546001816001161561010002031660029004801561204e5780601f106120235761010080835404028352916020019161204e565b820191906000526020600020905b81548152906001019060200180831161203157829003601f168201915b50505050509350828054600181600116156101000203166002900480601f0160208091040260200160405190810160405280929190818152602001828054600181600116156101000203166002900480156120ea5780601f106120bf576101008083540402835291602001916120ea565b820191906000526020600020905b8154815290600101906020018083116120cd57829003601f168201915b50505050509250818054600181600116156101000203166002900480601f0160208091040260200160405190810160405280929190818152602001828054600181600116156101000203166002900480156121865780601f1061215b57610100808354040283529160200191612186565b820191906000526020600020905b81548152906001019060200180831161216957829003601f168201915b50505050509150808054600181600116156101000203166002900480601f0160208091040260200160405190810160405280929190818152602001828054600181600116156101000203166002900480156122225780601f106121f757610100808354040283529160200191612222565b820191906000526020600020905b81548152906001019060200180831161220557829003601f168201915b50505050509050955095509550955095505091939590929450565b3373ffffffffffffffffffffffffffffffffffffffff16600060019054906101000a900473ffffffffffffffffffffffffffffffffffffffff1673ffffffffffffffffffffffffffffffffffffffff161461229757600080fd5b600060019054906101000a900473ffffffffffffffffffffffffffffffffffffffff1673ffffffffffffffffffffffffffffffffffffffff16ff5b6000600754905090565b60006008826040518082805190602001908083835b6020831061231457805182526020820191506020810190506020830392506122f1565b6001836020036101000a0380198251168184511680821785525050505050509050019150509081526020016040518091039020600201549050919050565b6000806000600160003373ffffffffffffffffffffffffffffffffffffffff1673ffffffffffffffffffffffffffffffffffffffff16815260200190815260200160002060010180546001816001161561010002031660029004905011156123bc573390506123c1565b600090505b8091505090565b6000806000600360003373ffffffffffffffffffffffffffffffffffffffff1673ffffffffffffffffffffffffffffffffffffffff168152602001908152602001600020600101805460018160011615610100020316600290049050111561243257339050612437565b600090505b8091505090565b3373ffffffffffffffffffffffffffffffffffffffff16600060019054906101000a900473ffffffffffffffffffffffffffffffffffffffff1673ffffffffffffffffffffffffffffffffffffffff161461249857600080fd5b60606040518060400160405280600681526020017f6c6f67696e5f0000000000000000000000000000000000000000000000000000815250905060608173__LibConcatenateStrings_________________63266001d39091856040518363ffffffff1660e01b8152600401808060200180602001838103835285818151815260200191508051906020019080838360005b8381101561254557808201518184015260208101905061252a565b50505050905090810190601f1680156125725780820380516001836020036101000a031916815260200191505b50838103825284818151815260200191508051906020019080838360005b838110156125ab578082015181840152602081019050612590565b50505050905090810190601f1680156125d85780820380516001836020036101000a031916815260200191505b5094505050505060006040518083038186803b1580156125f757600080fd5b505af415801561260b573d6000803e3d6000fd5b505050506040513d6000823e3d601f19601f82011682018060405250602081101561263557600080fd5b810190808051604051939291908464010000000082111561265557600080fd5b8382019150602082018581111561266b57600080fd5b825186600182028301116401000000008211171561268857600080fd5b8083526020830192505050908051906020019080838360005b838110156126bc5780820151818401526020810190506126a1565b50505050905090810190601f1680156126e95780820380516001836020036101000a031916815260200191505b506040525050509050604051806040016040528082815260200184815250600160008673ffffffffffffffffffffffffffffffffffffffff1673ffffffffffffffffffffffffffffffffffffffff1681526020019081526020016000206000820151816000019080519060200190612762929190615208565b50602082015181600101908051906020019061277f929190615208565b509050507fab3562bab9e824ea5bd0d7e0ef837e93d1f7a8f3ee468ae9cb2c04d960bfc6d4836040518080602001828103825283818151815260200191508051906020019080838360005b838110156127e55780820151818401526020810190506127ca565b50505050905090810190601f1680156128125780820380516001836020036101000a031916815260200191505b509250505060405180910390a150505050565b60006060806000600754141561283f576007549250612858565b612855600160075461507690919063ffffffff16565b92505b600660008481526020019081526020016000206000016000018054600181600116156101000203166002900480601f0160208091040260200160405190810160405280929190818152602001828054600181600116156101000203166002900480156129055780601f106128da57610100808354040283529160200191612905565b820191906000526020600020905b8154815290600101906020018083116128e857829003601f168201915b50505050509150600660008481526020019081526020016000206000016001018054600181600116156101000203166002900480601f0160208091040260200160405190810160405280929190818152602001828054600181600116156101000203166002900480156129b95780601f1061298e576101008083540402835291602001916129b9565b820191906000526020600020905b81548152906001019060200180831161299c57829003601f168201915b50505050509050909192565b6000809054906101000a900460ff1681565b6000600360003373ffffffffffffffffffffffffffffffffffffffff1673ffffffffffffffffffffffffffffffffffffffff16815260200190815260200160002060010180546001816001161561010002031660029004905011612a3a57600080fd5b6000809054906101000a900460ff1615612a5357600080fd5b600115156006600084815260200190815260200160002060000160040160009054906101000a900460ff16151514612a8a57600080fd5b6040518060400160405280600781526020017f6d61727269656400000000000000000000000000000000000000000000000000815250600660008481526020019081526020016000206005019080519060200190612ae9929190615288565b5080600660008481526020019081526020016000206006019080519060200190612b14929190615288565b507fc7b118d015ed4a95450d7ff616d44d5a9ff7ad9d46e3360ac8ae088efd6a555281836040518080602001838152602001828103825284818151815260200191508051906020019080838360005b83811015612b7e578082015181840152602081019050612b63565b50505050905090810190601f168015612bab5780820380516001836020036101000a031916815260200191505b50935050505060405180910390a15050565b60008060019054906101000a900473ffffffffffffffffffffffffffffffffffffffff16905090565b600060019054906101000a900473ffffffffffffffffffffffffffffffffffffffff1681565b81805190602001206008846040518082805190602001908083835b60208310612c4a5780518252602082019150602081019050602083039250612c27565b6001836020036101000a03801982511681845116808217855250505050505090500191505090815260200160405180910390206001015414612c8b57600080fd5b600081805190602001209050806008856040518082805190602001908083835b60208310612cce5780518252602082019150602081019050602083039250612cab565b6001836020036101000a03801982511681845116808217855250505050505090500191505090815260200160405180910390206001018190555050505050565b3373ffffffffffffffffffffffffffffffffffffffff16600060019054906101000a900473ffffffffffffffffffffffffffffffffffffffff1673ffffffffffffffffffffffffffffffffffffffff1614612d6857600080fd5b60016000806101000a81548160ff021916908315150217905550565b6060806060806000600460008781526020019081526020016000206000016004600088815260200190815260200160002060010160046000898152602001908152602001600020600201600460008a8152602001908152602001600020600301600460008b815260200190815260200160002060040160009054906101000a900460ff16848054600181600116156101000203166002900480601f016020809104026020016040519081016040528092919081815260200182805460018160011615610100020316600290048015612e9d5780601f10612e7257610100808354040283529160200191612e9d565b820191906000526020600020905b815481529060010190602001808311612e8057829003601f168201915b50505050509450838054600181600116156101000203166002900480601f016020809104026020016040519081016040528092919081815260200182805460018160011615610100020316600290048015612f395780601f10612f0e57610100808354040283529160200191612f39565b820191906000526020600020905b815481529060010190602001808311612f1c57829003601f168201915b50505050509350828054600181600116156101000203166002900480601f016020809104026020016040519081016040528092919081815260200182805460018160011615610100020316600290048015612fd55780601f10612faa57610100808354040283529160200191612fd5565b820191906000526020600020905b815481529060010190602001808311612fb857829003601f168201915b50505050509250818054600181600116156101000203166002900480601f0160208091040260200160405190810160405280929190818152602001828054600181600116156101000203166002900480156130715780601f1061304657610100808354040283529160200191613071565b820191906000526020600020905b81548152906001019060200180831161305457829003601f168201915b505050505091509450945094509450945091939590929450565b600080600260003373ffffffffffffffffffffffffffffffffffffffff1673ffffffffffffffffffffffffffffffffffffffff168152602001908152602001600020600101805460018160011615610100020316600290049050116130ef57600080fd5b6000809054906101000a900460ff161561310857600080fd5b600015156004600084815260200190815260200160002060040160009054906101000a900460ff1615151461313c57600080fd5b60016004600084815260200190815260200160002060040160006101000a81548160ff02191690831515021790555060606040518060400160405280600681526020017f6c6f67696e5f0000000000000000000000000000000000000000000000000000815250905060608173__LibConcatenateStrings_________________63266001d39091600460008881526020019081526020016000206001016040518363ffffffff1660e01b8152600401808060200180602001838103835285818151815260200191508051906020019080838360005b8381101561322d578082015181840152602081019050613212565b50505050905090810190601f16801561325a5780820380516001836020036101000a031916815260200191505b508381038252848181546001816001161561010002031660029004815260200191508054600181600116156101000203166002900480156132dc5780601f106132b1576101008083540402835291602001916132dc565b820191906000526020600020905b8154815290600101906020018083116132bf57829003601f168201915b505094505050505060006040518083038186803b1580156132fc57600080fd5b505af4158015613310573d6000803e3d6000fd5b505050506040513d6000823e3d601f19601f82011682018060405250602081101561333a57600080fd5b810190808051604051939291908464010000000082111561335a57600080fd5b8382019150602082018581111561337057600080fd5b825186600182028301116401000000008211171561338d57600080fd5b8083526020830192505050908051906020019080838360005b838110156133c15780820151818401526020810190506133a6565b50505050905090810190601f1680156133ee5780820380516001836020036101000a031916815260200191505b5060405250505090508073__LibConcatenateStrings_________________63266001d39091600460008881526020019081526020016000206002016040518363ffffffff1660e01b8152600401808060200180602001838103835285818151815260200191508051906020019080838360005b8381101561347d578082015181840152602081019050613462565b50505050905090810190601f1680156134aa5780820380516001836020036101000a031916815260200191505b5083810382528481815460018160011615610100020316600290048152602001915080546001816001161561010002031660029004801561352c5780601f106135015761010080835404028352916020019161352c565b820191906000526020600020905b81548152906001019060200180831161350f57829003601f168201915b505094505050505060006040518083038186803b15801561354c57600080fd5b505af4158015613560573d6000803e3d6000fd5b505050506040513d6000823e3d601f19601f82011682018060405250602081101561358a57600080fd5b81019080805160405193929190846401000000008211156135aa57600080fd5b838201915060208201858111156135c057600080fd5b82518660018202830111640100000000821117156135dd57600080fd5b8083526020830192505050908051906020019080838360005b838110156136115780820151818401526020810190506135f6565b50505050905090810190601f16801561363e5780820380516001836020036101000a031916815260200191505b50604052505050915060606040518060400160405280600481526020017f7077645f00000000000000000000000000000000000000000000000000000000815250905060608173__LibConcatenateStrings_________________63266001d39091600460008a81526020019081526020016000206002016040518363ffffffff1660e01b8152600401808060200180602001838103835285818151815260200191508051906020019080838360005b838110156137095780820151818401526020810190506136ee565b50505050905090810190601f1680156137365780820380516001836020036101000a031916815260200191505b508381038252848181546001816001161561010002031660029004815260200191508054600181600116156101000203166002900480156137b85780601f1061378d576101008083540402835291602001916137b8565b820191906000526020600020905b81548152906001019060200180831161379b57829003601f168201915b505094505050505060006040518083038186803b1580156137d857600080fd5b505af41580156137ec573d6000803e3d6000fd5b505050506040513d6000823e3d601f19601f82011682018060405250602081101561381657600080fd5b810190808051604051939291908464010000000082111561383657600080fd5b8382019150602082018581111561384c57600080fd5b825186600182028301116401000000008211171561386957600080fd5b8083526020830192505050908051906020019080838360005b8381101561389d578082015181840152602081019050613882565b50505050905090810190601f1680156138ca5780820380516001836020036101000a031916815260200191505b50604052505050905060008180519060200120905060006040518060400160405280600381526020017f6e65770000000000000000000000000000000000000000000000000000000000815250805190602001209050600754965061393b60016007546150c090919063ffffffff16565b6007819055506040518060800160405280600460008b81526020019081526020016000206040518060a0016040529081600082018054600181600116156101000203166002900480601f016020809104026020016040519081016040528092919081815260200182805460018160011615610100020316600290048015613a035780601f106139d857610100808354040283529160200191613a03565b820191906000526020600020905b8154815290600101906020018083116139e657829003601f168201915b50505050508152602001600182018054600181600116156101000203166002900480601f016020809104026020016040519081016040528092919081815260200182805460018160011615610100020316600290048015613aa55780601f10613a7a57610100808354040283529160200191613aa5565b820191906000526020600020905b815481529060010190602001808311613a8857829003601f168201915b50505050508152602001600282018054600181600116156101000203166002900480601f016020809104026020016040519081016040528092919081815260200182805460018160011615610100020316600290048015613b475780601f10613b1c57610100808354040283529160200191613b47565b820191906000526020600020905b815481529060010190602001808311613b2a57829003601f168201915b50505050508152602001600382018054600181600116156101000203166002900480601f016020809104026020016040519081016040528092919081815260200182805460018160011615610100020316600290048015613be95780601f10613bbe57610100808354040283529160200191613be9565b820191906000526020600020905b815481529060010190602001808311613bcc57829003601f168201915b505050505081526020016004820160009054906101000a900460ff16151515158152505081526020016040518060400160405280600681526020017f73696e676c650000000000000000000000000000000000000000000000000000815250815260200160405180602001604052806000815250815260200187815250600660008981526020019081526020016000206000820151816000016000820151816000019080519060200190613c9e929190615208565b506020820151816001019080519060200190613cbb929190615208565b506040820151816002019080519060200190613cd8929190615208565b506060820151816003019080519060200190613cf5929190615208565b5060808201518160040160006101000a81548160ff02191690831515021790555050506020820151816005019080519060200190613d34929190615208565b506040820151816006019080519060200190613d51929190615208565b506060820151816007019080519060200190613d6e929190615208565b509050506040518060600160405280888152602001838152602001828152506008876040518082805190602001908083835b60208310613dc35780518252602082019150602081019050602083039250613da0565b6001836020036101000a03801982511681845116808217855250505050505090500191505090815260200160405180910390206000820151816000015560208201518160010155604082015181600201559050507f742c345840647c71e989bcfe501f009faa76e04998bb4c2ea8b4adc5ac0659998888604051808381526020018281526020019250505060405180910390a1505050505050919050565b600080600160003373ffffffffffffffffffffffffffffffffffffffff1673ffffffffffffffffffffffffffffffffffffffff16815260200190815260200160002060010180546001816001161561010002031660029004905011613ec557600080fd5b6000809054906101000a900460ff1615613ede57600080fd5b60006005549050613efb60016005546150c090919063ffffffff16565b6005819055506040518060a0016040528087815260200186815260200185815260200184815260200160001515815250600460008381526020019081526020016000206000820151816000019080519060200190613f5a929190615208565b506020820151816001019080519060200190613f77929190615208565b506040820151816002019080519060200190613f94929190615208565b506060820151816003019080519060200190613fb1929190615208565b5060808201518160040160006101000a81548160ff0219169083151502179055509050507f975e5fd57c7c0e6b1a8c1a5d6861dce72c6672a93848401afb36caa4eb90ba83868683604051808060200180602001848152602001838103835286818151815260200191508051906020019080838360005b83811015614043578082015181840152602081019050614028565b50505050905090810190601f1680156140705780820380516001836020036101000a031916815260200191505b50838103825285818151815260200191508051906020019080838360005b838110156140a957808201518184015260208101905061408e565b50505050905090810190601f1680156140d65780820380516001836020036101000a031916815260200191505b509550505050505060405180910390a180915050949350505050565b6060806060806060600115156006600088815260200190815260200160002060000160040160009054906101000a900460ff1615151461413157600080fd5b600660008781526020019081526020016000206000016000016006600088815260200190815260200160002060000160010160066000898152602001908152602001600020600001600201600660008a8152602001908152602001600020600001600301600660008b8152602001908152602001600020600501848054600181600116156101000203166002900480601f0160208091040260200160405190810160405280929190818152602001828054600181600116156101000203166002900480156142405780601f1061421557610100808354040283529160200191614240565b820191906000526020600020905b81548152906001019060200180831161422357829003601f168201915b50505050509450838054600181600116156101000203166002900480601f0160208091040260200160405190810160405280929190818152602001828054600181600116156101000203166002900480156142dc5780601f106142b1576101008083540402835291602001916142dc565b820191906000526020600020905b8154815290600101906020018083116142bf57829003601f168201915b50505050509350828054600181600116156101000203166002900480601f0160208091040260200160405190810160405280929190818152602001828054600181600116156101000203166002900480156143785780601f1061434d57610100808354040283529160200191614378565b820191906000526020600020905b81548152906001019060200180831161435b57829003601f168201915b50505050509250818054600181600116156101000203166002900480601f0160208091040260200160405190810160405280929190818152602001828054600181600116156101000203166002900480156144145780601f106143e957610100808354040283529160200191614414565b820191906000526020600020905b8154815290600101906020018083116143f757829003601f168201915b50505050509150808054600181600116156101000203166002900480601f0160208091040260200160405190810160405280929190818152602001828054600181600116156101000203166002900480156144b05780601f10614485576101008083540402835291602001916144b0565b820191906000526020600020905b81548152906001019060200180831161449357829003601f168201915b505050505090509450945094509450945091939590929450565b6000606080600060055414156144e45760055492506144fd565b6144fa600160055461507690919063ffffffff16565b92505b600460008481526020019081526020016000206000018054600181600116156101000203166002900480601f0160208091040260200160405190810160405280929190818152602001828054600181600116156101000203166002900480156145a75780601f1061457c576101008083540402835291602001916145a7565b820191906000526020600020905b81548152906001019060200180831161458a57829003601f168201915b50505050509150600460008481526020019081526020016000206001018054600181600116156101000203166002900480601f0160208091040260200160405190810160405280929190818152602001828054600181600116156101000203166002900480156146585780601f1061462d57610100808354040283529160200191614658565b820191906000526020600020905b81548152906001019060200180831161463b57829003601f168201915b50505050509050909192565b3373ffffffffffffffffffffffffffffffffffffffff16600060019054906101000a900473ffffffffffffffffffffffffffffffffffffffff1673ffffffffffffffffffffffffffffffffffffffff16146146be57600080fd5b60606040518060400160405280600681526020017f6c6f67696e5f0000000000000000000000000000000000000000000000000000815250905060608173__LibConcatenateStrings_________________63266001d39091856040518363ffffffff1660e01b8152600401808060200180602001838103835285818151815260200191508051906020019080838360005b8381101561476b578082015181840152602081019050614750565b50505050905090810190601f1680156147985780820380516001836020036101000a031916815260200191505b50838103825284818151815260200191508051906020019080838360005b838110156147d15780820151818401526020810190506147b6565b50505050905090810190601f1680156147fe5780820380516001836020036101000a031916815260200191505b5094505050505060006040518083038186803b15801561481d57600080fd5b505af4158015614831573d6000803e3d6000fd5b505050506040513d6000823e3d601f19601f82011682018060405250602081101561485b57600080fd5b810190808051604051939291908464010000000082111561487b57600080fd5b8382019150602082018581111561489157600080fd5b82518660018202830111640100000000821117156148ae57600080fd5b8083526020830192505050908051906020019080838360005b838110156148e25780820151818401526020810190506148c7565b50505050905090810190601f16801561490f5780820380516001836020036101000a031916815260200191505b506040525050509050604051806040016040528082815260200184815250600260008673ffffffffffffffffffffffffffffffffffffffff1673ffffffffffffffffffffffffffffffffffffffff1681526020019081526020016000206000820151816000019080519060200190614988929190615208565b5060208201518160010190805190602001906149a5929190615208565b509050507fa7b9cf10953e89fba48615bdedc4c557e19daee10f4f77f3ab1a2d2bb951a041836040518080602001828103825283818151815260200191508051906020019080838360005b83811015614a0b5780820151818401526020810190506149f0565b50505050905090810190601f168015614a385780820380516001836020036101000a031916815260200191505b509250505060405180910390a150505050565b600081805190602001206008846040518082805190602001908083835b60208310614a8b5780518252602082019150602081019050602083039250614a68565b6001836020036101000a03801982511681845116808217855250505050505090500191505090815260200160405180910390206001015414614acc57600080fd5b60006008846040518082805190602001908083835b60208310614b045780518252602082019150602081019050602083039250614ae1565b6001836020036101000a038019825116818451168082178552505050505050905001915050908152602001604051809103902060000154905060608173__LibTransformUintString________________63e939567990916040518263ffffffff1660e01b81526004018082815260200191505060006040518083038186803b158015614b9057600080fd5b505af4158015614ba4573d6000803e3d6000fd5b505050506040513d6000823e3d601f19601f820116820180604052506020811015614bce57600080fd5b8101908080516040519392919084640100000000821115614bee57600080fd5b83820191506020820185811115614c0457600080fd5b8251866001820283011164010000000082111715614c2157600080fd5b8083526020830192505050908051906020019080838360005b83811015614c55578082015181840152602081019050614c3a565b50505050905090810190601f168015614c825780820380516001836020036101000a031916815260200191505b50604052505050905060608173__LibConcatenateStrings_________________63266001d39091876040518363ffffffff1660e01b8152600401808060200180602001838103835285818151815260200191508051906020019080838360005b83811015614cfe578082015181840152602081019050614ce3565b50505050905090810190601f168015614d2b5780820380516001836020036101000a031916815260200191505b50838103825284818151815260200191508051906020019080838360005b83811015614d64578082015181840152602081019050614d49565b50505050905090810190601f168015614d915780820380516001836020036101000a031916815260200191505b5094505050505060006040518083038186803b158015614db057600080fd5b505af4158015614dc4573d6000803e3d6000fd5b505050506040513d6000823e3d601f19601f820116820180604052506020811015614dee57600080fd5b8101908080516040519392919084640100000000821115614e0e57600080fd5b83820191506020820185811115614e2457600080fd5b8251866001820283011164010000000082111715614e4157600080fd5b8083526020830192505050908051906020019080838360005b83811015614e75578082015181840152602081019050614e5a565b50505050905090810190601f168015614ea25780820380516001836020036101000a031916815260200191505b506040525050509050600081805190602001209050806008886040518082805190602001908083835b60208310614eee5780518252602082019150602081019050602083039250614ecb565b6001836020036101000a0380198251168184511680821785525050505050509050019150509081526020016040518091039020600201819055506008876040518082805190602001908083835b60208310614f5e5780518252602082019150602081019050602083039250614f3b565b6001836020036101000a0380198251168184511680821785525050505050509050019150509081526020016040518091039020600960008381526020019081526020016000206000820154816000015560018201548160010155600282015481600201559050507fb3c104ebb8d7c2039282f84239773ba591395f85016526077eeab6912a11dda487826040518080602001838152602001828103825284818151815260200191508051906020019080838360005b8381101561502e578082015181840152602081019050615013565b50505050905090810190601f16801561505b5780820380516001836020036101000a031916815260200191505b50935050505060405180910390a18094505050505092915050565b60006150b883836040518060400160405280601e81526020017f536166654d6174683a207375627472616374696f6e206f766572666c6f770000815250615148565b905092915050565b60008082840190508381101561513e576040517f08c379a000000000000000000000000000000000000000000000000000000000815260040180806020018281038252601b8152602001807f536166654d6174683a206164646974696f6e206f766572666c6f77000000000081525060200191505060405180910390fd5b8091505092915050565b60008383111582906151f5576040517f08c379a00000000000000000000000000000000000000000000000000000000081526004018080602001828103825283818151815260200191508051906020019080838360005b838110156151ba57808201518184015260208101905061519f565b50505050905090810190601f1680156151e75780820380516001836020036101000a031916815260200191505b509250505060405180910390fd5b5060008385039050809150509392505050565b828054600181600116156101000203166002900490600052602060002090601f016020900481019282601f1061524957805160ff1916838001178555615277565b82800160010185558215615277579182015b8281111561527657825182559160200191906001019061525b565b5b5090506152849190615308565b5090565b828054600181600116156101000203166002900490600052602060002090601f016020900481019282601f106152c957805160ff19168380011785556152f7565b828001600101855582156152f7579182015b828111156152f65782518255916020019190600101906152db565b5b5090506153049190615308565b5090565b61532a91905b8082111561532657600081600090555060010161530e565b5090565b9056fea265627a7a72315820d0a0c8a5ac04d667956ce5180efd3eae4ca5022bf48c7c7b5487b300a54721bc64736f6c63430005100032",
  "source": "// SPDX-License-Identifier: MIT\r\npragma solidity >=0.4.21 <0.8.0;\r\n\r\n/* \r\n* Libraries needed in the contract 'Civil State' contract\r\n*/\r\n/** @title LibConcatenateStrings. */\r\n/// @dev Library with a function for concatenating strings\r\nimport {LibConcatenateStrings} from './LibConcatenateStrings.sol';\r\n/** @title LibTransformUintString. */\r\n/// @dev Library with a function to transform an 'uint' in a 'string\r\nimport {LibTransformUintString} from './LibTransformUintString.sol';\r\n/** @title SafeMath. */\r\n/** \r\n * @dev Library with functions to realize arithmetic operations with overflow checks\r\n *\r\n * Contract collection retrieved from : https://github.com/OpenZeppelin/openzeppelin-contracts/blob/master/contracts/math/SafeMath.sol\r\n *\r\n*/\r\nimport {SafeMath} from './SafeMath.sol';\r\n\r\n/** @title CivilState. */\r\ncontract CivilState {\r\n    /// @dev Include libraries codes and initialize its use in the contract\r\n    using LibConcatenateStrings for string;\r\n    using LibTransformUintString for *;\r\n    using SafeMath for uint; \r\n\r\n    /**\r\n     * @dev State variable to allow contract functionnlity to be stopped\r\n     * For implementing circuit breaker pattern\r\n     */ \r\n    bool public stopped = false;\r\n    \r\n    /// @dev Owner address\r\n    address payable public owner;\r\n\r\n    /** \r\n    * @dev Contains the birth elements \r\n    * Elements : name, last name, birth date, birth city and verification status\r\n    */\r\n    struct Birth {\r\n        string name;\r\n        string lastName;\r\n        string birthDate;\r\n        string birthCity;\r\n        bool isVerified;\r\n    }\r\n\r\n    /** \r\n    * @dev Contains the identity elements \r\n    * Elements : information from the birth, marital status, marriage date and user login\r\n    */    \r\n    struct Identity {\r\n        Birth birthinfo;\r\n        string maritalStatus;\r\n        string marriageDate;\r\n        string userLogin;\r\n    }\r\n\r\n    /** \r\n    * @dev Contains users (citizens) identifiers \r\n    * Elements : \r\n    *   - Identification number\r\n    *   - Hash of the user's password\r\n    *   - Hash of the last certification generated by the user\r\n    */    \r\n    struct Identifier {\r\n        uint userIdentityCount;\r\n        bytes32 userPassword;\r\n        bytes32 newCertification;\r\n    }\r\n\r\n    /** \r\n    * @dev Contains hospital, prefecture and city hall members authentification information\r\n    * Elements : member login, member name\r\n    */    \r\n    struct Authentification {\r\n        string login;\r\n        string name;\r\n    }\r\n    \r\n    \r\n    /// @dev Maps hospital members addresses to their authentification information\r\n    mapping (address => Authentification) hospitalMembers;\r\n\r\n    /// @dev Maps prefecture members addresses to their authentification information\r\n    mapping (address => Authentification) prefectureMembers;\r\n\r\n    /// @dev Maps city hall members addresses to their authentification information\r\n    mapping (address => Authentification) cityHallMembers;\r\n\r\n    /// @dev Maps births identifications to the birth information\r\n    mapping (uint => Birth) births;\r\n    uint birthsCount = 0;\r\n\r\n    /// @dev Maps identities identifications to the identity (citizen) information \r\n    mapping (uint => Identity) identities;\r\n    uint identitiesCount = 0;\r\n\r\n    /// @dev Maps user login (string) to the user identifier\r\n    mapping(string => Identifier) citizenIdentifiers;\r\n\r\n    /// @dev Maps user certification hash (bytes32) to the user identifier\r\n    mapping(bytes32 => Identifier) idCertifications;\r\n\r\n    /**\r\n     * Events\r\n     */ \r\n    /// @dev Event signaling that a new hospital member was added\r\n    event LogEventAddHospitalMember(string memberName);\r\n    /// @dev Event signaling that a new prefecture member was added\r\n    event LogEventAddPrefectureMember(string memberName);\r\n    /// @dev Event signaling that a new cityHall member was added\r\n    event LogEventAddCityHallMember(string memberName);\r\n    /// @dev Event signaling that a new birth member was declared\r\n    event LogEventBirthAdded (string name, string lastName, uint birthId);\r\n    /// @dev Event signaling that a new identity was verified\r\n    event LogEventVerifyIdentity(uint birthId, uint identityId);\r\n    /// @dev Event signaling that new marriage member was declared\r\n    event LogEventDeclareMarriage(string marriageDate, uint identityId);\r\n    /// @dev Event signaling that a certification was generated\r\n    event LogEventCertificationGenerated(string login, bytes32 identity_hash);\r\n    /// @dev Event verifying a certification\r\n    event LogEventVerifyCertification (string name, string lastName, string birthDate, string birthCity, string maritalStatus);\r\n\r\n    /**\r\n     * Modifiers\r\n     */ \r\n\r\n    /**\r\n     * @dev Permit certain functions only when 'stopped' is false\r\n     * Circuit breaker pattern\r\n     */\r\n    modifier stopInEmergency { \r\n        require(!stopped); _; \r\n    }\r\n    /**\r\n     * @dev Permit withdraw function only when 'stopped' is true\r\n     * Circuit breaker pattern\r\n     */    \r\n    modifier onlyInEmergency { \r\n        require(stopped); _; \r\n    }    \r\n\r\n    \r\n    \r\n    /// @dev Throws an error if the msg.sender is not the owner.\r\n    modifier isAdmin () {\r\n        require(owner == msg.sender);\r\n        _;\r\n    }\r\n\r\n    /// @dev Throws an error if the msg.sender is not a hospital member.\r\n    modifier isHospital () {\r\n        require (bytes(hospitalMembers[msg.sender].name).length > 0);\r\n        _;\r\n    }\r\n\r\n    /// @dev Throws an error if the msg.sender is not a prefecture member.\r\n    modifier isPrefecture () {\r\n        require (bytes(prefectureMembers[msg.sender].name).length > 0);\r\n        _;\r\n    }\r\n\r\n    /// @dev Throws an error if the msg.sender is not a city hall member.\r\n    modifier isCityHall () {\r\n        require (bytes(cityHallMembers[msg.sender].name).length > 0);\r\n        _;\r\n    }\r\n\r\n    /// @dev Contract constructor sets the owner\r\n    constructor () public {\r\n        owner = msg.sender;\r\n    }    \r\n  \r\n\r\n    /**\r\n     * @dev Changes stopped state variable to 'true'\r\n     * Only the admin (owner) can call it\r\n     * Circuit breaker pattern\r\n     */\r\n    function stopCivilStateContract() public isAdmin {\r\n        stopped = true;\r\n    }\r\n\r\n    /**\r\n     * @dev Withdraws contract balance to the owner's account\r\n     * Only the admin (owner) can call it\r\n     * Only possible when 'stopped' is true\r\n     * Circuit breaker pattern\r\n     */\r\n    function withdraw() onlyInEmergency public {\r\n        owner.transfer(address(this).balance);\r\n    }\r\n\r\n    /**\r\n     * @dev Destroys contract and removes it from the blockchain\r\n     * Only the admin (owner) can call it\r\n     * Mortal pattern\r\n     */\r\n    function kill() public isAdmin {\r\n\r\n        selfdestruct(address(uint160(owner))); // cast owner to address payable\r\n    }\r\n\r\n    /**\r\n     * Helper functions\r\n     */\r\n    /// @dev Gets the births count.\r\n    /// @return birthsCount Births count.\r\n    function getBirthsCount() public view returns(uint) {\r\n        return birthsCount; \r\n    }\r\n\r\n    /// @dev Gets the identitues count.\r\n    /// @return identitiesCount Identities count.\r\n    function getIdentitiesCount() public view returns(uint){\r\n        return identitiesCount;\r\n    }\r\n\r\n    /// @dev Gets owner address.\r\n    /// @return Owner's address.\r\n    function getOwner() public view returns(address){\r\n        return owner;\r\n    }\r\n\r\n    /// @dev Verifies if the msg.sender is a hospital member.\r\n    /// @return The hospital member address (if it is a member, otherwise return '0x..0').\r\n    function isHospitalMember() public view returns(address){\r\n        address memberAddress;\r\n        if (bytes(hospitalMembers[msg.sender].name).length > 0) {\r\n            memberAddress = msg.sender;\r\n        } else {\r\n            memberAddress = 0x0000000000000000000000000000000000000000;\r\n        }\r\n        return memberAddress;\r\n    }\r\n\r\n    /// @dev Verifies if the msg.sender is a prefecture member.\r\n    /// @return The prefecture member address (if it is a member, otherwise return '0x..0').\r\n    function isPrefectureMember() public view returns(address){\r\n        address memberAddress;\r\n        if (bytes(prefectureMembers[msg.sender].name).length > 0) {\r\n            memberAddress = msg.sender;\r\n        } else {\r\n            memberAddress = 0x0000000000000000000000000000000000000000;\r\n        }\r\n        return memberAddress;\r\n    }\r\n\r\n    /// @dev Verifies if the msg.sender is a city hall member.\r\n    /// @return The city hall member address (if it is a member, otherwise return '0x..0').\r\n    function isCityHallMember() public view returns(address){\r\n        address memberAddress;\r\n        if (bytes(cityHallMembers[msg.sender].name).length > 0) {\r\n            memberAddress = msg.sender;\r\n        } else {\r\n            memberAddress = 0x0000000000000000000000000000000000000000;\r\n        }\r\n        return memberAddress;\r\n    }\r\n   \r\n    /**\r\n     * Admin functions\r\n     */\r\n\r\n    /// @dev Adds a hospital member.\r\n    /// @param _newMember Address of the new member.\r\n    /// @param _memberName Name of the new member.\r\n    function addHospitalMember (address _newMember, string memory _memberName) public isAdmin {\r\n        // Initialization of login\r\n        string memory login = \"login_\";\r\n        string memory _login = login.concatenate(_memberName);       \r\n        hospitalMembers[_newMember] = Authentification({\r\n            login : _login,\r\n            name : _memberName\r\n        });\r\n        emit LogEventAddHospitalMember(_memberName);\r\n    }\r\n\r\n    /// @dev Adds a prefecture member.\r\n    /// @param _newMember Address of the new member.\r\n    /// @param _memberName Name of the new member.\r\n    function addPrefectureMember (address _newMember, string memory _memberName) public isAdmin {\r\n        // Initialization of login\r\n        string memory login = \"login_\";\r\n        string memory _login = login.concatenate(_memberName); \r\n        prefectureMembers[_newMember] = Authentification({\r\n            login : _login,\r\n            name : _memberName\r\n        });\r\n        emit LogEventAddPrefectureMember(_memberName);\r\n    }\r\n\r\n    /// @dev Adds a city hall member.\r\n    /// @param _newMember Address of the new member.\r\n    /// @param _memberName Name of the new member.\r\n    function addCityHallMember (address _newMember, string memory _memberName) public isAdmin {\r\n        // Initialization of login\r\n        string memory login = \"login_\";\r\n        string memory _login = login.concatenate(_memberName); \r\n        cityHallMembers[_newMember] = Authentification({\r\n            login : _login,\r\n            name : _memberName\r\n        });\r\n        emit LogEventAddCityHallMember(_memberName);\r\n    }\r\n\r\n    /**\r\n     * Hospital members functions\r\n     */\r\n\r\n    /// @dev Adds a new birth.\r\n    /// @param _name Birth name.\r\n    /// @param _lastName Birth last name.\r\n    /// @param _birthDate Birth date.\r\n    /// @param _birthCity Birth city.\r\n    /// @return birthId The birth identification.       \r\n    function addBirth (string memory _name, string memory _lastName, string memory _birthDate, string memory _birthCity) public isHospital stopInEmergency returns(uint) {\r\n        uint birthId = birthsCount;\r\n        birthsCount = birthsCount.add(1);\r\n        births[birthId] = Birth({\r\n            name : _name,\r\n            lastName : _lastName,\r\n            birthDate : _birthDate,\r\n            birthCity : _birthCity,\r\n            isVerified : false\r\n        });\r\n        emit LogEventBirthAdded(_name, _lastName, birthId);\r\n        return birthId;\r\n    }\r\n\r\n    /// @dev Gets the identification of the last birth added  \r\n    /// @return _birthId Birth identification of the last birth added.\r\n    /// @return _name Birth name of the last birth added.\r\n    /// @return _lastName Birth last name of the last birth added.    \r\n    function getBirthId () public view returns (uint _birthId, string memory _name, string memory _lastName){\r\n        if (birthsCount == 0) {\r\n          _birthId = birthsCount;  \r\n        } else {\r\n          _birthId = birthsCount.sub(1);  \r\n        }\r\n        _name = births[_birthId].name;\r\n        _lastName = births[_birthId].lastName;\r\n \r\n    }\r\n\r\n    /**\r\n     * Prefecture members functions\r\n     */    \r\n\r\n    /// @dev Verifies an identity.\r\n    /// @param birthId Birth identitication to verify.\r\n    /// @return identityId The identity identification.\r\n    function verifyIdentity (uint birthId) public isPrefecture stopInEmergency returns (uint identityId) {\r\n        require(births[birthId].isVerified == false);\r\n        births[birthId].isVerified = true;\r\n        \r\n        // Initialization of login and password\r\n        string memory login = \"login_\";\r\n        string memory _login = login.concatenate(births[birthId].lastName); \r\n        login = _login.concatenate(births[birthId].birthDate);        \r\n        \r\n        string memory pwd = \"pwd_\";\r\n        string memory password = pwd.concatenate(births[birthId].birthDate);\r\n        bytes32 passwordHash = keccak256(bytes(password));\r\n\r\n        bytes32 lambdaCertification = keccak256(bytes(\"new\"));\r\n\r\n        //identityId = identitiesCount++;\r\n        identityId = identitiesCount;\r\n        identitiesCount = identitiesCount.add(1);\r\n        identities[identityId] = Identity({\r\n            birthinfo : births[birthId],\r\n            maritalStatus : \"single\",\r\n            marriageDate: \"\",\r\n            userLogin: login\r\n        });\r\n\r\n        citizenIdentifiers[login] = Identifier({\r\n            userIdentityCount : identityId,\r\n            userPassword : passwordHash,\r\n            newCertification : lambdaCertification\r\n        });\r\n\r\n        emit LogEventVerifyIdentity(birthId, identityId);\r\n    }\r\n\r\n    /// @dev Gets the identification of the last identity verified  \r\n    /// @return _identity Identity identification of the last identity verified.\r\n    /// @return _name Identity name of the last identity verified.\r\n    /// @return _lastName Identity last name of the last identity verified.\r\n    function getIdentityId() public view returns (uint _identity, string memory _name, string memory _lastName){\r\n        if (identitiesCount == 0) {\r\n          _identity = identitiesCount;  \r\n        } else {\r\n          _identity = identitiesCount.sub(1);  \r\n        }\r\n        _name = identities[_identity].birthinfo.name;\r\n        _lastName = identities[_identity].birthinfo.lastName; \r\n    }\r\n\r\n    /**\r\n     * City hall members functions\r\n     */  \r\n\r\n    /// @dev Declares a marriage.\r\n    /// @param identityId Idenity identitication to declare marriage.\r\n    /// @param _marriageDate Marriage date.\r\n    function declareMarriage (uint identityId, string memory _marriageDate) public isCityHall stopInEmergency {\r\n        require(identities[identityId].birthinfo.isVerified == true);\r\n        \r\n        identities[identityId].maritalStatus = \"married\";\r\n        identities[identityId].marriageDate = _marriageDate;\r\n\r\n        emit LogEventDeclareMarriage(_marriageDate, identityId);\r\n    }\r\n\r\n    /**\r\n     * Citizens (users) and responsible entities functions\r\n     */\r\n\r\n    /// @dev Changes the password.\r\n    /// @param _login User login.\r\n    /// @param _oldPwd Old password.\r\n    /// @param _newPwd New password.    \r\n    function modifyMyPassword (string memory _login, string memory _oldPwd, string memory _newPwd) public{\r\n        //Verify that the user used the good password\r\n        require (citizenIdentifiers[_login].userPassword == keccak256(bytes(_oldPwd)));\r\n        bytes32 newPwd = keccak256(bytes(_newPwd));\r\n        citizenIdentifiers[_login].userPassword = newPwd;\r\n    }\r\n\r\n    /// @dev Generates identity certification.\r\n    /// @param login User login.\r\n    /// @param pwd User password.\r\n    /// @return identity_hash The certification hash.\r\n    function generateIdCertification (string memory login, string memory pwd) public returns (bytes32){\r\n        //Verify that the user used the good password\r\n        require (citizenIdentifiers[login].userPassword == keccak256(bytes(pwd)));\r\n        // Get the user identity count\r\n        uint userIdCount = citizenIdentifiers[login].userIdentityCount;\r\n        string memory userIdCountString = userIdCount.uintToString();\r\n        string memory contIdentifiers = userIdCountString.concatenate(pwd);\r\n        bytes32 identity_hash = keccak256(bytes(contIdentifiers));\r\n        citizenIdentifiers[login].newCertification = identity_hash;\r\n        // add certification to mapping\r\n        idCertifications[identity_hash] = citizenIdentifiers[login];\r\n        emit LogEventCertificationGenerated(login, identity_hash);\r\n        return identity_hash;\r\n    }\r\n    \r\n    /// @dev Gets the hash of the last certification generated by the user\r\n    /// @param _login User login.\r\n    /// @return identity_hash The certification hash.\r\n    function getCertification(string memory _login) public view returns (bytes32) {\r\n        return citizenIdentifiers[_login].newCertification;\r\n    }\r\n    \r\n    /// @dev Verifies a certification\r\n    /// @param id_hash The certification hash.\r\n    /// @return _name The citizen name.\r\n    /// @return _lastName The citizen last name.\r\n    /// @return _birthDate The citizen birth date.\r\n    /// @return _birthCity The citizen birth city.\r\n    function verifyCertification (bytes32 id_hash) public returns (string memory _name, string memory _lastName, string memory _birthDate, string memory _birthCity, string memory _maritalStatus) {\r\n        // get userIdCount\r\n        uint userIdCount = idCertifications[id_hash].userIdentityCount;\r\n        emit LogEventVerifyCertification (identities[userIdCount].birthinfo.name, identities[userIdCount].birthinfo.lastName, identities[userIdCount].birthinfo.birthDate, identities[userIdCount].birthinfo.birthCity, identities[userIdCount].maritalStatus);\r\n        return(identities[userIdCount].birthinfo.name, identities[userIdCount].birthinfo.lastName, identities[userIdCount].birthinfo.birthDate, identities[userIdCount].birthinfo.birthCity, identities[userIdCount].maritalStatus);\r\n\r\n    }\r\n    \r\n    /**\r\n     * Read functions\r\n     */\r\n\r\n    /// @dev Gets a birth information\r\n    /// @param birthId The birth identification.\r\n    /// @return _name The birth name.\r\n    /// @return _lastName The birth last name.\r\n    /// @return _birthDate The birth date.\r\n    /// @return _birthCity The birth city.\r\n     /// @return _isVerified The birth verification status.   \r\n    function readBirth(uint birthId) public view returns(string memory _name, string memory _lastName, string memory _birthDate, string memory _birthCity, bool _isVerified){\r\n        return (births[birthId].name, births[birthId].lastName, births[birthId].birthDate, births[birthId].birthCity, births[birthId].isVerified);\r\n    }        \r\n\r\n    /// @dev Gets an identity information\r\n    /// @param identityId The identity identification.\r\n    /// @return _name The citizen name.\r\n    /// @return _lastName The citizen last name.\r\n    /// @return _birthDate The citizen birth date.\r\n    /// @return _birthCity The citizen birth city.\r\n    /// @return _maritalStatus The citizen marital status.    \r\n    function readIdentity(uint identityId) public view returns(string memory _name, string memory _lastName, string memory _birthDate, string memory _birthCity, string memory _maritalStatus){\r\n        require(identities[identityId].birthinfo.isVerified == true);\r\n        return (identities[identityId].birthinfo.name, identities[identityId].birthinfo.lastName, identities[identityId].birthinfo.birthDate, identities[identityId].birthinfo.birthCity, identities[identityId].maritalStatus);\r\n    }\r\n \r\n}",
  "sourcePath": "C:/Users/anatereza.mascarenha/Documents/Ethereum/EthereumCertification/Civil State App/contracts/CivilState.sol",
  "compiler": {
    "name": "solc",
    "version": "0.5.16+commit.9c3226ce.Emscripten.clang"
  },
  "schemaVersion": "3.0.22",
  "updatedAt": "2020-12-10T13:50:39.139Z",
  "networkType": "ethereum",
  "devdoc": {
    "methods": {
      "addBirth(string,string,string,string)": {
        "details": "Adds a new birth.",
        "params": {
          "_birthCity": "Birth city.",
          "_birthDate": "Birth date.",
          "_lastName": "Birth last name.",
          "_name": "Birth name."
        },
        "return": "birthId The birth identification.       "
      },
      "addCityHallMember(address,string)": {
        "details": "Adds a city hall member.",
        "params": {
          "_memberName": "Name of the new member.",
          "_newMember": "Address of the new member."
        }
      },
      "addHospitalMember(address,string)": {
        "details": "Adds a hospital member.",
        "params": {
          "_memberName": "Name of the new member.",
          "_newMember": "Address of the new member."
        }
      },
      "addPrefectureMember(address,string)": {
        "details": "Adds a prefecture member.",
        "params": {
          "_memberName": "Name of the new member.",
          "_newMember": "Address of the new member."
        }
      },
      "constructor": {
        "details": "Contract constructor sets the owner"
      },
      "declareMarriage(uint256,string)": {
        "details": "Declares a marriage.",
        "params": {
          "_marriageDate": "Marriage date.",
          "identityId": "Idenity identitication to declare marriage."
        }
      },
      "generateIdCertification(string,string)": {
        "details": "Generates identity certification.",
        "params": {
          "login": "User login.",
          "pwd": "User password."
        },
        "return": "identity_hash The certification hash."
      },
      "getBirthId()": {
        "details": "Gets the identification of the last birth added  ",
        "return": "_birthId Birth identification of the last birth added._name Birth name of the last birth added._lastName Birth last name of the last birth added.    "
      },
      "getBirthsCount()": {
        "details": "Gets the births count.",
        "return": "birthsCount Births count."
      },
      "getCertification(string)": {
        "details": "Gets the hash of the last certification generated by the user",
        "params": {
          "_login": "User login."
        },
        "return": "identity_hash The certification hash."
      },
      "getIdentitiesCount()": {
        "details": "Gets the identitues count.",
        "return": "identitiesCount Identities count."
      },
      "getIdentityId()": {
        "details": "Gets the identification of the last identity verified  ",
        "return": "_identity Identity identification of the last identity verified._name Identity name of the last identity verified._lastName Identity last name of the last identity verified."
      },
      "getOwner()": {
        "details": "Gets owner address.",
        "return": "Owner's address."
      },
      "isCityHallMember()": {
        "details": "Verifies if the msg.sender is a city hall member.",
        "return": "The city hall member address (if it is a member, otherwise return '0x..0')."
      },
      "isHospitalMember()": {
        "details": "Verifies if the msg.sender is a hospital member.",
        "return": "The hospital member address (if it is a member, otherwise return '0x..0')."
      },
      "isPrefectureMember()": {
        "details": "Verifies if the msg.sender is a prefecture member.",
        "return": "The prefecture member address (if it is a member, otherwise return '0x..0')."
      },
      "kill()": {
        "details": "Destroys contract and removes it from the blockchain Only the admin (owner) can call it Mortal pattern"
      },
      "modifyMyPassword(string,string,string)": {
        "details": "Changes the password.",
        "params": {
          "_login": "User login.",
          "_newPwd": "New password.    ",
          "_oldPwd": "Old password."
        }
      },
      "readBirth(uint256)": {
        "details": "Gets a birth information",
        "params": {
          "birthId": "The birth identification."
        },
        "return": "_name The birth name._lastName The birth last name._birthDate The birth date._birthCity The birth city._isVerified The birth verification status.   "
      },
      "readIdentity(uint256)": {
        "details": "Gets an identity information",
        "params": {
          "identityId": "The identity identification."
        },
        "return": "_name The citizen name._lastName The citizen last name._birthDate The citizen birth date._birthCity The citizen birth city._maritalStatus The citizen marital status.    "
      },
      "stopCivilStateContract()": {
        "details": "Changes stopped state variable to 'true' Only the admin (owner) can call it Circuit breaker pattern"
      },
      "verifyCertification(bytes32)": {
        "details": "Verifies a certification",
        "params": {
          "id_hash": "The certification hash."
        },
        "return": "_name The citizen name._lastName The citizen last name._birthDate The citizen birth date._birthCity The citizen birth city."
      },
      "verifyIdentity(uint256)": {
        "details": "Verifies an identity.",
        "params": {
          "birthId": "Birth identitication to verify."
        },
        "return": "identityId The identity identification."
      },
      "withdraw()": {
        "details": "Withdraws contract balance to the owner's account Only the admin (owner) can call it Only possible when 'stopped' is true Circuit breaker pattern"
      }
    },
    "title": "CivilState. "
  },
  "userdoc": {
    "methods": {}
  }
}