{
  "contractName": "CivilState",
  "abi": [
    {
      "inputs": [],
      "payable": false,
      "stateMutability": "nonpayable",
      "type": "constructor"
    },
    {
      "anonymous": false,
      "inputs": [
        {
          "indexed": false,
          "internalType": "string",
          "name": "memberName",
          "type": "string"
        }
      ],
      "name": "LogEventAddCityHallMember",
      "type": "event"
    },
    {
      "anonymous": false,
      "inputs": [
        {
          "indexed": false,
          "internalType": "string",
          "name": "memberName",
          "type": "string"
        }
      ],
      "name": "LogEventAddHospitalMember",
      "type": "event"
    },
    {
      "anonymous": false,
      "inputs": [
        {
          "indexed": false,
          "internalType": "string",
          "name": "memberName",
          "type": "string"
        }
      ],
      "name": "LogEventAddPrefectureMember",
      "type": "event"
    },
    {
      "anonymous": false,
      "inputs": [
        {
          "indexed": false,
          "internalType": "string",
          "name": "name",
          "type": "string"
        },
        {
          "indexed": false,
          "internalType": "string",
          "name": "lastName",
          "type": "string"
        },
        {
          "indexed": false,
          "internalType": "uint256",
          "name": "birthId",
          "type": "uint256"
        }
      ],
      "name": "LogEventBirthAdded",
      "type": "event"
    },
    {
      "anonymous": false,
      "inputs": [
        {
          "indexed": false,
          "internalType": "string",
          "name": "login",
          "type": "string"
        },
        {
          "indexed": false,
          "internalType": "bytes32",
          "name": "identity_hash",
          "type": "bytes32"
        }
      ],
      "name": "LogEventCertificationGenerated",
      "type": "event"
    },
    {
      "anonymous": false,
      "inputs": [
        {
          "indexed": false,
          "internalType": "string",
          "name": "marriageDate",
          "type": "string"
        },
        {
          "indexed": false,
          "internalType": "uint256",
          "name": "identityId",
          "type": "uint256"
        }
      ],
      "name": "LogEventDeclareMarriage",
      "type": "event"
    },
    {
      "anonymous": false,
      "inputs": [
        {
          "indexed": false,
          "internalType": "uint256",
          "name": "birthId",
          "type": "uint256"
        },
        {
          "indexed": false,
          "internalType": "uint256",
          "name": "identityId",
          "type": "uint256"
        }
      ],
      "name": "LogEventVerifyIdentity",
      "type": "event"
    },
    {
      "constant": true,
      "inputs": [],
      "name": "owner",
      "outputs": [
        {
          "internalType": "address",
          "name": "",
          "type": "address"
        }
      ],
      "payable": false,
      "stateMutability": "view",
      "type": "function"
    },
    {
      "constant": true,
      "inputs": [
        {
          "internalType": "string",
          "name": "a",
          "type": "string"
        },
        {
          "internalType": "string",
          "name": "b",
          "type": "string"
        }
      ],
      "name": "concatenate",
      "outputs": [
        {
          "internalType": "string",
          "name": "",
          "type": "string"
        }
      ],
      "payable": false,
      "stateMutability": "pure",
      "type": "function"
    },
    {
      "constant": true,
      "inputs": [
        {
          "internalType": "uint256",
          "name": "v",
          "type": "uint256"
        }
      ],
      "name": "uintToString",
      "outputs": [
        {
          "internalType": "string",
          "name": "str",
          "type": "string"
        }
      ],
      "payable": false,
      "stateMutability": "pure",
      "type": "function"
    },
    {
      "constant": false,
      "inputs": [
        {
          "internalType": "address",
          "name": "_newMember",
          "type": "address"
        },
        {
          "internalType": "string",
          "name": "_memberName",
          "type": "string"
        }
      ],
      "name": "addHospitalMember",
      "outputs": [],
      "payable": false,
      "stateMutability": "nonpayable",
      "type": "function"
    },
    {
      "constant": false,
      "inputs": [
        {
          "internalType": "address",
          "name": "_newMember",
          "type": "address"
        },
        {
          "internalType": "string",
          "name": "_memberName",
          "type": "string"
        }
      ],
      "name": "addPrefectureMember",
      "outputs": [],
      "payable": false,
      "stateMutability": "nonpayable",
      "type": "function"
    },
    {
      "constant": false,
      "inputs": [
        {
          "internalType": "address",
          "name": "_newMember",
          "type": "address"
        },
        {
          "internalType": "string",
          "name": "_memberName",
          "type": "string"
        }
      ],
      "name": "addCityHallMember",
      "outputs": [],
      "payable": false,
      "stateMutability": "nonpayable",
      "type": "function"
    },
    {
      "constant": false,
      "inputs": [
        {
          "internalType": "string",
          "name": "_name",
          "type": "string"
        },
        {
          "internalType": "string",
          "name": "_lastName",
          "type": "string"
        },
        {
          "internalType": "string",
          "name": "_birthDate",
          "type": "string"
        },
        {
          "internalType": "string",
          "name": "_birthCity",
          "type": "string"
        }
      ],
      "name": "addBirth",
      "outputs": [
        {
          "internalType": "uint256",
          "name": "",
          "type": "uint256"
        }
      ],
      "payable": false,
      "stateMutability": "nonpayable",
      "type": "function"
    },
    {
      "constant": true,
      "inputs": [],
      "name": "getBirthId",
      "outputs": [
        {
          "internalType": "uint256",
          "name": "_birthId",
          "type": "uint256"
        },
        {
          "internalType": "string",
          "name": "_name",
          "type": "string"
        },
        {
          "internalType": "string",
          "name": "_lastName",
          "type": "string"
        }
      ],
      "payable": false,
      "stateMutability": "view",
      "type": "function"
    },
    {
      "constant": false,
      "inputs": [
        {
          "internalType": "uint256",
          "name": "birthId",
          "type": "uint256"
        }
      ],
      "name": "verifyIdentity",
      "outputs": [
        {
          "internalType": "uint256",
          "name": "identityId",
          "type": "uint256"
        }
      ],
      "payable": false,
      "stateMutability": "nonpayable",
      "type": "function"
    },
    {
      "constant": true,
      "inputs": [],
      "name": "getIdentityId",
      "outputs": [
        {
          "internalType": "uint256",
          "name": "_identity",
          "type": "uint256"
        },
        {
          "internalType": "string",
          "name": "_name",
          "type": "string"
        },
        {
          "internalType": "string",
          "name": "_lastName",
          "type": "string"
        }
      ],
      "payable": false,
      "stateMutability": "view",
      "type": "function"
    },
    {
      "constant": false,
      "inputs": [
        {
          "internalType": "uint256",
          "name": "identityId",
          "type": "uint256"
        },
        {
          "internalType": "string",
          "name": "_marriageDate",
          "type": "string"
        }
      ],
      "name": "declareMarriage",
      "outputs": [],
      "payable": false,
      "stateMutability": "nonpayable",
      "type": "function"
    },
    {
      "constant": false,
      "inputs": [
        {
          "internalType": "string",
          "name": "_login",
          "type": "string"
        },
        {
          "internalType": "string",
          "name": "_oldPwd",
          "type": "string"
        },
        {
          "internalType": "string",
          "name": "_newPwd",
          "type": "string"
        }
      ],
      "name": "modifyMyPassword",
      "outputs": [],
      "payable": false,
      "stateMutability": "nonpayable",
      "type": "function"
    },
    {
      "constant": false,
      "inputs": [
        {
          "internalType": "string",
          "name": "login",
          "type": "string"
        },
        {
          "internalType": "string",
          "name": "pwd",
          "type": "string"
        }
      ],
      "name": "generateIdCertification",
      "outputs": [
        {
          "internalType": "bytes32",
          "name": "",
          "type": "bytes32"
        }
      ],
      "payable": false,
      "stateMutability": "nonpayable",
      "type": "function"
    },
    {
      "constant": true,
      "inputs": [
        {
          "internalType": "string",
          "name": "_login",
          "type": "string"
        }
      ],
      "name": "getCertification",
      "outputs": [
        {
          "internalType": "bytes32",
          "name": "",
          "type": "bytes32"
        }
      ],
      "payable": false,
      "stateMutability": "view",
      "type": "function"
    },
    {
      "constant": true,
      "inputs": [
        {
          "internalType": "bytes32",
          "name": "id_hash",
          "type": "bytes32"
        }
      ],
      "name": "verifyCertification",
      "outputs": [
        {
          "internalType": "string",
          "name": "_name",
          "type": "string"
        },
        {
          "internalType": "string",
          "name": "_lastName",
          "type": "string"
        },
        {
          "internalType": "string",
          "name": "_birthDate",
          "type": "string"
        },
        {
          "internalType": "string",
          "name": "_birthCity",
          "type": "string"
        },
        {
          "internalType": "string",
          "name": "_maritalStatus",
          "type": "string"
        }
      ],
      "payable": false,
      "stateMutability": "view",
      "type": "function"
    },
    {
      "constant": true,
      "inputs": [
        {
          "internalType": "uint256",
          "name": "birthId",
          "type": "uint256"
        }
      ],
      "name": "readBirth",
      "outputs": [
        {
          "internalType": "string",
          "name": "_name",
          "type": "string"
        },
        {
          "internalType": "string",
          "name": "_lastName",
          "type": "string"
        },
        {
          "internalType": "string",
          "name": "_birthDate",
          "type": "string"
        },
        {
          "internalType": "string",
          "name": "_birthCity",
          "type": "string"
        },
        {
          "internalType": "bool",
          "name": "_isVerified",
          "type": "bool"
        }
      ],
      "payable": false,
      "stateMutability": "view",
      "type": "function"
    },
    {
      "constant": true,
      "inputs": [
        {
          "internalType": "uint256",
          "name": "identityId",
          "type": "uint256"
        }
      ],
      "name": "readIdentity",
      "outputs": [
        {
          "internalType": "string",
          "name": "_name",
          "type": "string"
        },
        {
          "internalType": "string",
          "name": "_lastName",
          "type": "string"
        },
        {
          "internalType": "string",
          "name": "_birthDate",
          "type": "string"
        },
        {
          "internalType": "string",
          "name": "_birthCity",
          "type": "string"
        },
        {
          "internalType": "string",
          "name": "_maritalStatus",
          "type": "string"
        }
      ],
      "payable": false,
      "stateMutability": "view",
      "type": "function"
    },
    {
      "constant": true,
      "inputs": [],
      "name": "getBirthsCount",
      "outputs": [
        {
          "internalType": "uint256",
          "name": "_birthCount",
          "type": "uint256"
        }
      ],
      "payable": false,
      "stateMutability": "view",
      "type": "function"
    },
    {
      "constant": true,
      "inputs": [],
      "name": "getIdentitiesCount",
      "outputs": [
        {
          "internalType": "uint256",
          "name": "_identitiesCount",
          "type": "uint256"
        }
      ],
      "payable": false,
      "stateMutability": "view",
      "type": "function"
    },
    {
      "constant": true,
      "inputs": [],
      "name": "getOwner",
      "outputs": [
        {
          "internalType": "address",
          "name": "_owner",
          "type": "address"
        }
      ],
      "payable": false,
      "stateMutability": "view",
      "type": "function"
    },
    {
      "constant": true,
      "inputs": [],
      "name": "isHospitalMember",
      "outputs": [
        {
          "internalType": "address",
          "name": "",
          "type": "address"
        }
      ],
      "payable": false,
      "stateMutability": "view",
      "type": "function"
    },
    {
      "constant": true,
      "inputs": [],
      "name": "isPrefectureMember",
      "outputs": [
        {
          "internalType": "address",
          "name": "",
          "type": "address"
        }
      ],
      "payable": false,
      "stateMutability": "view",
      "type": "function"
    },
    {
      "constant": true,
      "inputs": [],
      "name": "isCityHallMember",
      "outputs": [
        {
          "internalType": "address",
          "name": "",
          "type": "address"
        }
      ],
      "payable": false,
      "stateMutability": "view",
      "type": "function"
    }
  ],
  "bytecode": "0x60806040526000600555600060075534801561001a57600080fd5b50336000806101000a81548173ffffffffffffffffffffffffffffffffffffffff021916908373ffffffffffffffffffffffffffffffffffffffff1602179055506143ac8061006a6000396000f3fe608060405234801561001057600080fd5b506004361061014d5760003560e01c806384a3409d116100c3578063c728da961161007c578063c728da9614610f83578063d0bbc1ac14611217578063dea0e3f71461146e578063df18918114611564578063e93956791461163f578063eaab88d3146116e65761014d565b806384a3409d14610a09578063893d20e814610ace5780638da5cb5b14610b185780639097a63214610b62578063aac4b06214610d4b578063babb55c514610f415761014d565b806341d204ad1161011557806341d204ad146106b75780634f7b3c7d146106d557806353fb3c24146107a457806355363909146107ee57806357959edc146108385780637006045c146109135761014d565b806321e15d5414610152578063266001d31461022d5780632da2a898146103f8578063398dbab0146104425780633de79ac914610460575b600080fd5b61022b6004803603604081101561016857600080fd5b81019080803573ffffffffffffffffffffffffffffffffffffffff169060200190929190803590602001906401000000008111156101a557600080fd5b8201836020820111156101b757600080fd5b803590602001918460018302840111640100000000831117156101d957600080fd5b91908080601f016020809104026020016040519081016040528093929190818152602001838380828437600081840152601f19601f82011690508083019250505050505050919291929050505061184c565b005b61037d6004803603604081101561024357600080fd5b810190808035906020019064010000000081111561026057600080fd5b82018360208201111561027257600080fd5b8035906020019184600183028401116401000000008311171561029457600080fd5b91908080601f016020809104026020016040519081016040528093929190818152602001838380828437600081840152601f19601f820116905080830192505050505050509192919290803590602001906401000000008111156102f757600080fd5b82018360208201111561030957600080fd5b8035906020019184600183028401116401000000008311171561032b57600080fd5b91908080601f016020809104026020016040519081016040528093929190818152602001838380828437600081840152601f19601f820116905080830192505050505050509192919290505050611a1a565b6040518080602001828103825283818151815260200191508051906020019080838360005b838110156103bd5780820151818401526020810190506103a2565b50505050905090810190601f1680156103ea5780820380516001836020036101000a031916815260200191505b509250505060405180910390f35b610400611ae2565b604051808273ffffffffffffffffffffffffffffffffffffffff1673ffffffffffffffffffffffffffffffffffffffff16815260200191505060405180910390f35b61044a611b58565b6040518082815260200191505060405180910390f35b61048c6004803603602081101561047657600080fd5b8101908080359060200190929190505050611b62565b60405180806020018060200180602001806020018060200186810386528b818151815260200191508051906020019080838360005b838110156104dc5780820151818401526020810190506104c1565b50505050905090810190601f1680156105095780820380516001836020036101000a031916815260200191505b5086810385528a818151815260200191508051906020019080838360005b83811015610542578082015181840152602081019050610527565b50505050905090810190601f16801561056f5780820380516001836020036101000a031916815260200191505b50868103845289818151815260200191508051906020019080838360005b838110156105a857808201518184015260208101905061058d565b50505050905090810190601f1680156105d55780820380516001836020036101000a031916815260200191505b50868103835288818151815260200191508051906020019080838360005b8381101561060e5780820151818401526020810190506105f3565b50505050905090810190601f16801561063b5780820380516001836020036101000a031916815260200191505b50868103825287818151815260200191508051906020019080838360005b83811015610674578082015181840152602081019050610659565b50505050905090810190601f1680156106a15780820380516001836020036101000a031916815260200191505b509a505050505050505050505060405180910390f35b6106bf611f1f565b6040518082815260200191505060405180910390f35b61078e600480360360208110156106eb57600080fd5b810190808035906020019064010000000081111561070857600080fd5b82018360208201111561071a57600080fd5b8035906020019184600183028401116401000000008311171561073c57600080fd5b91908080601f016020809104026020016040519081016040528093929190818152602001838380828437600081840152601f19601f820116905080830192505050505050509192919290505050611f29565b6040518082815260200191505060405180910390f35b6107ac611f9f565b604051808273ffffffffffffffffffffffffffffffffffffffff1673ffffffffffffffffffffffffffffffffffffffff16815260200191505060405180910390f35b6107f6612015565b604051808273ffffffffffffffffffffffffffffffffffffffff1673ffffffffffffffffffffffffffffffffffffffff16815260200191505060405180910390f35b6109116004803603604081101561084e57600080fd5b81019080803573ffffffffffffffffffffffffffffffffffffffff1690602001909291908035906020019064010000000081111561088b57600080fd5b82018360208201111561089d57600080fd5b803590602001918460018302840111640100000000831117156108bf57600080fd5b91908080601f016020809104026020016040519081016040528093929190818152602001838380828437600081840152601f19601f82011690508083019250505050505050919291929050505061208b565b005b61091b612259565b604051808481526020018060200180602001838103835285818151815260200191508051906020019080838360005b8381101561096557808201518184015260208101905061094a565b50505050905090810190601f1680156109925780820380516001836020036101000a031916815260200191505b50838103825284818151815260200191508051906020019080838360005b838110156109cb5780820151818401526020810190506109b0565b50505050905090810190601f1680156109f85780820380516001836020036101000a031916815260200191505b509550505050505060405180910390f35b610acc60048036036040811015610a1f57600080fd5b810190808035906020019092919080359060200190640100000000811115610a4657600080fd5b820183602082011115610a5857600080fd5b80359060200191846001830284011164010000000083111715610a7a57600080fd5b91908080601f016020809104026020016040519081016040528093929190818152602001838380828437600081840152601f19601f82011690508083019250505050505050919291929050505061244e565b005b610ad661261b565b604051808273ffffffffffffffffffffffffffffffffffffffff1673ffffffffffffffffffffffffffffffffffffffff16815260200191505060405180910390f35b610b20612644565b604051808273ffffffffffffffffffffffffffffffffffffffff1673ffffffffffffffffffffffffffffffffffffffff16815260200191505060405180910390f35b610d4960048036036060811015610b7857600080fd5b8101908080359060200190640100000000811115610b9557600080fd5b820183602082011115610ba757600080fd5b80359060200191846001830284011164010000000083111715610bc957600080fd5b91908080601f016020809104026020016040519081016040528093929190818152602001838380828437600081840152601f19601f82011690508083019250505050505050919291929080359060200190640100000000811115610c2c57600080fd5b820183602082011115610c3e57600080fd5b80359060200191846001830284011164010000000083111715610c6057600080fd5b91908080601f016020809104026020016040519081016040528093929190818152602001838380828437600081840152601f19601f82011690508083019250505050505050919291929080359060200190640100000000811115610cc357600080fd5b820183602082011115610cd557600080fd5b80359060200191846001830284011164010000000083111715610cf757600080fd5b91908080601f016020809104026020016040519081016040528093929190818152602001838380828437600081840152601f19601f820116905080830192505050505050509192919290505050612669565b005b610d7760048036036020811015610d6157600080fd5b810190808035906020019092919050505061276b565b60405180806020018060200180602001806020018615151515815260200185810385528a818151815260200191508051906020019080838360005b83811015610dcd578082015181840152602081019050610db2565b50505050905090810190601f168015610dfa5780820380516001836020036101000a031916815260200191505b50858103845289818151815260200191508051906020019080838360005b83811015610e33578082015181840152602081019050610e18565b50505050905090810190601f168015610e605780820380516001836020036101000a031916815260200191505b50858103835288818151815260200191508051906020019080838360005b83811015610e99578082015181840152602081019050610e7e565b50505050905090810190601f168015610ec65780820380516001836020036101000a031916815260200191505b50858103825287818151815260200191508051906020019080838360005b83811015610eff578082015181840152602081019050610ee4565b50505050905090810190601f168015610f2c5780820380516001836020036101000a031916815260200191505b50995050505050505050505060405180910390f35b610f6d60048036036020811015610f5757600080fd5b8101908080359060200190929190505050612a72565b6040518082815260200191505060405180910390f35b61120160048036036080811015610f9957600080fd5b8101908080359060200190640100000000811115610fb657600080fd5b820183602082011115610fc857600080fd5b80359060200191846001830284011164010000000083111715610fea57600080fd5b91908080601f016020809104026020016040519081016040528093929190818152602001838380828437600081840152601f19601f8201169050808301925050505050505091929192908035906020019064010000000081111561104d57600080fd5b82018360208201111561105f57600080fd5b8035906020019184600183028401116401000000008311171561108157600080fd5b91908080601f016020809104026020016040519081016040528093929190818152602001838380828437600081840152601f19601f820116905080830192505050505050509192919290803590602001906401000000008111156110e457600080fd5b8201836020820111156110f657600080fd5b8035906020019184600183028401116401000000008311171561111857600080fd5b91908080601f016020809104026020016040519081016040528093929190818152602001838380828437600081840152601f19601f8201169050808301925050505050505091929192908035906020019064010000000081111561117b57600080fd5b82018360208201111561118d57600080fd5b803590602001918460018302840111640100000000831117156111af57600080fd5b91908080601f016020809104026020016040519081016040528093929190818152602001838380828437600081840152601f19601f82011690508083019250505050505050919291929050505061340d565b6040518082815260200191505060405180910390f35b6112436004803603602081101561122d57600080fd5b8101908080359060200190929190505050613677565b60405180806020018060200180602001806020018060200186810386528b818151815260200191508051906020019080838360005b83811015611293578082015181840152602081019050611278565b50505050905090810190601f1680156112c05780820380516001836020036101000a031916815260200191505b5086810385528a818151815260200191508051906020019080838360005b838110156112f95780820151818401526020810190506112de565b50505050905090810190601f1680156113265780820380516001836020036101000a031916815260200191505b50868103845289818151815260200191508051906020019080838360005b8381101561135f578082015181840152602081019050611344565b50505050905090810190601f16801561138c5780820380516001836020036101000a031916815260200191505b50868103835288818151815260200191508051906020019080838360005b838110156113c55780820151818401526020810190506113aa565b50505050905090810190601f1680156113f25780820380516001836020036101000a031916815260200191505b50868103825287818151815260200191508051906020019080838360005b8381101561142b578082015181840152602081019050611410565b50505050905090810190601f1680156114585780820380516001836020036101000a031916815260200191505b509a505050505050505050505060405180910390f35b611476613a4f565b604051808481526020018060200180602001838103835285818151815260200191508051906020019080838360005b838110156114c05780820151818401526020810190506114a5565b50505050905090810190601f1680156114ed5780820380516001836020036101000a031916815260200191505b50838103825284818151815260200191508051906020019080838360005b8381101561152657808201518184015260208101905061150b565b50505050905090810190601f1680156115535780820380516001836020036101000a031916815260200191505b509550505050505060405180910390f35b61163d6004803603604081101561157a57600080fd5b81019080803573ffffffffffffffffffffffffffffffffffffffff169060200190929190803590602001906401000000008111156115b757600080fd5b8201836020820111156115c957600080fd5b803590602001918460018302840111640100000000831117156115eb57600080fd5b91908080601f016020809104026020016040519081016040528093929190818152602001838380828437600081840152601f19601f820116905080830192505050505050509192919290505050613c3e565b005b61166b6004803603602081101561165557600080fd5b8101908080359060200190929190505050613e0c565b6040518080602001828103825283818151815260200191508051906020019080838360005b838110156116ab578082015181840152602081019050611690565b50505050905090810190601f1680156116d85780820380516001836020036101000a031916815260200191505b509250505060405180910390f35b611836600480360360408110156116fc57600080fd5b810190808035906020019064010000000081111561171957600080fd5b82018360208201111561172b57600080fd5b8035906020019184600183028401116401000000008311171561174d57600080fd5b91908080601f016020809104026020016040519081016040528093929190818152602001838380828437600081840152601f19601f820116905080830192505050505050509192919290803590602001906401000000008111156117b057600080fd5b8201836020820111156117c257600080fd5b803590602001918460018302840111640100000000831117156117e457600080fd5b91908080601f016020809104026020016040519081016040528093929190818152602001838380828437600081840152601f19601f820116905080830192505050505050509192919290505050613f7a565b6040518082815260200191505060405180910390f35b3373ffffffffffffffffffffffffffffffffffffffff166000809054906101000a900473ffffffffffffffffffffffffffffffffffffffff1673ffffffffffffffffffffffffffffffffffffffff16146118a557600080fd5b60606118e66040518060400160405280600681526020017f6c6f67696e5f000000000000000000000000000000000000000000000000000081525083611a1a565b9050604051806040016040528082815260200183815250600360008573ffffffffffffffffffffffffffffffffffffffff1673ffffffffffffffffffffffffffffffffffffffff1681526020019081526020016000206000820151816000019080519060200190611958929190614252565b506020820151816001019080519060200190611975929190614252565b509050507f401ac4b35a7b6689f6099149d9a4590d106d0b7850a038645519383db1f9e5aa826040518080602001828103825283818151815260200191508051906020019080838360005b838110156119db5780820151818401526020810190506119c0565b50505050905090810190601f168015611a085780820380516001836020036101000a031916815260200191505b509250505060405180910390a1505050565b606082826040516020018083805190602001908083835b60208310611a545780518252602082019150602081019050602083039250611a31565b6001836020036101000a03801982511681845116808217855250505050505090500182805190602001908083835b60208310611aa55780518252602082019150602081019050602083039250611a82565b6001836020036101000a03801982511681845116808217855250505050505090500192505050604051602081830303815290604052905092915050565b6000806000600260003373ffffffffffffffffffffffffffffffffffffffff1673ffffffffffffffffffffffffffffffffffffffff1681526020019081526020016000206001018054600181600116156101000203166002900490501115611b4c57339050611b51565b600090505b8091505090565b6000600554905090565b60608060608060606000600960008881526020019081526020016000206000015490506006600082815260200190815260200160002060000160000160066000838152602001908152602001600020600001600101600660008481526020019081526020016000206000016002016006600085815260200190815260200160002060000160030160066000868152602001908152602001600020600501848054600181600116156101000203166002900480601f016020809104026020016040519081016040528092919081815260200182805460018160011615610100020316600290048015611c945780601f10611c6957610100808354040283529160200191611c94565b820191906000526020600020905b815481529060010190602001808311611c7757829003601f168201915b50505050509450838054600181600116156101000203166002900480601f016020809104026020016040519081016040528092919081815260200182805460018160011615610100020316600290048015611d305780601f10611d0557610100808354040283529160200191611d30565b820191906000526020600020905b815481529060010190602001808311611d1357829003601f168201915b50505050509350828054600181600116156101000203166002900480601f016020809104026020016040519081016040528092919081815260200182805460018160011615610100020316600290048015611dcc5780601f10611da157610100808354040283529160200191611dcc565b820191906000526020600020905b815481529060010190602001808311611daf57829003601f168201915b50505050509250818054600181600116156101000203166002900480601f016020809104026020016040519081016040528092919081815260200182805460018160011615610100020316600290048015611e685780601f10611e3d57610100808354040283529160200191611e68565b820191906000526020600020905b815481529060010190602001808311611e4b57829003601f168201915b50505050509150808054600181600116156101000203166002900480601f016020809104026020016040519081016040528092919081815260200182805460018160011615610100020316600290048015611f045780601f10611ed957610100808354040283529160200191611f04565b820191906000526020600020905b815481529060010190602001808311611ee757829003601f168201915b50505050509050955095509550955095505091939590929450565b6000600754905090565b60006008826040518082805190602001908083835b60208310611f615780518252602082019150602081019050602083039250611f3e565b6001836020036101000a0380198251168184511680821785525050505050509050019150509081526020016040518091039020600201549050919050565b6000806000600160003373ffffffffffffffffffffffffffffffffffffffff1673ffffffffffffffffffffffffffffffffffffffff16815260200190815260200160002060010180546001816001161561010002031660029004905011156120095733905061200e565b600090505b8091505090565b6000806000600360003373ffffffffffffffffffffffffffffffffffffffff1673ffffffffffffffffffffffffffffffffffffffff168152602001908152602001600020600101805460018160011615610100020316600290049050111561207f57339050612084565b600090505b8091505090565b3373ffffffffffffffffffffffffffffffffffffffff166000809054906101000a900473ffffffffffffffffffffffffffffffffffffffff1673ffffffffffffffffffffffffffffffffffffffff16146120e457600080fd5b60606121256040518060400160405280600681526020017f6c6f67696e5f000000000000000000000000000000000000000000000000000081525083611a1a565b9050604051806040016040528082815260200183815250600160008573ffffffffffffffffffffffffffffffffffffffff1673ffffffffffffffffffffffffffffffffffffffff1681526020019081526020016000206000820151816000019080519060200190612197929190614252565b5060208201518160010190805190602001906121b4929190614252565b509050507fab3562bab9e824ea5bd0d7e0ef837e93d1f7a8f3ee468ae9cb2c04d960bfc6d4826040518080602001828103825283818151815260200191508051906020019080838360005b8381101561221a5780820151818401526020810190506121ff565b50505050905090810190601f1680156122475780820380516001836020036101000a031916815260200191505b509250505060405180910390a1505050565b60006060806040518060400160405280600981526020017f756e646566696e6564000000000000000000000000000000000000000000000081525091506040518060400160405280600981526020017f756e646566696e656400000000000000000000000000000000000000000000008152509050600060075410612449576001600754039250600660008481526020019081526020016000206000016000018054600181600116156101000203166002900480601f01602080910402602001604051908101604052809291908181526020018280546001816001161561010002031660029004801561238d5780601f106123625761010080835404028352916020019161238d565b820191906000526020600020905b81548152906001019060200180831161237057829003601f168201915b50505050509150600660008481526020019081526020016000206000016001018054600181600116156101000203166002900480601f0160208091040260200160405190810160405280929190818152602001828054600181600116156101000203166002900480156124415780601f1061241657610100808354040283529160200191612441565b820191906000526020600020905b81548152906001019060200180831161242457829003601f168201915b505050505090505b909192565b6000600360003373ffffffffffffffffffffffffffffffffffffffff1673ffffffffffffffffffffffffffffffffffffffff168152602001908152602001600020600101805460018160011615610100020316600290049050116124b157600080fd5b600115156006600084815260200190815260200160002060000160040160009054906101000a900460ff161515146124e857600080fd5b6040518060400160405280600781526020017f6d617272696564000000000000000000000000000000000000000000000000008152506006600084815260200190815260200160002060050190805190602001906125479291906142d2565b50806006600084815260200190815260200160002060060190805190602001906125729291906142d2565b507fc7b118d015ed4a95450d7ff616d44d5a9ff7ad9d46e3360ac8ae088efd6a555281836040518080602001838152602001828103825284818151815260200191508051906020019080838360005b838110156125dc5780820151818401526020810190506125c1565b50505050905090810190601f1680156126095780820380516001836020036101000a031916815260200191505b50935050505060405180910390a15050565b60008060009054906101000a900473ffffffffffffffffffffffffffffffffffffffff16905090565b6000809054906101000a900473ffffffffffffffffffffffffffffffffffffffff1681565b81805190602001206008846040518082805190602001908083835b602083106126a75780518252602082019150602081019050602083039250612684565b6001836020036101000a038019825116818451168082178552505050505050905001915050908152602001604051809103902060010154146126e857600080fd5b600081805190602001209050806008856040518082805190602001908083835b6020831061272b5780518252602082019150602081019050602083039250612708565b6001836020036101000a03801982511681845116808217855250505050505090500191505090815260200160405180910390206001018190555050505050565b6060806060806000600460008781526020019081526020016000206000016004600088815260200190815260200160002060010160046000898152602001908152602001600020600201600460008a8152602001908152602001600020600301600460008b815260200190815260200160002060040160009054906101000a900460ff16848054600181600116156101000203166002900480601f0160208091040260200160405190810160405280929190818152602001828054600181600116156101000203166002900480156128845780601f1061285957610100808354040283529160200191612884565b820191906000526020600020905b81548152906001019060200180831161286757829003601f168201915b50505050509450838054600181600116156101000203166002900480601f0160208091040260200160405190810160405280929190818152602001828054600181600116156101000203166002900480156129205780601f106128f557610100808354040283529160200191612920565b820191906000526020600020905b81548152906001019060200180831161290357829003601f168201915b50505050509350828054600181600116156101000203166002900480601f0160208091040260200160405190810160405280929190818152602001828054600181600116156101000203166002900480156129bc5780601f10612991576101008083540402835291602001916129bc565b820191906000526020600020905b81548152906001019060200180831161299f57829003601f168201915b50505050509250818054600181600116156101000203166002900480601f016020809104026020016040519081016040528092919081815260200182805460018160011615610100020316600290048015612a585780601f10612a2d57610100808354040283529160200191612a58565b820191906000526020600020905b815481529060010190602001808311612a3b57829003601f168201915b505050505091509450945094509450945091939590929450565b600080600260003373ffffffffffffffffffffffffffffffffffffffff1673ffffffffffffffffffffffffffffffffffffffff16815260200190815260200160002060010180546001816001161561010002031660029004905011612ad657600080fd5b600015156004600084815260200190815260200160002060040160009054906101000a900460ff16151514612b0a57600080fd5b60016004600084815260200190815260200160002060040160006101000a81548160ff0219169083151502179055506060612c286040518060400160405280600681526020017f6c6f67696e5f0000000000000000000000000000000000000000000000000000815250600460008681526020019081526020016000206001018054600181600116156101000203166002900480601f016020809104026020016040519081016040528092919081815260200182805460018160011615610100020316600290048015612c1e5780601f10612bf357610100808354040283529160200191612c1e565b820191906000526020600020905b815481529060010190602001808311612c0157829003601f168201915b5050505050611a1a565b9050612ce281600460008681526020019081526020016000206000018054600181600116156101000203166002900480601f016020809104026020016040519081016040528092919081815260200182805460018160011615610100020316600290048015612cd85780601f10612cad57610100808354040283529160200191612cd8565b820191906000526020600020905b815481529060010190602001808311612cbb57829003601f168201915b5050505050611a1a565b9050612d9c81600460008681526020019081526020016000206002018054600181600116156101000203166002900480601f016020809104026020016040519081016040528092919081815260200182805460018160011615610100020316600290048015612d925780601f10612d6757610100808354040283529160200191612d92565b820191906000526020600020905b815481529060010190602001808311612d7557829003601f168201915b5050505050611a1a565b90506060612e8d6040518060400160405280600481526020017f7077645f00000000000000000000000000000000000000000000000000000000815250600460008781526020019081526020016000206002018054600181600116156101000203166002900480601f016020809104026020016040519081016040528092919081815260200182805460018160011615610100020316600290048015612e835780601f10612e5857610100808354040283529160200191612e83565b820191906000526020600020905b815481529060010190602001808311612e6657829003601f168201915b5050505050611a1a565b905060008180519060200120905060006040518060400160405280600381526020017f6e65770000000000000000000000000000000000000000000000000000000000815250805190602001209050600760008154809291906001019190505594506040518060800160405280600460008981526020019081526020016000206040518060a0016040529081600082018054600181600116156101000203166002900480601f016020809104026020016040519081016040528092919081815260200182805460018160011615610100020316600290048015612fb15780601f10612f8657610100808354040283529160200191612fb1565b820191906000526020600020905b815481529060010190602001808311612f9457829003601f168201915b50505050508152602001600182018054600181600116156101000203166002900480601f0160208091040260200160405190810160405280929190818152602001828054600181600116156101000203166002900480156130535780601f1061302857610100808354040283529160200191613053565b820191906000526020600020905b81548152906001019060200180831161303657829003601f168201915b50505050508152602001600282018054600181600116156101000203166002900480601f0160208091040260200160405190810160405280929190818152602001828054600181600116156101000203166002900480156130f55780601f106130ca576101008083540402835291602001916130f5565b820191906000526020600020905b8154815290600101906020018083116130d857829003601f168201915b50505050508152602001600382018054600181600116156101000203166002900480601f0160208091040260200160405190810160405280929190818152602001828054600181600116156101000203166002900480156131975780601f1061316c57610100808354040283529160200191613197565b820191906000526020600020905b81548152906001019060200180831161317a57829003601f168201915b505050505081526020016004820160009054906101000a900460ff16151515158152505081526020016040518060400160405280600681526020017f73696e676c65000000000000000000000000000000000000000000000000000081525081526020016040518060200160405280600081525081526020018581525060066000878152602001908152602001600020600082015181600001600082015181600001908051906020019061324c929190614252565b506020820151816001019080519060200190613269929190614252565b506040820151816002019080519060200190613286929190614252565b5060608201518160030190805190602001906132a3929190614252565b5060808201518160040160006101000a81548160ff021916908315150217905550505060208201518160050190805190602001906132e2929190614252565b5060408201518160060190805190602001906132ff929190614252565b50606082015181600701908051906020019061331c929190614252565b509050506040518060600160405280868152602001838152602001828152506008856040518082805190602001908083835b60208310613371578051825260208201915060208101905060208303925061334e565b6001836020036101000a03801982511681845116808217855250505050505090500191505090815260200160405180910390206000820151816000015560208201518160010155604082015181600201559050507f742c345840647c71e989bcfe501f009faa76e04998bb4c2ea8b4adc5ac0659998686604051808381526020018281526020019250505060405180910390a150505050919050565b600080600160003373ffffffffffffffffffffffffffffffffffffffff1673ffffffffffffffffffffffffffffffffffffffff1681526020019081526020016000206001018054600181600116156101000203166002900490501161347157600080fd5b6000600560008154809291906001019190505590506040518060a00160405280878152602001868152602001858152602001848152602001600015158152506004600083815260200190815260200160002060008201518160000190805190602001906134df929190614252565b5060208201518160010190805190602001906134fc929190614252565b506040820151816002019080519060200190613519929190614252565b506060820151816003019080519060200190613536929190614252565b5060808201518160040160006101000a81548160ff0219169083151502179055509050507f975e5fd57c7c0e6b1a8c1a5d6861dce72c6672a93848401afb36caa4eb90ba83868683604051808060200180602001848152602001838103835286818151815260200191508051906020019080838360005b838110156135c85780820151818401526020810190506135ad565b50505050905090810190601f1680156135f55780820380516001836020036101000a031916815260200191505b50838103825285818151815260200191508051906020019080838360005b8381101561362e578082015181840152602081019050613613565b50505050905090810190601f16801561365b5780820380516001836020036101000a031916815260200191505b509550505050505060405180910390a180915050949350505050565b6060806060806060600115156006600088815260200190815260200160002060000160040160009054906101000a900460ff161515146136b657600080fd5b600660008781526020019081526020016000206000016000016006600088815260200190815260200160002060000160010160066000898152602001908152602001600020600001600201600660008a8152602001908152602001600020600001600301600660008b8152602001908152602001600020600501848054600181600116156101000203166002900480601f0160208091040260200160405190810160405280929190818152602001828054600181600116156101000203166002900480156137c55780601f1061379a576101008083540402835291602001916137c5565b820191906000526020600020905b8154815290600101906020018083116137a857829003601f168201915b50505050509450838054600181600116156101000203166002900480601f0160208091040260200160405190810160405280929190818152602001828054600181600116156101000203166002900480156138615780601f1061383657610100808354040283529160200191613861565b820191906000526020600020905b81548152906001019060200180831161384457829003601f168201915b50505050509350828054600181600116156101000203166002900480601f0160208091040260200160405190810160405280929190818152602001828054600181600116156101000203166002900480156138fd5780601f106138d2576101008083540402835291602001916138fd565b820191906000526020600020905b8154815290600101906020018083116138e057829003601f168201915b50505050509250818054600181600116156101000203166002900480601f0160208091040260200160405190810160405280929190818152602001828054600181600116156101000203166002900480156139995780601f1061396e57610100808354040283529160200191613999565b820191906000526020600020905b81548152906001019060200180831161397c57829003601f168201915b50505050509150808054600181600116156101000203166002900480601f016020809104026020016040519081016040528092919081815260200182805460018160011615610100020316600290048015613a355780601f10613a0a57610100808354040283529160200191613a35565b820191906000526020600020905b815481529060010190602001808311613a1857829003601f168201915b505050505090509450945094509450945091939590929450565b60006060806040518060400160405280600981526020017f756e646566696e6564000000000000000000000000000000000000000000000081525091506040518060400160405280600981526020017f756e646566696e656400000000000000000000000000000000000000000000008152509050600060055410613c39576001600554039250600460008481526020019081526020016000206000018054600181600116156101000203166002900480601f016020809104026020016040519081016040528092919081815260200182805460018160011615610100020316600290048015613b805780601f10613b5557610100808354040283529160200191613b80565b820191906000526020600020905b815481529060010190602001808311613b6357829003601f168201915b50505050509150600460008481526020019081526020016000206001018054600181600116156101000203166002900480601f016020809104026020016040519081016040528092919081815260200182805460018160011615610100020316600290048015613c315780601f10613c0657610100808354040283529160200191613c31565b820191906000526020600020905b815481529060010190602001808311613c1457829003601f168201915b505050505090505b909192565b3373ffffffffffffffffffffffffffffffffffffffff166000809054906101000a900473ffffffffffffffffffffffffffffffffffffffff1673ffffffffffffffffffffffffffffffffffffffff1614613c9757600080fd5b6060613cd86040518060400160405280600681526020017f6c6f67696e5f000000000000000000000000000000000000000000000000000081525083611a1a565b9050604051806040016040528082815260200183815250600260008573ffffffffffffffffffffffffffffffffffffffff1673ffffffffffffffffffffffffffffffffffffffff1681526020019081526020016000206000820151816000019080519060200190613d4a929190614252565b506020820151816001019080519060200190613d67929190614252565b509050507fa7b9cf10953e89fba48615bdedc4c557e19daee10f4f77f3ab1a2d2bb951a041826040518080602001828103825283818151815260200191508051906020019080838360005b83811015613dcd578082015181840152602081019050613db2565b50505050905090810190601f168015613dfa5780820380516001836020036101000a031916815260200191505b509250505060405180910390a1505050565b60606000606490506060816040519080825280601f01601f191660200182016040528015613e495781602001600182028038833980820191505090505b50905060008090505b60008514613ec4576000600a8681613e6657fe5b069050600a8681613e7357fe5b0495508060300160f81b838380600101945081518110613e8f57fe5b60200101907effffffffffffffffffffffffffffffffffffffffffffffffffffffffffffff1916908160001a90535050613e52565b6060600182016040519080825280601f01601f191660200182016040528015613efc5781602001600182028038833980820191505090505b50905060008090505b828111613f6d578381840381518110613f1a57fe5b602001015160f81c60f81b828281518110613f3157fe5b60200101907effffffffffffffffffffffffffffffffffffffffffffffffffffffffffffff1916908160001a9053508080600101915050613f05565b5080945050505050919050565b600081805190602001206008846040518082805190602001908083835b60208310613fba5780518252602082019150602081019050602083039250613f97565b6001836020036101000a03801982511681845116808217855250505050505090500191505090815260200160405180910390206001015414613ffb57600080fd5b60006008846040518082805190602001908083835b602083106140335780518252602082019150602081019050602083039250614010565b6001836020036101000a0380198251168184511680821785525050505050509050019150509081526020016040518091039020600001549050606061407782613e0c565b905060606140858286611a1a565b9050600081805190602001209050806008886040518082805190602001908083835b602083106140ca57805182526020820191506020810190506020830392506140a7565b6001836020036101000a0380198251168184511680821785525050505050509050019150509081526020016040518091039020600201819055506008876040518082805190602001908083835b6020831061413a5780518252602082019150602081019050602083039250614117565b6001836020036101000a0380198251168184511680821785525050505050509050019150509081526020016040518091039020600960008381526020019081526020016000206000820154816000015560018201548160010155600282015481600201559050507fb3c104ebb8d7c2039282f84239773ba591395f85016526077eeab6912a11dda487826040518080602001838152602001828103825284818151815260200191508051906020019080838360005b8381101561420a5780820151818401526020810190506141ef565b50505050905090810190601f1680156142375780820380516001836020036101000a031916815260200191505b50935050505060405180910390a18094505050505092915050565b828054600181600116156101000203166002900490600052602060002090601f016020900481019282601f1061429357805160ff19168380011785556142c1565b828001600101855582156142c1579182015b828111156142c05782518255916020019190600101906142a5565b5b5090506142ce9190614352565b5090565b828054600181600116156101000203166002900490600052602060002090601f016020900481019282601f1061431357805160ff1916838001178555614341565b82800160010185558215614341579182015b82811115614340578251825591602001919060010190614325565b5b50905061434e9190614352565b5090565b61437491905b80821115614370576000816000905550600101614358565b5090565b9056fea265627a7a72315820c2b30cebc25b8694684e464bc4974311aa8b805a4e5c9ccd159289d8f89eade064736f6c63430005100032",
  "source": "// SPDX-License-Identifier: MIT\r\npragma solidity >=0.4.21 <0.8.0;\r\n\r\n    /*\r\n        The CivilState contract keeps track of the citizen information, starting from their birth and being maintained throughout their life\r\n     */\r\ncontract CivilState {\r\n\r\n    /*\r\n        Public owner variable => the creator of the contract when it is initialized.\r\n    */\r\n    address public owner;\r\n\r\n    /*\r\n        Birth struct : add birth information\r\n    */\r\n    struct Birth {\r\n        string name;\r\n        string lastName;\r\n        string birthDate;\r\n        string birthCity;\r\n        bool isVerified;\r\n    }\r\n\r\n    /*\r\n        Identity struct : created to validate a birth and create the citizen identity\r\n    */\r\n    struct Identity {\r\n        Birth birthinfo;\r\n        \r\n        // Marital information\r\n        string maritalStatus;\r\n        string marriageDate;\r\n        string userLogin;\r\n    }\r\n\r\n    /*\r\n        Identifier struct : created to track users identifiers\r\n    */\r\n    struct Identifier {\r\n        uint userIdentityCount;\r\n        bytes32 userPassword;\r\n        bytes32 newCertification;\r\n    }\r\n\r\n    /*\r\n        Authentification struct : created to track hospital, prefecture and city hall members authentification\r\n    */    \r\n    struct Authentification {\r\n        string login;\r\n        string name;\r\n    }\r\n    \r\n    /*\r\n        Mapping to keep track of the hospital members\r\n    */\r\n    mapping (address => Authentification) hospitalMembers;\r\n\r\n    /*\r\n        Mapping to keep track of the prefecture members\r\n    */\r\n    mapping (address => Authentification) prefectureMembers;\r\n\r\n    /*\r\n        Mapping to keep track of the city hall members\r\n    */\r\n    mapping (address => Authentification) cityHallMembers;\r\n\r\n    /*\r\n       Mapping to keep track of the births\r\n    */\r\n    mapping (uint => Birth) births;\r\n    uint birthsCount = 0;\r\n\r\n    /*\r\n       Mapping to keep track of the citizen's identities\r\n    */    \r\n    mapping (uint => Identity) identities;\r\n    uint identitiesCount = 0;\r\n\r\n    /*\r\n        Mapping to keep track of citizen's identifiers\r\n    */\r\n    mapping(string => Identifier) citizenIdentifiers;\r\n\r\n    /*\r\n        Mapping to keep track of identity certifications generated by users (citizens)\r\n    */\r\n    mapping(bytes32 => Identifier) idCertifications;\r\n\r\n    // Events\r\n\r\n    // Event signaling that a new hospital member was added\r\n    event LogEventAddHospitalMember(string memberName);\r\n    // Event signaling that a new prefecture member was added\r\n    event LogEventAddPrefectureMember(string memberName);\r\n    // Event signaling that a new cityHall member was added\r\n    event LogEventAddCityHallMember(string memberName);\r\n    // Event signaling that a new birth member was declared\r\n    event LogEventBirthAdded (string name, string lastName, uint birthId);\r\n    // Event signaling that a new identity was verified\r\n    event LogEventVerifyIdentity(uint birthId, uint identityId);\r\n    // Event signaling that new marriage member was declared\r\n    event LogEventDeclareMarriage(string marriageDate, uint identityId);\r\n    // Event signaling that a certification was generated\r\n    event LogEventCertificationGenerated(string login, bytes32 identity_hash);\r\n\r\n\r\n    /*\r\n       Modifier that throws an error if the msg.sender is not the owner.\r\n    */\r\n    modifier isAdmin () {\r\n        require(owner == msg.sender);\r\n        _;\r\n    }\r\n\r\n    /*\r\n       Modifier that throws an error if the msg.sender passed is not a hospital member.\r\n    */\r\n    modifier isHospital () {\r\n        require (bytes(hospitalMembers[msg.sender].name).length > 0);\r\n        _;\r\n    }\r\n\r\n    /*\r\n       Modifier that throws an error if the msg.sender passed is not a prefecture member.\r\n    */\r\n    modifier isPrefecture () {\r\n        require (bytes(prefectureMembers[msg.sender].name).length > 0);\r\n        _;\r\n    }\r\n\r\n    /*\r\n       Modifier that throws an error if the msg.sender passed is not a city hall member.\r\n    */\r\n    modifier isCityHall () {\r\n        require (bytes(cityHallMembers[msg.sender].name).length > 0);\r\n        _;\r\n    }\r\n\r\n    constructor () public {\r\n        owner = msg.sender;\r\n    }\r\n    \r\n    // Help functions \r\n\r\n    // Function to concatenate strings\r\n    function concatenate(string memory a, string  memory b) public pure returns(string memory) {\r\n            return string(abi.encodePacked(a, b));\r\n    }\r\n\r\n    // Function to transform uint to string\r\n    function uintToString(uint v) public pure returns (string memory str) {\r\n        uint maxlength = 100;\r\n        bytes memory reversed = new bytes(maxlength);\r\n        uint i = 0;\r\n        while (v != 0) {\r\n            uint remainder = v % 10;\r\n            v = v / 10;\r\n            reversed[i++] = byte(uint8(48 + remainder));\r\n        }\r\n        bytes memory s = new bytes(i + 1);\r\n        for (uint j = 0; j <= i; j++) {\r\n            s[j] = reversed[i - j];\r\n        }\r\n        str = string(s);\r\n    }\r\n    \r\n    // Admin functions\r\n\r\n    /* \r\n        Function do add a new hospital member to the \"hospitalMembers\" mapping\r\n        Only the owner of the contract (the admin) can add new members\r\n    */\r\n    function addHospitalMember (address _newMember, string memory _memberName) public isAdmin {\r\n        // Initialization of login\r\n        string memory _login = concatenate(\"login_\", _memberName);        \r\n        hospitalMembers[_newMember] = Authentification({\r\n            login : _login,\r\n            name : _memberName\r\n        });\r\n        emit LogEventAddHospitalMember(_memberName);\r\n    }\r\n\r\n    /* \r\n        Function do add a new prefecture member to the \"prefectureMembers\" mapping\r\n        Only the owner of the contract (the admin) can add new members\r\n    */\r\n    function addPrefectureMember (address _newMember, string memory _memberName) public isAdmin {\r\n        // Initialization of login\r\n        string memory _login = concatenate(\"login_\", _memberName);\r\n        prefectureMembers[_newMember] = Authentification({\r\n            login : _login,\r\n            name : _memberName\r\n        });\r\n        emit LogEventAddPrefectureMember(_memberName);\r\n    }\r\n\r\n    /* \r\n        Function do add a new city hall member to the \"cityHallMembers\" mapping\r\n        Only the owner of the contract (the admin) can add new members\r\n    */\r\n    function addCityHallMember (address _newMember, string memory _memberName) public isAdmin {\r\n        // Initialization of login\r\n        string memory _login = concatenate(\"login_\", _memberName);\r\n        cityHallMembers[_newMember] = Authentification({\r\n            login : _login,\r\n            name : _memberName\r\n        });\r\n        emit LogEventAddCityHallMember(_memberName);\r\n    }\r\n\r\n    /*\r\n        Function to add a new birth\r\n        When there is a birth, a member of the hospital must declare the birth : this function creates a new birth\r\n        Only a hospital member can create a new birth\r\n    */      \r\n    function addBirth (string memory _name, string memory _lastName, string memory _birthDate, string memory _birthCity) public isHospital returns(uint) {\r\n        uint birthId = birthsCount++;\r\n        births[birthId] = Birth({\r\n            name : _name,\r\n            lastName : _lastName,\r\n            birthDate : _birthDate,\r\n            birthCity : _birthCity,\r\n            isVerified : false\r\n        });\r\n        emit LogEventBirthAdded(_name, _lastName, birthId);\r\n        return birthId;\r\n    }\r\n\r\n    // Function to get the birthId after the creation of a new birth\r\n    function getBirthId () public view returns (uint _birthId, string memory _name, string memory _lastName){\r\n        _name = \"undefined\";\r\n        _lastName = \"undefined\";\r\n        if (birthsCount >= 0) {\r\n            _birthId = birthsCount - 1;\r\n            _name = births[_birthId].name;\r\n            _lastName = births[_birthId].lastName;\r\n        }    \r\n    }\r\n    \r\n    /*\r\n        Function to verify an identity  \r\n        After a birth declaration, the a member of the prefecture must verifiy the citizen's identity\r\n        Only a member of the prefecture can verify an identity\r\n    */\r\n    function verifyIdentity (uint birthId) public isPrefecture returns (uint identityId) {\r\n        require(births[birthId].isVerified == false);\r\n        births[birthId].isVerified = true;\r\n        \r\n        // Initialization of login and password\r\n        string memory login = concatenate(\"login_\", births[birthId].lastName);\r\n        login = concatenate(login, births[birthId].name);\r\n        login = concatenate(login, births[birthId].birthDate);\r\n        \r\n        string memory password = concatenate(\"pwd_\", births[birthId].birthDate);\r\n        bytes32 passwordHash = keccak256(bytes(password));\r\n\r\n        bytes32 lambdaCertification = keccak256(bytes(\"new\"));\r\n\r\n        identityId = identitiesCount++;\r\n        identities[identityId] = Identity({\r\n            birthinfo : births[birthId],\r\n            maritalStatus : \"single\",\r\n            marriageDate: \"\",\r\n            userLogin: login\r\n        });\r\n\r\n        citizenIdentifiers[login] = Identifier({\r\n            userIdentityCount : identityId,\r\n            userPassword : passwordHash,\r\n            newCertification : lambdaCertification\r\n        });\r\n\r\n        emit LogEventVerifyIdentity(birthId, identityId);\r\n    }\r\n\r\n    // Function to get the identityId after the verification of an identity\r\n    function getIdentityId() public view returns (uint _identity, string memory _name, string memory _lastName){\r\n        _name = \"undefined\";\r\n        _lastName = \"undefined\";\r\n        if (identitiesCount >= 0) {\r\n            _identity = identitiesCount - 1;\r\n            _name = identities[_identity].birthinfo.name;\r\n            _lastName = identities[_identity].birthinfo.lastName;            \r\n        } \r\n    }\r\n\r\n    /*\r\n        Function to declare a marriage\r\n        Only a city Hall member can declare a marriage\r\n    */\r\n    function declareMarriage (uint identityId, string memory _marriageDate) public isCityHall {\r\n        require(identities[identityId].birthinfo.isVerified == true);\r\n        \r\n        //Change marital status\r\n        identities[identityId].maritalStatus = \"married\";\r\n        identities[identityId].marriageDate = _marriageDate;\r\n\r\n        emit LogEventDeclareMarriage(_marriageDate, identityId);\r\n    }\r\n\r\n    /*\r\n        Function to allow citizens to modify their password\r\n    */\r\n    function modifyMyPassword (string memory _login, string memory _oldPwd, string memory _newPwd) public{\r\n        //Verify that the user used the good password\r\n        require (citizenIdentifiers[_login].userPassword == keccak256(bytes(_oldPwd)));\r\n        bytes32 newPwd = keccak256(bytes(_newPwd));\r\n        citizenIdentifiers[_login].userPassword = newPwd;\r\n    }\r\n\r\n    /*\r\n        Function to allow citizen to generete an identity certification\r\n    */\r\n    function generateIdCertification (string memory login, string memory pwd) public returns (bytes32){\r\n        //Verify that the user used the good password\r\n        require (citizenIdentifiers[login].userPassword == keccak256(bytes(pwd)));\r\n        // Get the user identity count\r\n        uint userIdCount = citizenIdentifiers[login].userIdentityCount;\r\n        string memory userIdCountString = uintToString(userIdCount);\r\n        string memory contIdentifiers = concatenate(userIdCountString, pwd);\r\n        bytes32 identity_hash = keccak256(bytes(contIdentifiers));\r\n        citizenIdentifiers[login].newCertification = identity_hash;\r\n        // add certification to mapping\r\n        idCertifications[identity_hash] = citizenIdentifiers[login];\r\n        emit LogEventCertificationGenerated(login, identity_hash);\r\n        return identity_hash;\r\n    }\r\n    \r\n    // Function to get the lastCertification\r\n    function getCertification(string memory _login) public view returns (bytes32) {\r\n        return citizenIdentifiers[_login].newCertification;\r\n    }\r\n    \r\n\r\n    /*\r\n       Functions read\r\n    */\r\n\r\n    /*\r\n        Function to verify identityCertification\r\n        Once a citizen generates a certification, anyone who has the hash of the certification can verify the identity\r\n    */\r\n\r\n    function verifyCertification (bytes32 id_hash) public view returns (string memory _name, string memory _lastName, string memory _birthDate, string memory _birthCity, string memory _maritalStatus) {\r\n        // get userIdCount\r\n        uint userIdCount = idCertifications[id_hash].userIdentityCount;\r\n        return(identities[userIdCount].birthinfo.name, identities[userIdCount].birthinfo.lastName, identities[userIdCount].birthinfo.birthDate, identities[userIdCount].birthinfo.birthCity, identities[userIdCount].maritalStatus);\r\n\r\n    }\r\n    \r\n    // Function to read a birth information\r\n    function readBirth(uint birthId) public view returns(string memory _name, string memory _lastName, string memory _birthDate, string memory _birthCity, bool _isVerified){\r\n        return (births[birthId].name, births[birthId].lastName, births[birthId].birthDate, births[birthId].birthCity, births[birthId].isVerified);\r\n    }        \r\n\r\n    // Function to read an identity information\r\n    function readIdentity(uint identityId) public view returns(string memory _name, string memory _lastName, string memory _birthDate, string memory _birthCity, string memory _maritalStatus){\r\n        require(identities[identityId].birthinfo.isVerified == true);\r\n        return (identities[identityId].birthinfo.name, identities[identityId].birthinfo.lastName, identities[identityId].birthinfo.birthDate, identities[identityId].birthinfo.birthCity, identities[identityId].maritalStatus);\r\n    }\r\n\r\n    // Function to get the births count\r\n    function getBirthsCount() public view returns(uint _birthCount) {\r\n        return birthsCount; \r\n    }\r\n\r\n    // Function to get the identities count\r\n    function getIdentitiesCount() public view returns(uint _identitiesCount){\r\n        return identitiesCount;\r\n    }\r\n\r\n    // Function to get the owner of the contract\r\n    function getOwner() public view returns(address _owner){\r\n        return owner;\r\n    }\r\n\r\n    /* \r\n        Function to verify if the msg.sender is a hospital member\r\n        Return 0x00..0 if not a hospital member\r\n        Return the address of the msg.sender if it is a hospital member\r\n    */\r\n    function isHospitalMember() public view returns(address){\r\n        address memberAddress;\r\n        if (bytes(hospitalMembers[msg.sender].name).length > 0) {\r\n            memberAddress = msg.sender;\r\n        } else {\r\n            memberAddress = 0x0000000000000000000000000000000000000000;\r\n        }\r\n        return memberAddress;\r\n    }\r\n\r\n    /* \r\n        Function to verify if the msg.sender is a prefecture member\r\n        Return 0x00..0 if not a prefecture member\r\n        Return the address of the msg.sender if it is a prefecture member\r\n    */\r\n    function isPrefectureMember() public view returns(address){\r\n        address memberAddress;\r\n        if (bytes(prefectureMembers[msg.sender].name).length > 0) {\r\n            memberAddress = msg.sender;\r\n        } else {\r\n            memberAddress = 0x0000000000000000000000000000000000000000;\r\n        }\r\n        return memberAddress;\r\n    }\r\n\r\n    /* \r\n        Function to verify if the msg.sender is a city hall member\r\n        Return 0x00..0 if not a city hall member\r\n        Return the address of the msg.sender if it is a city hall member\r\n    */\r\n    function isCityHallMember() public view returns(address){\r\n        address memberAddress;\r\n        if (bytes(cityHallMembers[msg.sender].name).length > 0) {\r\n            memberAddress = msg.sender;\r\n        } else {\r\n            memberAddress = 0x0000000000000000000000000000000000000000;\r\n        }\r\n        return memberAddress;\r\n    }\r\n\r\n}",
  "sourcePath": "C:/Users/anatereza.mascarenha/Documents/Ethereum/EthereumCertification/Civil State App/contracts/CivilState.sol",
  "compiler": {
    "name": "solc",
    "version": "0.5.16+commit.9c3226ce.Emscripten.clang"
  },
  "schemaVersion": "3.0.22",
  "updatedAt": "2020-12-06T15:22:24.831Z",
  "networkType": "ethereum",
  "devdoc": {
    "methods": {}
  },
  "userdoc": {
    "methods": {}
  }
}