{
  "contractName": "CivilState",
  "abi": [
    {
      "inputs": [],
      "payable": false,
      "stateMutability": "nonpayable",
      "type": "constructor"
    },
    {
      "anonymous": false,
      "inputs": [
        {
          "indexed": false,
          "internalType": "string",
          "name": "memberName",
          "type": "string"
        }
      ],
      "name": "LogEventAddCityHallMember",
      "type": "event"
    },
    {
      "anonymous": false,
      "inputs": [
        {
          "indexed": false,
          "internalType": "string",
          "name": "memberName",
          "type": "string"
        }
      ],
      "name": "LogEventAddHospitalMember",
      "type": "event"
    },
    {
      "anonymous": false,
      "inputs": [
        {
          "indexed": false,
          "internalType": "string",
          "name": "memberName",
          "type": "string"
        }
      ],
      "name": "LogEventAddPrefectureMember",
      "type": "event"
    },
    {
      "anonymous": false,
      "inputs": [
        {
          "indexed": false,
          "internalType": "string",
          "name": "name",
          "type": "string"
        },
        {
          "indexed": false,
          "internalType": "string",
          "name": "lastName",
          "type": "string"
        },
        {
          "indexed": false,
          "internalType": "uint256",
          "name": "birthId",
          "type": "uint256"
        }
      ],
      "name": "LogEventBirthAdded",
      "type": "event"
    },
    {
      "anonymous": false,
      "inputs": [
        {
          "indexed": false,
          "internalType": "string",
          "name": "login",
          "type": "string"
        },
        {
          "indexed": false,
          "internalType": "bytes32",
          "name": "identity_hash",
          "type": "bytes32"
        }
      ],
      "name": "LogEventCertificationGenerated",
      "type": "event"
    },
    {
      "anonymous": false,
      "inputs": [
        {
          "indexed": false,
          "internalType": "string",
          "name": "marriageDate",
          "type": "string"
        },
        {
          "indexed": false,
          "internalType": "uint256",
          "name": "identityId",
          "type": "uint256"
        }
      ],
      "name": "LogEventDeclareMarriage",
      "type": "event"
    },
    {
      "anonymous": false,
      "inputs": [
        {
          "indexed": false,
          "internalType": "uint256",
          "name": "birthId",
          "type": "uint256"
        },
        {
          "indexed": false,
          "internalType": "uint256",
          "name": "identityId",
          "type": "uint256"
        }
      ],
      "name": "LogEventVerifyIdentity",
      "type": "event"
    },
    {
      "constant": true,
      "inputs": [],
      "name": "owner",
      "outputs": [
        {
          "internalType": "address",
          "name": "",
          "type": "address"
        }
      ],
      "payable": false,
      "stateMutability": "view",
      "type": "function"
    },
    {
      "constant": false,
      "inputs": [
        {
          "internalType": "address",
          "name": "_newMember",
          "type": "address"
        },
        {
          "internalType": "string",
          "name": "_memberName",
          "type": "string"
        }
      ],
      "name": "addHospitalMember",
      "outputs": [],
      "payable": false,
      "stateMutability": "nonpayable",
      "type": "function"
    },
    {
      "constant": false,
      "inputs": [
        {
          "internalType": "address",
          "name": "_newMember",
          "type": "address"
        },
        {
          "internalType": "string",
          "name": "_memberName",
          "type": "string"
        }
      ],
      "name": "addPrefectureMember",
      "outputs": [],
      "payable": false,
      "stateMutability": "nonpayable",
      "type": "function"
    },
    {
      "constant": false,
      "inputs": [
        {
          "internalType": "address",
          "name": "_newMember",
          "type": "address"
        },
        {
          "internalType": "string",
          "name": "_memberName",
          "type": "string"
        }
      ],
      "name": "addCityHallMember",
      "outputs": [],
      "payable": false,
      "stateMutability": "nonpayable",
      "type": "function"
    },
    {
      "constant": false,
      "inputs": [
        {
          "internalType": "string",
          "name": "_name",
          "type": "string"
        },
        {
          "internalType": "string",
          "name": "_lastName",
          "type": "string"
        },
        {
          "internalType": "string",
          "name": "_birthDate",
          "type": "string"
        },
        {
          "internalType": "string",
          "name": "_birthCity",
          "type": "string"
        }
      ],
      "name": "addBirth",
      "outputs": [
        {
          "internalType": "uint256",
          "name": "",
          "type": "uint256"
        }
      ],
      "payable": false,
      "stateMutability": "nonpayable",
      "type": "function"
    },
    {
      "constant": true,
      "inputs": [],
      "name": "getBirthId",
      "outputs": [
        {
          "internalType": "uint256",
          "name": "_birthId",
          "type": "uint256"
        },
        {
          "internalType": "string",
          "name": "_name",
          "type": "string"
        },
        {
          "internalType": "string",
          "name": "_lastName",
          "type": "string"
        }
      ],
      "payable": false,
      "stateMutability": "view",
      "type": "function"
    },
    {
      "constant": false,
      "inputs": [
        {
          "internalType": "uint256",
          "name": "birthId",
          "type": "uint256"
        }
      ],
      "name": "verifyIdentity",
      "outputs": [
        {
          "internalType": "uint256",
          "name": "identityId",
          "type": "uint256"
        }
      ],
      "payable": false,
      "stateMutability": "nonpayable",
      "type": "function"
    },
    {
      "constant": true,
      "inputs": [],
      "name": "getIdentityId",
      "outputs": [
        {
          "internalType": "uint256",
          "name": "_identity",
          "type": "uint256"
        },
        {
          "internalType": "string",
          "name": "_name",
          "type": "string"
        },
        {
          "internalType": "string",
          "name": "_lastName",
          "type": "string"
        }
      ],
      "payable": false,
      "stateMutability": "view",
      "type": "function"
    },
    {
      "constant": false,
      "inputs": [
        {
          "internalType": "uint256",
          "name": "identityId",
          "type": "uint256"
        },
        {
          "internalType": "string",
          "name": "_marriageDate",
          "type": "string"
        }
      ],
      "name": "declareMarriage",
      "outputs": [],
      "payable": false,
      "stateMutability": "nonpayable",
      "type": "function"
    },
    {
      "constant": false,
      "inputs": [
        {
          "internalType": "string",
          "name": "_login",
          "type": "string"
        },
        {
          "internalType": "string",
          "name": "_oldPwd",
          "type": "string"
        },
        {
          "internalType": "string",
          "name": "_newPwd",
          "type": "string"
        }
      ],
      "name": "modifyMyPassword",
      "outputs": [],
      "payable": false,
      "stateMutability": "nonpayable",
      "type": "function"
    },
    {
      "constant": false,
      "inputs": [
        {
          "internalType": "string",
          "name": "login",
          "type": "string"
        },
        {
          "internalType": "string",
          "name": "pwd",
          "type": "string"
        }
      ],
      "name": "generateIdCertification",
      "outputs": [
        {
          "internalType": "bytes32",
          "name": "",
          "type": "bytes32"
        }
      ],
      "payable": false,
      "stateMutability": "nonpayable",
      "type": "function"
    },
    {
      "constant": true,
      "inputs": [
        {
          "internalType": "string",
          "name": "_login",
          "type": "string"
        }
      ],
      "name": "getCertification",
      "outputs": [
        {
          "internalType": "bytes32",
          "name": "",
          "type": "bytes32"
        }
      ],
      "payable": false,
      "stateMutability": "view",
      "type": "function"
    },
    {
      "constant": true,
      "inputs": [
        {
          "internalType": "bytes32",
          "name": "id_hash",
          "type": "bytes32"
        }
      ],
      "name": "verifyCertification",
      "outputs": [
        {
          "internalType": "string",
          "name": "_name",
          "type": "string"
        },
        {
          "internalType": "string",
          "name": "_lastName",
          "type": "string"
        },
        {
          "internalType": "string",
          "name": "_birthDate",
          "type": "string"
        },
        {
          "internalType": "string",
          "name": "_birthCity",
          "type": "string"
        },
        {
          "internalType": "string",
          "name": "_maritalStatus",
          "type": "string"
        }
      ],
      "payable": false,
      "stateMutability": "view",
      "type": "function"
    },
    {
      "constant": true,
      "inputs": [
        {
          "internalType": "uint256",
          "name": "birthId",
          "type": "uint256"
        }
      ],
      "name": "readBirth",
      "outputs": [
        {
          "internalType": "string",
          "name": "_name",
          "type": "string"
        },
        {
          "internalType": "string",
          "name": "_lastName",
          "type": "string"
        },
        {
          "internalType": "string",
          "name": "_birthDate",
          "type": "string"
        },
        {
          "internalType": "string",
          "name": "_birthCity",
          "type": "string"
        },
        {
          "internalType": "bool",
          "name": "_isVerified",
          "type": "bool"
        }
      ],
      "payable": false,
      "stateMutability": "view",
      "type": "function"
    },
    {
      "constant": true,
      "inputs": [
        {
          "internalType": "uint256",
          "name": "identityId",
          "type": "uint256"
        }
      ],
      "name": "readIdentity",
      "outputs": [
        {
          "internalType": "string",
          "name": "_name",
          "type": "string"
        },
        {
          "internalType": "string",
          "name": "_lastName",
          "type": "string"
        },
        {
          "internalType": "string",
          "name": "_birthDate",
          "type": "string"
        },
        {
          "internalType": "string",
          "name": "_birthCity",
          "type": "string"
        },
        {
          "internalType": "string",
          "name": "_maritalStatus",
          "type": "string"
        }
      ],
      "payable": false,
      "stateMutability": "view",
      "type": "function"
    },
    {
      "constant": true,
      "inputs": [],
      "name": "getBirthsCount",
      "outputs": [
        {
          "internalType": "uint256",
          "name": "_birthCount",
          "type": "uint256"
        }
      ],
      "payable": false,
      "stateMutability": "view",
      "type": "function"
    },
    {
      "constant": true,
      "inputs": [],
      "name": "getIdentitiesCount",
      "outputs": [
        {
          "internalType": "uint256",
          "name": "_identitiesCount",
          "type": "uint256"
        }
      ],
      "payable": false,
      "stateMutability": "view",
      "type": "function"
    },
    {
      "constant": true,
      "inputs": [],
      "name": "getOwner",
      "outputs": [
        {
          "internalType": "address",
          "name": "_owner",
          "type": "address"
        }
      ],
      "payable": false,
      "stateMutability": "view",
      "type": "function"
    },
    {
      "constant": true,
      "inputs": [],
      "name": "isHospitalMember",
      "outputs": [
        {
          "internalType": "address",
          "name": "",
          "type": "address"
        }
      ],
      "payable": false,
      "stateMutability": "view",
      "type": "function"
    },
    {
      "constant": true,
      "inputs": [],
      "name": "isPrefectureMember",
      "outputs": [
        {
          "internalType": "address",
          "name": "",
          "type": "address"
        }
      ],
      "payable": false,
      "stateMutability": "view",
      "type": "function"
    },
    {
      "constant": true,
      "inputs": [],
      "name": "isCityHallMember",
      "outputs": [
        {
          "internalType": "address",
          "name": "",
          "type": "address"
        }
      ],
      "payable": false,
      "stateMutability": "view",
      "type": "function"
    }
  ],
  "bytecode": "0x60806040526000600555600060075534801561001a57600080fd5b50336000806101000a81548173ffffffffffffffffffffffffffffffffffffffff021916908373ffffffffffffffffffffffffffffffffffffffff160217905550614da18061006a6000396000f3fe608060405234801561001057600080fd5b50600436106101375760003560e01c806384a3409d116100b8578063babb55c51161007c578063babb55c514610d60578063c728da9614610da2578063d0bbc1ac14611036578063dea0e3f71461128d578063df18918114611383578063eaab88d31461145e57610137565b806384a3409d14610828578063893d20e8146108ed5780638da5cb5b146109375780639097a63214610981578063aac4b06214610b6a57610137565b80634f7b3c7d116100ff5780634f7b3c7d146104f457806353fb3c24146105c3578063553639091461060d57806357959edc146106575780637006045c1461073257610137565b806321e15d541461013c5780632da2a89814610217578063398dbab0146102615780633de79ac91461027f57806341d204ad146104d6575b600080fd5b6102156004803603604081101561015257600080fd5b81019080803573ffffffffffffffffffffffffffffffffffffffff1690602001909291908035906020019064010000000081111561018f57600080fd5b8201836020820111156101a157600080fd5b803590602001918460018302840111640100000000831117156101c357600080fd5b91908080601f016020809104026020016040519081016040528093929190818152602001838380828437600081840152601f19601f8201169050808301925050505050505091929192905050506115c4565b005b61021f6119aa565b604051808273ffffffffffffffffffffffffffffffffffffffff1673ffffffffffffffffffffffffffffffffffffffff16815260200191505060405180910390f35b610269611a20565b6040518082815260200191505060405180910390f35b6102ab6004803603602081101561029557600080fd5b8101908080359060200190929190505050611a2a565b60405180806020018060200180602001806020018060200186810386528b818151815260200191508051906020019080838360005b838110156102fb5780820151818401526020810190506102e0565b50505050905090810190601f1680156103285780820380516001836020036101000a031916815260200191505b5086810385528a818151815260200191508051906020019080838360005b83811015610361578082015181840152602081019050610346565b50505050905090810190601f16801561038e5780820380516001836020036101000a031916815260200191505b50868103845289818151815260200191508051906020019080838360005b838110156103c75780820151818401526020810190506103ac565b50505050905090810190601f1680156103f45780820380516001836020036101000a031916815260200191505b50868103835288818151815260200191508051906020019080838360005b8381101561042d578082015181840152602081019050610412565b50505050905090810190601f16801561045a5780820380516001836020036101000a031916815260200191505b50868103825287818151815260200191508051906020019080838360005b83811015610493578082015181840152602081019050610478565b50505050905090810190601f1680156104c05780820380516001836020036101000a031916815260200191505b509a505050505050505050505060405180910390f35b6104de611de7565b6040518082815260200191505060405180910390f35b6105ad6004803603602081101561050a57600080fd5b810190808035906020019064010000000081111561052757600080fd5b82018360208201111561053957600080fd5b8035906020019184600183028401116401000000008311171561055b57600080fd5b91908080601f016020809104026020016040519081016040528093929190818152602001838380828437600081840152601f19601f820116905080830192505050505050509192919290505050611df1565b6040518082815260200191505060405180910390f35b6105cb611e67565b604051808273ffffffffffffffffffffffffffffffffffffffff1673ffffffffffffffffffffffffffffffffffffffff16815260200191505060405180910390f35b610615611edd565b604051808273ffffffffffffffffffffffffffffffffffffffff1673ffffffffffffffffffffffffffffffffffffffff16815260200191505060405180910390f35b6107306004803603604081101561066d57600080fd5b81019080803573ffffffffffffffffffffffffffffffffffffffff169060200190929190803590602001906401000000008111156106aa57600080fd5b8201836020820111156106bc57600080fd5b803590602001918460018302840111640100000000831117156106de57600080fd5b91908080601f016020809104026020016040519081016040528093929190818152602001838380828437600081840152601f19601f820116905080830192505050505050509192919290505050611f53565b005b61073a612339565b604051808481526020018060200180602001838103835285818151815260200191508051906020019080838360005b83811015610784578082015181840152602081019050610769565b50505050905090810190601f1680156107b15780820380516001836020036101000a031916815260200191505b50838103825284818151815260200191508051906020019080838360005b838110156107ea5780820151818401526020810190506107cf565b50505050905090810190601f1680156108175780820380516001836020036101000a031916815260200191505b509550505050505060405180910390f35b6108eb6004803603604081101561083e57600080fd5b81019080803590602001909291908035906020019064010000000081111561086557600080fd5b82018360208201111561087757600080fd5b8035906020019184600183028401116401000000008311171561089957600080fd5b91908080601f016020809104026020016040519081016040528093929190818152602001838380828437600081840152601f19601f8201169050808301925050505050505091929192905050506124d9565b005b6108f56126a6565b604051808273ffffffffffffffffffffffffffffffffffffffff1673ffffffffffffffffffffffffffffffffffffffff16815260200191505060405180910390f35b61093f6126cf565b604051808273ffffffffffffffffffffffffffffffffffffffff1673ffffffffffffffffffffffffffffffffffffffff16815260200191505060405180910390f35b610b686004803603606081101561099757600080fd5b81019080803590602001906401000000008111156109b457600080fd5b8201836020820111156109c657600080fd5b803590602001918460018302840111640100000000831117156109e857600080fd5b91908080601f016020809104026020016040519081016040528093929190818152602001838380828437600081840152601f19601f82011690508083019250505050505050919291929080359060200190640100000000811115610a4b57600080fd5b820183602082011115610a5d57600080fd5b80359060200191846001830284011164010000000083111715610a7f57600080fd5b91908080601f016020809104026020016040519081016040528093929190818152602001838380828437600081840152601f19601f82011690508083019250505050505050919291929080359060200190640100000000811115610ae257600080fd5b820183602082011115610af457600080fd5b80359060200191846001830284011164010000000083111715610b1657600080fd5b91908080601f016020809104026020016040519081016040528093929190818152602001838380828437600081840152601f19601f8201169050808301925050505050505091929192905050506126f4565b005b610b9660048036036020811015610b8057600080fd5b81019080803590602001909291905050506127f6565b60405180806020018060200180602001806020018615151515815260200185810385528a818151815260200191508051906020019080838360005b83811015610bec578082015181840152602081019050610bd1565b50505050905090810190601f168015610c195780820380516001836020036101000a031916815260200191505b50858103845289818151815260200191508051906020019080838360005b83811015610c52578082015181840152602081019050610c37565b50505050905090810190601f168015610c7f5780820380516001836020036101000a031916815260200191505b50858103835288818151815260200191508051906020019080838360005b83811015610cb8578082015181840152602081019050610c9d565b50505050905090810190601f168015610ce55780820380516001836020036101000a031916815260200191505b50858103825287818151815260200191508051906020019080838360005b83811015610d1e578082015181840152602081019050610d03565b50505050905090810190601f168015610d4b5780820380516001836020036101000a031916815260200191505b50995050505050505050505060405180910390f35b610d8c60048036036020811015610d7657600080fd5b8101908080359060200190929190505050612afd565b6040518082815260200191505060405180910390f35b61102060048036036080811015610db857600080fd5b8101908080359060200190640100000000811115610dd557600080fd5b820183602082011115610de757600080fd5b80359060200191846001830284011164010000000083111715610e0957600080fd5b91908080601f016020809104026020016040519081016040528093929190818152602001838380828437600081840152601f19601f82011690508083019250505050505050919291929080359060200190640100000000811115610e6c57600080fd5b820183602082011115610e7e57600080fd5b80359060200191846001830284011164010000000083111715610ea057600080fd5b91908080601f016020809104026020016040519081016040528093929190818152602001838380828437600081840152601f19601f82011690508083019250505050505050919291929080359060200190640100000000811115610f0357600080fd5b820183602082011115610f1557600080fd5b80359060200191846001830284011164010000000083111715610f3757600080fd5b91908080601f016020809104026020016040519081016040528093929190818152602001838380828437600081840152601f19601f82011690508083019250505050505050919291929080359060200190640100000000811115610f9a57600080fd5b820183602082011115610fac57600080fd5b80359060200191846001830284011164010000000083111715610fce57600080fd5b91908080601f016020809104026020016040519081016040528093929190818152602001838380828437600081840152601f19601f8201169050808301925050505050505091929192905050506138ba565b6040518082815260200191505060405180910390f35b6110626004803603602081101561104c57600080fd5b8101908080359060200190929190505050613b32565b60405180806020018060200180602001806020018060200186810386528b818151815260200191508051906020019080838360005b838110156110b2578082015181840152602081019050611097565b50505050905090810190601f1680156110df5780820380516001836020036101000a031916815260200191505b5086810385528a818151815260200191508051906020019080838360005b838110156111185780820151818401526020810190506110fd565b50505050905090810190601f1680156111455780820380516001836020036101000a031916815260200191505b50868103845289818151815260200191508051906020019080838360005b8381101561117e578082015181840152602081019050611163565b50505050905090810190601f1680156111ab5780820380516001836020036101000a031916815260200191505b50868103835288818151815260200191508051906020019080838360005b838110156111e45780820151818401526020810190506111c9565b50505050905090810190601f1680156112115780820380516001836020036101000a031916815260200191505b50868103825287818151815260200191508051906020019080838360005b8381101561124a57808201518184015260208101905061122f565b50505050905090810190601f1680156112775780820380516001836020036101000a031916815260200191505b509a505050505050505050505060405180910390f35b611295613f0a565b604051808481526020018060200180602001838103835285818151815260200191508051906020019080838360005b838110156112df5780820151818401526020810190506112c4565b50505050905090810190601f16801561130c5780820380516001836020036101000a031916815260200191505b50838103825284818151815260200191508051906020019080838360005b8381101561134557808201518184015260208101905061132a565b50505050905090810190601f1680156113725780820380516001836020036101000a031916815260200191505b509550505050505060405180910390f35b61145c6004803603604081101561139957600080fd5b81019080803573ffffffffffffffffffffffffffffffffffffffff169060200190929190803590602001906401000000008111156113d657600080fd5b8201836020820111156113e857600080fd5b8035906020019184600183028401116401000000008311171561140a57600080fd5b91908080601f016020809104026020016040519081016040528093929190818152602001838380828437600081840152601f19601f8201169050808301925050505050505091929192905050506140a4565b005b6115ae6004803603604081101561147457600080fd5b810190808035906020019064010000000081111561149157600080fd5b8201836020820111156114a357600080fd5b803590602001918460018302840111640100000000831117156114c557600080fd5b91908080601f016020809104026020016040519081016040528093929190818152602001838380828437600081840152601f19601f8201169050808301925050505050505091929192908035906020019064010000000081111561152857600080fd5b82018360208201111561153a57600080fd5b8035906020019184600183028401116401000000008311171561155c57600080fd5b91908080601f016020809104026020016040519081016040528093929190818152602001838380828437600081840152601f19601f82011690508083019250505050505050919291929050505061448a565b6040518082815260200191505060405180910390f35b3373ffffffffffffffffffffffffffffffffffffffff166000809054906101000a900473ffffffffffffffffffffffffffffffffffffffff1673ffffffffffffffffffffffffffffffffffffffff161461161d57600080fd5b60606040518060400160405280600681526020017f6c6f67696e5f0000000000000000000000000000000000000000000000000000815250905060608173__LibConcatenateStrings_________________63266001d39091856040518363ffffffff1660e01b8152600401808060200180602001838103835285818151815260200191508051906020019080838360005b838110156116ca5780820151818401526020810190506116af565b50505050905090810190601f1680156116f75780820380516001836020036101000a031916815260200191505b50838103825284818151815260200191508051906020019080838360005b83811015611730578082015181840152602081019050611715565b50505050905090810190601f16801561175d5780820380516001836020036101000a031916815260200191505b5094505050505060006040518083038186803b15801561177c57600080fd5b505af4158015611790573d6000803e3d6000fd5b505050506040513d6000823e3d601f19601f8201168201806040525060208110156117ba57600080fd5b81019080805160405193929190846401000000008211156117da57600080fd5b838201915060208201858111156117f057600080fd5b825186600182028301116401000000008211171561180d57600080fd5b8083526020830192505050908051906020019080838360005b83811015611841578082015181840152602081019050611826565b50505050905090810190601f16801561186e5780820380516001836020036101000a031916815260200191505b506040525050509050604051806040016040528082815260200184815250600360008673ffffffffffffffffffffffffffffffffffffffff1673ffffffffffffffffffffffffffffffffffffffff16815260200190815260200160002060008201518160000190805190602001906118e7929190614c47565b506020820151816001019080519060200190611904929190614c47565b509050507f401ac4b35a7b6689f6099149d9a4590d106d0b7850a038645519383db1f9e5aa836040518080602001828103825283818151815260200191508051906020019080838360005b8381101561196a57808201518184015260208101905061194f565b50505050905090810190601f1680156119975780820380516001836020036101000a031916815260200191505b509250505060405180910390a150505050565b6000806000600260003373ffffffffffffffffffffffffffffffffffffffff1673ffffffffffffffffffffffffffffffffffffffff1681526020019081526020016000206001018054600181600116156101000203166002900490501115611a1457339050611a19565b600090505b8091505090565b6000600554905090565b60608060608060606000600960008881526020019081526020016000206000015490506006600082815260200190815260200160002060000160000160066000838152602001908152602001600020600001600101600660008481526020019081526020016000206000016002016006600085815260200190815260200160002060000160030160066000868152602001908152602001600020600501848054600181600116156101000203166002900480601f016020809104026020016040519081016040528092919081815260200182805460018160011615610100020316600290048015611b5c5780601f10611b3157610100808354040283529160200191611b5c565b820191906000526020600020905b815481529060010190602001808311611b3f57829003601f168201915b50505050509450838054600181600116156101000203166002900480601f016020809104026020016040519081016040528092919081815260200182805460018160011615610100020316600290048015611bf85780601f10611bcd57610100808354040283529160200191611bf8565b820191906000526020600020905b815481529060010190602001808311611bdb57829003601f168201915b50505050509350828054600181600116156101000203166002900480601f016020809104026020016040519081016040528092919081815260200182805460018160011615610100020316600290048015611c945780601f10611c6957610100808354040283529160200191611c94565b820191906000526020600020905b815481529060010190602001808311611c7757829003601f168201915b50505050509250818054600181600116156101000203166002900480601f016020809104026020016040519081016040528092919081815260200182805460018160011615610100020316600290048015611d305780601f10611d0557610100808354040283529160200191611d30565b820191906000526020600020905b815481529060010190602001808311611d1357829003601f168201915b50505050509150808054600181600116156101000203166002900480601f016020809104026020016040519081016040528092919081815260200182805460018160011615610100020316600290048015611dcc5780601f10611da157610100808354040283529160200191611dcc565b820191906000526020600020905b815481529060010190602001808311611daf57829003601f168201915b50505050509050955095509550955095505091939590929450565b6000600754905090565b60006008826040518082805190602001908083835b60208310611e295780518252602082019150602081019050602083039250611e06565b6001836020036101000a0380198251168184511680821785525050505050509050019150509081526020016040518091039020600201549050919050565b6000806000600160003373ffffffffffffffffffffffffffffffffffffffff1673ffffffffffffffffffffffffffffffffffffffff1681526020019081526020016000206001018054600181600116156101000203166002900490501115611ed157339050611ed6565b600090505b8091505090565b6000806000600360003373ffffffffffffffffffffffffffffffffffffffff1673ffffffffffffffffffffffffffffffffffffffff1681526020019081526020016000206001018054600181600116156101000203166002900490501115611f4757339050611f4c565b600090505b8091505090565b3373ffffffffffffffffffffffffffffffffffffffff166000809054906101000a900473ffffffffffffffffffffffffffffffffffffffff1673ffffffffffffffffffffffffffffffffffffffff1614611fac57600080fd5b60606040518060400160405280600681526020017f6c6f67696e5f0000000000000000000000000000000000000000000000000000815250905060608173__LibConcatenateStrings_________________63266001d39091856040518363ffffffff1660e01b8152600401808060200180602001838103835285818151815260200191508051906020019080838360005b8381101561205957808201518184015260208101905061203e565b50505050905090810190601f1680156120865780820380516001836020036101000a031916815260200191505b50838103825284818151815260200191508051906020019080838360005b838110156120bf5780820151818401526020810190506120a4565b50505050905090810190601f1680156120ec5780820380516001836020036101000a031916815260200191505b5094505050505060006040518083038186803b15801561210b57600080fd5b505af415801561211f573d6000803e3d6000fd5b505050506040513d6000823e3d601f19601f82011682018060405250602081101561214957600080fd5b810190808051604051939291908464010000000082111561216957600080fd5b8382019150602082018581111561217f57600080fd5b825186600182028301116401000000008211171561219c57600080fd5b8083526020830192505050908051906020019080838360005b838110156121d05780820151818401526020810190506121b5565b50505050905090810190601f1680156121fd5780820380516001836020036101000a031916815260200191505b506040525050509050604051806040016040528082815260200184815250600160008673ffffffffffffffffffffffffffffffffffffffff1673ffffffffffffffffffffffffffffffffffffffff1681526020019081526020016000206000820151816000019080519060200190612276929190614c47565b506020820151816001019080519060200190612293929190614c47565b509050507fab3562bab9e824ea5bd0d7e0ef837e93d1f7a8f3ee468ae9cb2c04d960bfc6d4836040518080602001828103825283818151815260200191508051906020019080838360005b838110156122f95780820151818401526020810190506122de565b50505050905090810190601f1680156123265780820380516001836020036101000a031916815260200191505b509250505060405180910390a150505050565b60006060806000600754141561235357600754925061236c565b6123696001600754614ab590919063ffffffff16565b92505b600660008481526020019081526020016000206000016000018054600181600116156101000203166002900480601f0160208091040260200160405190810160405280929190818152602001828054600181600116156101000203166002900480156124195780601f106123ee57610100808354040283529160200191612419565b820191906000526020600020905b8154815290600101906020018083116123fc57829003601f168201915b50505050509150600660008481526020019081526020016000206000016001018054600181600116156101000203166002900480601f0160208091040260200160405190810160405280929190818152602001828054600181600116156101000203166002900480156124cd5780601f106124a2576101008083540402835291602001916124cd565b820191906000526020600020905b8154815290600101906020018083116124b057829003601f168201915b50505050509050909192565b6000600360003373ffffffffffffffffffffffffffffffffffffffff1673ffffffffffffffffffffffffffffffffffffffff1681526020019081526020016000206001018054600181600116156101000203166002900490501161253c57600080fd5b600115156006600084815260200190815260200160002060000160040160009054906101000a900460ff1615151461257357600080fd5b6040518060400160405280600781526020017f6d617272696564000000000000000000000000000000000000000000000000008152506006600084815260200190815260200160002060050190805190602001906125d2929190614cc7565b50806006600084815260200190815260200160002060060190805190602001906125fd929190614cc7565b507fc7b118d015ed4a95450d7ff616d44d5a9ff7ad9d46e3360ac8ae088efd6a555281836040518080602001838152602001828103825284818151815260200191508051906020019080838360005b8381101561266757808201518184015260208101905061264c565b50505050905090810190601f1680156126945780820380516001836020036101000a031916815260200191505b50935050505060405180910390a15050565b60008060009054906101000a900473ffffffffffffffffffffffffffffffffffffffff16905090565b6000809054906101000a900473ffffffffffffffffffffffffffffffffffffffff1681565b81805190602001206008846040518082805190602001908083835b60208310612732578051825260208201915060208101905060208303925061270f565b6001836020036101000a0380198251168184511680821785525050505050509050019150509081526020016040518091039020600101541461277357600080fd5b600081805190602001209050806008856040518082805190602001908083835b602083106127b65780518252602082019150602081019050602083039250612793565b6001836020036101000a03801982511681845116808217855250505050505090500191505090815260200160405180910390206001018190555050505050565b6060806060806000600460008781526020019081526020016000206000016004600088815260200190815260200160002060010160046000898152602001908152602001600020600201600460008a8152602001908152602001600020600301600460008b815260200190815260200160002060040160009054906101000a900460ff16848054600181600116156101000203166002900480601f01602080910402602001604051908101604052809291908181526020018280546001816001161561010002031660029004801561290f5780601f106128e45761010080835404028352916020019161290f565b820191906000526020600020905b8154815290600101906020018083116128f257829003601f168201915b50505050509450838054600181600116156101000203166002900480601f0160208091040260200160405190810160405280929190818152602001828054600181600116156101000203166002900480156129ab5780601f10612980576101008083540402835291602001916129ab565b820191906000526020600020905b81548152906001019060200180831161298e57829003601f168201915b50505050509350828054600181600116156101000203166002900480601f016020809104026020016040519081016040528092919081815260200182805460018160011615610100020316600290048015612a475780601f10612a1c57610100808354040283529160200191612a47565b820191906000526020600020905b815481529060010190602001808311612a2a57829003601f168201915b50505050509250818054600181600116156101000203166002900480601f016020809104026020016040519081016040528092919081815260200182805460018160011615610100020316600290048015612ae35780601f10612ab857610100808354040283529160200191612ae3565b820191906000526020600020905b815481529060010190602001808311612ac657829003601f168201915b505050505091509450945094509450945091939590929450565b600080600260003373ffffffffffffffffffffffffffffffffffffffff1673ffffffffffffffffffffffffffffffffffffffff16815260200190815260200160002060010180546001816001161561010002031660029004905011612b6157600080fd5b600015156004600084815260200190815260200160002060040160009054906101000a900460ff16151514612b9557600080fd5b60016004600084815260200190815260200160002060040160006101000a81548160ff02191690831515021790555060606040518060400160405280600681526020017f6c6f67696e5f0000000000000000000000000000000000000000000000000000815250905060608173__LibConcatenateStrings_________________63266001d39091600460008881526020019081526020016000206001016040518363ffffffff1660e01b8152600401808060200180602001838103835285818151815260200191508051906020019080838360005b83811015612c86578082015181840152602081019050612c6b565b50505050905090810190601f168015612cb35780820380516001836020036101000a031916815260200191505b50838103825284818154600181600116156101000203166002900481526020019150805460018160011615610100020316600290048015612d355780601f10612d0a57610100808354040283529160200191612d35565b820191906000526020600020905b815481529060010190602001808311612d1857829003601f168201915b505094505050505060006040518083038186803b158015612d5557600080fd5b505af4158015612d69573d6000803e3d6000fd5b505050506040513d6000823e3d601f19601f820116820180604052506020811015612d9357600080fd5b8101908080516040519392919084640100000000821115612db357600080fd5b83820191506020820185811115612dc957600080fd5b8251866001820283011164010000000082111715612de657600080fd5b8083526020830192505050908051906020019080838360005b83811015612e1a578082015181840152602081019050612dff565b50505050905090810190601f168015612e475780820380516001836020036101000a031916815260200191505b5060405250505090508073__LibConcatenateStrings_________________63266001d39091600460008881526020019081526020016000206002016040518363ffffffff1660e01b8152600401808060200180602001838103835285818151815260200191508051906020019080838360005b83811015612ed6578082015181840152602081019050612ebb565b50505050905090810190601f168015612f035780820380516001836020036101000a031916815260200191505b50838103825284818154600181600116156101000203166002900481526020019150805460018160011615610100020316600290048015612f855780601f10612f5a57610100808354040283529160200191612f85565b820191906000526020600020905b815481529060010190602001808311612f6857829003601f168201915b505094505050505060006040518083038186803b158015612fa557600080fd5b505af4158015612fb9573d6000803e3d6000fd5b505050506040513d6000823e3d601f19601f820116820180604052506020811015612fe357600080fd5b810190808051604051939291908464010000000082111561300357600080fd5b8382019150602082018581111561301957600080fd5b825186600182028301116401000000008211171561303657600080fd5b8083526020830192505050908051906020019080838360005b8381101561306a57808201518184015260208101905061304f565b50505050905090810190601f1680156130975780820380516001836020036101000a031916815260200191505b50604052505050915060606040518060400160405280600481526020017f7077645f00000000000000000000000000000000000000000000000000000000815250905060608173__LibConcatenateStrings_________________63266001d39091600460008a81526020019081526020016000206002016040518363ffffffff1660e01b8152600401808060200180602001838103835285818151815260200191508051906020019080838360005b83811015613162578082015181840152602081019050613147565b50505050905090810190601f16801561318f5780820380516001836020036101000a031916815260200191505b508381038252848181546001816001161561010002031660029004815260200191508054600181600116156101000203166002900480156132115780601f106131e657610100808354040283529160200191613211565b820191906000526020600020905b8154815290600101906020018083116131f457829003601f168201915b505094505050505060006040518083038186803b15801561323157600080fd5b505af4158015613245573d6000803e3d6000fd5b505050506040513d6000823e3d601f19601f82011682018060405250602081101561326f57600080fd5b810190808051604051939291908464010000000082111561328f57600080fd5b838201915060208201858111156132a557600080fd5b82518660018202830111640100000000821117156132c257600080fd5b8083526020830192505050908051906020019080838360005b838110156132f65780820151818401526020810190506132db565b50505050905090810190601f1680156133235780820380516001836020036101000a031916815260200191505b50604052505050905060008180519060200120905060006040518060400160405280600381526020017f6e6577000000000000000000000000000000000000000000000000000000000081525080519060200120905060075496506133946001600754614aff90919063ffffffff16565b6007819055506040518060800160405280600460008b81526020019081526020016000206040518060a0016040529081600082018054600181600116156101000203166002900480601f01602080910402602001604051908101604052809291908181526020018280546001816001161561010002031660029004801561345c5780601f106134315761010080835404028352916020019161345c565b820191906000526020600020905b81548152906001019060200180831161343f57829003601f168201915b50505050508152602001600182018054600181600116156101000203166002900480601f0160208091040260200160405190810160405280929190818152602001828054600181600116156101000203166002900480156134fe5780601f106134d3576101008083540402835291602001916134fe565b820191906000526020600020905b8154815290600101906020018083116134e157829003601f168201915b50505050508152602001600282018054600181600116156101000203166002900480601f0160208091040260200160405190810160405280929190818152602001828054600181600116156101000203166002900480156135a05780601f10613575576101008083540402835291602001916135a0565b820191906000526020600020905b81548152906001019060200180831161358357829003601f168201915b50505050508152602001600382018054600181600116156101000203166002900480601f0160208091040260200160405190810160405280929190818152602001828054600181600116156101000203166002900480156136425780601f1061361757610100808354040283529160200191613642565b820191906000526020600020905b81548152906001019060200180831161362557829003601f168201915b505050505081526020016004820160009054906101000a900460ff16151515158152505081526020016040518060400160405280600681526020017f73696e676c6500000000000000000000000000000000000000000000000000008152508152602001604051806020016040528060008152508152602001878152506006600089815260200190815260200160002060008201518160000160008201518160000190805190602001906136f7929190614c47565b506020820151816001019080519060200190613714929190614c47565b506040820151816002019080519060200190613731929190614c47565b50606082015181600301908051906020019061374e929190614c47565b5060808201518160040160006101000a81548160ff0219169083151502179055505050602082015181600501908051906020019061378d929190614c47565b5060408201518160060190805190602001906137aa929190614c47565b5060608201518160070190805190602001906137c7929190614c47565b509050506040518060600160405280888152602001838152602001828152506008876040518082805190602001908083835b6020831061381c57805182526020820191506020810190506020830392506137f9565b6001836020036101000a03801982511681845116808217855250505050505090500191505090815260200160405180910390206000820151816000015560208201518160010155604082015181600201559050507f742c345840647c71e989bcfe501f009faa76e04998bb4c2ea8b4adc5ac0659998888604051808381526020018281526020019250505060405180910390a1505050505050919050565b600080600160003373ffffffffffffffffffffffffffffffffffffffff1673ffffffffffffffffffffffffffffffffffffffff1681526020019081526020016000206001018054600181600116156101000203166002900490501161391e57600080fd5b6000600554905061393b6001600554614aff90919063ffffffff16565b6005819055506040518060a001604052808781526020018681526020018581526020018481526020016000151581525060046000838152602001908152602001600020600082015181600001908051906020019061399a929190614c47565b5060208201518160010190805190602001906139b7929190614c47565b5060408201518160020190805190602001906139d4929190614c47565b5060608201518160030190805190602001906139f1929190614c47565b5060808201518160040160006101000a81548160ff0219169083151502179055509050507f975e5fd57c7c0e6b1a8c1a5d6861dce72c6672a93848401afb36caa4eb90ba83868683604051808060200180602001848152602001838103835286818151815260200191508051906020019080838360005b83811015613a83578082015181840152602081019050613a68565b50505050905090810190601f168015613ab05780820380516001836020036101000a031916815260200191505b50838103825285818151815260200191508051906020019080838360005b83811015613ae9578082015181840152602081019050613ace565b50505050905090810190601f168015613b165780820380516001836020036101000a031916815260200191505b509550505050505060405180910390a180915050949350505050565b6060806060806060600115156006600088815260200190815260200160002060000160040160009054906101000a900460ff16151514613b7157600080fd5b600660008781526020019081526020016000206000016000016006600088815260200190815260200160002060000160010160066000898152602001908152602001600020600001600201600660008a8152602001908152602001600020600001600301600660008b8152602001908152602001600020600501848054600181600116156101000203166002900480601f016020809104026020016040519081016040528092919081815260200182805460018160011615610100020316600290048015613c805780601f10613c5557610100808354040283529160200191613c80565b820191906000526020600020905b815481529060010190602001808311613c6357829003601f168201915b50505050509450838054600181600116156101000203166002900480601f016020809104026020016040519081016040528092919081815260200182805460018160011615610100020316600290048015613d1c5780601f10613cf157610100808354040283529160200191613d1c565b820191906000526020600020905b815481529060010190602001808311613cff57829003601f168201915b50505050509350828054600181600116156101000203166002900480601f016020809104026020016040519081016040528092919081815260200182805460018160011615610100020316600290048015613db85780601f10613d8d57610100808354040283529160200191613db8565b820191906000526020600020905b815481529060010190602001808311613d9b57829003601f168201915b50505050509250818054600181600116156101000203166002900480601f016020809104026020016040519081016040528092919081815260200182805460018160011615610100020316600290048015613e545780601f10613e2957610100808354040283529160200191613e54565b820191906000526020600020905b815481529060010190602001808311613e3757829003601f168201915b50505050509150808054600181600116156101000203166002900480601f016020809104026020016040519081016040528092919081815260200182805460018160011615610100020316600290048015613ef05780601f10613ec557610100808354040283529160200191613ef0565b820191906000526020600020905b815481529060010190602001808311613ed357829003601f168201915b505050505090509450945094509450945091939590929450565b600060608060006005541415613f24576005549250613f3d565b613f3a6001600554614ab590919063ffffffff16565b92505b600460008481526020019081526020016000206000018054600181600116156101000203166002900480601f016020809104026020016040519081016040528092919081815260200182805460018160011615610100020316600290048015613fe75780601f10613fbc57610100808354040283529160200191613fe7565b820191906000526020600020905b815481529060010190602001808311613fca57829003601f168201915b50505050509150600460008481526020019081526020016000206001018054600181600116156101000203166002900480601f0160208091040260200160405190810160405280929190818152602001828054600181600116156101000203166002900480156140985780601f1061406d57610100808354040283529160200191614098565b820191906000526020600020905b81548152906001019060200180831161407b57829003601f168201915b50505050509050909192565b3373ffffffffffffffffffffffffffffffffffffffff166000809054906101000a900473ffffffffffffffffffffffffffffffffffffffff1673ffffffffffffffffffffffffffffffffffffffff16146140fd57600080fd5b60606040518060400160405280600681526020017f6c6f67696e5f0000000000000000000000000000000000000000000000000000815250905060608173__LibConcatenateStrings_________________63266001d39091856040518363ffffffff1660e01b8152600401808060200180602001838103835285818151815260200191508051906020019080838360005b838110156141aa57808201518184015260208101905061418f565b50505050905090810190601f1680156141d75780820380516001836020036101000a031916815260200191505b50838103825284818151815260200191508051906020019080838360005b838110156142105780820151818401526020810190506141f5565b50505050905090810190601f16801561423d5780820380516001836020036101000a031916815260200191505b5094505050505060006040518083038186803b15801561425c57600080fd5b505af4158015614270573d6000803e3d6000fd5b505050506040513d6000823e3d601f19601f82011682018060405250602081101561429a57600080fd5b81019080805160405193929190846401000000008211156142ba57600080fd5b838201915060208201858111156142d057600080fd5b82518660018202830111640100000000821117156142ed57600080fd5b8083526020830192505050908051906020019080838360005b83811015614321578082015181840152602081019050614306565b50505050905090810190601f16801561434e5780820380516001836020036101000a031916815260200191505b506040525050509050604051806040016040528082815260200184815250600260008673ffffffffffffffffffffffffffffffffffffffff1673ffffffffffffffffffffffffffffffffffffffff16815260200190815260200160002060008201518160000190805190602001906143c7929190614c47565b5060208201518160010190805190602001906143e4929190614c47565b509050507fa7b9cf10953e89fba48615bdedc4c557e19daee10f4f77f3ab1a2d2bb951a041836040518080602001828103825283818151815260200191508051906020019080838360005b8381101561444a57808201518184015260208101905061442f565b50505050905090810190601f1680156144775780820380516001836020036101000a031916815260200191505b509250505060405180910390a150505050565b600081805190602001206008846040518082805190602001908083835b602083106144ca57805182526020820191506020810190506020830392506144a7565b6001836020036101000a0380198251168184511680821785525050505050509050019150509081526020016040518091039020600101541461450b57600080fd5b60006008846040518082805190602001908083835b602083106145435780518252602082019150602081019050602083039250614520565b6001836020036101000a038019825116818451168082178552505050505050905001915050908152602001604051809103902060000154905060608173__LibTransformUintString________________63e939567990916040518263ffffffff1660e01b81526004018082815260200191505060006040518083038186803b1580156145cf57600080fd5b505af41580156145e3573d6000803e3d6000fd5b505050506040513d6000823e3d601f19601f82011682018060405250602081101561460d57600080fd5b810190808051604051939291908464010000000082111561462d57600080fd5b8382019150602082018581111561464357600080fd5b825186600182028301116401000000008211171561466057600080fd5b8083526020830192505050908051906020019080838360005b83811015614694578082015181840152602081019050614679565b50505050905090810190601f1680156146c15780820380516001836020036101000a031916815260200191505b50604052505050905060608173__LibConcatenateStrings_________________63266001d39091876040518363ffffffff1660e01b8152600401808060200180602001838103835285818151815260200191508051906020019080838360005b8381101561473d578082015181840152602081019050614722565b50505050905090810190601f16801561476a5780820380516001836020036101000a031916815260200191505b50838103825284818151815260200191508051906020019080838360005b838110156147a3578082015181840152602081019050614788565b50505050905090810190601f1680156147d05780820380516001836020036101000a031916815260200191505b5094505050505060006040518083038186803b1580156147ef57600080fd5b505af4158015614803573d6000803e3d6000fd5b505050506040513d6000823e3d601f19601f82011682018060405250602081101561482d57600080fd5b810190808051604051939291908464010000000082111561484d57600080fd5b8382019150602082018581111561486357600080fd5b825186600182028301116401000000008211171561488057600080fd5b8083526020830192505050908051906020019080838360005b838110156148b4578082015181840152602081019050614899565b50505050905090810190601f1680156148e15780820380516001836020036101000a031916815260200191505b506040525050509050600081805190602001209050806008886040518082805190602001908083835b6020831061492d578051825260208201915060208101905060208303925061490a565b6001836020036101000a0380198251168184511680821785525050505050509050019150509081526020016040518091039020600201819055506008876040518082805190602001908083835b6020831061499d578051825260208201915060208101905060208303925061497a565b6001836020036101000a0380198251168184511680821785525050505050509050019150509081526020016040518091039020600960008381526020019081526020016000206000820154816000015560018201548160010155600282015481600201559050507fb3c104ebb8d7c2039282f84239773ba591395f85016526077eeab6912a11dda487826040518080602001838152602001828103825284818151815260200191508051906020019080838360005b83811015614a6d578082015181840152602081019050614a52565b50505050905090810190601f168015614a9a5780820380516001836020036101000a031916815260200191505b50935050505060405180910390a18094505050505092915050565b6000614af783836040518060400160405280601e81526020017f536166654d6174683a207375627472616374696f6e206f766572666c6f770000815250614b87565b905092915050565b600080828401905083811015614b7d576040517f08c379a000000000000000000000000000000000000000000000000000000000815260040180806020018281038252601b8152602001807f536166654d6174683a206164646974696f6e206f766572666c6f77000000000081525060200191505060405180910390fd5b8091505092915050565b6000838311158290614c34576040517f08c379a00000000000000000000000000000000000000000000000000000000081526004018080602001828103825283818151815260200191508051906020019080838360005b83811015614bf9578082015181840152602081019050614bde565b50505050905090810190601f168015614c265780820380516001836020036101000a031916815260200191505b509250505060405180910390fd5b5060008385039050809150509392505050565b828054600181600116156101000203166002900490600052602060002090601f016020900481019282601f10614c8857805160ff1916838001178555614cb6565b82800160010185558215614cb6579182015b82811115614cb5578251825591602001919060010190614c9a565b5b509050614cc39190614d47565b5090565b828054600181600116156101000203166002900490600052602060002090601f016020900481019282601f10614d0857805160ff1916838001178555614d36565b82800160010185558215614d36579182015b82811115614d35578251825591602001919060010190614d1a565b5b509050614d439190614d47565b5090565b614d6991905b80821115614d65576000816000905550600101614d4d565b5090565b9056fea265627a7a72315820c718c8cca655267c664889acf4b8d3f56d8846f3b6a384ceff42b7d4bcfa039764736f6c63430005100032",
  "source": "// SPDX-License-Identifier: MIT\r\npragma solidity >=0.4.21 <0.8.0;\r\n\r\n//Libraries\r\nimport {LibConcatenateStrings} from './LibConcatenateStrings.sol';\r\nimport {LibTransformUintString} from './LibTransformUintString.sol';\r\nimport {SafeMath} from './SafeMath.sol';\r\n\r\n/*\r\n    The CivilState contract keeps track of the citizen information, starting from their birth and being maintained throughout their life\r\n*/\r\ncontract CivilState {\r\n    using LibConcatenateStrings for string;\r\n    using LibTransformUintString for *;\r\n    using SafeMath for uint; \r\n\r\n    /*\r\n        Public owner variable => the creator of the contract when it is initialized.\r\n    */\r\n    address public owner;\r\n\r\n    /*\r\n        Birth struct : add birth information\r\n    */\r\n    struct Birth {\r\n        string name;\r\n        string lastName;\r\n        string birthDate;\r\n        string birthCity;\r\n        bool isVerified;\r\n    }\r\n\r\n    /*\r\n        Identity struct : created to validate a birth and create the citizen identity\r\n    */\r\n    struct Identity {\r\n        Birth birthinfo;\r\n        \r\n        // Marital information\r\n        string maritalStatus;\r\n        string marriageDate;\r\n        string userLogin;\r\n    }\r\n\r\n    /*\r\n        Identifier struct : created to track users identifiers\r\n    */\r\n    struct Identifier {\r\n        uint userIdentityCount;\r\n        bytes32 userPassword;\r\n        bytes32 newCertification;\r\n    }\r\n\r\n    /*\r\n        Authentification struct : created to track hospital, prefecture and city hall members authentification\r\n    */    \r\n    struct Authentification {\r\n        string login;\r\n        string name;\r\n    }\r\n    \r\n    /*\r\n        Mapping to keep track of the hospital members\r\n    */\r\n    mapping (address => Authentification) hospitalMembers;\r\n\r\n    /*\r\n        Mapping to keep track of the prefecture members\r\n    */\r\n    mapping (address => Authentification) prefectureMembers;\r\n\r\n    /*\r\n        Mapping to keep track of the city hall members\r\n    */\r\n    mapping (address => Authentification) cityHallMembers;\r\n\r\n    /*\r\n       Mapping to keep track of the births\r\n    */\r\n    mapping (uint => Birth) births;\r\n    uint birthsCount = 0;\r\n\r\n    /*\r\n       Mapping to keep track of the citizen's identities\r\n    */    \r\n    mapping (uint => Identity) identities;\r\n    uint identitiesCount = 0;\r\n\r\n    /*\r\n        Mapping to keep track of citizen's identifiers\r\n    */\r\n    mapping(string => Identifier) citizenIdentifiers;\r\n\r\n    /*\r\n        Mapping to keep track of identity certifications generated by users (citizens)\r\n    */\r\n    mapping(bytes32 => Identifier) idCertifications;\r\n\r\n    // Events\r\n\r\n    // Event signaling that a new hospital member was added\r\n    event LogEventAddHospitalMember(string memberName);\r\n    // Event signaling that a new prefecture member was added\r\n    event LogEventAddPrefectureMember(string memberName);\r\n    // Event signaling that a new cityHall member was added\r\n    event LogEventAddCityHallMember(string memberName);\r\n    // Event signaling that a new birth member was declared\r\n    event LogEventBirthAdded (string name, string lastName, uint birthId);\r\n    // Event signaling that a new identity was verified\r\n    event LogEventVerifyIdentity(uint birthId, uint identityId);\r\n    // Event signaling that new marriage member was declared\r\n    event LogEventDeclareMarriage(string marriageDate, uint identityId);\r\n    // Event signaling that a certification was generated\r\n    event LogEventCertificationGenerated(string login, bytes32 identity_hash);\r\n\r\n\r\n    /*\r\n       Modifier that throws an error if the msg.sender is not the owner.\r\n    */\r\n    modifier isAdmin () {\r\n        require(owner == msg.sender);\r\n        _;\r\n    }\r\n\r\n    /*\r\n       Modifier that throws an error if the msg.sender passed is not a hospital member.\r\n    */\r\n    modifier isHospital () {\r\n        require (bytes(hospitalMembers[msg.sender].name).length > 0);\r\n        _;\r\n    }\r\n\r\n    /*\r\n       Modifier that throws an error if the msg.sender passed is not a prefecture member.\r\n    */\r\n    modifier isPrefecture () {\r\n        require (bytes(prefectureMembers[msg.sender].name).length > 0);\r\n        _;\r\n    }\r\n\r\n    /*\r\n       Modifier that throws an error if the msg.sender passed is not a city hall member.\r\n    */\r\n    modifier isCityHall () {\r\n        require (bytes(cityHallMembers[msg.sender].name).length > 0);\r\n        _;\r\n    }\r\n\r\n    constructor () public {\r\n        owner = msg.sender;\r\n    }    \r\n  \r\n    // Admin functions\r\n\r\n    /* \r\n        Function do add a new hospital member to the \"hospitalMembers\" mapping\r\n        Only the owner of the contract (the admin) can add new members\r\n    */\r\n    function addHospitalMember (address _newMember, string memory _memberName) public isAdmin {\r\n        // Initialization of login\r\n        string memory login = \"login_\";\r\n        string memory _login = login.concatenate(_memberName);       \r\n        hospitalMembers[_newMember] = Authentification({\r\n            login : _login,\r\n            name : _memberName\r\n        });\r\n        emit LogEventAddHospitalMember(_memberName);\r\n    }\r\n\r\n    /* \r\n        Function do add a new prefecture member to the \"prefectureMembers\" mapping\r\n        Only the owner of the contract (the admin) can add new members\r\n    */\r\n    function addPrefectureMember (address _newMember, string memory _memberName) public isAdmin {\r\n        // Initialization of login\r\n        string memory login = \"login_\";\r\n        string memory _login = login.concatenate(_memberName); \r\n        prefectureMembers[_newMember] = Authentification({\r\n            login : _login,\r\n            name : _memberName\r\n        });\r\n        emit LogEventAddPrefectureMember(_memberName);\r\n    }\r\n\r\n    /* \r\n        Function do add a new city hall member to the \"cityHallMembers\" mapping\r\n        Only the owner of the contract (the admin) can add new members\r\n    */\r\n    function addCityHallMember (address _newMember, string memory _memberName) public isAdmin {\r\n        // Initialization of login\r\n        string memory login = \"login_\";\r\n        string memory _login = login.concatenate(_memberName); \r\n        cityHallMembers[_newMember] = Authentification({\r\n            login : _login,\r\n            name : _memberName\r\n        });\r\n        emit LogEventAddCityHallMember(_memberName);\r\n    }\r\n\r\n    /*\r\n        Function to add a new birth\r\n        When there is a birth, a member of the hospital must declare the birth : this function creates a new birth\r\n        Only a hospital member can create a new birth\r\n    */      \r\n    function addBirth (string memory _name, string memory _lastName, string memory _birthDate, string memory _birthCity) public isHospital returns(uint) {\r\n        //uint birthId = birthsCount++;\r\n        uint birthId = birthsCount;\r\n        birthsCount = birthsCount.add(1);\r\n        births[birthId] = Birth({\r\n            name : _name,\r\n            lastName : _lastName,\r\n            birthDate : _birthDate,\r\n            birthCity : _birthCity,\r\n            isVerified : false\r\n        });\r\n        emit LogEventBirthAdded(_name, _lastName, birthId);\r\n        return birthId;\r\n    }\r\n\r\n    // Function to get the birthId after the creation of a new birth\r\n    function getBirthId () public view returns (uint _birthId, string memory _name, string memory _lastName){\r\n        //_name = \"undefined\";\r\n        //_lastName = \"undefined\";\r\n        /*if (birthsCount >= 0) {\r\n            _birthId = birthsCount - 1;\r\n            _name = births[_birthId].name;\r\n            _lastName = births[_birthId].lastName;\r\n        }*/\r\n        if (birthsCount == 0) {\r\n          _birthId = birthsCount;  \r\n        } else {\r\n          _birthId = birthsCount.sub(1);  \r\n        }\r\n        _name = births[_birthId].name;\r\n        _lastName = births[_birthId].lastName;\r\n \r\n    }\r\n    \r\n    /*\r\n        Function to verify an identity  \r\n        After a birth declaration, the a member of the prefecture must verifiy the citizen's identity\r\n        Only a member of the prefecture can verify an identity\r\n    */\r\n    function verifyIdentity (uint birthId) public isPrefecture returns (uint identityId) {\r\n        require(births[birthId].isVerified == false);\r\n        births[birthId].isVerified = true;\r\n        \r\n        // Initialization of login and password\r\n        string memory login = \"login_\";\r\n        string memory _login = login.concatenate(births[birthId].lastName); \r\n        login = _login.concatenate(births[birthId].birthDate);        \r\n        \r\n        string memory pwd = \"pwd_\";\r\n        string memory password = pwd.concatenate(births[birthId].birthDate);\r\n        bytes32 passwordHash = keccak256(bytes(password));\r\n\r\n        bytes32 lambdaCertification = keccak256(bytes(\"new\"));\r\n\r\n        //identityId = identitiesCount++;\r\n        identityId = identitiesCount;\r\n        identitiesCount = identitiesCount.add(1);\r\n        identities[identityId] = Identity({\r\n            birthinfo : births[birthId],\r\n            maritalStatus : \"single\",\r\n            marriageDate: \"\",\r\n            userLogin: login\r\n        });\r\n\r\n        citizenIdentifiers[login] = Identifier({\r\n            userIdentityCount : identityId,\r\n            userPassword : passwordHash,\r\n            newCertification : lambdaCertification\r\n        });\r\n\r\n        emit LogEventVerifyIdentity(birthId, identityId);\r\n    }\r\n\r\n    // Function to get the identityId after the verification of an identity\r\n    function getIdentityId() public view returns (uint _identity, string memory _name, string memory _lastName){\r\n        /*_name = \"undefined\";\r\n        _lastName = \"undefined\";\r\n        if (identitiesCount >= 0) {\r\n            _identity = identitiesCount - 1;\r\n            _name = identities[_identity].birthinfo.name;\r\n            _lastName = identities[_identity].birthinfo.lastName;            \r\n        }*/\r\n\r\n        if (identitiesCount == 0) {\r\n          _identity = identitiesCount;  \r\n        } else {\r\n          _identity = identitiesCount.sub(1);  \r\n        }\r\n        _name = identities[_identity].birthinfo.name;\r\n        _lastName = identities[_identity].birthinfo.lastName; \r\n    }\r\n\r\n    /*\r\n        Function to declare a marriage\r\n        Only a city Hall member can declare a marriage\r\n    */\r\n    function declareMarriage (uint identityId, string memory _marriageDate) public isCityHall {\r\n        require(identities[identityId].birthinfo.isVerified == true);\r\n        \r\n        //Change marital status\r\n        identities[identityId].maritalStatus = \"married\";\r\n        identities[identityId].marriageDate = _marriageDate;\r\n\r\n        emit LogEventDeclareMarriage(_marriageDate, identityId);\r\n    }\r\n\r\n    /*\r\n        Function to allow citizens to modify their password\r\n    */\r\n    function modifyMyPassword (string memory _login, string memory _oldPwd, string memory _newPwd) public{\r\n        //Verify that the user used the good password\r\n        require (citizenIdentifiers[_login].userPassword == keccak256(bytes(_oldPwd)));\r\n        bytes32 newPwd = keccak256(bytes(_newPwd));\r\n        citizenIdentifiers[_login].userPassword = newPwd;\r\n    }\r\n\r\n    /*\r\n        Function to allow citizen to generete an identity certification\r\n    */\r\n    function generateIdCertification (string memory login, string memory pwd) public returns (bytes32){\r\n        //Verify that the user used the good password\r\n        require (citizenIdentifiers[login].userPassword == keccak256(bytes(pwd)));\r\n        // Get the user identity count\r\n        uint userIdCount = citizenIdentifiers[login].userIdentityCount;\r\n        string memory userIdCountString = userIdCount.uintToString();\r\n        string memory contIdentifiers = userIdCountString.concatenate(pwd);\r\n        bytes32 identity_hash = keccak256(bytes(contIdentifiers));\r\n        citizenIdentifiers[login].newCertification = identity_hash;\r\n        // add certification to mapping\r\n        idCertifications[identity_hash] = citizenIdentifiers[login];\r\n        emit LogEventCertificationGenerated(login, identity_hash);\r\n        return identity_hash;\r\n    }\r\n    \r\n    // Function to get the lastCertification\r\n    function getCertification(string memory _login) public view returns (bytes32) {\r\n        return citizenIdentifiers[_login].newCertification;\r\n    }\r\n    \r\n\r\n    /*\r\n       Functions read\r\n    */\r\n\r\n    /*\r\n        Function to verify identityCertification\r\n        Once a citizen generates a certification, anyone who has the hash of the certification can verify the identity\r\n    */\r\n\r\n    function verifyCertification (bytes32 id_hash) public view returns (string memory _name, string memory _lastName, string memory _birthDate, string memory _birthCity, string memory _maritalStatus) {\r\n        // get userIdCount\r\n        uint userIdCount = idCertifications[id_hash].userIdentityCount;\r\n        return(identities[userIdCount].birthinfo.name, identities[userIdCount].birthinfo.lastName, identities[userIdCount].birthinfo.birthDate, identities[userIdCount].birthinfo.birthCity, identities[userIdCount].maritalStatus);\r\n\r\n    }\r\n    \r\n    // Function to read a birth information\r\n    function readBirth(uint birthId) public view returns(string memory _name, string memory _lastName, string memory _birthDate, string memory _birthCity, bool _isVerified){\r\n        return (births[birthId].name, births[birthId].lastName, births[birthId].birthDate, births[birthId].birthCity, births[birthId].isVerified);\r\n    }        \r\n\r\n    // Function to read an identity information\r\n    function readIdentity(uint identityId) public view returns(string memory _name, string memory _lastName, string memory _birthDate, string memory _birthCity, string memory _maritalStatus){\r\n        require(identities[identityId].birthinfo.isVerified == true);\r\n        return (identities[identityId].birthinfo.name, identities[identityId].birthinfo.lastName, identities[identityId].birthinfo.birthDate, identities[identityId].birthinfo.birthCity, identities[identityId].maritalStatus);\r\n    }\r\n\r\n    // Function to get the births count\r\n    function getBirthsCount() public view returns(uint _birthCount) {\r\n        return birthsCount; \r\n    }\r\n\r\n    // Function to get the identities count\r\n    function getIdentitiesCount() public view returns(uint _identitiesCount){\r\n        return identitiesCount;\r\n    }\r\n\r\n    // Function to get the owner of the contract\r\n    function getOwner() public view returns(address _owner){\r\n        return owner;\r\n    }\r\n\r\n    /* \r\n        Function to verify if the msg.sender is a hospital member\r\n        Return 0x00..0 if not a hospital member\r\n        Return the address of the msg.sender if it is a hospital member\r\n    */\r\n    function isHospitalMember() public view returns(address){\r\n        address memberAddress;\r\n        if (bytes(hospitalMembers[msg.sender].name).length > 0) {\r\n            memberAddress = msg.sender;\r\n        } else {\r\n            memberAddress = 0x0000000000000000000000000000000000000000;\r\n        }\r\n        return memberAddress;\r\n    }\r\n\r\n    /* \r\n        Function to verify if the msg.sender is a prefecture member\r\n        Return 0x00..0 if not a prefecture member\r\n        Return the address of the msg.sender if it is a prefecture member\r\n    */\r\n    function isPrefectureMember() public view returns(address){\r\n        address memberAddress;\r\n        if (bytes(prefectureMembers[msg.sender].name).length > 0) {\r\n            memberAddress = msg.sender;\r\n        } else {\r\n            memberAddress = 0x0000000000000000000000000000000000000000;\r\n        }\r\n        return memberAddress;\r\n    }\r\n\r\n    /* \r\n        Function to verify if the msg.sender is a city hall member\r\n        Return 0x00..0 if not a city hall member\r\n        Return the address of the msg.sender if it is a city hall member\r\n    */\r\n    function isCityHallMember() public view returns(address){\r\n        address memberAddress;\r\n        if (bytes(cityHallMembers[msg.sender].name).length > 0) {\r\n            memberAddress = msg.sender;\r\n        } else {\r\n            memberAddress = 0x0000000000000000000000000000000000000000;\r\n        }\r\n        return memberAddress;\r\n    }\r\n\r\n}",
  "sourcePath": "C:/Users/anatereza.mascarenha/Documents/Ethereum/EthereumCertification/Civil State App/contracts/CivilState.sol",
  "compiler": {
    "name": "solc",
    "version": "0.5.16+commit.9c3226ce.Emscripten.clang"
  },
  "schemaVersion": "3.0.22",
  "updatedAt": "2020-12-07T11:30:26.170Z",
  "networkType": "ethereum",
  "devdoc": {
    "methods": {}
  },
  "userdoc": {
    "methods": {}
  }
}