{
  "contractName": "CivilStateV2",
  "abi": [
    {
      "inputs": [],
      "payable": false,
      "stateMutability": "nonpayable",
      "type": "constructor"
    },
    {
      "anonymous": false,
      "inputs": [
        {
          "indexed": false,
          "internalType": "string",
          "name": "memberName",
          "type": "string"
        }
      ],
      "name": "LogEventAddCityHallMember",
      "type": "event"
    },
    {
      "anonymous": false,
      "inputs": [
        {
          "indexed": false,
          "internalType": "string",
          "name": "memberName",
          "type": "string"
        }
      ],
      "name": "LogEventAddHospitalMember",
      "type": "event"
    },
    {
      "anonymous": false,
      "inputs": [
        {
          "indexed": false,
          "internalType": "string",
          "name": "memberName",
          "type": "string"
        }
      ],
      "name": "LogEventAddPrefectureMember",
      "type": "event"
    },
    {
      "anonymous": false,
      "inputs": [
        {
          "indexed": false,
          "internalType": "string",
          "name": "name",
          "type": "string"
        },
        {
          "indexed": false,
          "internalType": "string",
          "name": "lastName",
          "type": "string"
        },
        {
          "indexed": false,
          "internalType": "uint256",
          "name": "birthId",
          "type": "uint256"
        }
      ],
      "name": "LogEventBirthAdded",
      "type": "event"
    },
    {
      "anonymous": false,
      "inputs": [
        {
          "indexed": false,
          "internalType": "string",
          "name": "marriageDate",
          "type": "string"
        },
        {
          "indexed": false,
          "internalType": "uint256",
          "name": "identityId",
          "type": "uint256"
        }
      ],
      "name": "LogEventDeclareMarriage",
      "type": "event"
    },
    {
      "anonymous": false,
      "inputs": [
        {
          "indexed": false,
          "internalType": "uint256",
          "name": "birthId",
          "type": "uint256"
        },
        {
          "indexed": false,
          "internalType": "uint256",
          "name": "identityId",
          "type": "uint256"
        }
      ],
      "name": "LogEventVerifyIdentity",
      "type": "event"
    },
    {
      "constant": true,
      "inputs": [],
      "name": "owner",
      "outputs": [
        {
          "internalType": "address payable",
          "name": "",
          "type": "address"
        }
      ],
      "payable": false,
      "stateMutability": "view",
      "type": "function"
    },
    {
      "constant": true,
      "inputs": [
        {
          "internalType": "string",
          "name": "a",
          "type": "string"
        },
        {
          "internalType": "string",
          "name": "b",
          "type": "string"
        }
      ],
      "name": "concatenate",
      "outputs": [
        {
          "internalType": "string",
          "name": "",
          "type": "string"
        }
      ],
      "payable": false,
      "stateMutability": "pure",
      "type": "function"
    },
    {
      "constant": true,
      "inputs": [
        {
          "internalType": "uint256",
          "name": "v",
          "type": "uint256"
        }
      ],
      "name": "uintToString",
      "outputs": [
        {
          "internalType": "string",
          "name": "str",
          "type": "string"
        }
      ],
      "payable": false,
      "stateMutability": "pure",
      "type": "function"
    },
    {
      "constant": false,
      "inputs": [
        {
          "internalType": "address",
          "name": "_newMember",
          "type": "address"
        },
        {
          "internalType": "string",
          "name": "_memberName",
          "type": "string"
        }
      ],
      "name": "addHospitalMember",
      "outputs": [],
      "payable": false,
      "stateMutability": "nonpayable",
      "type": "function"
    },
    {
      "constant": false,
      "inputs": [
        {
          "internalType": "address",
          "name": "_newMember",
          "type": "address"
        },
        {
          "internalType": "string",
          "name": "_memberName",
          "type": "string"
        }
      ],
      "name": "addPrefectureMember",
      "outputs": [],
      "payable": false,
      "stateMutability": "nonpayable",
      "type": "function"
    },
    {
      "constant": false,
      "inputs": [
        {
          "internalType": "address",
          "name": "_newMember",
          "type": "address"
        },
        {
          "internalType": "string",
          "name": "_memberName",
          "type": "string"
        }
      ],
      "name": "addCityHallMember",
      "outputs": [],
      "payable": false,
      "stateMutability": "nonpayable",
      "type": "function"
    },
    {
      "constant": false,
      "inputs": [
        {
          "internalType": "string",
          "name": "_name",
          "type": "string"
        },
        {
          "internalType": "string",
          "name": "_lastName",
          "type": "string"
        },
        {
          "internalType": "string",
          "name": "_birthDate",
          "type": "string"
        },
        {
          "internalType": "string",
          "name": "_birthCity",
          "type": "string"
        }
      ],
      "name": "addBirth",
      "outputs": [
        {
          "internalType": "uint256",
          "name": "",
          "type": "uint256"
        }
      ],
      "payable": false,
      "stateMutability": "nonpayable",
      "type": "function"
    },
    {
      "constant": true,
      "inputs": [],
      "name": "getBirthId",
      "outputs": [
        {
          "internalType": "uint256",
          "name": "_birthId",
          "type": "uint256"
        },
        {
          "internalType": "string",
          "name": "_name",
          "type": "string"
        },
        {
          "internalType": "string",
          "name": "_lastName",
          "type": "string"
        }
      ],
      "payable": false,
      "stateMutability": "view",
      "type": "function"
    },
    {
      "constant": false,
      "inputs": [
        {
          "internalType": "uint256",
          "name": "birthId",
          "type": "uint256"
        }
      ],
      "name": "createIdentity",
      "outputs": [
        {
          "internalType": "uint256",
          "name": "identityId",
          "type": "uint256"
        }
      ],
      "payable": false,
      "stateMutability": "nonpayable",
      "type": "function"
    },
    {
      "constant": true,
      "inputs": [],
      "name": "getIdentityId",
      "outputs": [
        {
          "internalType": "uint256",
          "name": "_identity",
          "type": "uint256"
        },
        {
          "internalType": "string",
          "name": "_name",
          "type": "string"
        },
        {
          "internalType": "string",
          "name": "_lastName",
          "type": "string"
        }
      ],
      "payable": false,
      "stateMutability": "view",
      "type": "function"
    },
    {
      "constant": false,
      "inputs": [
        {
          "internalType": "uint256",
          "name": "identityId",
          "type": "uint256"
        },
        {
          "internalType": "string",
          "name": "_marriageDate",
          "type": "string"
        }
      ],
      "name": "declareMarriage",
      "outputs": [],
      "payable": false,
      "stateMutability": "nonpayable",
      "type": "function"
    },
    {
      "constant": false,
      "inputs": [
        {
          "internalType": "string",
          "name": "login",
          "type": "string"
        },
        {
          "internalType": "string",
          "name": "pwd",
          "type": "string"
        }
      ],
      "name": "generateIdCertification",
      "outputs": [
        {
          "internalType": "bytes32",
          "name": "",
          "type": "bytes32"
        }
      ],
      "payable": false,
      "stateMutability": "nonpayable",
      "type": "function"
    },
    {
      "constant": true,
      "inputs": [
        {
          "internalType": "bytes32",
          "name": "id_hash",
          "type": "bytes32"
        }
      ],
      "name": "verifyCertification",
      "outputs": [
        {
          "internalType": "string",
          "name": "_name",
          "type": "string"
        },
        {
          "internalType": "string",
          "name": "_lastName",
          "type": "string"
        },
        {
          "internalType": "string",
          "name": "_birthDate",
          "type": "string"
        },
        {
          "internalType": "string",
          "name": "_birthCity",
          "type": "string"
        },
        {
          "internalType": "string",
          "name": "_maritalStatus",
          "type": "string"
        }
      ],
      "payable": false,
      "stateMutability": "view",
      "type": "function"
    },
    {
      "constant": true,
      "inputs": [
        {
          "internalType": "uint256",
          "name": "birthId",
          "type": "uint256"
        }
      ],
      "name": "readBirth",
      "outputs": [
        {
          "internalType": "string",
          "name": "_name",
          "type": "string"
        },
        {
          "internalType": "string",
          "name": "_lastName",
          "type": "string"
        },
        {
          "internalType": "string",
          "name": "_birthDate",
          "type": "string"
        },
        {
          "internalType": "string",
          "name": "_birthCity",
          "type": "string"
        },
        {
          "internalType": "bool",
          "name": "_isVerified",
          "type": "bool"
        }
      ],
      "payable": false,
      "stateMutability": "view",
      "type": "function"
    },
    {
      "constant": true,
      "inputs": [
        {
          "internalType": "uint256",
          "name": "identityId",
          "type": "uint256"
        }
      ],
      "name": "readIdentity",
      "outputs": [
        {
          "internalType": "string",
          "name": "_name",
          "type": "string"
        },
        {
          "internalType": "string",
          "name": "_lastName",
          "type": "string"
        },
        {
          "internalType": "string",
          "name": "_birthDate",
          "type": "string"
        },
        {
          "internalType": "string",
          "name": "_birthCity",
          "type": "string"
        },
        {
          "internalType": "string",
          "name": "_maritalStatus",
          "type": "string"
        }
      ],
      "payable": false,
      "stateMutability": "view",
      "type": "function"
    },
    {
      "constant": true,
      "inputs": [],
      "name": "getBirthsCount",
      "outputs": [
        {
          "internalType": "uint256",
          "name": "_birthCount",
          "type": "uint256"
        }
      ],
      "payable": false,
      "stateMutability": "view",
      "type": "function"
    },
    {
      "constant": true,
      "inputs": [],
      "name": "getIdentitiesCount",
      "outputs": [
        {
          "internalType": "uint256",
          "name": "_identitiesCount",
          "type": "uint256"
        }
      ],
      "payable": false,
      "stateMutability": "view",
      "type": "function"
    },
    {
      "constant": true,
      "inputs": [],
      "name": "getOwner",
      "outputs": [
        {
          "internalType": "address",
          "name": "_owner",
          "type": "address"
        }
      ],
      "payable": false,
      "stateMutability": "view",
      "type": "function"
    },
    {
      "constant": true,
      "inputs": [],
      "name": "isHospitalMember",
      "outputs": [
        {
          "internalType": "bool",
          "name": "isMember",
          "type": "bool"
        }
      ],
      "payable": false,
      "stateMutability": "view",
      "type": "function"
    },
    {
      "constant": true,
      "inputs": [],
      "name": "isPrefectureMember",
      "outputs": [
        {
          "internalType": "bool",
          "name": "isMember",
          "type": "bool"
        }
      ],
      "payable": false,
      "stateMutability": "view",
      "type": "function"
    },
    {
      "constant": true,
      "inputs": [],
      "name": "isCityHallisPrefectureMember",
      "outputs": [
        {
          "internalType": "bool",
          "name": "isMember",
          "type": "bool"
        }
      ],
      "payable": false,
      "stateMutability": "view",
      "type": "function"
    }
  ],
  "bytecode": "0x60806040526000600555600060075534801561001a57600080fd5b50336000806101000a81548173ffffffffffffffffffffffffffffffffffffffff021916908373ffffffffffffffffffffffffffffffffffffffff160217905550613e9e8061006a6000396000f3fe608060405234801561001057600080fd5b50600436106101375760003560e01c806382abfa97116100b8578063c728da961161007c578063c728da9614610c3d578063d0bbc1ac14610ed1578063dea0e3f714611128578063df1891811461121e578063e9395679146112f9578063eaab88d3146113a057610137565b806382abfa97146108ac57806384a3409d146108ee578063893d20e8146109b35780638da5cb5b146109fd578063aac4b06214610a4757610137565b80633de79ac9116100ff5780633de79ac91461044457806341d204ad1461069b57806353fb3c24146106b957806357959edc146106db5780637006045c146107b657610137565b806321e15d541461013c578063266001d3146102175780632da2a898146103e2578063386fe47b14610404578063398dbab014610426575b600080fd5b6102156004803603604081101561015257600080fd5b81019080803573ffffffffffffffffffffffffffffffffffffffff1690602001909291908035906020019064010000000081111561018f57600080fd5b8201836020820111156101a157600080fd5b803590602001918460018302840111640100000000831117156101c357600080fd5b91908080601f016020809104026020016040519081016040528093929190818152602001838380828437600081840152601f19601f820116905080830192505050505050509192919290505050611506565b005b6103676004803603604081101561022d57600080fd5b810190808035906020019064010000000081111561024a57600080fd5b82018360208201111561025c57600080fd5b8035906020019184600183028401116401000000008311171561027e57600080fd5b91908080601f016020809104026020016040519081016040528093929190818152602001838380828437600081840152601f19601f820116905080830192505050505050509192919290803590602001906401000000008111156102e157600080fd5b8201836020820111156102f357600080fd5b8035906020019184600183028401116401000000008311171561031557600080fd5b91908080601f016020809104026020016040519081016040528093929190818152602001838380828437600081840152601f19601f82011690508083019250505050505050919291929050505061173b565b6040518080602001828103825283818151815260200191508051906020019080838360005b838110156103a757808201518184015260208101905061038c565b50505050905090810190601f1680156103d45780820380516001836020036101000a031916815260200191505b509250505060405180910390f35b6103ea611803565b604051808215151515815260200191505060405180910390f35b61040c611874565b604051808215151515815260200191505060405180910390f35b61042e6118e5565b6040518082815260200191505060405180910390f35b6104706004803603602081101561045a57600080fd5b81019080803590602001909291905050506118ef565b60405180806020018060200180602001806020018060200186810386528b818151815260200191508051906020019080838360005b838110156104c05780820151818401526020810190506104a5565b50505050905090810190601f1680156104ed5780820380516001836020036101000a031916815260200191505b5086810385528a818151815260200191508051906020019080838360005b8381101561052657808201518184015260208101905061050b565b50505050905090810190601f1680156105535780820380516001836020036101000a031916815260200191505b50868103845289818151815260200191508051906020019080838360005b8381101561058c578082015181840152602081019050610571565b50505050905090810190601f1680156105b95780820380516001836020036101000a031916815260200191505b50868103835288818151815260200191508051906020019080838360005b838110156105f25780820151818401526020810190506105d7565b50505050905090810190601f16801561061f5780820380516001836020036101000a031916815260200191505b50868103825287818151815260200191508051906020019080838360005b8381101561065857808201518184015260208101905061063d565b50505050905090810190601f1680156106855780820380516001836020036101000a031916815260200191505b509a505050505050505050505060405180910390f35b6106a3611cac565b6040518082815260200191505060405180910390f35b6106c1611cb6565b604051808215151515815260200191505060405180910390f35b6107b4600480360360408110156106f157600080fd5b81019080803573ffffffffffffffffffffffffffffffffffffffff1690602001909291908035906020019064010000000081111561072e57600080fd5b82018360208201111561074057600080fd5b8035906020019184600183028401116401000000008311171561076257600080fd5b91908080601f016020809104026020016040519081016040528093929190818152602001838380828437600081840152601f19601f820116905080830192505050505050509192919290505050611d27565b005b6107be611f5c565b604051808481526020018060200180602001838103835285818151815260200191508051906020019080838360005b838110156108085780820151818401526020810190506107ed565b50505050905090810190601f1680156108355780820380516001836020036101000a031916815260200191505b50838103825284818151815260200191508051906020019080838360005b8381101561086e578082015181840152602081019050610853565b50505050905090810190601f16801561089b5780820380516001836020036101000a031916815260200191505b509550505050505060405180910390f35b6108d8600480360360208110156108c257600080fd5b8101908080359060200190929190505050612151565b6040518082815260200191505060405180910390f35b6109b16004803603604081101561090457600080fd5b81019080803590602001909291908035906020019064010000000081111561092b57600080fd5b82018360208201111561093d57600080fd5b8035906020019184600183028401116401000000008311171561095f57600080fd5b91908080601f016020809104026020016040519081016040528093929190818152602001838380828437600081840152601f19601f820116905080830192505050505050509192919290505050612984565b005b6109bb612b53565b604051808273ffffffffffffffffffffffffffffffffffffffff1673ffffffffffffffffffffffffffffffffffffffff16815260200191505060405180910390f35b610a05612b7c565b604051808273ffffffffffffffffffffffffffffffffffffffff1673ffffffffffffffffffffffffffffffffffffffff16815260200191505060405180910390f35b610a7360048036036020811015610a5d57600080fd5b8101908080359060200190929190505050612ba1565b60405180806020018060200180602001806020018615151515815260200185810385528a818151815260200191508051906020019080838360005b83811015610ac9578082015181840152602081019050610aae565b50505050905090810190601f168015610af65780820380516001836020036101000a031916815260200191505b50858103845289818151815260200191508051906020019080838360005b83811015610b2f578082015181840152602081019050610b14565b50505050905090810190601f168015610b5c5780820380516001836020036101000a031916815260200191505b50858103835288818151815260200191508051906020019080838360005b83811015610b95578082015181840152602081019050610b7a565b50505050905090810190601f168015610bc25780820380516001836020036101000a031916815260200191505b50858103825287818151815260200191508051906020019080838360005b83811015610bfb578082015181840152602081019050610be0565b50505050905090810190601f168015610c285780820380516001836020036101000a031916815260200191505b50995050505050505050505060405180910390f35b610ebb60048036036080811015610c5357600080fd5b8101908080359060200190640100000000811115610c7057600080fd5b820183602082011115610c8257600080fd5b80359060200191846001830284011164010000000083111715610ca457600080fd5b91908080601f016020809104026020016040519081016040528093929190818152602001838380828437600081840152601f19601f82011690508083019250505050505050919291929080359060200190640100000000811115610d0757600080fd5b820183602082011115610d1957600080fd5b80359060200191846001830284011164010000000083111715610d3b57600080fd5b91908080601f016020809104026020016040519081016040528093929190818152602001838380828437600081840152601f19601f82011690508083019250505050505050919291929080359060200190640100000000811115610d9e57600080fd5b820183602082011115610db057600080fd5b80359060200191846001830284011164010000000083111715610dd257600080fd5b91908080601f016020809104026020016040519081016040528093929190818152602001838380828437600081840152601f19601f82011690508083019250505050505050919291929080359060200190640100000000811115610e3557600080fd5b820183602082011115610e4757600080fd5b80359060200191846001830284011164010000000083111715610e6957600080fd5b91908080601f016020809104026020016040519081016040528093929190818152602001838380828437600081840152601f19601f820116905080830192505050505050509192919290505050612ea8565b6040518082815260200191505060405180910390f35b610efd60048036036020811015610ee757600080fd5b8101908080359060200190929190505050613115565b60405180806020018060200180602001806020018060200186810386528b818151815260200191508051906020019080838360005b83811015610f4d578082015181840152602081019050610f32565b50505050905090810190601f168015610f7a5780820380516001836020036101000a031916815260200191505b5086810385528a818151815260200191508051906020019080838360005b83811015610fb3578082015181840152602081019050610f98565b50505050905090810190601f168015610fe05780820380516001836020036101000a031916815260200191505b50868103845289818151815260200191508051906020019080838360005b83811015611019578082015181840152602081019050610ffe565b50505050905090810190601f1680156110465780820380516001836020036101000a031916815260200191505b50868103835288818151815260200191508051906020019080838360005b8381101561107f578082015181840152602081019050611064565b50505050905090810190601f1680156110ac5780820380516001836020036101000a031916815260200191505b50868103825287818151815260200191508051906020019080838360005b838110156110e55780820151818401526020810190506110ca565b50505050905090810190601f1680156111125780820380516001836020036101000a031916815260200191505b509a505050505050505050505060405180910390f35b6111306134ed565b604051808481526020018060200180602001838103835285818151815260200191508051906020019080838360005b8381101561117a57808201518184015260208101905061115f565b50505050905090810190601f1680156111a75780820380516001836020036101000a031916815260200191505b50838103825284818151815260200191508051906020019080838360005b838110156111e05780820151818401526020810190506111c5565b50505050905090810190601f16801561120d5780820380516001836020036101000a031916815260200191505b509550505050505060405180910390f35b6112f76004803603604081101561123457600080fd5b81019080803573ffffffffffffffffffffffffffffffffffffffff1690602001909291908035906020019064010000000081111561127157600080fd5b82018360208201111561128357600080fd5b803590602001918460018302840111640100000000831117156112a557600080fd5b91908080601f016020809104026020016040519081016040528093929190818152602001838380828437600081840152601f19601f8201169050808301925050505050505091929192905050506136dc565b005b6113256004803603602081101561130f57600080fd5b8101908080359060200190929190505050613911565b6040518080602001828103825283818151815260200191508051906020019080838360005b8381101561136557808201518184015260208101905061134a565b50505050905090810190601f1680156113925780820380516001836020036101000a031916815260200191505b509250505060405180910390f35b6114f0600480360360408110156113b657600080fd5b81019080803590602001906401000000008111156113d357600080fd5b8201836020820111156113e557600080fd5b8035906020019184600183028401116401000000008311171561140757600080fd5b91908080601f016020809104026020016040519081016040528093929190818152602001838380828437600081840152601f19601f8201169050808301925050505050505091929192908035906020019064010000000081111561146a57600080fd5b82018360208201111561147c57600080fd5b8035906020019184600183028401116401000000008311171561149e57600080fd5b91908080601f016020809104026020016040519081016040528093929190818152602001838380828437600081840152601f19601f820116905080830192505050505050509192919290505050613a7f565b6040518082815260200191505060405180910390f35b3373ffffffffffffffffffffffffffffffffffffffff166000809054906101000a900473ffffffffffffffffffffffffffffffffffffffff1673ffffffffffffffffffffffffffffffffffffffff161461155f57600080fd5b60606115a06040518060400160405280600681526020017f6c6f67696e5f00000000000000000000000000000000000000000000000000008152508361173b565b905060606115e36040518060400160405280600481526020017f7077645f000000000000000000000000000000000000000000000000000000008152508461173b565b9050604051806060016040528083815260200182815260200184815250600360008673ffffffffffffffffffffffffffffffffffffffff1673ffffffffffffffffffffffffffffffffffffffff168152602001908152602001600020600082015181600001908051906020019061165b929190613cbd565b506020820151816001019080519060200190611678929190613cbd565b506040820151816002019080519060200190611695929190613cbd565b509050507f401ac4b35a7b6689f6099149d9a4590d106d0b7850a038645519383db1f9e5aa836040518080602001828103825283818151815260200191508051906020019080838360005b838110156116fb5780820151818401526020810190506116e0565b50505050905090810190601f1680156117285780820380516001836020036101000a031916815260200191505b509250505060405180910390a150505050565b606082826040516020018083805190602001908083835b602083106117755780518252602082019150602081019050602083039250611752565b6001836020036101000a03801982511681845116808217855250505050505090500182805190602001908083835b602083106117c657805182526020820191506020810190506020830392506117a3565b6001836020036101000a03801982511681845116808217855250505050505090500192505050604051602081830303815290604052905092915050565b600080600260003373ffffffffffffffffffffffffffffffffffffffff1673ffffffffffffffffffffffffffffffffffffffff168152602001908152602001600020600201805460018160011615610100020316600290049050111561186c5760019050611871565b600090505b90565b600080600360003373ffffffffffffffffffffffffffffffffffffffff1673ffffffffffffffffffffffffffffffffffffffff16815260200190815260200160002060020180546001816001161561010002031660029004905011156118dd57600190506118e2565b600090505b90565b6000600554905090565b60608060608060606000600960008881526020019081526020016000206000015490506006600082815260200190815260200160002060000160000160066000838152602001908152602001600020600001600101600660008481526020019081526020016000206000016002016006600085815260200190815260200160002060000160030160066000868152602001908152602001600020600501848054600181600116156101000203166002900480601f016020809104026020016040519081016040528092919081815260200182805460018160011615610100020316600290048015611a215780601f106119f657610100808354040283529160200191611a21565b820191906000526020600020905b815481529060010190602001808311611a0457829003601f168201915b50505050509450838054600181600116156101000203166002900480601f016020809104026020016040519081016040528092919081815260200182805460018160011615610100020316600290048015611abd5780601f10611a9257610100808354040283529160200191611abd565b820191906000526020600020905b815481529060010190602001808311611aa057829003601f168201915b50505050509350828054600181600116156101000203166002900480601f016020809104026020016040519081016040528092919081815260200182805460018160011615610100020316600290048015611b595780601f10611b2e57610100808354040283529160200191611b59565b820191906000526020600020905b815481529060010190602001808311611b3c57829003601f168201915b50505050509250818054600181600116156101000203166002900480601f016020809104026020016040519081016040528092919081815260200182805460018160011615610100020316600290048015611bf55780601f10611bca57610100808354040283529160200191611bf5565b820191906000526020600020905b815481529060010190602001808311611bd857829003601f168201915b50505050509150808054600181600116156101000203166002900480601f016020809104026020016040519081016040528092919081815260200182805460018160011615610100020316600290048015611c915780601f10611c6657610100808354040283529160200191611c91565b820191906000526020600020905b815481529060010190602001808311611c7457829003601f168201915b50505050509050955095509550955095505091939590929450565b6000600754905090565b600080600160003373ffffffffffffffffffffffffffffffffffffffff1673ffffffffffffffffffffffffffffffffffffffff1681526020019081526020016000206002018054600181600116156101000203166002900490501115611d1f5760019050611d24565b600090505b90565b3373ffffffffffffffffffffffffffffffffffffffff166000809054906101000a900473ffffffffffffffffffffffffffffffffffffffff1673ffffffffffffffffffffffffffffffffffffffff1614611d8057600080fd5b6060611dc16040518060400160405280600681526020017f6c6f67696e5f00000000000000000000000000000000000000000000000000008152508361173b565b90506060611e046040518060400160405280600481526020017f7077645f000000000000000000000000000000000000000000000000000000008152508461173b565b9050604051806060016040528083815260200182815260200184815250600160008673ffffffffffffffffffffffffffffffffffffffff1673ffffffffffffffffffffffffffffffffffffffff1681526020019081526020016000206000820151816000019080519060200190611e7c929190613cbd565b506020820151816001019080519060200190611e99929190613cbd565b506040820151816002019080519060200190611eb6929190613cbd565b509050507fab3562bab9e824ea5bd0d7e0ef837e93d1f7a8f3ee468ae9cb2c04d960bfc6d4836040518080602001828103825283818151815260200191508051906020019080838360005b83811015611f1c578082015181840152602081019050611f01565b50505050905090810190601f168015611f495780820380516001836020036101000a031916815260200191505b509250505060405180910390a150505050565b60006060806040518060400160405280600981526020017f756e646566696e6564000000000000000000000000000000000000000000000081525091506040518060400160405280600981526020017f756e646566696e65640000000000000000000000000000000000000000000000815250905060006007541061214c576001600754039250600660008481526020019081526020016000206000016000018054600181600116156101000203166002900480601f0160208091040260200160405190810160405280929190818152602001828054600181600116156101000203166002900480156120905780601f1061206557610100808354040283529160200191612090565b820191906000526020600020905b81548152906001019060200180831161207357829003601f168201915b50505050509150600660008481526020019081526020016000206000016001018054600181600116156101000203166002900480601f0160208091040260200160405190810160405280929190818152602001828054600181600116156101000203166002900480156121445780601f1061211957610100808354040283529160200191612144565b820191906000526020600020905b81548152906001019060200180831161212757829003601f168201915b505050505090505b909192565b6000336000600260008373ffffffffffffffffffffffffffffffffffffffff1673ffffffffffffffffffffffffffffffffffffffff168152602001908152602001600020600201805460018160011615610100020316600290049050116121b757600080fd5b600015156004600085815260200190815260200160002060040160009054906101000a900460ff161515146121eb57600080fd5b60016004600085815260200190815260200160002060040160006101000a81548160ff02191690831515021790555060606123096040518060400160405280600681526020017f6c6f67696e5f0000000000000000000000000000000000000000000000000000815250600460008781526020019081526020016000206001018054600181600116156101000203166002900480601f0160208091040260200160405190810160405280929190818152602001828054600181600116156101000203166002900480156122ff5780601f106122d4576101008083540402835291602001916122ff565b820191906000526020600020905b8154815290600101906020018083116122e257829003601f168201915b505050505061173b565b905060606123fa6040518060400160405280600481526020017f7077645f00000000000000000000000000000000000000000000000000000000815250600460008881526020019081526020016000206002018054600181600116156101000203166002900480601f0160208091040260200160405190810160405280929190818152602001828054600181600116156101000203166002900480156123f05780601f106123c5576101008083540402835291602001916123f0565b820191906000526020600020905b8154815290600101906020018083116123d357829003601f168201915b505050505061173b565b9050600760008154809291906001019190505593506040518060c00160405280600460008881526020019081526020016000206040518060a0016040529081600082018054600181600116156101000203166002900480601f0160208091040260200160405190810160405280929190818152602001828054600181600116156101000203166002900480156124d15780601f106124a6576101008083540402835291602001916124d1565b820191906000526020600020905b8154815290600101906020018083116124b457829003601f168201915b50505050508152602001600182018054600181600116156101000203166002900480601f0160208091040260200160405190810160405280929190818152602001828054600181600116156101000203166002900480156125735780601f1061254857610100808354040283529160200191612573565b820191906000526020600020905b81548152906001019060200180831161255657829003601f168201915b50505050508152602001600282018054600181600116156101000203166002900480601f0160208091040260200160405190810160405280929190818152602001828054600181600116156101000203166002900480156126155780601f106125ea57610100808354040283529160200191612615565b820191906000526020600020905b8154815290600101906020018083116125f857829003601f168201915b50505050508152602001600382018054600181600116156101000203166002900480601f0160208091040260200160405190810160405280929190818152602001828054600181600116156101000203166002900480156126b75780601f1061268c576101008083540402835291602001916126b7565b820191906000526020600020905b81548152906001019060200180831161269a57829003601f168201915b505050505081526020016004820160009054906101000a900460ff16151515158152505081526020016040518060400160405280600681526020017f73696e676c650000000000000000000000000000000000000000000000000000815250815260200160405180602001604052806000815250815260200160405180602001604052806000815250815260200183815260200182815250600660008681526020019081526020016000206000820151816000016000820151816000019080519060200190612787929190613cbd565b5060208201518160010190805190602001906127a4929190613cbd565b5060408201518160020190805190602001906127c1929190613cbd565b5060608201518160030190805190602001906127de929190613cbd565b5060808201518160040160006101000a81548160ff0219169083151502179055505050602082015181600501908051906020019061281d929190613cbd565b50604082015181600601908051906020019061283a929190613cbd565b506060820151816007019080519060200190612857929190613cbd565b506080820151816008019080519060200190612874929190613cbd565b5060a0820151816009019080519060200190612891929190613cbd565b509050506040518060400160405280858152602001828152506008836040518082805190602001908083835b602083106128e057805182526020820191506020810190506020830392506128bd565b6001836020036101000a0380198251168184511680821785525050505050509050019150509081526020016040518091039020600082015181600001556020820151816001019080519060200190612939929190613cbd565b509050507f742c345840647c71e989bcfe501f009faa76e04998bb4c2ea8b4adc5ac0659998585604051808381526020018281526020019250505060405180910390a1505050919050565b336000600360008373ffffffffffffffffffffffffffffffffffffffff1673ffffffffffffffffffffffffffffffffffffffff168152602001908152602001600020600201805460018160011615610100020316600290049050116129e857600080fd5b600115156006600085815260200190815260200160002060000160040160009054906101000a900460ff16151514612a1f57600080fd5b6040518060400160405280600781526020017f6d61727269656400000000000000000000000000000000000000000000000000815250600660008581526020019081526020016000206005019080519060200190612a7e929190613d3d565b5081600660008581526020019081526020016000206006019080519060200190612aa9929190613d3d565b507fc7b118d015ed4a95450d7ff616d44d5a9ff7ad9d46e3360ac8ae088efd6a555282846040518080602001838152602001828103825284818151815260200191508051906020019080838360005b83811015612b13578082015181840152602081019050612af8565b50505050905090810190601f168015612b405780820380516001836020036101000a031916815260200191505b50935050505060405180910390a1505050565b60008060009054906101000a900473ffffffffffffffffffffffffffffffffffffffff16905090565b6000809054906101000a900473ffffffffffffffffffffffffffffffffffffffff1681565b6060806060806000600460008781526020019081526020016000206000016004600088815260200190815260200160002060010160046000898152602001908152602001600020600201600460008a8152602001908152602001600020600301600460008b815260200190815260200160002060040160009054906101000a900460ff16848054600181600116156101000203166002900480601f016020809104026020016040519081016040528092919081815260200182805460018160011615610100020316600290048015612cba5780601f10612c8f57610100808354040283529160200191612cba565b820191906000526020600020905b815481529060010190602001808311612c9d57829003601f168201915b50505050509450838054600181600116156101000203166002900480601f016020809104026020016040519081016040528092919081815260200182805460018160011615610100020316600290048015612d565780601f10612d2b57610100808354040283529160200191612d56565b820191906000526020600020905b815481529060010190602001808311612d3957829003601f168201915b50505050509350828054600181600116156101000203166002900480601f016020809104026020016040519081016040528092919081815260200182805460018160011615610100020316600290048015612df25780601f10612dc757610100808354040283529160200191612df2565b820191906000526020600020905b815481529060010190602001808311612dd557829003601f168201915b50505050509250818054600181600116156101000203166002900480601f016020809104026020016040519081016040528092919081815260200182805460018160011615610100020316600290048015612e8e5780601f10612e6357610100808354040283529160200191612e8e565b820191906000526020600020905b815481529060010190602001808311612e7157829003601f168201915b505050505091509450945094509450945091939590929450565b6000336000600160008373ffffffffffffffffffffffffffffffffffffffff1673ffffffffffffffffffffffffffffffffffffffff16815260200190815260200160002060020180546001816001161561010002031660029004905011612f0e57600080fd5b6000600560008154809291906001019190505590506040518060a0016040528088815260200187815260200186815260200185815260200160001515815250600460008381526020019081526020016000206000820151816000019080519060200190612f7c929190613cbd565b506020820151816001019080519060200190612f99929190613cbd565b506040820151816002019080519060200190612fb6929190613cbd565b506060820151816003019080519060200190612fd3929190613cbd565b5060808201518160040160006101000a81548160ff0219169083151502179055509050507f975e5fd57c7c0e6b1a8c1a5d6861dce72c6672a93848401afb36caa4eb90ba83878783604051808060200180602001848152602001838103835286818151815260200191508051906020019080838360005b8381101561306557808201518184015260208101905061304a565b50505050905090810190601f1680156130925780820380516001836020036101000a031916815260200191505b50838103825285818151815260200191508051906020019080838360005b838110156130cb5780820151818401526020810190506130b0565b50505050905090810190601f1680156130f85780820380516001836020036101000a031916815260200191505b509550505050505060405180910390a18092505050949350505050565b6060806060806060600115156006600088815260200190815260200160002060000160040160009054906101000a900460ff1615151461315457600080fd5b600660008781526020019081526020016000206000016000016006600088815260200190815260200160002060000160010160066000898152602001908152602001600020600001600201600660008a8152602001908152602001600020600001600301600660008b8152602001908152602001600020600501848054600181600116156101000203166002900480601f0160208091040260200160405190810160405280929190818152602001828054600181600116156101000203166002900480156132635780601f1061323857610100808354040283529160200191613263565b820191906000526020600020905b81548152906001019060200180831161324657829003601f168201915b50505050509450838054600181600116156101000203166002900480601f0160208091040260200160405190810160405280929190818152602001828054600181600116156101000203166002900480156132ff5780601f106132d4576101008083540402835291602001916132ff565b820191906000526020600020905b8154815290600101906020018083116132e257829003601f168201915b50505050509350828054600181600116156101000203166002900480601f01602080910402602001604051908101604052809291908181526020018280546001816001161561010002031660029004801561339b5780601f106133705761010080835404028352916020019161339b565b820191906000526020600020905b81548152906001019060200180831161337e57829003601f168201915b50505050509250818054600181600116156101000203166002900480601f0160208091040260200160405190810160405280929190818152602001828054600181600116156101000203166002900480156134375780601f1061340c57610100808354040283529160200191613437565b820191906000526020600020905b81548152906001019060200180831161341a57829003601f168201915b50505050509150808054600181600116156101000203166002900480601f0160208091040260200160405190810160405280929190818152602001828054600181600116156101000203166002900480156134d35780601f106134a8576101008083540402835291602001916134d3565b820191906000526020600020905b8154815290600101906020018083116134b657829003601f168201915b505050505090509450945094509450945091939590929450565b60006060806040518060400160405280600981526020017f756e646566696e6564000000000000000000000000000000000000000000000081525091506040518060400160405280600981526020017f756e646566696e6564000000000000000000000000000000000000000000000081525090506000600554106136d7576001600554039250600460008481526020019081526020016000206000018054600181600116156101000203166002900480601f01602080910402602001604051908101604052809291908181526020018280546001816001161561010002031660029004801561361e5780601f106135f35761010080835404028352916020019161361e565b820191906000526020600020905b81548152906001019060200180831161360157829003601f168201915b50505050509150600460008481526020019081526020016000206001018054600181600116156101000203166002900480601f0160208091040260200160405190810160405280929190818152602001828054600181600116156101000203166002900480156136cf5780601f106136a4576101008083540402835291602001916136cf565b820191906000526020600020905b8154815290600101906020018083116136b257829003601f168201915b505050505090505b909192565b3373ffffffffffffffffffffffffffffffffffffffff166000809054906101000a900473ffffffffffffffffffffffffffffffffffffffff1673ffffffffffffffffffffffffffffffffffffffff161461373557600080fd5b60606137766040518060400160405280600681526020017f6c6f67696e5f00000000000000000000000000000000000000000000000000008152508361173b565b905060606137b96040518060400160405280600481526020017f7077645f000000000000000000000000000000000000000000000000000000008152508461173b565b9050604051806060016040528083815260200182815260200184815250600260008673ffffffffffffffffffffffffffffffffffffffff1673ffffffffffffffffffffffffffffffffffffffff1681526020019081526020016000206000820151816000019080519060200190613831929190613cbd565b50602082015181600101908051906020019061384e929190613cbd565b50604082015181600201908051906020019061386b929190613cbd565b509050507fa7b9cf10953e89fba48615bdedc4c557e19daee10f4f77f3ab1a2d2bb951a041836040518080602001828103825283818151815260200191508051906020019080838360005b838110156138d15780820151818401526020810190506138b6565b50505050905090810190601f1680156138fe5780820380516001836020036101000a031916815260200191505b509250505060405180910390a150505050565b60606000606490506060816040519080825280601f01601f19166020018201604052801561394e5781602001600182028038833980820191505090505b50905060008090505b600085146139c9576000600a868161396b57fe5b069050600a868161397857fe5b0495508060300160f81b83838060010194508151811061399457fe5b60200101907effffffffffffffffffffffffffffffffffffffffffffffffffffffffffffff1916908160001a90535050613957565b6060600182016040519080825280601f01601f191660200182016040528015613a015781602001600182028038833980820191505090505b50905060008090505b828111613a72578381840381518110613a1f57fe5b602001015160f81c60f81b828281518110613a3657fe5b60200101907effffffffffffffffffffffffffffffffffffffffffffffffffffffffffffff1916908160001a9053508080600101915050613a0a565b5080945050505050919050565b600081805190602001206008846040518082805190602001908083835b60208310613abf5780518252602082019150602081019050602083039250613a9c565b6001836020036101000a03801982511681845116808217855250505050505090500191505090815260200160405180910390206001016040518082805460018160011615610100020316600290048015613b505780601f10613b2e576101008083540402835291820191613b50565b820191906000526020600020905b815481529060010190602001808311613b3c575b5050915050604051809103902014613b6757600080fd5b60006008846040518082805190602001908083835b60208310613b9f5780518252602082019150602081019050602083039250613b7c565b6001836020036101000a03801982511681845116808217855250505050505090500191505090815260200160405180910390206000015490506060613be382613911565b90506060613bf1828661173b565b90506000818051906020012090506008876040518082805190602001908083835b60208310613c355780518252602082019150602081019050602083039250613c12565b6001836020036101000a0380198251168184511680821785525050505050509050019150509081526020016040518091039020600960008381526020019081526020016000206000820154816000015560018201816001019080546001816001161561010002031660029004613cac929190613dbd565b509050508094505050505092915050565b828054600181600116156101000203166002900490600052602060002090601f016020900481019282601f10613cfe57805160ff1916838001178555613d2c565b82800160010185558215613d2c579182015b82811115613d2b578251825591602001919060010190613d10565b5b509050613d399190613e44565b5090565b828054600181600116156101000203166002900490600052602060002090601f016020900481019282601f10613d7e57805160ff1916838001178555613dac565b82800160010185558215613dac579182015b82811115613dab578251825591602001919060010190613d90565b5b509050613db99190613e44565b5090565b828054600181600116156101000203166002900490600052602060002090601f016020900481019282601f10613df65780548555613e33565b82800160010185558215613e3357600052602060002091601f016020900482015b82811115613e32578254825591600101919060010190613e17565b5b509050613e409190613e44565b5090565b613e6691905b80821115613e62576000816000905550600101613e4a565b5090565b9056fea265627a7a7231582024cb1cd8c8f5ca26c56af986e9d5213d52cd2e1370d5cc8cf807a73f405f815364736f6c63430005100032",
  "source": "// SPDX-License-Identifier: MIT\r\npragma solidity >=0.4.21 <0.8.0;\r\n\r\n    /*\r\n        The CivilState contract keeps track of the citizen information, starting from their birth and being maintained throughout their life\r\n     */\r\ncontract CivilStateV2 {\r\n\r\n    /*\r\n        Public owner variable => the creator of the contract when it is initialized.\r\n    */\r\n    address payable public owner;\r\n\r\n    /*\r\n        Birth struct : add birth information\r\n    */\r\n    struct Birth {\r\n        string name;\r\n        string lastName;\r\n        // Date format : YYYYMMDD\r\n        string birthDate;\r\n        string birthCity;\r\n        bool isVerified;\r\n    }\r\n\r\n    /*\r\n        Define an Identity struct.\r\n    */\r\n    struct Identity {\r\n        Birth birthinfo;\r\n        \r\n        // Marital information\r\n        string maritalStatus;\r\n        string marriageDate;\r\n       \r\n        string deathDate;\r\n\r\n        string userLogin;\r\n        string userPassword;\r\n    }\r\n\r\n    /*\r\n        Struct to track users identifiers\r\n    */\r\n    struct Identifier {\r\n        uint userIdentityCount;\r\n        string userPassword;\r\n    }\r\n\r\n    struct Authentification {\r\n        string login;\r\n        string password;\r\n        string name;\r\n    }\r\n    \r\n    /*\r\n        Mapping to keep track of the hospital members\r\n    */\r\n    mapping (address => Authentification) hospitalMembers;\r\n\r\n    /*\r\n        Mapping to keep track of the prefecture members\r\n    */\r\n    mapping (address => Authentification) prefectureMembers;\r\n\r\n    /*\r\n        Mapping to keep track of the city hall members\r\n    */\r\n    mapping (address => Authentification) cityHallMembers;\r\n\r\n    /*\r\n       Mapping to keep track of the births (civil status).\r\n       The mapping key is an integer, the value is an Birth struct.\r\n    */\r\n    mapping (uint => Birth) births;\r\n    uint birthsCount = 0;\r\n\r\n    mapping (uint => Identity) identities;\r\n    uint identitiesCount = 0;\r\n\r\n    /*\r\n        Mapping to keep track of citizen's identifiers\r\n    */\r\n    mapping(string => Identifier) citizenIdentifiers;\r\n\r\n    /*\r\n        Mapping to keep track of identity certifications\r\n    */\r\n    mapping(bytes32 => Identifier) idCertifications;\r\n\r\n    // Events\r\n\r\n    // Event signaling that new hospital member was added\r\n    event LogEventAddHospitalMember(string memberName);\r\n    // Event signaling that new prefecture member was added\r\n    event LogEventAddPrefectureMember(string memberName);\r\n    // Event signaling that new cityHall member was added\r\n    event LogEventAddCityHallMember(string memberName);\r\n    // Event signaling that new birth member was declared\r\n    event LogEventBirthAdded (string name, string lastName, uint birthId);\r\n    // Event signaling that a new identity was verified\r\n    event LogEventVerifyIdentity(uint birthId, uint identityId);\r\n    // Event signaling that new marriage member was declared\r\n    event LogEventDeclareMarriage(string marriageDate, uint identityId);\r\n\r\n\r\n    /*\r\n       Modifier that throws an error if the msg.sender is not the owner.\r\n    */\r\n    modifier isAdmin () {\r\n        require(owner == msg.sender);\r\n        _;\r\n    }\r\n\r\n    modifier isHospital (address _hospitalMember) {\r\n        require (bytes(hospitalMembers[_hospitalMember].name).length > 0);\r\n        _;\r\n    }\r\n\r\n    modifier isPrefecture (address _prefectureMember) {\r\n        require (bytes(prefectureMembers[_prefectureMember].name).length > 0);\r\n        _;\r\n    }\r\n\r\n    modifier isCityHall (address _cityHallMember) {\r\n        require (bytes(cityHallMembers[_cityHallMember].name).length > 0);\r\n        _;\r\n    }\r\n\r\n    constructor () public {\r\n        owner = msg.sender;\r\n    }\r\n    \r\n    // Help functions \r\n\r\n    // Concatenate strings\r\n    function concatenate(string memory a, string  memory b) public pure returns(string memory) {\r\n            return string(abi.encodePacked(a, b));\r\n    }\r\n\r\n    // Function to transform uint to string\r\n    function uintToString(uint v) public pure returns (string memory str) {\r\n        uint maxlength = 100;\r\n        bytes memory reversed = new bytes(maxlength);\r\n        uint i = 0;\r\n        while (v != 0) {\r\n            uint remainder = v % 10;\r\n            v = v / 10;\r\n            reversed[i++] = byte(uint8(48 + remainder));\r\n        }\r\n        bytes memory s = new bytes(i + 1);\r\n        for (uint j = 0; j <= i; j++) {\r\n            s[j] = reversed[i - j];\r\n        }\r\n        str = string(s);\r\n    }\r\n    \r\n    // Admin functions\r\n\r\n    // Add a new hospital member to the \"hospitalMembers\" mapping\r\n    function addHospitalMember (address _newMember, string memory _memberName) public isAdmin {\r\n        // Initialization of login and password\r\n        string memory _login = concatenate(\"login_\", _memberName);\r\n        string memory _password = concatenate(\"pwd_\", _memberName);\r\n        hospitalMembers[_newMember] = Authentification({\r\n            login : _login,\r\n            password : _password,\r\n            name : _memberName\r\n        });\r\n        emit LogEventAddHospitalMember(_memberName);\r\n    }\r\n\r\n    // Add a new prefecture member to the \"prefectureMembers\" mapping\r\n    function addPrefectureMember (address _newMember, string memory _memberName) public isAdmin {\r\n        // Initialization of login and password\r\n        string memory _login = concatenate(\"login_\", _memberName);\r\n        string memory _password = concatenate(\"pwd_\", _memberName);\r\n        prefectureMembers[_newMember] = Authentification({\r\n            login : _login,\r\n            password : _password,\r\n            name : _memberName\r\n        });\r\n        emit LogEventAddPrefectureMember(_memberName);\r\n    }\r\n\r\n    // Add a new city hall member to the \"cityHallMembers\" mapping\r\n    function addCityHallMember (address _newMember, string memory _memberName) public isAdmin {\r\n        // Initialization of login and password\r\n        string memory _login = concatenate(\"login_\", _memberName);\r\n        string memory _password = concatenate(\"pwd_\", _memberName);\r\n        cityHallMembers[_newMember] = Authentification({\r\n            login : _login,\r\n            password : _password,\r\n            name : _memberName\r\n        });\r\n        emit LogEventAddCityHallMember(_memberName);\r\n    }\r\n\r\n    /*\r\n        When there is a birth, a member of the hospital must declare the birth : this function creates a new birth\r\n        Only a hospital member can create a new birth\r\n    */      \r\n    function addBirth (string memory _name, string memory _lastName, string memory _birthDate, string memory _birthCity) public isHospital(msg.sender) returns(uint) {\r\n        uint birthId = birthsCount++;\r\n        births[birthId] = Birth({\r\n            name : _name,\r\n            lastName : _lastName,\r\n            birthDate : _birthDate,\r\n            birthCity : _birthCity,\r\n            isVerified : false\r\n        });\r\n        emit LogEventBirthAdded(_name, _lastName, birthId);\r\n        return birthId;\r\n    }\r\n\r\n    // get the birthId after a birth add\r\n    function getBirthId () public view returns (uint _birthId, string memory _name, string memory _lastName){\r\n        _name = \"undefined\";\r\n        _lastName = \"undefined\";\r\n        if (birthsCount >= 0) {\r\n            _birthId = birthsCount - 1;\r\n            _name = births[_birthId].name;\r\n            _lastName = births[_birthId].lastName;\r\n        }    \r\n    }\r\n    \r\n    /*\r\n        After a birth declaration, the a member of the prefecture must verifiy the citizen's identity\r\n    */\r\n    function createIdentity (uint birthId) public isPrefecture(msg.sender) returns (uint identityId) {\r\n        require(births[birthId].isVerified == false);\r\n        births[birthId].isVerified = true;\r\n        \r\n        // Initialization of login and password\r\n        string memory login = concatenate(\"login_\", births[birthId].lastName);\r\n        string memory password = concatenate(\"pwd_\", births[birthId].birthDate);\r\n\r\n\r\n        identityId = identitiesCount++;\r\n        identities[identityId] = Identity({\r\n            birthinfo : births[birthId],\r\n            maritalStatus : \"single\",\r\n            marriageDate: \"\",\r\n            deathDate: \"\",\r\n            userLogin: login,\r\n            userPassword: password\r\n        });\r\n\r\n        citizenIdentifiers[login] = Identifier({\r\n            userIdentityCount : identityId,\r\n            userPassword : password\r\n        });\r\n\r\n        emit LogEventVerifyIdentity(birthId, identityId);\r\n    }\r\n\r\n    function getIdentityId() public view returns (uint _identity, string memory _name, string memory _lastName){\r\n        _name = \"undefined\";\r\n        _lastName = \"undefined\";\r\n        if (identitiesCount >= 0) {\r\n            _identity = identitiesCount - 1;\r\n            _name = identities[_identity].birthinfo.name;\r\n            _lastName = identities[_identity].birthinfo.lastName;            \r\n        } \r\n    }\r\n\r\n    /*\r\n        Declare a marriage\r\n        Only a city Hall member can declare a message\r\n    */\r\n    function declareMarriage (uint identityId, string memory _marriageDate) public isCityHall(msg.sender) {\r\n        require(identities[identityId].birthinfo.isVerified == true);\r\n        \r\n        //Change marital status\r\n        identities[identityId].maritalStatus = \"married\";\r\n        identities[identityId].marriageDate = _marriageDate;\r\n\r\n        emit LogEventDeclareMarriage(_marriageDate, identityId);\r\n    }\r\n\r\n    /*\r\n        Function to allow citizen to generete an identity certification\r\n    */\r\n    function generateIdCertification (string memory login, string memory pwd) public returns (bytes32){\r\n        //Verify that the user used the good password\r\n        require (keccak256(bytes(citizenIdentifiers[login].userPassword)) == keccak256(bytes(pwd)));\r\n        // Get the user identity count\r\n        uint userIdCount = citizenIdentifiers[login].userIdentityCount;\r\n        string memory userIdCountString = uintToString(userIdCount);\r\n        string memory contIdentifiers = concatenate(userIdCountString, pwd);\r\n        bytes32 identity_hash = keccak256(bytes(contIdentifiers));\r\n        // add certification to mapping\r\n        idCertifications[identity_hash] = citizenIdentifiers[login];\r\n        return identity_hash;\r\n    }\r\n    \r\n\r\n    /*\r\n       Functions read\r\n    */\r\n\r\n    /*\r\n        Function to verify identityCertification\r\n    */\r\n\r\n    function verifyCertification (bytes32 id_hash) public view returns (string memory _name, string memory _lastName, string memory _birthDate, string memory _birthCity, string memory _maritalStatus) {\r\n        // get userIdCount\r\n        uint userIdCount = idCertifications[id_hash].userIdentityCount;\r\n        return(identities[userIdCount].birthinfo.name, identities[userIdCount].birthinfo.lastName, identities[userIdCount].birthinfo.birthDate, identities[userIdCount].birthinfo.birthCity, identities[userIdCount].maritalStatus);\r\n\r\n    }\r\n    \r\n    function readBirth(uint birthId) public view returns(string memory _name, string memory _lastName, string memory _birthDate, string memory _birthCity, bool _isVerified){\r\n        return (births[birthId].name, births[birthId].lastName, births[birthId].birthDate, births[birthId].birthCity, births[birthId].isVerified);\r\n    }        \r\n\r\n \r\n    function readIdentity(uint identityId) public view returns(string memory _name, string memory _lastName, string memory _birthDate, string memory _birthCity, string memory _maritalStatus){\r\n        require(identities[identityId].birthinfo.isVerified == true);\r\n        return (identities[identityId].birthinfo.name, identities[identityId].birthinfo.lastName, identities[identityId].birthinfo.birthDate, identities[identityId].birthinfo.birthCity, identities[identityId].maritalStatus);\r\n    }\r\n\r\n    function getBirthsCount() public view returns(uint _birthCount) {\r\n        return birthsCount; \r\n    }\r\n\r\n    function getIdentitiesCount() public view returns(uint _identitiesCount){\r\n        return identitiesCount;\r\n    }\r\n\r\n    function getOwner() public view returns(address _owner){\r\n        return owner;\r\n    }\r\n\r\n    function isHospitalMember() public view returns(bool isMember){\r\n        if (bytes(hospitalMembers[msg.sender].name).length > 0) {\r\n            isMember = true;\r\n        } else {\r\n            isMember = false;\r\n        }\r\n    }\r\n\r\n    function isPrefectureMember() public view returns(bool isMember){\r\n        if (bytes(prefectureMembers[msg.sender].name).length > 0) {\r\n            isMember = true;\r\n        } else {\r\n            isMember = false;\r\n        }\r\n    }\r\n\r\n    function isCityHallisPrefectureMember() public view returns(bool isMember){\r\n        if (bytes(cityHallMembers[msg.sender].name).length > 0) {\r\n            isMember = true;\r\n        } else {\r\n            isMember = false;\r\n        }\r\n    }\r\n\r\n}",
  "sourcePath": "C:/Users/anatereza.mascarenha/Documents/Ethereum/poc_identite_v2/contracts/CivilStateV2.sol",
  "compiler": {
    "name": "solc",
    "version": "0.5.16+commit.9c3226ce.Emscripten.clang"
  },
  "schemaVersion": "3.0.22",
  "updatedAt": "2020-11-26T08:54:49.888Z",
  "networkType": "ethereum",
  "devdoc": {
    "methods": {}
  },
  "userdoc": {
    "methods": {}
  }
}