{
  "contractName": "CivilStateV2",
  "abi": [
    {
      "inputs": [],
      "payable": false,
      "stateMutability": "nonpayable",
      "type": "constructor"
    },
    {
      "anonymous": false,
      "inputs": [
        {
          "indexed": false,
          "internalType": "string",
          "name": "memberName",
          "type": "string"
        }
      ],
      "name": "LogEventAddCityHallMember",
      "type": "event"
    },
    {
      "anonymous": false,
      "inputs": [
        {
          "indexed": false,
          "internalType": "string",
          "name": "memberName",
          "type": "string"
        }
      ],
      "name": "LogEventAddHospitalMember",
      "type": "event"
    },
    {
      "anonymous": false,
      "inputs": [
        {
          "indexed": false,
          "internalType": "string",
          "name": "memberName",
          "type": "string"
        }
      ],
      "name": "LogEventAddPrefectureMember",
      "type": "event"
    },
    {
      "anonymous": false,
      "inputs": [
        {
          "indexed": false,
          "internalType": "string",
          "name": "name",
          "type": "string"
        },
        {
          "indexed": false,
          "internalType": "string",
          "name": "lastName",
          "type": "string"
        },
        {
          "indexed": false,
          "internalType": "uint256",
          "name": "birthId",
          "type": "uint256"
        }
      ],
      "name": "LogEventBirthAdded",
      "type": "event"
    },
    {
      "anonymous": false,
      "inputs": [
        {
          "indexed": false,
          "internalType": "string",
          "name": "login",
          "type": "string"
        },
        {
          "indexed": false,
          "internalType": "bytes32",
          "name": "identity_hash",
          "type": "bytes32"
        }
      ],
      "name": "LogEventCertificationGenerated",
      "type": "event"
    },
    {
      "anonymous": false,
      "inputs": [
        {
          "indexed": false,
          "internalType": "string",
          "name": "marriageDate",
          "type": "string"
        },
        {
          "indexed": false,
          "internalType": "uint256",
          "name": "identityId",
          "type": "uint256"
        }
      ],
      "name": "LogEventDeclareMarriage",
      "type": "event"
    },
    {
      "anonymous": false,
      "inputs": [
        {
          "indexed": false,
          "internalType": "uint256",
          "name": "birthId",
          "type": "uint256"
        },
        {
          "indexed": false,
          "internalType": "uint256",
          "name": "identityId",
          "type": "uint256"
        }
      ],
      "name": "LogEventVerifyIdentity",
      "type": "event"
    },
    {
      "constant": true,
      "inputs": [],
      "name": "owner",
      "outputs": [
        {
          "internalType": "address",
          "name": "",
          "type": "address"
        }
      ],
      "payable": false,
      "stateMutability": "view",
      "type": "function"
    },
    {
      "constant": true,
      "inputs": [
        {
          "internalType": "string",
          "name": "a",
          "type": "string"
        },
        {
          "internalType": "string",
          "name": "b",
          "type": "string"
        }
      ],
      "name": "concatenate",
      "outputs": [
        {
          "internalType": "string",
          "name": "",
          "type": "string"
        }
      ],
      "payable": false,
      "stateMutability": "pure",
      "type": "function"
    },
    {
      "constant": true,
      "inputs": [
        {
          "internalType": "uint256",
          "name": "v",
          "type": "uint256"
        }
      ],
      "name": "uintToString",
      "outputs": [
        {
          "internalType": "string",
          "name": "str",
          "type": "string"
        }
      ],
      "payable": false,
      "stateMutability": "pure",
      "type": "function"
    },
    {
      "constant": false,
      "inputs": [
        {
          "internalType": "address",
          "name": "_newMember",
          "type": "address"
        },
        {
          "internalType": "string",
          "name": "_memberName",
          "type": "string"
        }
      ],
      "name": "addHospitalMember",
      "outputs": [],
      "payable": false,
      "stateMutability": "nonpayable",
      "type": "function"
    },
    {
      "constant": false,
      "inputs": [
        {
          "internalType": "address",
          "name": "_newMember",
          "type": "address"
        },
        {
          "internalType": "string",
          "name": "_memberName",
          "type": "string"
        }
      ],
      "name": "addPrefectureMember",
      "outputs": [],
      "payable": false,
      "stateMutability": "nonpayable",
      "type": "function"
    },
    {
      "constant": false,
      "inputs": [
        {
          "internalType": "address",
          "name": "_newMember",
          "type": "address"
        },
        {
          "internalType": "string",
          "name": "_memberName",
          "type": "string"
        }
      ],
      "name": "addCityHallMember",
      "outputs": [],
      "payable": false,
      "stateMutability": "nonpayable",
      "type": "function"
    },
    {
      "constant": false,
      "inputs": [
        {
          "internalType": "string",
          "name": "_name",
          "type": "string"
        },
        {
          "internalType": "string",
          "name": "_lastName",
          "type": "string"
        },
        {
          "internalType": "string",
          "name": "_birthDate",
          "type": "string"
        },
        {
          "internalType": "string",
          "name": "_birthCity",
          "type": "string"
        }
      ],
      "name": "addBirth",
      "outputs": [
        {
          "internalType": "uint256",
          "name": "",
          "type": "uint256"
        }
      ],
      "payable": false,
      "stateMutability": "nonpayable",
      "type": "function"
    },
    {
      "constant": true,
      "inputs": [],
      "name": "getBirthId",
      "outputs": [
        {
          "internalType": "uint256",
          "name": "_birthId",
          "type": "uint256"
        },
        {
          "internalType": "string",
          "name": "_name",
          "type": "string"
        },
        {
          "internalType": "string",
          "name": "_lastName",
          "type": "string"
        }
      ],
      "payable": false,
      "stateMutability": "view",
      "type": "function"
    },
    {
      "constant": false,
      "inputs": [
        {
          "internalType": "uint256",
          "name": "birthId",
          "type": "uint256"
        }
      ],
      "name": "createIdentity",
      "outputs": [
        {
          "internalType": "uint256",
          "name": "identityId",
          "type": "uint256"
        }
      ],
      "payable": false,
      "stateMutability": "nonpayable",
      "type": "function"
    },
    {
      "constant": true,
      "inputs": [],
      "name": "getIdentityId",
      "outputs": [
        {
          "internalType": "uint256",
          "name": "_identity",
          "type": "uint256"
        },
        {
          "internalType": "string",
          "name": "_name",
          "type": "string"
        },
        {
          "internalType": "string",
          "name": "_lastName",
          "type": "string"
        }
      ],
      "payable": false,
      "stateMutability": "view",
      "type": "function"
    },
    {
      "constant": false,
      "inputs": [
        {
          "internalType": "uint256",
          "name": "identityId",
          "type": "uint256"
        },
        {
          "internalType": "string",
          "name": "_marriageDate",
          "type": "string"
        }
      ],
      "name": "declareMarriage",
      "outputs": [],
      "payable": false,
      "stateMutability": "nonpayable",
      "type": "function"
    },
    {
      "constant": false,
      "inputs": [
        {
          "internalType": "string",
          "name": "_login",
          "type": "string"
        },
        {
          "internalType": "string",
          "name": "_oldPwd",
          "type": "string"
        },
        {
          "internalType": "string",
          "name": "_newPwd",
          "type": "string"
        }
      ],
      "name": "modifyMyPassword",
      "outputs": [],
      "payable": false,
      "stateMutability": "nonpayable",
      "type": "function"
    },
    {
      "constant": false,
      "inputs": [
        {
          "internalType": "string",
          "name": "login",
          "type": "string"
        },
        {
          "internalType": "string",
          "name": "pwd",
          "type": "string"
        }
      ],
      "name": "generateIdCertification",
      "outputs": [
        {
          "internalType": "bytes32",
          "name": "",
          "type": "bytes32"
        }
      ],
      "payable": false,
      "stateMutability": "nonpayable",
      "type": "function"
    },
    {
      "constant": true,
      "inputs": [
        {
          "internalType": "string",
          "name": "_login",
          "type": "string"
        }
      ],
      "name": "getCertification",
      "outputs": [
        {
          "internalType": "bytes32",
          "name": "",
          "type": "bytes32"
        }
      ],
      "payable": false,
      "stateMutability": "view",
      "type": "function"
    },
    {
      "constant": true,
      "inputs": [
        {
          "internalType": "bytes32",
          "name": "id_hash",
          "type": "bytes32"
        }
      ],
      "name": "verifyCertification",
      "outputs": [
        {
          "internalType": "string",
          "name": "_name",
          "type": "string"
        },
        {
          "internalType": "string",
          "name": "_lastName",
          "type": "string"
        },
        {
          "internalType": "string",
          "name": "_birthDate",
          "type": "string"
        },
        {
          "internalType": "string",
          "name": "_birthCity",
          "type": "string"
        },
        {
          "internalType": "string",
          "name": "_maritalStatus",
          "type": "string"
        }
      ],
      "payable": false,
      "stateMutability": "view",
      "type": "function"
    },
    {
      "constant": true,
      "inputs": [
        {
          "internalType": "uint256",
          "name": "birthId",
          "type": "uint256"
        }
      ],
      "name": "readBirth",
      "outputs": [
        {
          "internalType": "string",
          "name": "_name",
          "type": "string"
        },
        {
          "internalType": "string",
          "name": "_lastName",
          "type": "string"
        },
        {
          "internalType": "string",
          "name": "_birthDate",
          "type": "string"
        },
        {
          "internalType": "string",
          "name": "_birthCity",
          "type": "string"
        },
        {
          "internalType": "bool",
          "name": "_isVerified",
          "type": "bool"
        }
      ],
      "payable": false,
      "stateMutability": "view",
      "type": "function"
    },
    {
      "constant": true,
      "inputs": [
        {
          "internalType": "uint256",
          "name": "identityId",
          "type": "uint256"
        }
      ],
      "name": "readIdentity",
      "outputs": [
        {
          "internalType": "string",
          "name": "_name",
          "type": "string"
        },
        {
          "internalType": "string",
          "name": "_lastName",
          "type": "string"
        },
        {
          "internalType": "string",
          "name": "_birthDate",
          "type": "string"
        },
        {
          "internalType": "string",
          "name": "_birthCity",
          "type": "string"
        },
        {
          "internalType": "string",
          "name": "_maritalStatus",
          "type": "string"
        }
      ],
      "payable": false,
      "stateMutability": "view",
      "type": "function"
    },
    {
      "constant": true,
      "inputs": [],
      "name": "getBirthsCount",
      "outputs": [
        {
          "internalType": "uint256",
          "name": "_birthCount",
          "type": "uint256"
        }
      ],
      "payable": false,
      "stateMutability": "view",
      "type": "function"
    },
    {
      "constant": true,
      "inputs": [],
      "name": "getIdentitiesCount",
      "outputs": [
        {
          "internalType": "uint256",
          "name": "_identitiesCount",
          "type": "uint256"
        }
      ],
      "payable": false,
      "stateMutability": "view",
      "type": "function"
    },
    {
      "constant": true,
      "inputs": [],
      "name": "getOwner",
      "outputs": [
        {
          "internalType": "address",
          "name": "_owner",
          "type": "address"
        }
      ],
      "payable": false,
      "stateMutability": "view",
      "type": "function"
    },
    {
      "constant": true,
      "inputs": [
        {
          "internalType": "address",
          "name": "_address",
          "type": "address"
        }
      ],
      "name": "getHospitalMemberName",
      "outputs": [
        {
          "internalType": "string",
          "name": "_name",
          "type": "string"
        }
      ],
      "payable": false,
      "stateMutability": "view",
      "type": "function"
    },
    {
      "constant": true,
      "inputs": [],
      "name": "isHospitalMember",
      "outputs": [
        {
          "internalType": "address",
          "name": "",
          "type": "address"
        }
      ],
      "payable": false,
      "stateMutability": "view",
      "type": "function"
    },
    {
      "constant": true,
      "inputs": [],
      "name": "isPrefectureMember",
      "outputs": [
        {
          "internalType": "address",
          "name": "",
          "type": "address"
        }
      ],
      "payable": false,
      "stateMutability": "view",
      "type": "function"
    },
    {
      "constant": true,
      "inputs": [],
      "name": "isCityHallMember",
      "outputs": [
        {
          "internalType": "address",
          "name": "",
          "type": "address"
        }
      ],
      "payable": false,
      "stateMutability": "view",
      "type": "function"
    }
  ],
  "bytecode": "0x60806040526000600555600060075534801561001a57600080fd5b50336000806101000a81548173ffffffffffffffffffffffffffffffffffffffff021916908373ffffffffffffffffffffffffffffffffffffffff1602179055506146c78061006a6000396000f3fe608060405234801561001057600080fd5b50600436106101585760003560e01c806384a3409d116100c3578063d0bbc1ac1161007c578063d0bbc1ac14611222578063dea0e3f714611479578063df1891811461156f578063e93956791461164a578063e9e30987146116f1578063eaab88d3146117ae57610158565b806384a3409d14610a56578063893d20e814610b1b5780638da5cb5b14610b655780639097a63214610baf578063aac4b06214610d98578063c728da9614610f8e57610158565b80634f7b3c7d116101155780634f7b3c7d146106e057806353fb3c24146107af57806355363909146107f957806357959edc146108435780637006045c1461091e57806382abfa9714610a1457610158565b806321e15d541461015d578063266001d3146102385780632da2a89814610403578063398dbab01461044d5780633de79ac91461046b57806341d204ad146106c2575b600080fd5b6102366004803603604081101561017357600080fd5b81019080803573ffffffffffffffffffffffffffffffffffffffff169060200190929190803590602001906401000000008111156101b057600080fd5b8201836020820111156101c257600080fd5b803590602001918460018302840111640100000000831117156101e457600080fd5b91908080601f016020809104026020016040519081016040528093929190818152602001838380828437600081840152601f19601f820116905080830192505050505050509192919290505050611914565b005b6103886004803603604081101561024e57600080fd5b810190808035906020019064010000000081111561026b57600080fd5b82018360208201111561027d57600080fd5b8035906020019184600183028401116401000000008311171561029f57600080fd5b91908080601f016020809104026020016040519081016040528093929190818152602001838380828437600081840152601f19601f8201169050808301925050505050505091929192908035906020019064010000000081111561030257600080fd5b82018360208201111561031457600080fd5b8035906020019184600183028401116401000000008311171561033657600080fd5b91908080601f016020809104026020016040519081016040528093929190818152602001838380828437600081840152601f19601f820116905080830192505050505050509192919290505050611b49565b6040518080602001828103825283818151815260200191508051906020019080838360005b838110156103c85780820151818401526020810190506103ad565b50505050905090810190601f1680156103f55780820380516001836020036101000a031916815260200191505b509250505060405180910390f35b61040b611c11565b604051808273ffffffffffffffffffffffffffffffffffffffff1673ffffffffffffffffffffffffffffffffffffffff16815260200191505060405180910390f35b610455611c87565b6040518082815260200191505060405180910390f35b6104976004803603602081101561048157600080fd5b8101908080359060200190929190505050611c91565b60405180806020018060200180602001806020018060200186810386528b818151815260200191508051906020019080838360005b838110156104e75780820151818401526020810190506104cc565b50505050905090810190601f1680156105145780820380516001836020036101000a031916815260200191505b5086810385528a818151815260200191508051906020019080838360005b8381101561054d578082015181840152602081019050610532565b50505050905090810190601f16801561057a5780820380516001836020036101000a031916815260200191505b50868103845289818151815260200191508051906020019080838360005b838110156105b3578082015181840152602081019050610598565b50505050905090810190601f1680156105e05780820380516001836020036101000a031916815260200191505b50868103835288818151815260200191508051906020019080838360005b838110156106195780820151818401526020810190506105fe565b50505050905090810190601f1680156106465780820380516001836020036101000a031916815260200191505b50868103825287818151815260200191508051906020019080838360005b8381101561067f578082015181840152602081019050610664565b50505050905090810190601f1680156106ac5780820380516001836020036101000a031916815260200191505b509a505050505050505050505060405180910390f35b6106ca61204e565b6040518082815260200191505060405180910390f35b610799600480360360208110156106f657600080fd5b810190808035906020019064010000000081111561071357600080fd5b82018360208201111561072557600080fd5b8035906020019184600183028401116401000000008311171561074757600080fd5b91908080601f016020809104026020016040519081016040528093929190818152602001838380828437600081840152601f19601f820116905080830192505050505050509192919290505050612058565b6040518082815260200191505060405180910390f35b6107b76120ce565b604051808273ffffffffffffffffffffffffffffffffffffffff1673ffffffffffffffffffffffffffffffffffffffff16815260200191505060405180910390f35b610801612144565b604051808273ffffffffffffffffffffffffffffffffffffffff1673ffffffffffffffffffffffffffffffffffffffff16815260200191505060405180910390f35b61091c6004803603604081101561085957600080fd5b81019080803573ffffffffffffffffffffffffffffffffffffffff1690602001909291908035906020019064010000000081111561089657600080fd5b8201836020820111156108a857600080fd5b803590602001918460018302840111640100000000831117156108ca57600080fd5b91908080601f016020809104026020016040519081016040528093929190818152602001838380828437600081840152601f19601f8201169050808301925050505050505091929192905050506121ba565b005b6109266123ef565b604051808481526020018060200180602001838103835285818151815260200191508051906020019080838360005b83811015610970578082015181840152602081019050610955565b50505050905090810190601f16801561099d5780820380516001836020036101000a031916815260200191505b50838103825284818151815260200191508051906020019080838360005b838110156109d65780820151818401526020810190506109bb565b50505050905090810190601f168015610a035780820380516001836020036101000a031916815260200191505b509550505050505060405180910390f35b610a4060048036036020811015610a2a57600080fd5b81019080803590602001909291905050506125e4565b6040518082815260200191505060405180910390f35b610b1960048036036040811015610a6c57600080fd5b810190808035906020019092919080359060200190640100000000811115610a9357600080fd5b820183602082011115610aa557600080fd5b80359060200191846001830284011164010000000083111715610ac757600080fd5b91908080601f016020809104026020016040519081016040528093929190818152602001838380828437600081840152601f19601f820116905080830192505050505050509192919290505050612fb4565b005b610b23613183565b604051808273ffffffffffffffffffffffffffffffffffffffff1673ffffffffffffffffffffffffffffffffffffffff16815260200191505060405180910390f35b610b6d6131ac565b604051808273ffffffffffffffffffffffffffffffffffffffff1673ffffffffffffffffffffffffffffffffffffffff16815260200191505060405180910390f35b610d9660048036036060811015610bc557600080fd5b8101908080359060200190640100000000811115610be257600080fd5b820183602082011115610bf457600080fd5b80359060200191846001830284011164010000000083111715610c1657600080fd5b91908080601f016020809104026020016040519081016040528093929190818152602001838380828437600081840152601f19601f82011690508083019250505050505050919291929080359060200190640100000000811115610c7957600080fd5b820183602082011115610c8b57600080fd5b80359060200191846001830284011164010000000083111715610cad57600080fd5b91908080601f016020809104026020016040519081016040528093929190818152602001838380828437600081840152601f19601f82011690508083019250505050505050919291929080359060200190640100000000811115610d1057600080fd5b820183602082011115610d2257600080fd5b80359060200191846001830284011164010000000083111715610d4457600080fd5b91908080601f016020809104026020016040519081016040528093929190818152602001838380828437600081840152601f19601f8201169050808301925050505050505091929192905050506131d1565b005b610dc460048036036020811015610dae57600080fd5b81019080803590602001909291905050506132d3565b60405180806020018060200180602001806020018615151515815260200185810385528a818151815260200191508051906020019080838360005b83811015610e1a578082015181840152602081019050610dff565b50505050905090810190601f168015610e475780820380516001836020036101000a031916815260200191505b50858103845289818151815260200191508051906020019080838360005b83811015610e80578082015181840152602081019050610e65565b50505050905090810190601f168015610ead5780820380516001836020036101000a031916815260200191505b50858103835288818151815260200191508051906020019080838360005b83811015610ee6578082015181840152602081019050610ecb565b50505050905090810190601f168015610f135780820380516001836020036101000a031916815260200191505b50858103825287818151815260200191508051906020019080838360005b83811015610f4c578082015181840152602081019050610f31565b50505050905090810190601f168015610f795780820380516001836020036101000a031916815260200191505b50995050505050505050505060405180910390f35b61120c60048036036080811015610fa457600080fd5b8101908080359060200190640100000000811115610fc157600080fd5b820183602082011115610fd357600080fd5b80359060200191846001830284011164010000000083111715610ff557600080fd5b91908080601f016020809104026020016040519081016040528093929190818152602001838380828437600081840152601f19601f8201169050808301925050505050505091929192908035906020019064010000000081111561105857600080fd5b82018360208201111561106a57600080fd5b8035906020019184600183028401116401000000008311171561108c57600080fd5b91908080601f016020809104026020016040519081016040528093929190818152602001838380828437600081840152601f19601f820116905080830192505050505050509192919290803590602001906401000000008111156110ef57600080fd5b82018360208201111561110157600080fd5b8035906020019184600183028401116401000000008311171561112357600080fd5b91908080601f016020809104026020016040519081016040528093929190818152602001838380828437600081840152601f19601f8201169050808301925050505050505091929192908035906020019064010000000081111561118657600080fd5b82018360208201111561119857600080fd5b803590602001918460018302840111640100000000831117156111ba57600080fd5b91908080601f016020809104026020016040519081016040528093929190818152602001838380828437600081840152601f19601f8201169050808301925050505050505091929192905050506135da565b6040518082815260200191505060405180910390f35b61124e6004803603602081101561123857600080fd5b8101908080359060200190929190505050613847565b60405180806020018060200180602001806020018060200186810386528b818151815260200191508051906020019080838360005b8381101561129e578082015181840152602081019050611283565b50505050905090810190601f1680156112cb5780820380516001836020036101000a031916815260200191505b5086810385528a818151815260200191508051906020019080838360005b838110156113045780820151818401526020810190506112e9565b50505050905090810190601f1680156113315780820380516001836020036101000a031916815260200191505b50868103845289818151815260200191508051906020019080838360005b8381101561136a57808201518184015260208101905061134f565b50505050905090810190601f1680156113975780820380516001836020036101000a031916815260200191505b50868103835288818151815260200191508051906020019080838360005b838110156113d05780820151818401526020810190506113b5565b50505050905090810190601f1680156113fd5780820380516001836020036101000a031916815260200191505b50868103825287818151815260200191508051906020019080838360005b8381101561143657808201518184015260208101905061141b565b50505050905090810190601f1680156114635780820380516001836020036101000a031916815260200191505b509a505050505050505050505060405180910390f35b611481613c1f565b604051808481526020018060200180602001838103835285818151815260200191508051906020019080838360005b838110156114cb5780820151818401526020810190506114b0565b50505050905090810190601f1680156114f85780820380516001836020036101000a031916815260200191505b50838103825284818151815260200191508051906020019080838360005b83811015611531578082015181840152602081019050611516565b50505050905090810190601f16801561155e5780820380516001836020036101000a031916815260200191505b509550505050505060405180910390f35b6116486004803603604081101561158557600080fd5b81019080803573ffffffffffffffffffffffffffffffffffffffff169060200190929190803590602001906401000000008111156115c257600080fd5b8201836020820111156115d457600080fd5b803590602001918460018302840111640100000000831117156115f657600080fd5b91908080601f016020809104026020016040519081016040528093929190818152602001838380828437600081840152601f19601f820116905080830192505050505050509192919290505050613e0e565b005b6116766004803603602081101561166057600080fd5b8101908080359060200190929190505050614043565b6040518080602001828103825283818151815260200191508051906020019080838360005b838110156116b657808201518184015260208101905061169b565b50505050905090810190601f1680156116e35780820380516001836020036101000a031916815260200191505b509250505060405180910390f35b6117336004803603602081101561170757600080fd5b81019080803573ffffffffffffffffffffffffffffffffffffffff1690602001909291905050506141b1565b6040518080602001828103825283818151815260200191508051906020019080838360005b83811015611773578082015181840152602081019050611758565b50505050905090810190601f1680156117a05780820380516001836020036101000a031916815260200191505b509250505060405180910390f35b6118fe600480360360408110156117c457600080fd5b81019080803590602001906401000000008111156117e157600080fd5b8201836020820111156117f357600080fd5b8035906020019184600183028401116401000000008311171561181557600080fd5b91908080601f016020809104026020016040519081016040528093929190818152602001838380828437600081840152601f19601f8201169050808301925050505050505091929192908035906020019064010000000081111561187857600080fd5b82018360208201111561188a57600080fd5b803590602001918460018302840111640100000000831117156118ac57600080fd5b91908080601f016020809104026020016040519081016040528093929190818152602001838380828437600081840152601f19601f820116905080830192505050505050509192919290505050614295565b6040518082815260200191505060405180910390f35b3373ffffffffffffffffffffffffffffffffffffffff166000809054906101000a900473ffffffffffffffffffffffffffffffffffffffff1673ffffffffffffffffffffffffffffffffffffffff161461196d57600080fd5b60606119ae6040518060400160405280600681526020017f6c6f67696e5f000000000000000000000000000000000000000000000000000081525083611b49565b905060606119f16040518060400160405280600481526020017f7077645f0000000000000000000000000000000000000000000000000000000081525084611b49565b9050604051806060016040528083815260200182815260200184815250600360008673ffffffffffffffffffffffffffffffffffffffff1673ffffffffffffffffffffffffffffffffffffffff1681526020019081526020016000206000820151816000019080519060200190611a6992919061456d565b506020820151816001019080519060200190611a8692919061456d565b506040820151816002019080519060200190611aa392919061456d565b509050507f401ac4b35a7b6689f6099149d9a4590d106d0b7850a038645519383db1f9e5aa836040518080602001828103825283818151815260200191508051906020019080838360005b83811015611b09578082015181840152602081019050611aee565b50505050905090810190601f168015611b365780820380516001836020036101000a031916815260200191505b509250505060405180910390a150505050565b606082826040516020018083805190602001908083835b60208310611b835780518252602082019150602081019050602083039250611b60565b6001836020036101000a03801982511681845116808217855250505050505090500182805190602001908083835b60208310611bd45780518252602082019150602081019050602083039250611bb1565b6001836020036101000a03801982511681845116808217855250505050505090500192505050604051602081830303815290604052905092915050565b6000806000600260003373ffffffffffffffffffffffffffffffffffffffff1673ffffffffffffffffffffffffffffffffffffffff1681526020019081526020016000206002018054600181600116156101000203166002900490501115611c7b57339050611c80565b600090505b8091505090565b6000600554905090565b60608060608060606000600960008881526020019081526020016000206000015490506006600082815260200190815260200160002060000160000160066000838152602001908152602001600020600001600101600660008481526020019081526020016000206000016002016006600085815260200190815260200160002060000160030160066000868152602001908152602001600020600501848054600181600116156101000203166002900480601f016020809104026020016040519081016040528092919081815260200182805460018160011615610100020316600290048015611dc35780601f10611d9857610100808354040283529160200191611dc3565b820191906000526020600020905b815481529060010190602001808311611da657829003601f168201915b50505050509450838054600181600116156101000203166002900480601f016020809104026020016040519081016040528092919081815260200182805460018160011615610100020316600290048015611e5f5780601f10611e3457610100808354040283529160200191611e5f565b820191906000526020600020905b815481529060010190602001808311611e4257829003601f168201915b50505050509350828054600181600116156101000203166002900480601f016020809104026020016040519081016040528092919081815260200182805460018160011615610100020316600290048015611efb5780601f10611ed057610100808354040283529160200191611efb565b820191906000526020600020905b815481529060010190602001808311611ede57829003601f168201915b50505050509250818054600181600116156101000203166002900480601f016020809104026020016040519081016040528092919081815260200182805460018160011615610100020316600290048015611f975780601f10611f6c57610100808354040283529160200191611f97565b820191906000526020600020905b815481529060010190602001808311611f7a57829003601f168201915b50505050509150808054600181600116156101000203166002900480601f0160208091040260200160405190810160405280929190818152602001828054600181600116156101000203166002900480156120335780601f1061200857610100808354040283529160200191612033565b820191906000526020600020905b81548152906001019060200180831161201657829003601f168201915b50505050509050955095509550955095505091939590929450565b6000600754905090565b60006008826040518082805190602001908083835b60208310612090578051825260208201915060208101905060208303925061206d565b6001836020036101000a0380198251168184511680821785525050505050509050019150509081526020016040518091039020600201549050919050565b6000806000600160003373ffffffffffffffffffffffffffffffffffffffff1673ffffffffffffffffffffffffffffffffffffffff16815260200190815260200160002060020180546001816001161561010002031660029004905011156121385733905061213d565b600090505b8091505090565b6000806000600360003373ffffffffffffffffffffffffffffffffffffffff1673ffffffffffffffffffffffffffffffffffffffff16815260200190815260200160002060020180546001816001161561010002031660029004905011156121ae573390506121b3565b600090505b8091505090565b3373ffffffffffffffffffffffffffffffffffffffff166000809054906101000a900473ffffffffffffffffffffffffffffffffffffffff1673ffffffffffffffffffffffffffffffffffffffff161461221357600080fd5b60606122546040518060400160405280600681526020017f6c6f67696e5f000000000000000000000000000000000000000000000000000081525083611b49565b905060606122976040518060400160405280600481526020017f7077645f0000000000000000000000000000000000000000000000000000000081525084611b49565b9050604051806060016040528083815260200182815260200184815250600160008673ffffffffffffffffffffffffffffffffffffffff1673ffffffffffffffffffffffffffffffffffffffff168152602001908152602001600020600082015181600001908051906020019061230f92919061456d565b50602082015181600101908051906020019061232c92919061456d565b50604082015181600201908051906020019061234992919061456d565b509050507fab3562bab9e824ea5bd0d7e0ef837e93d1f7a8f3ee468ae9cb2c04d960bfc6d4836040518080602001828103825283818151815260200191508051906020019080838360005b838110156123af578082015181840152602081019050612394565b50505050905090810190601f1680156123dc5780820380516001836020036101000a031916815260200191505b509250505060405180910390a150505050565b60006060806040518060400160405280600981526020017f756e646566696e6564000000000000000000000000000000000000000000000081525091506040518060400160405280600981526020017f756e646566696e6564000000000000000000000000000000000000000000000081525090506000600754106125df576001600754039250600660008481526020019081526020016000206000016000018054600181600116156101000203166002900480601f0160208091040260200160405190810160405280929190818152602001828054600181600116156101000203166002900480156125235780601f106124f857610100808354040283529160200191612523565b820191906000526020600020905b81548152906001019060200180831161250657829003601f168201915b50505050509150600660008481526020019081526020016000206000016001018054600181600116156101000203166002900480601f0160208091040260200160405190810160405280929190818152602001828054600181600116156101000203166002900480156125d75780601f106125ac576101008083540402835291602001916125d7565b820191906000526020600020905b8154815290600101906020018083116125ba57829003601f168201915b505050505090505b909192565b6000336000600260008373ffffffffffffffffffffffffffffffffffffffff1673ffffffffffffffffffffffffffffffffffffffff1681526020019081526020016000206002018054600181600116156101000203166002900490501161264a57600080fd5b600015156004600085815260200190815260200160002060040160009054906101000a900460ff1615151461267e57600080fd5b60016004600085815260200190815260200160002060040160006101000a81548160ff021916908315150217905550606061279c6040518060400160405280600681526020017f6c6f67696e5f0000000000000000000000000000000000000000000000000000815250600460008781526020019081526020016000206001018054600181600116156101000203166002900480601f0160208091040260200160405190810160405280929190818152602001828054600181600116156101000203166002900480156127925780601f1061276757610100808354040283529160200191612792565b820191906000526020600020905b81548152906001019060200180831161277557829003601f168201915b5050505050611b49565b905061285681600460008781526020019081526020016000206000018054600181600116156101000203166002900480601f01602080910402602001604051908101604052809291908181526020018280546001816001161561010002031660029004801561284c5780601f106128215761010080835404028352916020019161284c565b820191906000526020600020905b81548152906001019060200180831161282f57829003601f168201915b5050505050611b49565b905061291081600460008781526020019081526020016000206002018054600181600116156101000203166002900480601f0160208091040260200160405190810160405280929190818152602001828054600181600116156101000203166002900480156129065780601f106128db57610100808354040283529160200191612906565b820191906000526020600020905b8154815290600101906020018083116128e957829003601f168201915b5050505050611b49565b90506060612a016040518060400160405280600481526020017f7077645f00000000000000000000000000000000000000000000000000000000815250600460008881526020019081526020016000206002018054600181600116156101000203166002900480601f0160208091040260200160405190810160405280929190818152602001828054600181600116156101000203166002900480156129f75780601f106129cc576101008083540402835291602001916129f7565b820191906000526020600020905b8154815290600101906020018083116129da57829003601f168201915b5050505050611b49565b905060008180519060200120905060006040518060400160405280600381526020017f6e65770000000000000000000000000000000000000000000000000000000000815250805190602001209050600760008154809291906001019190505595506040518060a00160405280600460008a81526020019081526020016000206040518060a0016040529081600082018054600181600116156101000203166002900480601f016020809104026020016040519081016040528092919081815260200182805460018160011615610100020316600290048015612b255780601f10612afa57610100808354040283529160200191612b25565b820191906000526020600020905b815481529060010190602001808311612b0857829003601f168201915b50505050508152602001600182018054600181600116156101000203166002900480601f016020809104026020016040519081016040528092919081815260200182805460018160011615610100020316600290048015612bc75780601f10612b9c57610100808354040283529160200191612bc7565b820191906000526020600020905b815481529060010190602001808311612baa57829003601f168201915b50505050508152602001600282018054600181600116156101000203166002900480601f016020809104026020016040519081016040528092919081815260200182805460018160011615610100020316600290048015612c695780601f10612c3e57610100808354040283529160200191612c69565b820191906000526020600020905b815481529060010190602001808311612c4c57829003601f168201915b50505050508152602001600382018054600181600116156101000203166002900480601f016020809104026020016040519081016040528092919081815260200182805460018160011615610100020316600290048015612d0b5780601f10612ce057610100808354040283529160200191612d0b565b820191906000526020600020905b815481529060010190602001808311612cee57829003601f168201915b505050505081526020016004820160009054906101000a900460ff16151515158152505081526020016040518060400160405280600681526020017f73696e676c650000000000000000000000000000000000000000000000000000815250815260200160405180602001604052806000815250815260200160405180602001604052806000815250815260200185815250600660008881526020019081526020016000206000820151816000016000820151816000019080519060200190612dd592919061456d565b506020820151816001019080519060200190612df292919061456d565b506040820151816002019080519060200190612e0f92919061456d565b506060820151816003019080519060200190612e2c92919061456d565b5060808201518160040160006101000a81548160ff02191690831515021790555050506020820151816005019080519060200190612e6b92919061456d565b506040820151816006019080519060200190612e8892919061456d565b506060820151816007019080519060200190612ea592919061456d565b506080820151816008019080519060200190612ec292919061456d565b509050506040518060600160405280878152602001838152602001828152506008856040518082805190602001908083835b60208310612f175780518252602082019150602081019050602083039250612ef4565b6001836020036101000a03801982511681845116808217855250505050505090500191505090815260200160405180910390206000820151816000015560208201518160010155604082015181600201559050507f742c345840647c71e989bcfe501f009faa76e04998bb4c2ea8b4adc5ac0659998787604051808381526020018281526020019250505060405180910390a15050505050919050565b336000600360008373ffffffffffffffffffffffffffffffffffffffff1673ffffffffffffffffffffffffffffffffffffffff1681526020019081526020016000206002018054600181600116156101000203166002900490501161301857600080fd5b600115156006600085815260200190815260200160002060000160040160009054906101000a900460ff1615151461304f57600080fd5b6040518060400160405280600781526020017f6d617272696564000000000000000000000000000000000000000000000000008152506006600085815260200190815260200160002060050190805190602001906130ae9291906145ed565b50816006600085815260200190815260200160002060060190805190602001906130d99291906145ed565b507fc7b118d015ed4a95450d7ff616d44d5a9ff7ad9d46e3360ac8ae088efd6a555282846040518080602001838152602001828103825284818151815260200191508051906020019080838360005b83811015613143578082015181840152602081019050613128565b50505050905090810190601f1680156131705780820380516001836020036101000a031916815260200191505b50935050505060405180910390a1505050565b60008060009054906101000a900473ffffffffffffffffffffffffffffffffffffffff16905090565b6000809054906101000a900473ffffffffffffffffffffffffffffffffffffffff1681565b81805190602001206008846040518082805190602001908083835b6020831061320f57805182526020820191506020810190506020830392506131ec565b6001836020036101000a0380198251168184511680821785525050505050509050019150509081526020016040518091039020600101541461325057600080fd5b600081805190602001209050806008856040518082805190602001908083835b602083106132935780518252602082019150602081019050602083039250613270565b6001836020036101000a03801982511681845116808217855250505050505090500191505090815260200160405180910390206001018190555050505050565b6060806060806000600460008781526020019081526020016000206000016004600088815260200190815260200160002060010160046000898152602001908152602001600020600201600460008a8152602001908152602001600020600301600460008b815260200190815260200160002060040160009054906101000a900460ff16848054600181600116156101000203166002900480601f0160208091040260200160405190810160405280929190818152602001828054600181600116156101000203166002900480156133ec5780601f106133c1576101008083540402835291602001916133ec565b820191906000526020600020905b8154815290600101906020018083116133cf57829003601f168201915b50505050509450838054600181600116156101000203166002900480601f0160208091040260200160405190810160405280929190818152602001828054600181600116156101000203166002900480156134885780601f1061345d57610100808354040283529160200191613488565b820191906000526020600020905b81548152906001019060200180831161346b57829003601f168201915b50505050509350828054600181600116156101000203166002900480601f0160208091040260200160405190810160405280929190818152602001828054600181600116156101000203166002900480156135245780601f106134f957610100808354040283529160200191613524565b820191906000526020600020905b81548152906001019060200180831161350757829003601f168201915b50505050509250818054600181600116156101000203166002900480601f0160208091040260200160405190810160405280929190818152602001828054600181600116156101000203166002900480156135c05780601f10613595576101008083540402835291602001916135c0565b820191906000526020600020905b8154815290600101906020018083116135a357829003601f168201915b505050505091509450945094509450945091939590929450565b6000336000600160008373ffffffffffffffffffffffffffffffffffffffff1673ffffffffffffffffffffffffffffffffffffffff1681526020019081526020016000206002018054600181600116156101000203166002900490501161364057600080fd5b6000600560008154809291906001019190505590506040518060a00160405280888152602001878152602001868152602001858152602001600015158152506004600083815260200190815260200160002060008201518160000190805190602001906136ae92919061456d565b5060208201518160010190805190602001906136cb92919061456d565b5060408201518160020190805190602001906136e892919061456d565b50606082015181600301908051906020019061370592919061456d565b5060808201518160040160006101000a81548160ff0219169083151502179055509050507f975e5fd57c7c0e6b1a8c1a5d6861dce72c6672a93848401afb36caa4eb90ba83878783604051808060200180602001848152602001838103835286818151815260200191508051906020019080838360005b8381101561379757808201518184015260208101905061377c565b50505050905090810190601f1680156137c45780820380516001836020036101000a031916815260200191505b50838103825285818151815260200191508051906020019080838360005b838110156137fd5780820151818401526020810190506137e2565b50505050905090810190601f16801561382a5780820380516001836020036101000a031916815260200191505b509550505050505060405180910390a18092505050949350505050565b6060806060806060600115156006600088815260200190815260200160002060000160040160009054906101000a900460ff1615151461388657600080fd5b600660008781526020019081526020016000206000016000016006600088815260200190815260200160002060000160010160066000898152602001908152602001600020600001600201600660008a8152602001908152602001600020600001600301600660008b8152602001908152602001600020600501848054600181600116156101000203166002900480601f0160208091040260200160405190810160405280929190818152602001828054600181600116156101000203166002900480156139955780601f1061396a57610100808354040283529160200191613995565b820191906000526020600020905b81548152906001019060200180831161397857829003601f168201915b50505050509450838054600181600116156101000203166002900480601f016020809104026020016040519081016040528092919081815260200182805460018160011615610100020316600290048015613a315780601f10613a0657610100808354040283529160200191613a31565b820191906000526020600020905b815481529060010190602001808311613a1457829003601f168201915b50505050509350828054600181600116156101000203166002900480601f016020809104026020016040519081016040528092919081815260200182805460018160011615610100020316600290048015613acd5780601f10613aa257610100808354040283529160200191613acd565b820191906000526020600020905b815481529060010190602001808311613ab057829003601f168201915b50505050509250818054600181600116156101000203166002900480601f016020809104026020016040519081016040528092919081815260200182805460018160011615610100020316600290048015613b695780601f10613b3e57610100808354040283529160200191613b69565b820191906000526020600020905b815481529060010190602001808311613b4c57829003601f168201915b50505050509150808054600181600116156101000203166002900480601f016020809104026020016040519081016040528092919081815260200182805460018160011615610100020316600290048015613c055780601f10613bda57610100808354040283529160200191613c05565b820191906000526020600020905b815481529060010190602001808311613be857829003601f168201915b505050505090509450945094509450945091939590929450565b60006060806040518060400160405280600981526020017f756e646566696e6564000000000000000000000000000000000000000000000081525091506040518060400160405280600981526020017f756e646566696e656400000000000000000000000000000000000000000000008152509050600060055410613e09576001600554039250600460008481526020019081526020016000206000018054600181600116156101000203166002900480601f016020809104026020016040519081016040528092919081815260200182805460018160011615610100020316600290048015613d505780601f10613d2557610100808354040283529160200191613d50565b820191906000526020600020905b815481529060010190602001808311613d3357829003601f168201915b50505050509150600460008481526020019081526020016000206001018054600181600116156101000203166002900480601f016020809104026020016040519081016040528092919081815260200182805460018160011615610100020316600290048015613e015780601f10613dd657610100808354040283529160200191613e01565b820191906000526020600020905b815481529060010190602001808311613de457829003601f168201915b505050505090505b909192565b3373ffffffffffffffffffffffffffffffffffffffff166000809054906101000a900473ffffffffffffffffffffffffffffffffffffffff1673ffffffffffffffffffffffffffffffffffffffff1614613e6757600080fd5b6060613ea86040518060400160405280600681526020017f6c6f67696e5f000000000000000000000000000000000000000000000000000081525083611b49565b90506060613eeb6040518060400160405280600481526020017f7077645f0000000000000000000000000000000000000000000000000000000081525084611b49565b9050604051806060016040528083815260200182815260200184815250600260008673ffffffffffffffffffffffffffffffffffffffff1673ffffffffffffffffffffffffffffffffffffffff1681526020019081526020016000206000820151816000019080519060200190613f6392919061456d565b506020820151816001019080519060200190613f8092919061456d565b506040820151816002019080519060200190613f9d92919061456d565b509050507fa7b9cf10953e89fba48615bdedc4c557e19daee10f4f77f3ab1a2d2bb951a041836040518080602001828103825283818151815260200191508051906020019080838360005b83811015614003578082015181840152602081019050613fe8565b50505050905090810190601f1680156140305780820380516001836020036101000a031916815260200191505b509250505060405180910390a150505050565b60606000606490506060816040519080825280601f01601f1916602001820160405280156140805781602001600182028038833980820191505090505b50905060008090505b600085146140fb576000600a868161409d57fe5b069050600a86816140aa57fe5b0495508060300160f81b8383806001019450815181106140c657fe5b60200101907effffffffffffffffffffffffffffffffffffffffffffffffffffffffffffff1916908160001a90535050614089565b6060600182016040519080825280601f01601f1916602001820160405280156141335781602001600182028038833980820191505090505b50905060008090505b8281116141a457838184038151811061415157fe5b602001015160f81c60f81b82828151811061416857fe5b60200101907effffffffffffffffffffffffffffffffffffffffffffffffffffffffffffff1916908160001a905350808060010191505061413c565b5080945050505050919050565b6060600160008373ffffffffffffffffffffffffffffffffffffffff1673ffffffffffffffffffffffffffffffffffffffff1681526020019081526020016000206002018054600181600116156101000203166002900480601f0160208091040260200160405190810160405280929190818152602001828054600181600116156101000203166002900480156142895780601f1061425e57610100808354040283529160200191614289565b820191906000526020600020905b81548152906001019060200180831161426c57829003601f168201915b50505050509050919050565b600081805190602001206008846040518082805190602001908083835b602083106142d557805182526020820191506020810190506020830392506142b2565b6001836020036101000a0380198251168184511680821785525050505050509050019150509081526020016040518091039020600101541461431657600080fd5b60006008846040518082805190602001908083835b6020831061434e578051825260208201915060208101905060208303925061432b565b6001836020036101000a0380198251168184511680821785525050505050509050019150509081526020016040518091039020600001549050606061439282614043565b905060606143a08286611b49565b9050600081805190602001209050806008886040518082805190602001908083835b602083106143e557805182526020820191506020810190506020830392506143c2565b6001836020036101000a0380198251168184511680821785525050505050509050019150509081526020016040518091039020600201819055506008876040518082805190602001908083835b602083106144555780518252602082019150602081019050602083039250614432565b6001836020036101000a0380198251168184511680821785525050505050509050019150509081526020016040518091039020600960008381526020019081526020016000206000820154816000015560018201548160010155600282015481600201559050507fb3c104ebb8d7c2039282f84239773ba591395f85016526077eeab6912a11dda487826040518080602001838152602001828103825284818151815260200191508051906020019080838360005b8381101561452557808201518184015260208101905061450a565b50505050905090810190601f1680156145525780820380516001836020036101000a031916815260200191505b50935050505060405180910390a18094505050505092915050565b828054600181600116156101000203166002900490600052602060002090601f016020900481019282601f106145ae57805160ff19168380011785556145dc565b828001600101855582156145dc579182015b828111156145db5782518255916020019190600101906145c0565b5b5090506145e9919061466d565b5090565b828054600181600116156101000203166002900490600052602060002090601f016020900481019282601f1061462e57805160ff191683800117855561465c565b8280016001018555821561465c579182015b8281111561465b578251825591602001919060010190614640565b5b509050614669919061466d565b5090565b61468f91905b8082111561468b576000816000905550600101614673565b5090565b9056fea265627a7a72315820ed34d74463567111f7a690206bc3e04ba95a7cd08555e2f976643e0a941d74a764736f6c63430005100032",
  "source": "// SPDX-License-Identifier: MIT\r\npragma solidity >=0.4.21 <0.8.0;\r\n\r\n    /*\r\n        The CivilState contract keeps track of the citizen information, starting from their birth and being maintained throughout their life\r\n     */\r\ncontract CivilStateV2 {\r\n\r\n    /*\r\n        Public owner variable => the creator of the contract when it is initialized.\r\n    */\r\n    address public owner;\r\n\r\n    /*\r\n        Birth struct : add birth information\r\n    */\r\n    struct Birth {\r\n        string name;\r\n        string lastName;\r\n        // Date format : YYYYMMDD\r\n        string birthDate;\r\n        string birthCity;\r\n        bool isVerified;\r\n    }\r\n\r\n    /*\r\n        Define an Identity struct.\r\n    */\r\n    struct Identity {\r\n        Birth birthinfo;\r\n        \r\n        // Marital information\r\n        string maritalStatus;\r\n        string marriageDate;\r\n       \r\n        string deathDate;\r\n\r\n        string userLogin;\r\n    }\r\n\r\n    /*\r\n        Struct to track users identifiers\r\n    */\r\n    struct Identifier {\r\n        uint userIdentityCount;\r\n        bytes32 userPassword;\r\n        bytes32 newCertification;\r\n    }\r\n\r\n    struct Authentification {\r\n        string login;\r\n        string password;\r\n        string name;\r\n    }\r\n    \r\n    /*\r\n        Mapping to keep track of the hospital members\r\n    */\r\n    mapping (address => Authentification) hospitalMembers;\r\n\r\n    /*\r\n        Mapping to keep track of the prefecture members\r\n    */\r\n    mapping (address => Authentification) prefectureMembers;\r\n\r\n    /*\r\n        Mapping to keep track of the city hall members\r\n    */\r\n    mapping (address => Authentification) cityHallMembers;\r\n\r\n    /*\r\n       Mapping to keep track of the births (civil status).\r\n       The mapping key is an integer, the value is an Birth struct.\r\n    */\r\n    mapping (uint => Birth) births;\r\n    uint birthsCount = 0;\r\n\r\n    mapping (uint => Identity) identities;\r\n    uint identitiesCount = 0;\r\n\r\n    /*\r\n        Mapping to keep track of citizen's identifiers\r\n    */\r\n    mapping(string => Identifier) citizenIdentifiers;\r\n\r\n    /*\r\n        Mapping to keep track of identity certifications\r\n    */\r\n    mapping(bytes32 => Identifier) idCertifications;\r\n\r\n    // Events\r\n\r\n    // Event signaling that new hospital member was added\r\n    event LogEventAddHospitalMember(string memberName);\r\n    // Event signaling that new prefecture member was added\r\n    event LogEventAddPrefectureMember(string memberName);\r\n    // Event signaling that new cityHall member was added\r\n    event LogEventAddCityHallMember(string memberName);\r\n    // Event signaling that new birth member was declared\r\n    event LogEventBirthAdded (string name, string lastName, uint birthId);\r\n    // Event signaling that a new identity was verified\r\n    event LogEventVerifyIdentity(uint birthId, uint identityId);\r\n    // Event signaling that new marriage member was declared\r\n    event LogEventDeclareMarriage(string marriageDate, uint identityId);\r\n    // Event signaling that a certification was generated\r\n    event LogEventCertificationGenerated(string login, bytes32 identity_hash);\r\n\r\n\r\n    /*\r\n       Modifier that throws an error if the msg.sender is not the owner.\r\n    */\r\n    modifier isAdmin () {\r\n        require(owner == msg.sender);\r\n        _;\r\n    }\r\n\r\n    modifier isHospital (address _hospitalMember) {\r\n        require (bytes(hospitalMembers[_hospitalMember].name).length > 0);\r\n        _;\r\n    }\r\n\r\n    modifier isPrefecture (address _prefectureMember) {\r\n        require (bytes(prefectureMembers[_prefectureMember].name).length > 0);\r\n        _;\r\n    }\r\n\r\n    modifier isCityHall (address _cityHallMember) {\r\n        require (bytes(cityHallMembers[_cityHallMember].name).length > 0);\r\n        _;\r\n    }\r\n\r\n    constructor () public {\r\n        owner = msg.sender;\r\n    }\r\n    \r\n    // Help functions \r\n\r\n    // Concatenate strings\r\n    function concatenate(string memory a, string  memory b) public pure returns(string memory) {\r\n            return string(abi.encodePacked(a, b));\r\n    }\r\n\r\n    // Function to transform uint to string\r\n    function uintToString(uint v) public pure returns (string memory str) {\r\n        uint maxlength = 100;\r\n        bytes memory reversed = new bytes(maxlength);\r\n        uint i = 0;\r\n        while (v != 0) {\r\n            uint remainder = v % 10;\r\n            v = v / 10;\r\n            reversed[i++] = byte(uint8(48 + remainder));\r\n        }\r\n        bytes memory s = new bytes(i + 1);\r\n        for (uint j = 0; j <= i; j++) {\r\n            s[j] = reversed[i - j];\r\n        }\r\n        str = string(s);\r\n    }\r\n    \r\n    // Admin functions\r\n\r\n    // Add a new hospital member to the \"hospitalMembers\" mapping\r\n    function addHospitalMember (address _newMember, string memory _memberName) public isAdmin {\r\n        // Initialization of login and password\r\n        string memory _login = concatenate(\"login_\", _memberName);\r\n        string memory _password = concatenate(\"pwd_\", _memberName);\r\n        hospitalMembers[_newMember] = Authentification({\r\n            login : _login,\r\n            password : _password,\r\n            name : _memberName\r\n        });\r\n        emit LogEventAddHospitalMember(_memberName);\r\n    }\r\n\r\n    // Add a new prefecture member to the \"prefectureMembers\" mapping\r\n    function addPrefectureMember (address _newMember, string memory _memberName) public isAdmin {\r\n        // Initialization of login and password\r\n        string memory _login = concatenate(\"login_\", _memberName);\r\n        string memory _password = concatenate(\"pwd_\", _memberName);\r\n        prefectureMembers[_newMember] = Authentification({\r\n            login : _login,\r\n            password : _password,\r\n            name : _memberName\r\n        });\r\n        emit LogEventAddPrefectureMember(_memberName);\r\n    }\r\n\r\n    // Add a new city hall member to the \"cityHallMembers\" mapping\r\n    function addCityHallMember (address _newMember, string memory _memberName) public isAdmin {\r\n        // Initialization of login and password\r\n        string memory _login = concatenate(\"login_\", _memberName);\r\n        string memory _password = concatenate(\"pwd_\", _memberName);\r\n        cityHallMembers[_newMember] = Authentification({\r\n            login : _login,\r\n            password : _password,\r\n            name : _memberName\r\n        });\r\n        emit LogEventAddCityHallMember(_memberName);\r\n    }\r\n\r\n    /*\r\n        When there is a birth, a member of the hospital must declare the birth : this function creates a new birth\r\n        Only a hospital member can create a new birth\r\n    */      \r\n    function addBirth (string memory _name, string memory _lastName, string memory _birthDate, string memory _birthCity) public isHospital(msg.sender) returns(uint) {\r\n        uint birthId = birthsCount++;\r\n        births[birthId] = Birth({\r\n            name : _name,\r\n            lastName : _lastName,\r\n            birthDate : _birthDate,\r\n            birthCity : _birthCity,\r\n            isVerified : false\r\n        });\r\n        emit LogEventBirthAdded(_name, _lastName, birthId);\r\n        return birthId;\r\n    }\r\n\r\n    // get the birthId after a birth add\r\n    function getBirthId () public view returns (uint _birthId, string memory _name, string memory _lastName){\r\n        _name = \"undefined\";\r\n        _lastName = \"undefined\";\r\n        if (birthsCount >= 0) {\r\n            _birthId = birthsCount - 1;\r\n            _name = births[_birthId].name;\r\n            _lastName = births[_birthId].lastName;\r\n        }    \r\n    }\r\n    \r\n    /*\r\n        After a birth declaration, the a member of the prefecture must verifiy the citizen's identity\r\n    */\r\n    function createIdentity (uint birthId) public isPrefecture(msg.sender) returns (uint identityId) {\r\n        require(births[birthId].isVerified == false);\r\n        births[birthId].isVerified = true;\r\n        \r\n        // Initialization of login and password\r\n        string memory login = concatenate(\"login_\", births[birthId].lastName);\r\n        login = concatenate(login, births[birthId].name);\r\n        login = concatenate(login, births[birthId].birthDate);\r\n        \r\n        string memory password = concatenate(\"pwd_\", births[birthId].birthDate);\r\n        bytes32 passwordHash = keccak256(bytes(password));\r\n\r\n        bytes32 lambdaCertification = keccak256(bytes(\"new\"));\r\n\r\n        identityId = identitiesCount++;\r\n        identities[identityId] = Identity({\r\n            birthinfo : births[birthId],\r\n            maritalStatus : \"single\",\r\n            marriageDate: \"\",\r\n            deathDate: \"\",\r\n            userLogin: login\r\n        });\r\n\r\n        citizenIdentifiers[login] = Identifier({\r\n            userIdentityCount : identityId,\r\n            userPassword : passwordHash,\r\n            newCertification : lambdaCertification\r\n        });\r\n\r\n        emit LogEventVerifyIdentity(birthId, identityId);\r\n    }\r\n\r\n    function getIdentityId() public view returns (uint _identity, string memory _name, string memory _lastName){\r\n        _name = \"undefined\";\r\n        _lastName = \"undefined\";\r\n        if (identitiesCount >= 0) {\r\n            _identity = identitiesCount - 1;\r\n            _name = identities[_identity].birthinfo.name;\r\n            _lastName = identities[_identity].birthinfo.lastName;            \r\n        } \r\n    }\r\n\r\n    /*\r\n        Declare a marriage\r\n        Only a city Hall member can declare a message\r\n    */\r\n    function declareMarriage (uint identityId, string memory _marriageDate) public isCityHall(msg.sender) {\r\n        require(identities[identityId].birthinfo.isVerified == true);\r\n        \r\n        //Change marital status\r\n        identities[identityId].maritalStatus = \"married\";\r\n        identities[identityId].marriageDate = _marriageDate;\r\n\r\n        emit LogEventDeclareMarriage(_marriageDate, identityId);\r\n    }\r\n\r\n    /*\r\n        Function to allow citizen to modify password\r\n    */\r\n    function modifyMyPassword (string memory _login, string memory _oldPwd, string memory _newPwd) public{\r\n        //Verify that the user used the good password\r\n        require (citizenIdentifiers[_login].userPassword == keccak256(bytes(_oldPwd)));\r\n        bytes32 newPwd = keccak256(bytes(_newPwd));\r\n        citizenIdentifiers[_login].userPassword = newPwd;\r\n    }\r\n\r\n    /*\r\n        Function to allow citizen to generete an identity certification\r\n    */\r\n    function generateIdCertification (string memory login, string memory pwd) public returns (bytes32){\r\n        //Verify that the user used the good password\r\n        require (citizenIdentifiers[login].userPassword == keccak256(bytes(pwd)));\r\n        // Get the user identity count\r\n        uint userIdCount = citizenIdentifiers[login].userIdentityCount;\r\n        string memory userIdCountString = uintToString(userIdCount);\r\n        string memory contIdentifiers = concatenate(userIdCountString, pwd);\r\n        bytes32 identity_hash = keccak256(bytes(contIdentifiers));\r\n        citizenIdentifiers[login].newCertification = identity_hash;\r\n        // add certification to mapping\r\n        idCertifications[identity_hash] = citizenIdentifiers[login];\r\n        emit LogEventCertificationGenerated(login, identity_hash);\r\n        return identity_hash;\r\n    }\r\n    \r\n    // function to get the lastCertification\r\n    function getCertification(string memory _login) public view returns (bytes32) {\r\n        return citizenIdentifiers[_login].newCertification;\r\n    }\r\n    \r\n\r\n    /*\r\n       Functions read\r\n    */\r\n\r\n    /*\r\n        Function to verify identityCertification\r\n    */\r\n\r\n    function verifyCertification (bytes32 id_hash) public view returns (string memory _name, string memory _lastName, string memory _birthDate, string memory _birthCity, string memory _maritalStatus) {\r\n        // get userIdCount\r\n        uint userIdCount = idCertifications[id_hash].userIdentityCount;\r\n        return(identities[userIdCount].birthinfo.name, identities[userIdCount].birthinfo.lastName, identities[userIdCount].birthinfo.birthDate, identities[userIdCount].birthinfo.birthCity, identities[userIdCount].maritalStatus);\r\n\r\n    }\r\n    \r\n    function readBirth(uint birthId) public view returns(string memory _name, string memory _lastName, string memory _birthDate, string memory _birthCity, bool _isVerified){\r\n        return (births[birthId].name, births[birthId].lastName, births[birthId].birthDate, births[birthId].birthCity, births[birthId].isVerified);\r\n    }        \r\n\r\n \r\n    function readIdentity(uint identityId) public view returns(string memory _name, string memory _lastName, string memory _birthDate, string memory _birthCity, string memory _maritalStatus){\r\n        require(identities[identityId].birthinfo.isVerified == true);\r\n        return (identities[identityId].birthinfo.name, identities[identityId].birthinfo.lastName, identities[identityId].birthinfo.birthDate, identities[identityId].birthinfo.birthCity, identities[identityId].maritalStatus);\r\n    }\r\n\r\n    function getBirthsCount() public view returns(uint _birthCount) {\r\n        return birthsCount; \r\n    }\r\n\r\n    function getIdentitiesCount() public view returns(uint _identitiesCount){\r\n        return identitiesCount;\r\n    }\r\n\r\n    function getOwner() public view returns(address _owner){\r\n        return owner;\r\n    }\r\n\r\n    function getHospitalMemberName(address _address) public view returns(string memory _name) {\r\n        return hospitalMembers[_address].name;\r\n    }\r\n\r\n    function isHospitalMember() public view returns(address){\r\n        address memberAddress;\r\n        if (bytes(hospitalMembers[msg.sender].name).length > 0) {\r\n            memberAddress = msg.sender;\r\n        } else {\r\n            memberAddress = 0x0000000000000000000000000000000000000000;\r\n        }\r\n        return memberAddress;\r\n    }\r\n\r\n    function isPrefectureMember() public view returns(address){\r\n        address memberAddress;\r\n        if (bytes(prefectureMembers[msg.sender].name).length > 0) {\r\n            memberAddress = msg.sender;\r\n        } else {\r\n            memberAddress = 0x0000000000000000000000000000000000000000;\r\n        }\r\n        return memberAddress;\r\n    }\r\n\r\n    function isCityHallMember() public view returns(address){\r\n        address memberAddress;\r\n        if (bytes(cityHallMembers[msg.sender].name).length > 0) {\r\n            memberAddress = msg.sender;\r\n        } else {\r\n            memberAddress = 0x0000000000000000000000000000000000000000;\r\n        }\r\n        return memberAddress;\r\n    }\r\n\r\n}",
  "sourcePath": "C:/Users/anatereza.mascarenha/Documents/Ethereum/poc_identite_v2/contracts/CivilStateV2.sol",
  "compiler": {
    "name": "solc",
    "version": "0.5.16+commit.9c3226ce.Emscripten.clang"
  },
  "schemaVersion": "3.0.22",
  "updatedAt": "2020-11-27T13:39:04.098Z",
  "networkType": "ethereum",
  "devdoc": {
    "methods": {}
  },
  "userdoc": {
    "methods": {}
  }
}