{
  "contractName": "CivilStateV2",
  "abi": [
    {
      "inputs": [],
      "payable": false,
      "stateMutability": "nonpayable",
      "type": "constructor"
    },
    {
      "anonymous": false,
      "inputs": [
        {
          "indexed": false,
          "internalType": "string",
          "name": "memberName",
          "type": "string"
        }
      ],
      "name": "LogEventAddCityHallMember",
      "type": "event"
    },
    {
      "anonymous": false,
      "inputs": [
        {
          "indexed": false,
          "internalType": "string",
          "name": "memberName",
          "type": "string"
        }
      ],
      "name": "LogEventAddHospitalMember",
      "type": "event"
    },
    {
      "anonymous": false,
      "inputs": [
        {
          "indexed": false,
          "internalType": "string",
          "name": "memberName",
          "type": "string"
        }
      ],
      "name": "LogEventAddPrefectureMember",
      "type": "event"
    },
    {
      "anonymous": false,
      "inputs": [
        {
          "indexed": false,
          "internalType": "string",
          "name": "name",
          "type": "string"
        },
        {
          "indexed": false,
          "internalType": "string",
          "name": "lastName",
          "type": "string"
        },
        {
          "indexed": false,
          "internalType": "uint256",
          "name": "birthId",
          "type": "uint256"
        }
      ],
      "name": "LogEventBirthAdded",
      "type": "event"
    },
    {
      "anonymous": false,
      "inputs": [
        {
          "indexed": false,
          "internalType": "string",
          "name": "marriageDate",
          "type": "string"
        },
        {
          "indexed": false,
          "internalType": "uint256",
          "name": "identityId",
          "type": "uint256"
        }
      ],
      "name": "LogEventDeclareMarriage",
      "type": "event"
    },
    {
      "anonymous": false,
      "inputs": [
        {
          "indexed": false,
          "internalType": "uint256",
          "name": "birthId",
          "type": "uint256"
        },
        {
          "indexed": false,
          "internalType": "uint256",
          "name": "identityId",
          "type": "uint256"
        }
      ],
      "name": "LogEventVerifyIdentity",
      "type": "event"
    },
    {
      "constant": true,
      "inputs": [],
      "name": "owner",
      "outputs": [
        {
          "internalType": "address",
          "name": "",
          "type": "address"
        }
      ],
      "payable": false,
      "stateMutability": "view",
      "type": "function"
    },
    {
      "constant": true,
      "inputs": [
        {
          "internalType": "string",
          "name": "a",
          "type": "string"
        },
        {
          "internalType": "string",
          "name": "b",
          "type": "string"
        }
      ],
      "name": "concatenate",
      "outputs": [
        {
          "internalType": "string",
          "name": "",
          "type": "string"
        }
      ],
      "payable": false,
      "stateMutability": "pure",
      "type": "function"
    },
    {
      "constant": true,
      "inputs": [
        {
          "internalType": "uint256",
          "name": "v",
          "type": "uint256"
        }
      ],
      "name": "uintToString",
      "outputs": [
        {
          "internalType": "string",
          "name": "str",
          "type": "string"
        }
      ],
      "payable": false,
      "stateMutability": "pure",
      "type": "function"
    },
    {
      "constant": false,
      "inputs": [
        {
          "internalType": "address",
          "name": "_newMember",
          "type": "address"
        },
        {
          "internalType": "string",
          "name": "_memberName",
          "type": "string"
        }
      ],
      "name": "addHospitalMember",
      "outputs": [],
      "payable": false,
      "stateMutability": "nonpayable",
      "type": "function"
    },
    {
      "constant": false,
      "inputs": [
        {
          "internalType": "address",
          "name": "_newMember",
          "type": "address"
        },
        {
          "internalType": "string",
          "name": "_memberName",
          "type": "string"
        }
      ],
      "name": "addPrefectureMember",
      "outputs": [],
      "payable": false,
      "stateMutability": "nonpayable",
      "type": "function"
    },
    {
      "constant": false,
      "inputs": [
        {
          "internalType": "address",
          "name": "_newMember",
          "type": "address"
        },
        {
          "internalType": "string",
          "name": "_memberName",
          "type": "string"
        }
      ],
      "name": "addCityHallMember",
      "outputs": [],
      "payable": false,
      "stateMutability": "nonpayable",
      "type": "function"
    },
    {
      "constant": false,
      "inputs": [
        {
          "internalType": "string",
          "name": "_name",
          "type": "string"
        },
        {
          "internalType": "string",
          "name": "_lastName",
          "type": "string"
        },
        {
          "internalType": "string",
          "name": "_birthDate",
          "type": "string"
        },
        {
          "internalType": "string",
          "name": "_birthCity",
          "type": "string"
        }
      ],
      "name": "addBirth",
      "outputs": [
        {
          "internalType": "uint256",
          "name": "",
          "type": "uint256"
        }
      ],
      "payable": false,
      "stateMutability": "nonpayable",
      "type": "function"
    },
    {
      "constant": true,
      "inputs": [],
      "name": "getBirthId",
      "outputs": [
        {
          "internalType": "uint256",
          "name": "_birthId",
          "type": "uint256"
        },
        {
          "internalType": "string",
          "name": "_name",
          "type": "string"
        },
        {
          "internalType": "string",
          "name": "_lastName",
          "type": "string"
        }
      ],
      "payable": false,
      "stateMutability": "view",
      "type": "function"
    },
    {
      "constant": false,
      "inputs": [
        {
          "internalType": "uint256",
          "name": "birthId",
          "type": "uint256"
        }
      ],
      "name": "createIdentity",
      "outputs": [
        {
          "internalType": "uint256",
          "name": "identityId",
          "type": "uint256"
        }
      ],
      "payable": false,
      "stateMutability": "nonpayable",
      "type": "function"
    },
    {
      "constant": true,
      "inputs": [],
      "name": "getIdentityId",
      "outputs": [
        {
          "internalType": "uint256",
          "name": "_identity",
          "type": "uint256"
        },
        {
          "internalType": "string",
          "name": "_name",
          "type": "string"
        },
        {
          "internalType": "string",
          "name": "_lastName",
          "type": "string"
        }
      ],
      "payable": false,
      "stateMutability": "view",
      "type": "function"
    },
    {
      "constant": false,
      "inputs": [
        {
          "internalType": "uint256",
          "name": "identityId",
          "type": "uint256"
        },
        {
          "internalType": "string",
          "name": "_marriageDate",
          "type": "string"
        }
      ],
      "name": "declareMarriage",
      "outputs": [],
      "payable": false,
      "stateMutability": "nonpayable",
      "type": "function"
    },
    {
      "constant": false,
      "inputs": [
        {
          "internalType": "string",
          "name": "login",
          "type": "string"
        },
        {
          "internalType": "string",
          "name": "pwd",
          "type": "string"
        }
      ],
      "name": "generateIdCertification",
      "outputs": [
        {
          "internalType": "bytes32",
          "name": "",
          "type": "bytes32"
        }
      ],
      "payable": false,
      "stateMutability": "nonpayable",
      "type": "function"
    },
    {
      "constant": true,
      "inputs": [
        {
          "internalType": "bytes32",
          "name": "id_hash",
          "type": "bytes32"
        }
      ],
      "name": "verifyCertification",
      "outputs": [
        {
          "internalType": "string",
          "name": "_name",
          "type": "string"
        },
        {
          "internalType": "string",
          "name": "_lastName",
          "type": "string"
        },
        {
          "internalType": "string",
          "name": "_birthDate",
          "type": "string"
        },
        {
          "internalType": "string",
          "name": "_birthCity",
          "type": "string"
        },
        {
          "internalType": "string",
          "name": "_maritalStatus",
          "type": "string"
        }
      ],
      "payable": false,
      "stateMutability": "view",
      "type": "function"
    },
    {
      "constant": true,
      "inputs": [
        {
          "internalType": "uint256",
          "name": "birthId",
          "type": "uint256"
        }
      ],
      "name": "readBirth",
      "outputs": [
        {
          "internalType": "string",
          "name": "_name",
          "type": "string"
        },
        {
          "internalType": "string",
          "name": "_lastName",
          "type": "string"
        },
        {
          "internalType": "string",
          "name": "_birthDate",
          "type": "string"
        },
        {
          "internalType": "string",
          "name": "_birthCity",
          "type": "string"
        },
        {
          "internalType": "bool",
          "name": "_isVerified",
          "type": "bool"
        }
      ],
      "payable": false,
      "stateMutability": "view",
      "type": "function"
    },
    {
      "constant": true,
      "inputs": [
        {
          "internalType": "uint256",
          "name": "identityId",
          "type": "uint256"
        }
      ],
      "name": "readIdentity",
      "outputs": [
        {
          "internalType": "string",
          "name": "_name",
          "type": "string"
        },
        {
          "internalType": "string",
          "name": "_lastName",
          "type": "string"
        },
        {
          "internalType": "string",
          "name": "_birthDate",
          "type": "string"
        },
        {
          "internalType": "string",
          "name": "_birthCity",
          "type": "string"
        },
        {
          "internalType": "string",
          "name": "_maritalStatus",
          "type": "string"
        }
      ],
      "payable": false,
      "stateMutability": "view",
      "type": "function"
    },
    {
      "constant": true,
      "inputs": [],
      "name": "getBirthsCount",
      "outputs": [
        {
          "internalType": "uint256",
          "name": "_birthCount",
          "type": "uint256"
        }
      ],
      "payable": false,
      "stateMutability": "view",
      "type": "function"
    },
    {
      "constant": true,
      "inputs": [],
      "name": "getIdentitiesCount",
      "outputs": [
        {
          "internalType": "uint256",
          "name": "_identitiesCount",
          "type": "uint256"
        }
      ],
      "payable": false,
      "stateMutability": "view",
      "type": "function"
    },
    {
      "constant": true,
      "inputs": [],
      "name": "getOwner",
      "outputs": [
        {
          "internalType": "address",
          "name": "_owner",
          "type": "address"
        }
      ],
      "payable": false,
      "stateMutability": "view",
      "type": "function"
    },
    {
      "constant": true,
      "inputs": [
        {
          "internalType": "address",
          "name": "_address",
          "type": "address"
        }
      ],
      "name": "getHospitalMemberName",
      "outputs": [
        {
          "internalType": "string",
          "name": "_name",
          "type": "string"
        }
      ],
      "payable": false,
      "stateMutability": "view",
      "type": "function"
    },
    {
      "constant": true,
      "inputs": [],
      "name": "isHospitalMember",
      "outputs": [
        {
          "internalType": "address",
          "name": "",
          "type": "address"
        }
      ],
      "payable": false,
      "stateMutability": "view",
      "type": "function"
    },
    {
      "constant": true,
      "inputs": [],
      "name": "isPrefectureMember",
      "outputs": [
        {
          "internalType": "address",
          "name": "",
          "type": "address"
        }
      ],
      "payable": false,
      "stateMutability": "view",
      "type": "function"
    },
    {
      "constant": true,
      "inputs": [],
      "name": "isCityHallMember",
      "outputs": [
        {
          "internalType": "address",
          "name": "",
          "type": "address"
        }
      ],
      "payable": false,
      "stateMutability": "view",
      "type": "function"
    }
  ],
  "bytecode": "0x60806040526000600555600060075534801561001a57600080fd5b50336000806101000a81548173ffffffffffffffffffffffffffffffffffffffff021916908373ffffffffffffffffffffffffffffffffffffffff1602179055506140d18061006a6000396000f3fe608060405234801561001057600080fd5b50600436106101425760003560e01c806384a3409d116100b8578063d0bbc1ac1161007c578063d0bbc1ac14610f54578063dea0e3f7146111ab578063df189181146112a1578063e93956791461137c578063e9e3098714611423578063eaab88d3146114e057610142565b806384a3409d14610971578063893d20e814610a365780638da5cb5b14610a80578063aac4b06214610aca578063c728da9614610cc057610142565b806341d204ad1161010a57806341d204ad146106ac57806353fb3c24146106ca578063553639091461071457806357959edc1461075e5780637006045c1461083957806382abfa971461092f57610142565b806321e15d5414610147578063266001d3146102225780632da2a898146103ed578063398dbab0146104375780633de79ac914610455575b600080fd5b6102206004803603604081101561015d57600080fd5b81019080803573ffffffffffffffffffffffffffffffffffffffff1690602001909291908035906020019064010000000081111561019a57600080fd5b8201836020820111156101ac57600080fd5b803590602001918460018302840111640100000000831117156101ce57600080fd5b91908080601f016020809104026020016040519081016040528093929190818152602001838380828437600081840152601f19601f820116905080830192505050505050509192919290505050611646565b005b6103726004803603604081101561023857600080fd5b810190808035906020019064010000000081111561025557600080fd5b82018360208201111561026757600080fd5b8035906020019184600183028401116401000000008311171561028957600080fd5b91908080601f016020809104026020016040519081016040528093929190818152602001838380828437600081840152601f19601f820116905080830192505050505050509192919290803590602001906401000000008111156102ec57600080fd5b8201836020820111156102fe57600080fd5b8035906020019184600183028401116401000000008311171561032057600080fd5b91908080601f016020809104026020016040519081016040528093929190818152602001838380828437600081840152601f19601f82011690508083019250505050505050919291929050505061187b565b6040518080602001828103825283818151815260200191508051906020019080838360005b838110156103b2578082015181840152602081019050610397565b50505050905090810190601f1680156103df5780820380516001836020036101000a031916815260200191505b509250505060405180910390f35b6103f5611943565b604051808273ffffffffffffffffffffffffffffffffffffffff1673ffffffffffffffffffffffffffffffffffffffff16815260200191505060405180910390f35b61043f6119b9565b6040518082815260200191505060405180910390f35b6104816004803603602081101561046b57600080fd5b81019080803590602001909291905050506119c3565b60405180806020018060200180602001806020018060200186810386528b818151815260200191508051906020019080838360005b838110156104d15780820151818401526020810190506104b6565b50505050905090810190601f1680156104fe5780820380516001836020036101000a031916815260200191505b5086810385528a818151815260200191508051906020019080838360005b8381101561053757808201518184015260208101905061051c565b50505050905090810190601f1680156105645780820380516001836020036101000a031916815260200191505b50868103845289818151815260200191508051906020019080838360005b8381101561059d578082015181840152602081019050610582565b50505050905090810190601f1680156105ca5780820380516001836020036101000a031916815260200191505b50868103835288818151815260200191508051906020019080838360005b838110156106035780820151818401526020810190506105e8565b50505050905090810190601f1680156106305780820380516001836020036101000a031916815260200191505b50868103825287818151815260200191508051906020019080838360005b8381101561066957808201518184015260208101905061064e565b50505050905090810190601f1680156106965780820380516001836020036101000a031916815260200191505b509a505050505050505050505060405180910390f35b6106b4611d80565b6040518082815260200191505060405180910390f35b6106d2611d8a565b604051808273ffffffffffffffffffffffffffffffffffffffff1673ffffffffffffffffffffffffffffffffffffffff16815260200191505060405180910390f35b61071c611e00565b604051808273ffffffffffffffffffffffffffffffffffffffff1673ffffffffffffffffffffffffffffffffffffffff16815260200191505060405180910390f35b6108376004803603604081101561077457600080fd5b81019080803573ffffffffffffffffffffffffffffffffffffffff169060200190929190803590602001906401000000008111156107b157600080fd5b8201836020820111156107c357600080fd5b803590602001918460018302840111640100000000831117156107e557600080fd5b91908080601f016020809104026020016040519081016040528093929190818152602001838380828437600081840152601f19601f820116905080830192505050505050509192919290505050611e76565b005b6108416120ab565b604051808481526020018060200180602001838103835285818151815260200191508051906020019080838360005b8381101561088b578082015181840152602081019050610870565b50505050905090810190601f1680156108b85780820380516001836020036101000a031916815260200191505b50838103825284818151815260200191508051906020019080838360005b838110156108f15780820151818401526020810190506108d6565b50505050905090810190601f16801561091e5780820380516001836020036101000a031916815260200191505b509550505050505060405180910390f35b61095b6004803603602081101561094557600080fd5b81019080803590602001909291905050506122a0565b6040518082815260200191505060405180910390f35b610a346004803603604081101561098757600080fd5b8101908080359060200190929190803590602001906401000000008111156109ae57600080fd5b8201836020820111156109c057600080fd5b803590602001918460018302840111640100000000831117156109e257600080fd5b91908080601f016020809104026020016040519081016040528093929190818152602001838380828437600081840152601f19601f820116905080830192505050505050509192919290505050612ad3565b005b610a3e612ca2565b604051808273ffffffffffffffffffffffffffffffffffffffff1673ffffffffffffffffffffffffffffffffffffffff16815260200191505060405180910390f35b610a88612ccb565b604051808273ffffffffffffffffffffffffffffffffffffffff1673ffffffffffffffffffffffffffffffffffffffff16815260200191505060405180910390f35b610af660048036036020811015610ae057600080fd5b8101908080359060200190929190505050612cf0565b60405180806020018060200180602001806020018615151515815260200185810385528a818151815260200191508051906020019080838360005b83811015610b4c578082015181840152602081019050610b31565b50505050905090810190601f168015610b795780820380516001836020036101000a031916815260200191505b50858103845289818151815260200191508051906020019080838360005b83811015610bb2578082015181840152602081019050610b97565b50505050905090810190601f168015610bdf5780820380516001836020036101000a031916815260200191505b50858103835288818151815260200191508051906020019080838360005b83811015610c18578082015181840152602081019050610bfd565b50505050905090810190601f168015610c455780820380516001836020036101000a031916815260200191505b50858103825287818151815260200191508051906020019080838360005b83811015610c7e578082015181840152602081019050610c63565b50505050905090810190601f168015610cab5780820380516001836020036101000a031916815260200191505b50995050505050505050505060405180910390f35b610f3e60048036036080811015610cd657600080fd5b8101908080359060200190640100000000811115610cf357600080fd5b820183602082011115610d0557600080fd5b80359060200191846001830284011164010000000083111715610d2757600080fd5b91908080601f016020809104026020016040519081016040528093929190818152602001838380828437600081840152601f19601f82011690508083019250505050505050919291929080359060200190640100000000811115610d8a57600080fd5b820183602082011115610d9c57600080fd5b80359060200191846001830284011164010000000083111715610dbe57600080fd5b91908080601f016020809104026020016040519081016040528093929190818152602001838380828437600081840152601f19601f82011690508083019250505050505050919291929080359060200190640100000000811115610e2157600080fd5b820183602082011115610e3357600080fd5b80359060200191846001830284011164010000000083111715610e5557600080fd5b91908080601f016020809104026020016040519081016040528093929190818152602001838380828437600081840152601f19601f82011690508083019250505050505050919291929080359060200190640100000000811115610eb857600080fd5b820183602082011115610eca57600080fd5b80359060200191846001830284011164010000000083111715610eec57600080fd5b91908080601f016020809104026020016040519081016040528093929190818152602001838380828437600081840152601f19601f820116905080830192505050505050509192919290505050612ff7565b6040518082815260200191505060405180910390f35b610f8060048036036020811015610f6a57600080fd5b8101908080359060200190929190505050613264565b60405180806020018060200180602001806020018060200186810386528b818151815260200191508051906020019080838360005b83811015610fd0578082015181840152602081019050610fb5565b50505050905090810190601f168015610ffd5780820380516001836020036101000a031916815260200191505b5086810385528a818151815260200191508051906020019080838360005b8381101561103657808201518184015260208101905061101b565b50505050905090810190601f1680156110635780820380516001836020036101000a031916815260200191505b50868103845289818151815260200191508051906020019080838360005b8381101561109c578082015181840152602081019050611081565b50505050905090810190601f1680156110c95780820380516001836020036101000a031916815260200191505b50868103835288818151815260200191508051906020019080838360005b838110156111025780820151818401526020810190506110e7565b50505050905090810190601f16801561112f5780820380516001836020036101000a031916815260200191505b50868103825287818151815260200191508051906020019080838360005b8381101561116857808201518184015260208101905061114d565b50505050905090810190601f1680156111955780820380516001836020036101000a031916815260200191505b509a505050505050505050505060405180910390f35b6111b361363c565b604051808481526020018060200180602001838103835285818151815260200191508051906020019080838360005b838110156111fd5780820151818401526020810190506111e2565b50505050905090810190601f16801561122a5780820380516001836020036101000a031916815260200191505b50838103825284818151815260200191508051906020019080838360005b83811015611263578082015181840152602081019050611248565b50505050905090810190601f1680156112905780820380516001836020036101000a031916815260200191505b509550505050505060405180910390f35b61137a600480360360408110156112b757600080fd5b81019080803573ffffffffffffffffffffffffffffffffffffffff169060200190929190803590602001906401000000008111156112f457600080fd5b82018360208201111561130657600080fd5b8035906020019184600183028401116401000000008311171561132857600080fd5b91908080601f016020809104026020016040519081016040528093929190818152602001838380828437600081840152601f19601f82011690508083019250505050505050919291929050505061382b565b005b6113a86004803603602081101561139257600080fd5b8101908080359060200190929190505050613a60565b6040518080602001828103825283818151815260200191508051906020019080838360005b838110156113e85780820151818401526020810190506113cd565b50505050905090810190601f1680156114155780820380516001836020036101000a031916815260200191505b509250505060405180910390f35b6114656004803603602081101561143957600080fd5b81019080803573ffffffffffffffffffffffffffffffffffffffff169060200190929190505050613bce565b6040518080602001828103825283818151815260200191508051906020019080838360005b838110156114a557808201518184015260208101905061148a565b50505050905090810190601f1680156114d25780820380516001836020036101000a031916815260200191505b509250505060405180910390f35b611630600480360360408110156114f657600080fd5b810190808035906020019064010000000081111561151357600080fd5b82018360208201111561152557600080fd5b8035906020019184600183028401116401000000008311171561154757600080fd5b91908080601f016020809104026020016040519081016040528093929190818152602001838380828437600081840152601f19601f820116905080830192505050505050509192919290803590602001906401000000008111156115aa57600080fd5b8201836020820111156115bc57600080fd5b803590602001918460018302840111640100000000831117156115de57600080fd5b91908080601f016020809104026020016040519081016040528093929190818152602001838380828437600081840152601f19601f820116905080830192505050505050509192919290505050613cb2565b6040518082815260200191505060405180910390f35b3373ffffffffffffffffffffffffffffffffffffffff166000809054906101000a900473ffffffffffffffffffffffffffffffffffffffff1673ffffffffffffffffffffffffffffffffffffffff161461169f57600080fd5b60606116e06040518060400160405280600681526020017f6c6f67696e5f00000000000000000000000000000000000000000000000000008152508361187b565b905060606117236040518060400160405280600481526020017f7077645f000000000000000000000000000000000000000000000000000000008152508461187b565b9050604051806060016040528083815260200182815260200184815250600360008673ffffffffffffffffffffffffffffffffffffffff1673ffffffffffffffffffffffffffffffffffffffff168152602001908152602001600020600082015181600001908051906020019061179b929190613ef0565b5060208201518160010190805190602001906117b8929190613ef0565b5060408201518160020190805190602001906117d5929190613ef0565b509050507f401ac4b35a7b6689f6099149d9a4590d106d0b7850a038645519383db1f9e5aa836040518080602001828103825283818151815260200191508051906020019080838360005b8381101561183b578082015181840152602081019050611820565b50505050905090810190601f1680156118685780820380516001836020036101000a031916815260200191505b509250505060405180910390a150505050565b606082826040516020018083805190602001908083835b602083106118b55780518252602082019150602081019050602083039250611892565b6001836020036101000a03801982511681845116808217855250505050505090500182805190602001908083835b6020831061190657805182526020820191506020810190506020830392506118e3565b6001836020036101000a03801982511681845116808217855250505050505090500192505050604051602081830303815290604052905092915050565b6000806000600260003373ffffffffffffffffffffffffffffffffffffffff1673ffffffffffffffffffffffffffffffffffffffff16815260200190815260200160002060020180546001816001161561010002031660029004905011156119ad573390506119b2565b600090505b8091505090565b6000600554905090565b60608060608060606000600960008881526020019081526020016000206000015490506006600082815260200190815260200160002060000160000160066000838152602001908152602001600020600001600101600660008481526020019081526020016000206000016002016006600085815260200190815260200160002060000160030160066000868152602001908152602001600020600501848054600181600116156101000203166002900480601f016020809104026020016040519081016040528092919081815260200182805460018160011615610100020316600290048015611af55780601f10611aca57610100808354040283529160200191611af5565b820191906000526020600020905b815481529060010190602001808311611ad857829003601f168201915b50505050509450838054600181600116156101000203166002900480601f016020809104026020016040519081016040528092919081815260200182805460018160011615610100020316600290048015611b915780601f10611b6657610100808354040283529160200191611b91565b820191906000526020600020905b815481529060010190602001808311611b7457829003601f168201915b50505050509350828054600181600116156101000203166002900480601f016020809104026020016040519081016040528092919081815260200182805460018160011615610100020316600290048015611c2d5780601f10611c0257610100808354040283529160200191611c2d565b820191906000526020600020905b815481529060010190602001808311611c1057829003601f168201915b50505050509250818054600181600116156101000203166002900480601f016020809104026020016040519081016040528092919081815260200182805460018160011615610100020316600290048015611cc95780601f10611c9e57610100808354040283529160200191611cc9565b820191906000526020600020905b815481529060010190602001808311611cac57829003601f168201915b50505050509150808054600181600116156101000203166002900480601f016020809104026020016040519081016040528092919081815260200182805460018160011615610100020316600290048015611d655780601f10611d3a57610100808354040283529160200191611d65565b820191906000526020600020905b815481529060010190602001808311611d4857829003601f168201915b50505050509050955095509550955095505091939590929450565b6000600754905090565b6000806000600160003373ffffffffffffffffffffffffffffffffffffffff1673ffffffffffffffffffffffffffffffffffffffff1681526020019081526020016000206002018054600181600116156101000203166002900490501115611df457339050611df9565b600090505b8091505090565b6000806000600360003373ffffffffffffffffffffffffffffffffffffffff1673ffffffffffffffffffffffffffffffffffffffff1681526020019081526020016000206002018054600181600116156101000203166002900490501115611e6a57339050611e6f565b600090505b8091505090565b3373ffffffffffffffffffffffffffffffffffffffff166000809054906101000a900473ffffffffffffffffffffffffffffffffffffffff1673ffffffffffffffffffffffffffffffffffffffff1614611ecf57600080fd5b6060611f106040518060400160405280600681526020017f6c6f67696e5f00000000000000000000000000000000000000000000000000008152508361187b565b90506060611f536040518060400160405280600481526020017f7077645f000000000000000000000000000000000000000000000000000000008152508461187b565b9050604051806060016040528083815260200182815260200184815250600160008673ffffffffffffffffffffffffffffffffffffffff1673ffffffffffffffffffffffffffffffffffffffff1681526020019081526020016000206000820151816000019080519060200190611fcb929190613ef0565b506020820151816001019080519060200190611fe8929190613ef0565b506040820151816002019080519060200190612005929190613ef0565b509050507fab3562bab9e824ea5bd0d7e0ef837e93d1f7a8f3ee468ae9cb2c04d960bfc6d4836040518080602001828103825283818151815260200191508051906020019080838360005b8381101561206b578082015181840152602081019050612050565b50505050905090810190601f1680156120985780820380516001836020036101000a031916815260200191505b509250505060405180910390a150505050565b60006060806040518060400160405280600981526020017f756e646566696e6564000000000000000000000000000000000000000000000081525091506040518060400160405280600981526020017f756e646566696e65640000000000000000000000000000000000000000000000815250905060006007541061229b576001600754039250600660008481526020019081526020016000206000016000018054600181600116156101000203166002900480601f0160208091040260200160405190810160405280929190818152602001828054600181600116156101000203166002900480156121df5780601f106121b4576101008083540402835291602001916121df565b820191906000526020600020905b8154815290600101906020018083116121c257829003601f168201915b50505050509150600660008481526020019081526020016000206000016001018054600181600116156101000203166002900480601f0160208091040260200160405190810160405280929190818152602001828054600181600116156101000203166002900480156122935780601f1061226857610100808354040283529160200191612293565b820191906000526020600020905b81548152906001019060200180831161227657829003601f168201915b505050505090505b909192565b6000336000600260008373ffffffffffffffffffffffffffffffffffffffff1673ffffffffffffffffffffffffffffffffffffffff1681526020019081526020016000206002018054600181600116156101000203166002900490501161230657600080fd5b600015156004600085815260200190815260200160002060040160009054906101000a900460ff1615151461233a57600080fd5b60016004600085815260200190815260200160002060040160006101000a81548160ff02191690831515021790555060606124586040518060400160405280600681526020017f6c6f67696e5f0000000000000000000000000000000000000000000000000000815250600460008781526020019081526020016000206001018054600181600116156101000203166002900480601f01602080910402602001604051908101604052809291908181526020018280546001816001161561010002031660029004801561244e5780601f106124235761010080835404028352916020019161244e565b820191906000526020600020905b81548152906001019060200180831161243157829003601f168201915b505050505061187b565b905060606125496040518060400160405280600481526020017f7077645f00000000000000000000000000000000000000000000000000000000815250600460008881526020019081526020016000206002018054600181600116156101000203166002900480601f01602080910402602001604051908101604052809291908181526020018280546001816001161561010002031660029004801561253f5780601f106125145761010080835404028352916020019161253f565b820191906000526020600020905b81548152906001019060200180831161252257829003601f168201915b505050505061187b565b9050600760008154809291906001019190505593506040518060c00160405280600460008881526020019081526020016000206040518060a0016040529081600082018054600181600116156101000203166002900480601f0160208091040260200160405190810160405280929190818152602001828054600181600116156101000203166002900480156126205780601f106125f557610100808354040283529160200191612620565b820191906000526020600020905b81548152906001019060200180831161260357829003601f168201915b50505050508152602001600182018054600181600116156101000203166002900480601f0160208091040260200160405190810160405280929190818152602001828054600181600116156101000203166002900480156126c25780601f10612697576101008083540402835291602001916126c2565b820191906000526020600020905b8154815290600101906020018083116126a557829003601f168201915b50505050508152602001600282018054600181600116156101000203166002900480601f0160208091040260200160405190810160405280929190818152602001828054600181600116156101000203166002900480156127645780601f1061273957610100808354040283529160200191612764565b820191906000526020600020905b81548152906001019060200180831161274757829003601f168201915b50505050508152602001600382018054600181600116156101000203166002900480601f0160208091040260200160405190810160405280929190818152602001828054600181600116156101000203166002900480156128065780601f106127db57610100808354040283529160200191612806565b820191906000526020600020905b8154815290600101906020018083116127e957829003601f168201915b505050505081526020016004820160009054906101000a900460ff16151515158152505081526020016040518060400160405280600681526020017f73696e676c6500000000000000000000000000000000000000000000000000008152508152602001604051806020016040528060008152508152602001604051806020016040528060008152508152602001838152602001828152506006600086815260200190815260200160002060008201518160000160008201518160000190805190602001906128d6929190613ef0565b5060208201518160010190805190602001906128f3929190613ef0565b506040820151816002019080519060200190612910929190613ef0565b50606082015181600301908051906020019061292d929190613ef0565b5060808201518160040160006101000a81548160ff0219169083151502179055505050602082015181600501908051906020019061296c929190613ef0565b506040820151816006019080519060200190612989929190613ef0565b5060608201518160070190805190602001906129a6929190613ef0565b5060808201518160080190805190602001906129c3929190613ef0565b5060a08201518160090190805190602001906129e0929190613ef0565b509050506040518060400160405280858152602001828152506008836040518082805190602001908083835b60208310612a2f5780518252602082019150602081019050602083039250612a0c565b6001836020036101000a0380198251168184511680821785525050505050509050019150509081526020016040518091039020600082015181600001556020820151816001019080519060200190612a88929190613ef0565b509050507f742c345840647c71e989bcfe501f009faa76e04998bb4c2ea8b4adc5ac0659998585604051808381526020018281526020019250505060405180910390a1505050919050565b336000600360008373ffffffffffffffffffffffffffffffffffffffff1673ffffffffffffffffffffffffffffffffffffffff16815260200190815260200160002060020180546001816001161561010002031660029004905011612b3757600080fd5b600115156006600085815260200190815260200160002060000160040160009054906101000a900460ff16151514612b6e57600080fd5b6040518060400160405280600781526020017f6d61727269656400000000000000000000000000000000000000000000000000815250600660008581526020019081526020016000206005019080519060200190612bcd929190613f70565b5081600660008581526020019081526020016000206006019080519060200190612bf8929190613f70565b507fc7b118d015ed4a95450d7ff616d44d5a9ff7ad9d46e3360ac8ae088efd6a555282846040518080602001838152602001828103825284818151815260200191508051906020019080838360005b83811015612c62578082015181840152602081019050612c47565b50505050905090810190601f168015612c8f5780820380516001836020036101000a031916815260200191505b50935050505060405180910390a1505050565b60008060009054906101000a900473ffffffffffffffffffffffffffffffffffffffff16905090565b6000809054906101000a900473ffffffffffffffffffffffffffffffffffffffff1681565b6060806060806000600460008781526020019081526020016000206000016004600088815260200190815260200160002060010160046000898152602001908152602001600020600201600460008a8152602001908152602001600020600301600460008b815260200190815260200160002060040160009054906101000a900460ff16848054600181600116156101000203166002900480601f016020809104026020016040519081016040528092919081815260200182805460018160011615610100020316600290048015612e095780601f10612dde57610100808354040283529160200191612e09565b820191906000526020600020905b815481529060010190602001808311612dec57829003601f168201915b50505050509450838054600181600116156101000203166002900480601f016020809104026020016040519081016040528092919081815260200182805460018160011615610100020316600290048015612ea55780601f10612e7a57610100808354040283529160200191612ea5565b820191906000526020600020905b815481529060010190602001808311612e8857829003601f168201915b50505050509350828054600181600116156101000203166002900480601f016020809104026020016040519081016040528092919081815260200182805460018160011615610100020316600290048015612f415780601f10612f1657610100808354040283529160200191612f41565b820191906000526020600020905b815481529060010190602001808311612f2457829003601f168201915b50505050509250818054600181600116156101000203166002900480601f016020809104026020016040519081016040528092919081815260200182805460018160011615610100020316600290048015612fdd5780601f10612fb257610100808354040283529160200191612fdd565b820191906000526020600020905b815481529060010190602001808311612fc057829003601f168201915b505050505091509450945094509450945091939590929450565b6000336000600160008373ffffffffffffffffffffffffffffffffffffffff1673ffffffffffffffffffffffffffffffffffffffff1681526020019081526020016000206002018054600181600116156101000203166002900490501161305d57600080fd5b6000600560008154809291906001019190505590506040518060a00160405280888152602001878152602001868152602001858152602001600015158152506004600083815260200190815260200160002060008201518160000190805190602001906130cb929190613ef0565b5060208201518160010190805190602001906130e8929190613ef0565b506040820151816002019080519060200190613105929190613ef0565b506060820151816003019080519060200190613122929190613ef0565b5060808201518160040160006101000a81548160ff0219169083151502179055509050507f975e5fd57c7c0e6b1a8c1a5d6861dce72c6672a93848401afb36caa4eb90ba83878783604051808060200180602001848152602001838103835286818151815260200191508051906020019080838360005b838110156131b4578082015181840152602081019050613199565b50505050905090810190601f1680156131e15780820380516001836020036101000a031916815260200191505b50838103825285818151815260200191508051906020019080838360005b8381101561321a5780820151818401526020810190506131ff565b50505050905090810190601f1680156132475780820380516001836020036101000a031916815260200191505b509550505050505060405180910390a18092505050949350505050565b6060806060806060600115156006600088815260200190815260200160002060000160040160009054906101000a900460ff161515146132a357600080fd5b600660008781526020019081526020016000206000016000016006600088815260200190815260200160002060000160010160066000898152602001908152602001600020600001600201600660008a8152602001908152602001600020600001600301600660008b8152602001908152602001600020600501848054600181600116156101000203166002900480601f0160208091040260200160405190810160405280929190818152602001828054600181600116156101000203166002900480156133b25780601f10613387576101008083540402835291602001916133b2565b820191906000526020600020905b81548152906001019060200180831161339557829003601f168201915b50505050509450838054600181600116156101000203166002900480601f01602080910402602001604051908101604052809291908181526020018280546001816001161561010002031660029004801561344e5780601f106134235761010080835404028352916020019161344e565b820191906000526020600020905b81548152906001019060200180831161343157829003601f168201915b50505050509350828054600181600116156101000203166002900480601f0160208091040260200160405190810160405280929190818152602001828054600181600116156101000203166002900480156134ea5780601f106134bf576101008083540402835291602001916134ea565b820191906000526020600020905b8154815290600101906020018083116134cd57829003601f168201915b50505050509250818054600181600116156101000203166002900480601f0160208091040260200160405190810160405280929190818152602001828054600181600116156101000203166002900480156135865780601f1061355b57610100808354040283529160200191613586565b820191906000526020600020905b81548152906001019060200180831161356957829003601f168201915b50505050509150808054600181600116156101000203166002900480601f0160208091040260200160405190810160405280929190818152602001828054600181600116156101000203166002900480156136225780601f106135f757610100808354040283529160200191613622565b820191906000526020600020905b81548152906001019060200180831161360557829003601f168201915b505050505090509450945094509450945091939590929450565b60006060806040518060400160405280600981526020017f756e646566696e6564000000000000000000000000000000000000000000000081525091506040518060400160405280600981526020017f756e646566696e656400000000000000000000000000000000000000000000008152509050600060055410613826576001600554039250600460008481526020019081526020016000206000018054600181600116156101000203166002900480601f01602080910402602001604051908101604052809291908181526020018280546001816001161561010002031660029004801561376d5780601f106137425761010080835404028352916020019161376d565b820191906000526020600020905b81548152906001019060200180831161375057829003601f168201915b50505050509150600460008481526020019081526020016000206001018054600181600116156101000203166002900480601f01602080910402602001604051908101604052809291908181526020018280546001816001161561010002031660029004801561381e5780601f106137f35761010080835404028352916020019161381e565b820191906000526020600020905b81548152906001019060200180831161380157829003601f168201915b505050505090505b909192565b3373ffffffffffffffffffffffffffffffffffffffff166000809054906101000a900473ffffffffffffffffffffffffffffffffffffffff1673ffffffffffffffffffffffffffffffffffffffff161461388457600080fd5b60606138c56040518060400160405280600681526020017f6c6f67696e5f00000000000000000000000000000000000000000000000000008152508361187b565b905060606139086040518060400160405280600481526020017f7077645f000000000000000000000000000000000000000000000000000000008152508461187b565b9050604051806060016040528083815260200182815260200184815250600260008673ffffffffffffffffffffffffffffffffffffffff1673ffffffffffffffffffffffffffffffffffffffff1681526020019081526020016000206000820151816000019080519060200190613980929190613ef0565b50602082015181600101908051906020019061399d929190613ef0565b5060408201518160020190805190602001906139ba929190613ef0565b509050507fa7b9cf10953e89fba48615bdedc4c557e19daee10f4f77f3ab1a2d2bb951a041836040518080602001828103825283818151815260200191508051906020019080838360005b83811015613a20578082015181840152602081019050613a05565b50505050905090810190601f168015613a4d5780820380516001836020036101000a031916815260200191505b509250505060405180910390a150505050565b60606000606490506060816040519080825280601f01601f191660200182016040528015613a9d5781602001600182028038833980820191505090505b50905060008090505b60008514613b18576000600a8681613aba57fe5b069050600a8681613ac757fe5b0495508060300160f81b838380600101945081518110613ae357fe5b60200101907effffffffffffffffffffffffffffffffffffffffffffffffffffffffffffff1916908160001a90535050613aa6565b6060600182016040519080825280601f01601f191660200182016040528015613b505781602001600182028038833980820191505090505b50905060008090505b828111613bc1578381840381518110613b6e57fe5b602001015160f81c60f81b828281518110613b8557fe5b60200101907effffffffffffffffffffffffffffffffffffffffffffffffffffffffffffff1916908160001a9053508080600101915050613b59565b5080945050505050919050565b6060600160008373ffffffffffffffffffffffffffffffffffffffff1673ffffffffffffffffffffffffffffffffffffffff1681526020019081526020016000206002018054600181600116156101000203166002900480601f016020809104026020016040519081016040528092919081815260200182805460018160011615610100020316600290048015613ca65780601f10613c7b57610100808354040283529160200191613ca6565b820191906000526020600020905b815481529060010190602001808311613c8957829003601f168201915b50505050509050919050565b600081805190602001206008846040518082805190602001908083835b60208310613cf25780518252602082019150602081019050602083039250613ccf565b6001836020036101000a03801982511681845116808217855250505050505090500191505090815260200160405180910390206001016040518082805460018160011615610100020316600290048015613d835780601f10613d61576101008083540402835291820191613d83565b820191906000526020600020905b815481529060010190602001808311613d6f575b5050915050604051809103902014613d9a57600080fd5b60006008846040518082805190602001908083835b60208310613dd25780518252602082019150602081019050602083039250613daf565b6001836020036101000a03801982511681845116808217855250505050505090500191505090815260200160405180910390206000015490506060613e1682613a60565b90506060613e24828661187b565b90506000818051906020012090506008876040518082805190602001908083835b60208310613e685780518252602082019150602081019050602083039250613e45565b6001836020036101000a0380198251168184511680821785525050505050509050019150509081526020016040518091039020600960008381526020019081526020016000206000820154816000015560018201816001019080546001816001161561010002031660029004613edf929190613ff0565b509050508094505050505092915050565b828054600181600116156101000203166002900490600052602060002090601f016020900481019282601f10613f3157805160ff1916838001178555613f5f565b82800160010185558215613f5f579182015b82811115613f5e578251825591602001919060010190613f43565b5b509050613f6c9190614077565b5090565b828054600181600116156101000203166002900490600052602060002090601f016020900481019282601f10613fb157805160ff1916838001178555613fdf565b82800160010185558215613fdf579182015b82811115613fde578251825591602001919060010190613fc3565b5b509050613fec9190614077565b5090565b828054600181600116156101000203166002900490600052602060002090601f016020900481019282601f106140295780548555614066565b8280016001018555821561406657600052602060002091601f016020900482015b8281111561406557825482559160010191906001019061404a565b5b5090506140739190614077565b5090565b61409991905b8082111561409557600081600090555060010161407d565b5090565b9056fea265627a7a72315820e6bc281f2675907d2cdffe2ea9bb66b61446d9a745e3fdc7deccb8643ac5812d64736f6c63430005100032",
  "source": "// SPDX-License-Identifier: MIT\r\npragma solidity >=0.4.21 <0.8.0;\r\n\r\n    /*\r\n        The CivilState contract keeps track of the citizen information, starting from their birth and being maintained throughout their life\r\n     */\r\ncontract CivilStateV2 {\r\n\r\n    /*\r\n        Public owner variable => the creator of the contract when it is initialized.\r\n    */\r\n    address public owner;\r\n\r\n    /*\r\n        Birth struct : add birth information\r\n    */\r\n    struct Birth {\r\n        string name;\r\n        string lastName;\r\n        // Date format : YYYYMMDD\r\n        string birthDate;\r\n        string birthCity;\r\n        bool isVerified;\r\n    }\r\n\r\n    /*\r\n        Define an Identity struct.\r\n    */\r\n    struct Identity {\r\n        Birth birthinfo;\r\n        \r\n        // Marital information\r\n        string maritalStatus;\r\n        string marriageDate;\r\n       \r\n        string deathDate;\r\n\r\n        string userLogin;\r\n        string userPassword;\r\n    }\r\n\r\n    /*\r\n        Struct to track users identifiers\r\n    */\r\n    struct Identifier {\r\n        uint userIdentityCount;\r\n        string userPassword;\r\n    }\r\n\r\n    struct Authentification {\r\n        string login;\r\n        string password;\r\n        string name;\r\n    }\r\n    \r\n    /*\r\n        Mapping to keep track of the hospital members\r\n    */\r\n    mapping (address => Authentification) hospitalMembers;\r\n\r\n    /*\r\n        Mapping to keep track of the prefecture members\r\n    */\r\n    mapping (address => Authentification) prefectureMembers;\r\n\r\n    /*\r\n        Mapping to keep track of the city hall members\r\n    */\r\n    mapping (address => Authentification) cityHallMembers;\r\n\r\n    /*\r\n       Mapping to keep track of the births (civil status).\r\n       The mapping key is an integer, the value is an Birth struct.\r\n    */\r\n    mapping (uint => Birth) births;\r\n    uint birthsCount = 0;\r\n\r\n    mapping (uint => Identity) identities;\r\n    uint identitiesCount = 0;\r\n\r\n    /*\r\n        Mapping to keep track of citizen's identifiers\r\n    */\r\n    mapping(string => Identifier) citizenIdentifiers;\r\n\r\n    /*\r\n        Mapping to keep track of identity certifications\r\n    */\r\n    mapping(bytes32 => Identifier) idCertifications;\r\n\r\n    // Events\r\n\r\n    // Event signaling that new hospital member was added\r\n    event LogEventAddHospitalMember(string memberName);\r\n    // Event signaling that new prefecture member was added\r\n    event LogEventAddPrefectureMember(string memberName);\r\n    // Event signaling that new cityHall member was added\r\n    event LogEventAddCityHallMember(string memberName);\r\n    // Event signaling that new birth member was declared\r\n    event LogEventBirthAdded (string name, string lastName, uint birthId);\r\n    // Event signaling that a new identity was verified\r\n    event LogEventVerifyIdentity(uint birthId, uint identityId);\r\n    // Event signaling that new marriage member was declared\r\n    event LogEventDeclareMarriage(string marriageDate, uint identityId);\r\n\r\n\r\n    /*\r\n       Modifier that throws an error if the msg.sender is not the owner.\r\n    */\r\n    modifier isAdmin () {\r\n        require(owner == msg.sender);\r\n        _;\r\n    }\r\n\r\n    modifier isHospital (address _hospitalMember) {\r\n        require (bytes(hospitalMembers[_hospitalMember].name).length > 0);\r\n        _;\r\n    }\r\n\r\n    modifier isPrefecture (address _prefectureMember) {\r\n        require (bytes(prefectureMembers[_prefectureMember].name).length > 0);\r\n        _;\r\n    }\r\n\r\n    modifier isCityHall (address _cityHallMember) {\r\n        require (bytes(cityHallMembers[_cityHallMember].name).length > 0);\r\n        _;\r\n    }\r\n\r\n    constructor () public {\r\n        owner = msg.sender;\r\n    }\r\n    \r\n    // Help functions \r\n\r\n    // Concatenate strings\r\n    function concatenate(string memory a, string  memory b) public pure returns(string memory) {\r\n            return string(abi.encodePacked(a, b));\r\n    }\r\n\r\n    // Function to transform uint to string\r\n    function uintToString(uint v) public pure returns (string memory str) {\r\n        uint maxlength = 100;\r\n        bytes memory reversed = new bytes(maxlength);\r\n        uint i = 0;\r\n        while (v != 0) {\r\n            uint remainder = v % 10;\r\n            v = v / 10;\r\n            reversed[i++] = byte(uint8(48 + remainder));\r\n        }\r\n        bytes memory s = new bytes(i + 1);\r\n        for (uint j = 0; j <= i; j++) {\r\n            s[j] = reversed[i - j];\r\n        }\r\n        str = string(s);\r\n    }\r\n    \r\n    // Admin functions\r\n\r\n    // Add a new hospital member to the \"hospitalMembers\" mapping\r\n    function addHospitalMember (address _newMember, string memory _memberName) public isAdmin {\r\n        // Initialization of login and password\r\n        string memory _login = concatenate(\"login_\", _memberName);\r\n        string memory _password = concatenate(\"pwd_\", _memberName);\r\n        hospitalMembers[_newMember] = Authentification({\r\n            login : _login,\r\n            password : _password,\r\n            name : _memberName\r\n        });\r\n        emit LogEventAddHospitalMember(_memberName);\r\n    }\r\n\r\n    // Add a new prefecture member to the \"prefectureMembers\" mapping\r\n    function addPrefectureMember (address _newMember, string memory _memberName) public isAdmin {\r\n        // Initialization of login and password\r\n        string memory _login = concatenate(\"login_\", _memberName);\r\n        string memory _password = concatenate(\"pwd_\", _memberName);\r\n        prefectureMembers[_newMember] = Authentification({\r\n            login : _login,\r\n            password : _password,\r\n            name : _memberName\r\n        });\r\n        emit LogEventAddPrefectureMember(_memberName);\r\n    }\r\n\r\n    // Add a new city hall member to the \"cityHallMembers\" mapping\r\n    function addCityHallMember (address _newMember, string memory _memberName) public isAdmin {\r\n        // Initialization of login and password\r\n        string memory _login = concatenate(\"login_\", _memberName);\r\n        string memory _password = concatenate(\"pwd_\", _memberName);\r\n        cityHallMembers[_newMember] = Authentification({\r\n            login : _login,\r\n            password : _password,\r\n            name : _memberName\r\n        });\r\n        emit LogEventAddCityHallMember(_memberName);\r\n    }\r\n\r\n    /*\r\n        When there is a birth, a member of the hospital must declare the birth : this function creates a new birth\r\n        Only a hospital member can create a new birth\r\n    */      \r\n    function addBirth (string memory _name, string memory _lastName, string memory _birthDate, string memory _birthCity) public isHospital(msg.sender) returns(uint) {\r\n        uint birthId = birthsCount++;\r\n        births[birthId] = Birth({\r\n            name : _name,\r\n            lastName : _lastName,\r\n            birthDate : _birthDate,\r\n            birthCity : _birthCity,\r\n            isVerified : false\r\n        });\r\n        emit LogEventBirthAdded(_name, _lastName, birthId);\r\n        return birthId;\r\n    }\r\n\r\n    // get the birthId after a birth add\r\n    function getBirthId () public view returns (uint _birthId, string memory _name, string memory _lastName){\r\n        _name = \"undefined\";\r\n        _lastName = \"undefined\";\r\n        if (birthsCount >= 0) {\r\n            _birthId = birthsCount - 1;\r\n            _name = births[_birthId].name;\r\n            _lastName = births[_birthId].lastName;\r\n        }    \r\n    }\r\n    \r\n    /*\r\n        After a birth declaration, the a member of the prefecture must verifiy the citizen's identity\r\n    */\r\n    function createIdentity (uint birthId) public isPrefecture(msg.sender) returns (uint identityId) {\r\n        require(births[birthId].isVerified == false);\r\n        births[birthId].isVerified = true;\r\n        \r\n        // Initialization of login and password\r\n        string memory login = concatenate(\"login_\", births[birthId].lastName);\r\n        string memory password = concatenate(\"pwd_\", births[birthId].birthDate);\r\n\r\n\r\n        identityId = identitiesCount++;\r\n        identities[identityId] = Identity({\r\n            birthinfo : births[birthId],\r\n            maritalStatus : \"single\",\r\n            marriageDate: \"\",\r\n            deathDate: \"\",\r\n            userLogin: login,\r\n            userPassword: password\r\n        });\r\n\r\n        citizenIdentifiers[login] = Identifier({\r\n            userIdentityCount : identityId,\r\n            userPassword : password\r\n        });\r\n\r\n        emit LogEventVerifyIdentity(birthId, identityId);\r\n    }\r\n\r\n    function getIdentityId() public view returns (uint _identity, string memory _name, string memory _lastName){\r\n        _name = \"undefined\";\r\n        _lastName = \"undefined\";\r\n        if (identitiesCount >= 0) {\r\n            _identity = identitiesCount - 1;\r\n            _name = identities[_identity].birthinfo.name;\r\n            _lastName = identities[_identity].birthinfo.lastName;            \r\n        } \r\n    }\r\n\r\n    /*\r\n        Declare a marriage\r\n        Only a city Hall member can declare a message\r\n    */\r\n    function declareMarriage (uint identityId, string memory _marriageDate) public isCityHall(msg.sender) {\r\n        require(identities[identityId].birthinfo.isVerified == true);\r\n        \r\n        //Change marital status\r\n        identities[identityId].maritalStatus = \"married\";\r\n        identities[identityId].marriageDate = _marriageDate;\r\n\r\n        emit LogEventDeclareMarriage(_marriageDate, identityId);\r\n    }\r\n\r\n    /*\r\n        Function to allow citizen to generete an identity certification\r\n    */\r\n    function generateIdCertification (string memory login, string memory pwd) public returns (bytes32){\r\n        //Verify that the user used the good password\r\n        require (keccak256(bytes(citizenIdentifiers[login].userPassword)) == keccak256(bytes(pwd)));\r\n        // Get the user identity count\r\n        uint userIdCount = citizenIdentifiers[login].userIdentityCount;\r\n        string memory userIdCountString = uintToString(userIdCount);\r\n        string memory contIdentifiers = concatenate(userIdCountString, pwd);\r\n        bytes32 identity_hash = keccak256(bytes(contIdentifiers));\r\n        // add certification to mapping\r\n        idCertifications[identity_hash] = citizenIdentifiers[login];\r\n        return identity_hash;\r\n    }\r\n    \r\n\r\n    /*\r\n       Functions read\r\n    */\r\n\r\n    /*\r\n        Function to verify identityCertification\r\n    */\r\n\r\n    function verifyCertification (bytes32 id_hash) public view returns (string memory _name, string memory _lastName, string memory _birthDate, string memory _birthCity, string memory _maritalStatus) {\r\n        // get userIdCount\r\n        uint userIdCount = idCertifications[id_hash].userIdentityCount;\r\n        return(identities[userIdCount].birthinfo.name, identities[userIdCount].birthinfo.lastName, identities[userIdCount].birthinfo.birthDate, identities[userIdCount].birthinfo.birthCity, identities[userIdCount].maritalStatus);\r\n\r\n    }\r\n    \r\n    function readBirth(uint birthId) public view returns(string memory _name, string memory _lastName, string memory _birthDate, string memory _birthCity, bool _isVerified){\r\n        return (births[birthId].name, births[birthId].lastName, births[birthId].birthDate, births[birthId].birthCity, births[birthId].isVerified);\r\n    }        \r\n\r\n \r\n    function readIdentity(uint identityId) public view returns(string memory _name, string memory _lastName, string memory _birthDate, string memory _birthCity, string memory _maritalStatus){\r\n        require(identities[identityId].birthinfo.isVerified == true);\r\n        return (identities[identityId].birthinfo.name, identities[identityId].birthinfo.lastName, identities[identityId].birthinfo.birthDate, identities[identityId].birthinfo.birthCity, identities[identityId].maritalStatus);\r\n    }\r\n\r\n    function getBirthsCount() public view returns(uint _birthCount) {\r\n        return birthsCount; \r\n    }\r\n\r\n    function getIdentitiesCount() public view returns(uint _identitiesCount){\r\n        return identitiesCount;\r\n    }\r\n\r\n    function getOwner() public view returns(address _owner){\r\n        return owner;\r\n    }\r\n\r\n    function getHospitalMemberName(address _address) public view returns(string memory _name) {\r\n        return hospitalMembers[_address].name;\r\n    }\r\n\r\n    function isHospitalMember() public view returns(address){\r\n        address memberAddress;\r\n        if (bytes(hospitalMembers[msg.sender].name).length > 0) {\r\n            memberAddress = msg.sender;\r\n        } else {\r\n            memberAddress = 0x0000000000000000000000000000000000000000;\r\n        }\r\n        return memberAddress;\r\n    }\r\n\r\n    function isPrefectureMember() public view returns(address){\r\n        address memberAddress;\r\n        if (bytes(prefectureMembers[msg.sender].name).length > 0) {\r\n            memberAddress = msg.sender;\r\n        } else {\r\n            memberAddress = 0x0000000000000000000000000000000000000000;\r\n        }\r\n        return memberAddress;\r\n    }\r\n\r\n    function isCityHallMember() public view returns(address){\r\n        address memberAddress;\r\n        if (bytes(cityHallMembers[msg.sender].name).length > 0) {\r\n            memberAddress = msg.sender;\r\n        } else {\r\n            memberAddress = 0x0000000000000000000000000000000000000000;\r\n        }\r\n        return memberAddress;\r\n    }\r\n\r\n}",
  "sourcePath": "C:/Users/anatereza.mascarenha/Documents/Ethereum/poc_identite_v2/contracts/CivilStateV2.sol",
  "compiler": {
    "name": "solc",
    "version": "0.5.16+commit.9c3226ce.Emscripten.clang"
  },
  "schemaVersion": "3.0.22",
  "updatedAt": "2020-11-26T16:35:52.594Z",
  "networkType": "ethereum",
  "devdoc": {
    "methods": {}
  },
  "userdoc": {
    "methods": {}
  }
}